{
  "contractName": "DonationManager",
  "abi": [
    {
      "inputs": [],
      "stateMutability": "nonpayable",
      "type": "constructor"
    },
    {
      "anonymous": false,
      "inputs": [
        {
          "indexed": true,
          "internalType": "address",
          "name": "owner",
          "type": "address"
        },
        {
          "indexed": true,
          "internalType": "address",
          "name": "spender",
          "type": "address"
        },
        {
          "indexed": false,
          "internalType": "uint256",
          "name": "value",
          "type": "uint256"
        }
      ],
      "name": "Approval",
      "type": "event"
    },
    {
      "anonymous": false,
      "inputs": [
        {
          "indexed": false,
          "internalType": "uint32",
          "name": "distributionID",
          "type": "uint32"
        },
        {
          "indexed": false,
          "internalType": "string",
          "name": "distributorName",
          "type": "string"
        },
        {
          "indexed": false,
          "internalType": "uint256",
          "name": "donationAmount",
          "type": "uint256"
        }
      ],
      "name": "LogDistributionRequest",
      "type": "event"
    },
    {
      "anonymous": false,
      "inputs": [
        {
          "indexed": false,
          "internalType": "uint32",
          "name": "distributionID",
          "type": "uint32"
        },
        {
          "indexed": false,
          "internalType": "string",
          "name": "distributorName",
          "type": "string"
        },
        {
          "indexed": false,
          "internalType": "string",
          "name": "donationName",
          "type": "string"
        },
        {
          "indexed": false,
          "internalType": "enum DonationManager.DistributionState",
          "name": "",
          "type": "uint8"
        }
      ],
      "name": "LogDistributionState",
      "type": "event"
    },
    {
      "anonymous": false,
      "inputs": [
        {
          "indexed": true,
          "internalType": "address",
          "name": "distributorAddress",
          "type": "address"
        },
        {
          "indexed": false,
          "internalType": "uint32",
          "name": "distributorID",
          "type": "uint32"
        },
        {
          "indexed": false,
          "internalType": "string",
          "name": "distributorName",
          "type": "string"
        },
        {
          "indexed": false,
          "internalType": "string",
          "name": "distributorStatus",
          "type": "string"
        }
      ],
      "name": "LogDistributorStatus",
      "type": "event"
    },
    {
      "anonymous": false,
      "inputs": [
        {
          "indexed": true,
          "internalType": "address",
          "name": "donorAddress",
          "type": "address"
        },
        {
          "indexed": false,
          "internalType": "uint256",
          "name": "withdrawAmount",
          "type": "uint256"
        },
        {
          "indexed": false,
          "internalType": "uint256",
          "name": "remainingBalance",
          "type": "uint256"
        }
      ],
      "name": "LogDistributorWithdrawal",
      "type": "event"
    },
    {
      "anonymous": false,
      "inputs": [
        {
          "indexed": false,
          "internalType": "uint32",
          "name": "donationID",
          "type": "uint32"
        },
        {
          "indexed": false,
          "internalType": "string",
          "name": "donationName",
          "type": "string"
        },
        {
          "indexed": false,
          "internalType": "enum DonationManager.DonationState",
          "name": "",
          "type": "uint8"
        }
      ],
      "name": "LogDonationState",
      "type": "event"
    },
    {
      "anonymous": false,
      "inputs": [
        {
          "indexed": true,
          "internalType": "address",
          "name": "donorAddress",
          "type": "address"
        },
        {
          "indexed": false,
          "internalType": "uint32",
          "name": "donorID",
          "type": "uint32"
        }
      ],
      "name": "LogDonorAdded",
      "type": "event"
    },
    {
      "anonymous": false,
      "inputs": [
        {
          "indexed": true,
          "internalType": "address",
          "name": "donorAddress",
          "type": "address"
        },
        {
          "indexed": false,
          "internalType": "uint256",
          "name": "donationAmount",
          "type": "uint256"
        }
      ],
      "name": "LogDonorDeposit",
      "type": "event"
    },
    {
      "anonymous": false,
      "inputs": [
        {
          "indexed": true,
          "internalType": "address",
          "name": "donorAddress",
          "type": "address"
        },
        {
          "indexed": false,
          "internalType": "uint256",
          "name": "withdrawAmount",
          "type": "uint256"
        },
        {
          "indexed": false,
          "internalType": "uint256",
          "name": "remainingBalance",
          "type": "uint256"
        }
      ],
      "name": "LogDonorWithdrawal",
      "type": "event"
    },
    {
      "anonymous": false,
      "inputs": [
        {
          "indexed": true,
          "internalType": "address",
          "name": "previousOwner",
          "type": "address"
        },
        {
          "indexed": true,
          "internalType": "address",
          "name": "newOwner",
          "type": "address"
        }
      ],
      "name": "OwnershipTransferred",
      "type": "event"
    },
    {
      "anonymous": false,
      "inputs": [
        {
          "indexed": false,
          "internalType": "address",
          "name": "account",
          "type": "address"
        }
      ],
      "name": "Paused",
      "type": "event"
    },
    {
      "anonymous": false,
      "inputs": [
        {
          "indexed": true,
          "internalType": "address",
          "name": "from",
          "type": "address"
        },
        {
          "indexed": true,
          "internalType": "address",
          "name": "to",
          "type": "address"
        },
        {
          "indexed": false,
          "internalType": "uint256",
          "name": "value",
          "type": "uint256"
        }
      ],
      "name": "Transfer",
      "type": "event"
    },
    {
      "anonymous": false,
      "inputs": [
        {
          "indexed": false,
          "internalType": "address",
          "name": "account",
          "type": "address"
        }
      ],
      "name": "Unpaused",
      "type": "event"
    },
    {
      "inputs": [
        {
          "internalType": "uint32",
          "name": "",
          "type": "uint32"
        }
      ],
      "name": "allDistributors",
      "outputs": [
        {
          "internalType": "uint32",
          "name": "distributorID",
          "type": "uint32"
        },
        {
          "internalType": "address",
          "name": "distributorAddress",
          "type": "address"
        },
        {
          "internalType": "string",
          "name": "distributorName",
          "type": "string"
        },
        {
          "internalType": "string",
          "name": "distributorCountry",
          "type": "string"
        },
        {
          "internalType": "enum DonationManager.DistributorStatus",
          "name": "distributorStatus",
          "type": "uint8"
        }
      ],
      "stateMutability": "view",
      "type": "function"
    },
    {
      "inputs": [
        {
          "internalType": "uint32",
          "name": "",
          "type": "uint32"
        }
      ],
      "name": "allDonors",
      "outputs": [
        {
          "internalType": "uint32",
          "name": "donorID",
          "type": "uint32"
        },
        {
          "internalType": "address",
          "name": "donorAddress",
          "type": "address"
        },
        {
          "internalType": "uint256",
          "name": "amountDonated",
          "type": "uint256"
        },
        {
          "internalType": "string",
          "name": "donorName",
          "type": "string"
        }
      ],
      "stateMutability": "view",
      "type": "function"
    },
    {
      "inputs": [
        {
          "internalType": "address",
          "name": "owner",
          "type": "address"
        },
        {
          "internalType": "address",
          "name": "spender",
          "type": "address"
        }
      ],
      "name": "allowance",
      "outputs": [
        {
          "internalType": "uint256",
          "name": "",
          "type": "uint256"
        }
      ],
      "stateMutability": "view",
      "type": "function"
    },
    {
      "inputs": [
        {
          "internalType": "address",
          "name": "spender",
          "type": "address"
        },
        {
          "internalType": "uint256",
          "name": "amount",
          "type": "uint256"
        }
      ],
      "name": "approve",
      "outputs": [
        {
          "internalType": "bool",
          "name": "",
          "type": "bool"
        }
      ],
      "stateMutability": "nonpayable",
      "type": "function"
    },
    {
      "inputs": [
        {
          "internalType": "address",
          "name": "account",
          "type": "address"
        }
      ],
      "name": "balanceOf",
      "outputs": [
        {
          "internalType": "uint256",
          "name": "",
          "type": "uint256"
        }
      ],
      "stateMutability": "view",
      "type": "function"
    },
    {
      "inputs": [],
      "name": "decimals",
      "outputs": [
        {
          "internalType": "uint8",
          "name": "",
          "type": "uint8"
        }
      ],
      "stateMutability": "view",
      "type": "function"
    },
    {
      "inputs": [
        {
          "internalType": "address",
          "name": "spender",
          "type": "address"
        },
        {
          "internalType": "uint256",
          "name": "subtractedValue",
          "type": "uint256"
        }
      ],
      "name": "decreaseAllowance",
      "outputs": [
        {
          "internalType": "bool",
          "name": "",
          "type": "bool"
        }
      ],
      "stateMutability": "nonpayable",
      "type": "function"
    },
    {
      "inputs": [],
      "name": "distributionCount",
      "outputs": [
        {
          "internalType": "uint32",
          "name": "",
          "type": "uint32"
        }
      ],
      "stateMutability": "view",
      "type": "function"
    },
    {
      "inputs": [
        {
          "internalType": "uint256",
          "name": "",
          "type": "uint256"
        }
      ],
      "name": "distributions",
      "outputs": [
        {
          "internalType": "uint32",
          "name": "distributionID",
          "type": "uint32"
        },
        {
          "internalType": "uint32",
          "name": "distributorID",
          "type": "uint32"
        },
        {
          "internalType": "uint32",
          "name": "donationID",
          "type": "uint32"
        },
        {
          "internalType": "uint32",
          "name": "donorID",
          "type": "uint32"
        },
        {
          "internalType": "uint256",
          "name": "distributionAmount",
          "type": "uint256"
        },
        {
          "internalType": "uint32",
          "name": "recipientCount",
          "type": "uint32"
        },
        {
          "internalType": "uint8",
          "name": "distributionMonths",
          "type": "uint8"
        },
        {
          "internalType": "bool",
          "name": "recipientDetailsAreValid",
          "type": "bool"
        },
        {
          "internalType": "enum DonationManager.DistributionState",
          "name": "distributionState",
          "type": "uint8"
        }
      ],
      "stateMutability": "view",
      "type": "function"
    },
    {
      "inputs": [],
      "name": "distributorCount",
      "outputs": [
        {
          "internalType": "uint32",
          "name": "",
          "type": "uint32"
        }
      ],
      "stateMutability": "view",
      "type": "function"
    },
    {
      "inputs": [],
      "name": "donationCount",
      "outputs": [
        {
          "internalType": "uint32",
          "name": "",
          "type": "uint32"
        }
      ],
      "stateMutability": "view",
      "type": "function"
    },
    {
      "inputs": [
        {
          "internalType": "uint256",
          "name": "",
          "type": "uint256"
        }
      ],
      "name": "donations",
      "outputs": [
        {
          "internalType": "uint32",
          "name": "donationID",
          "type": "uint32"
        },
        {
          "internalType": "uint32",
          "name": "donorID",
          "type": "uint32"
        },
        {
          "internalType": "string",
          "name": "donationName",
          "type": "string"
        },
        {
          "internalType": "uint256",
          "name": "donationAmount",
          "type": "uint256"
        },
        {
          "internalType": "uint256",
          "name": "donationGrantedAmount",
          "type": "uint256"
        },
        {
          "internalType": "uint256",
          "name": "requestedNotGrantedAmount",
          "type": "uint256"
        },
        {
          "internalType": "uint32",
          "name": "USDperRecipientPerMonth",
          "type": "uint32"
        },
        {
          "internalType": "uint8",
          "name": "adminFeePercent",
          "type": "uint8"
        },
        {
          "internalType": "enum DonationManager.DonationState",
          "name": "donationState",
          "type": "uint8"
        },
        {
          "internalType": "enum DonationManager.DonationPurpose",
          "name": "donationPurpose",
          "type": "uint8"
        }
      ],
      "stateMutability": "view",
      "type": "function"
    },
    {
      "inputs": [],
      "name": "donorCount",
      "outputs": [
        {
          "internalType": "uint32",
          "name": "",
          "type": "uint32"
        }
      ],
      "stateMutability": "view",
      "type": "function"
    },
    {
      "inputs": [
        {
          "internalType": "address",
          "name": "spender",
          "type": "address"
        },
        {
          "internalType": "uint256",
          "name": "addedValue",
          "type": "uint256"
        }
      ],
      "name": "increaseAllowance",
      "outputs": [
        {
          "internalType": "bool",
          "name": "",
          "type": "bool"
        }
      ],
      "stateMutability": "nonpayable",
      "type": "function"
    },
    {
      "inputs": [],
      "name": "name",
      "outputs": [
        {
          "internalType": "string",
          "name": "",
          "type": "string"
        }
      ],
      "stateMutability": "view",
      "type": "function"
    },
    {
      "inputs": [],
      "name": "owner",
      "outputs": [
        {
          "internalType": "address",
          "name": "",
          "type": "address"
        }
      ],
      "stateMutability": "view",
      "type": "function"
    },
    {
      "inputs": [],
      "name": "paused",
      "outputs": [
        {
          "internalType": "bool",
          "name": "",
          "type": "bool"
        }
      ],
      "stateMutability": "view",
      "type": "function"
    },
    {
      "inputs": [],
      "name": "renounceOwnership",
      "outputs": [],
      "stateMutability": "nonpayable",
      "type": "function"
    },
    {
      "inputs": [],
      "name": "symbol",
      "outputs": [
        {
          "internalType": "string",
          "name": "",
          "type": "string"
        }
      ],
      "stateMutability": "view",
      "type": "function"
    },
    {
      "inputs": [],
      "name": "totalSupply",
      "outputs": [
        {
          "internalType": "uint256",
          "name": "",
          "type": "uint256"
        }
      ],
      "stateMutability": "view",
      "type": "function"
    },
    {
      "inputs": [
        {
          "internalType": "address",
          "name": "recipient",
          "type": "address"
        },
        {
          "internalType": "uint256",
          "name": "amount",
          "type": "uint256"
        }
      ],
      "name": "transfer",
      "outputs": [
        {
          "internalType": "bool",
          "name": "",
          "type": "bool"
        }
      ],
      "stateMutability": "nonpayable",
      "type": "function"
    },
    {
      "inputs": [
        {
          "internalType": "address",
          "name": "sender",
          "type": "address"
        },
        {
          "internalType": "address",
          "name": "recipient",
          "type": "address"
        },
        {
          "internalType": "uint256",
          "name": "amount",
          "type": "uint256"
        }
      ],
      "name": "transferFrom",
      "outputs": [
        {
          "internalType": "bool",
          "name": "",
          "type": "bool"
        }
      ],
      "stateMutability": "nonpayable",
      "type": "function"
    },
    {
      "inputs": [
        {
          "internalType": "address",
          "name": "newOwner",
          "type": "address"
        }
      ],
      "name": "transferOwnership",
      "outputs": [],
      "stateMutability": "nonpayable",
      "type": "function"
    },
    {
      "inputs": [
        {
          "internalType": "string",
          "name": "_donorName",
          "type": "string"
        }
      ],
      "name": "createDonor",
      "outputs": [
        {
          "internalType": "bool",
          "name": "",
          "type": "bool"
        }
      ],
      "stateMutability": "nonpayable",
      "type": "function"
    },
    {
      "inputs": [
        {
          "internalType": "string",
          "name": "_distributorName",
          "type": "string"
        },
        {
          "internalType": "string",
          "name": "_distributorCountry",
          "type": "string"
        }
      ],
      "name": "createDistributor",
      "outputs": [
        {
          "internalType": "bool",
          "name": "",
          "type": "bool"
        }
      ],
      "stateMutability": "nonpayable",
      "type": "function"
    },
    {
      "inputs": [
        {
          "internalType": "string",
          "name": "_donationName",
          "type": "string"
        },
        {
          "internalType": "uint32",
          "name": "_donorID",
          "type": "uint32"
        },
        {
          "internalType": "uint32",
          "name": "_USDperRecipientPerMonth",
          "type": "uint32"
        },
        {
          "internalType": "uint8",
          "name": "_adminFeePercent",
          "type": "uint8"
        },
        {
          "internalType": "uint32",
          "name": "_donationPurpose",
          "type": "uint32"
        }
      ],
      "name": "createDonation",
      "outputs": [
        {
          "internalType": "bool",
          "name": "",
          "type": "bool"
        }
      ],
      "stateMutability": "nonpayable",
      "type": "function"
    },
    {
      "inputs": [
        {
          "internalType": "uint256",
          "name": "_depositAmount",
          "type": "uint256"
        }
      ],
      "name": "donorDeposit",
      "outputs": [],
      "stateMutability": "payable",
      "type": "function"
    },
    {
      "inputs": [
        {
          "internalType": "uint256",
          "name": "_donationAmount",
          "type": "uint256"
        },
        {
          "internalType": "uint32",
          "name": "_donationID",
          "type": "uint32"
        }
      ],
      "name": "makeDonation",
      "outputs": [],
      "stateMutability": "nonpayable",
      "type": "function"
    },
    {
      "inputs": [
        {
          "internalType": "uint32",
          "name": "_donationID",
          "type": "uint32"
        }
      ],
      "name": "getDonationBalance",
      "outputs": [
        {
          "internalType": "uint256",
          "name": "donatedAmount",
          "type": "uint256"
        },
        {
          "internalType": "uint256",
          "name": "grantedAmount",
          "type": "uint256"
        },
        {
          "internalType": "uint256",
          "name": "requestedNotGranted",
          "type": "uint256"
        }
      ],
      "stateMutability": "view",
      "type": "function"
    },
    {
      "inputs": [],
      "name": "getDistributorBalance",
      "outputs": [
        {
          "internalType": "uint256",
          "name": "availbleToWithdraw",
          "type": "uint256"
        }
      ],
      "stateMutability": "view",
      "type": "function"
    },
    {
      "inputs": [
        {
          "internalType": "uint32",
          "name": "_distributorID",
          "type": "uint32"
        },
        {
          "internalType": "uint32",
          "name": "_donationID",
          "type": "uint32"
        },
        {
          "internalType": "uint32",
          "name": "_recipientCount",
          "type": "uint32"
        },
        {
          "internalType": "uint8",
          "name": "_distributionMonths",
          "type": "uint8"
        },
        {
          "internalType": "bool",
          "name": "_recipientDetailsAreValid",
          "type": "bool"
        }
      ],
      "name": "createDistribution",
      "outputs": [
        {
          "internalType": "bool",
          "name": "",
          "type": "bool"
        }
      ],
      "stateMutability": "nonpayable",
      "type": "function"
    },
    {
      "inputs": [
        {
          "internalType": "uint32",
          "name": "_distributionID",
          "type": "uint32"
        }
      ],
      "name": "requestDonationFunds",
      "outputs": [],
      "stateMutability": "payable",
      "type": "function"
    },
    {
      "inputs": [
        {
          "internalType": "uint256",
          "name": "_withdrawAmount",
          "type": "uint256"
        },
        {
          "internalType": "uint32",
          "name": "_donorID",
          "type": "uint32"
        }
      ],
      "name": "donorWithdrawal",
      "outputs": [],
      "stateMutability": "payable",
      "type": "function"
    },
    {
      "inputs": [
        {
          "internalType": "uint256",
          "name": "_withdrawAmount",
          "type": "uint256"
        }
      ],
      "name": "distributorWithdrawal",
      "outputs": [],
      "stateMutability": "payable",
      "type": "function"
    },
    {
      "inputs": [],
      "name": "pause",
      "outputs": [],
      "stateMutability": "nonpayable",
      "type": "function"
    },
    {
      "inputs": [],
      "name": "unpause",
      "outputs": [],
      "stateMutability": "nonpayable",
      "type": "function"
    }
  ],
  "bytecode": "0x60806040523480156200001157600080fd5b50604051806020016040528060008152506040518060200160405280600081525081600390805190602001906200004a929190620001fd565b50806004908051906020019062000063929190620001fd565b5050506000600560006101000a81548160ff021916908315150217905550620000a1620000956200012f60201b60201c565b6200013760201b60201c565b6000600560156101000a81548163ffffffff021916908363ffffffff1602179055506000600860006101000a81548163ffffffff021916908363ffffffff1602179055506000600b60006101000a81548163ffffffff021916908363ffffffff1602179055506000600d60006101000a81548163ffffffff021916908363ffffffff16021790555062000312565b600033905090565b6000600560019054906101000a900473ffffffffffffffffffffffffffffffffffffffff16905081600560016101000a81548173ffffffffffffffffffffffffffffffffffffffff021916908373ffffffffffffffffffffffffffffffffffffffff1602179055508173ffffffffffffffffffffffffffffffffffffffff168173ffffffffffffffffffffffffffffffffffffffff167f8be0079c531659141344cd1fd0a4f28419497f9722a3daafe3b4186f6b6457e060405160405180910390a35050565b8280546200020b90620002ad565b90600052602060002090601f0160209004810192826200022f57600085556200027b565b82601f106200024a57805160ff19168380011785556200027b565b828001600101855582156200027b579182015b828111156200027a5782518255916020019190600101906200025d565b5b5090506200028a91906200028e565b5090565b5b80821115620002a95760008160009055506001016200028f565b5090565b60006002820490506001821680620002c657607f821691505b60208210811415620002dd57620002dc620002e3565b5b50919050565b7f4e487b7100000000000000000000000000000000000000000000000000000000600052602260045260246000fd5b6168a280620003226000396000f3fe60806040526004361061020f5760003560e01c80635c975abb11610118578063a457c2d7116100a0578063ca7893971161006f578063ca789397146107ed578063d9b4699d14610816578063dd62ed3e14610832578063f2fde38b1461086f578063f8626af8146108985761020f565b8063a457c2d71461071d578063a9059cbb1461075a578063c407670f14610797578063c65c3d95146107c25761020f565b8063871d8f09116100e7578063871d8f091461064e5780638a0b67401461068f5780638da5cb5b146106ab5780638f7a336b146106d657806395d89b41146106f25761020f565b80635c975abb146105b857806370a08231146105e3578063715018a6146106205780638456cb59146106375761020f565b80632abfab4d1161019b5780633ac140e81161016a5780633ac140e8146104b75780633f4ba83a146104e25780634487d3df146104f95780635531735f1461053e5780635669a0471461057b5761020f565b80632abfab4d146103e4578063313ce5671461040f57806335f3d58f1461043a578063395093511461047a5761020f565b806319d084ec116101e257806319d084ec146102e45780632266633e1461030f57806323b872dd1461032b578063244f11f2146103685780632a0521f8146103a55761020f565b806306fdde0314610214578063095ea7b31461023f5780630df11b1c1461027c57806318160ddd146102b9575b600080fd5b34801561022057600080fd5b506102296108de565b604051610236919061534b565b60405180910390f35b34801561024b57600080fd5b5061026660048036038101906102619190614ae3565b610970565b6040516102739190615330565b60405180910390f35b34801561028857600080fd5b506102a3600480360381019061029e9190614b1f565b61098e565b6040516102b09190615330565b60405180910390f35b3480156102c557600080fd5b506102ce610c17565b6040516102db919061572d565b60405180910390f35b3480156102f057600080fd5b506102f9610c21565b604051610306919061572d565b60405180910390f35b61032960048036038101906103249190614c84565b610cea565b005b34801561033757600080fd5b50610352600480360381019061034d9190614a94565b61113a565b60405161035f9190615330565b60405180910390f35b34801561037457600080fd5b5061038f600480360381019061038a9190614bcc565b611232565b60405161039c9190615330565b60405180910390f35b3480156103b157600080fd5b506103cc60048036038101906103c79190614cc0565b611532565b6040516103db93929190615771565b60405180910390f35b3480156103f057600080fd5b506103f961163a565b60405161040691906157a8565b60405180910390f35b34801561041b57600080fd5b50610424611650565b6040516104319190615ab2565b60405180910390f35b34801561044657600080fd5b50610461600480360381019061045c9190614cc0565b611659565b6040516104719493929190615824565b60405180910390f35b34801561048657600080fd5b506104a1600480360381019061049c9190614ae3565b611741565b6040516104ae9190615330565b60405180910390f35b3480156104c357600080fd5b506104cc6117ed565b6040516104d991906157a8565b60405180910390f35b3480156104ee57600080fd5b506104f7611803565b005b34801561050557600080fd5b50610520600480360381019061051b9190614c5b565b611889565b60405161053599989796959493929190615a25565b60405180910390f35b34801561054a57600080fd5b5061056560048036038101906105609190614ce9565b61195e565b6040516105729190615330565b60405180910390f35b34801561058757600080fd5b506105a2600480360381019061059d9190614b60565b612280565b6040516105af9190615330565b60405180910390f35b3480156105c457600080fd5b506105cd6125b3565b6040516105da9190615330565b60405180910390f35b3480156105ef57600080fd5b5061060a60048036038101906106059190614a2f565b6125ca565b604051610617919061572d565b60405180910390f35b34801561062c57600080fd5b50610635612612565b005b34801561064357600080fd5b5061064c61269a565b005b34801561065a57600080fd5b5061067560048036038101906106709190614cc0565b612720565b6040516106869594939291906157c3565b60405180910390f35b6106a960048036038101906106a49190614c5b565b6128a3565b005b3480156106b757600080fd5b506106c0612b3d565b6040516106cd9190615315565b60405180910390f35b6106f060048036038101906106eb9190614cc0565b612b67565b005b3480156106fe57600080fd5b506107076138d0565b604051610714919061534b565b60405180910390f35b34801561072957600080fd5b50610744600480360381019061073f9190614ae3565b613962565b6040516107519190615330565b60405180910390f35b34801561076657600080fd5b50610781600480360381019061077c9190614ae3565b613a4d565b60405161078e9190615330565b60405180910390f35b3480156107a357600080fd5b506107ac613a6b565b6040516107b991906157a8565b60405180910390f35b3480156107ce57600080fd5b506107d7613a81565b6040516107e491906157a8565b60405180910390f35b3480156107f957600080fd5b50610814600480360381019061080f9190614c84565b613a97565b005b610830600480360381019061082b9190614c5b565b613d61565b005b34801561083e57600080fd5b5061085960048036038101906108549190614a58565b613f38565b604051610866919061572d565b60405180910390f35b34801561087b57600080fd5b5061089660048036038101906108919190614a2f565b613fbf565b005b3480156108a457600080fd5b506108bf60048036038101906108ba9190614c5b565b6140b7565b6040516108d59a99989796959493929190615982565b60405180910390f35b6060600380546108ed90615d9c565b80601f016020809104026020016040519081016040528092919081815260200182805461091990615d9c565b80156109665780601f1061093b57610100808354040283529160200191610966565b820191906000526020600020905b81548152906001019060200180831161094957829003601f168201915b5050505050905090565b600061098461097d6141fa565b8484614202565b6001905092915050565b600080600a60003373ffffffffffffffffffffffffffffffffffffffff1673ffffffffffffffffffffffffffffffffffffffff1681526020019081526020016000205414610a11576040517f08c379a0000000000000000000000000000000000000000000000000000000008152600401610a089061544d565b60405180910390fd5b6040518060800160405280600560159054906101000a900463ffffffff1663ffffffff1681526020013373ffffffffffffffffffffffffffffffffffffffff168152602001600081526020018381525060066000600560159054906101000a900463ffffffff1663ffffffff1663ffffffff16815260200190815260200160002060008201518160000160006101000a81548163ffffffff021916908363ffffffff16021790555060208201518160000160046101000a81548173ffffffffffffffffffffffffffffffffffffffff021916908373ffffffffffffffffffffffffffffffffffffffff160217905550604082015181600101556060820151816002019080519060200190610b269291906148bb565b509050506000600760003373ffffffffffffffffffffffffffffffffffffffff1673ffffffffffffffffffffffffffffffffffffffff168152602001908152602001600020819055503373ffffffffffffffffffffffffffffffffffffffff167ff6d9c8bfcdca3d941752530b67d8a5449535406519e0995c2d3d91d583bb9eb6600560159054906101000a900463ffffffff16604051610bc791906157a8565b60405180910390a26001600560159054906101000a900463ffffffff16610bee9190615bb5565b600560156101000a81548163ffffffff021916908363ffffffff16021790555060019050919050565b6000600254905090565b600080600a60003373ffffffffffffffffffffffffffffffffffffffff1673ffffffffffffffffffffffffffffffffffffffff168152602001908152602001600020541015610ca5576040517f08c379a0000000000000000000000000000000000000000000000000000000008152600401610c9c9061548d565b60405180910390fd5b600a60003373ffffffffffffffffffffffffffffffffffffffff1673ffffffffffffffffffffffffffffffffffffffff16815260200190815260200160002054905090565b6000600760003373ffffffffffffffffffffffffffffffffffffffff1673ffffffffffffffffffffffffffffffffffffffff168152602001908152602001600020541015610d6d576040517f08c379a0000000000000000000000000000000000000000000000000000000008152600401610d649061566d565b60405180910390fd5b8060005b600e805490508163ffffffff161015610f20578163ffffffff16600e8263ffffffff1681548110610dcb577f4e487b7100000000000000000000000000000000000000000000000000000000600052603260045260246000fd5b9060005260206000209060030201600001600c9054906101000a900463ffffffff1663ffffffff16148015610ece575060016003811115610e35577f4e487b7100000000000000000000000000000000000000000000000000000000600052602160045260246000fd5b600e8263ffffffff1681548110610e75577f4e487b7100000000000000000000000000000000000000000000000000000000600052603260045260246000fd5b906000526020600020906003020160020160069054906101000a900460ff166003811115610ecc577f4e487b7100000000000000000000000000000000000000000000000000000000600052602160045260246000fd5b145b610f0d576040517f08c379a0000000000000000000000000000000000000000000000000000000008152600401610f04906154cd565b60405180910390fd5b8080610f1890615dff565b915050610d71565b5082600760003373ffffffffffffffffffffffffffffffffffffffff1673ffffffffffffffffffffffffffffffffffffffff168152602001908152602001600020541015610fa3576040517f08c379a0000000000000000000000000000000000000000000000000000000008152600401610f9a9061542d565b60405180910390fd5b82600760003373ffffffffffffffffffffffffffffffffffffffff1673ffffffffffffffffffffffffffffffffffffffff1681526020019081526020016000206000828254610ff29190615c2d565b925050819055503373ffffffffffffffffffffffffffffffffffffffff167fd511aaa7476b4b0f6ed1c5eafd6aea6007d77cc74b3c3bac462ae50edc989abb84600760003373ffffffffffffffffffffffffffffffffffffffff1673ffffffffffffffffffffffffffffffffffffffff16815260200190815260200160002054604051611080929190615748565b60405180910390a260003373ffffffffffffffffffffffffffffffffffffffff16846040516110ae90615300565b60006040518083038185875af1925050503d80600081146110eb576040519150601f19603f3d011682016040523d82523d6000602084013e6110f0565b606091505b5050905080611134576040517f08c379a000000000000000000000000000000000000000000000000000000000815260040161112b9061560d565b60405180910390fd5b50505050565b60006111478484846143cd565b6000600160008673ffffffffffffffffffffffffffffffffffffffff1673ffffffffffffffffffffffffffffffffffffffff16815260200190815260200160002060006111926141fa565b73ffffffffffffffffffffffffffffffffffffffff1673ffffffffffffffffffffffffffffffffffffffff16815260200190815260200160002054905082811015611212576040517f08c379a00000000000000000000000000000000000000000000000000000000081526004016112099061558d565b60405180910390fd5b6112268561121e6141fa565b858403614202565b60019150509392505050565b600080600760003373ffffffffffffffffffffffffffffffffffffffff1673ffffffffffffffffffffffffffffffffffffffff1681526020019081526020016000205410156112b6576040517f08c379a00000000000000000000000000000000000000000000000000000000081526004016112ad9061566d565b60405180910390fd5b6000600c600b60009054906101000a900463ffffffff1663ffffffff168154811061130a577f4e487b7100000000000000000000000000000000000000000000000000000000600052603260045260246000fd5b90600052602060002090600702019050858160000160046101000a81548163ffffffff021916908363ffffffff160217905550868160010190805190602001906113559291906148bb565b50600081600201819055506000816003018190555060008160040181905550848160050160006101000a81548163ffffffff021916908363ffffffff160217905550838160050160046101000a81548160ff021916908360ff16021790555060008160050160056101000a81548160ff02191690836002811115611402577f4e487b7100000000000000000000000000000000000000000000000000000000600052602160045260246000fd5b02179055508263ffffffff166002811115611446577f4e487b7100000000000000000000000000000000000000000000000000000000600052602160045260246000fd5b8160050160066101000a81548160ff02191690836002811115611492577f4e487b7100000000000000000000000000000000000000000000000000000000600052602160045260246000fd5b02179055507f6d4ebf9c7976833e896382bcf9e4f20c664a8fca4dd04e317196abcf1469de49600b60009054906101000a900463ffffffff168860006040516114dd93929190615870565b60405180910390a16001600b60009054906101000a900463ffffffff166115049190615bb5565b600b60006101000a81548163ffffffff021916908363ffffffff160217905550600191505095945050505050565b6000806000600c8463ffffffff1681548110611577577f4e487b7100000000000000000000000000000000000000000000000000000000600052603260045260246000fd5b906000526020600020906007020160020154600c8563ffffffff16815481106115c9577f4e487b7100000000000000000000000000000000000000000000000000000000600052603260045260246000fd5b906000526020600020906007020160030154600c8663ffffffff168154811061161b577f4e487b7100000000000000000000000000000000000000000000000000000000600052603260045260246000fd5b9060005260206000209060070201600401549250925092509193909250565b600b60009054906101000a900463ffffffff1681565b60006012905090565b60066020528060005260406000206000915090508060000160009054906101000a900463ffffffff16908060000160049054906101000a900473ffffffffffffffffffffffffffffffffffffffff16908060010154908060020180546116be90615d9c565b80601f01602080910402602001604051908101604052809291908181526020018280546116ea90615d9c565b80156117375780601f1061170c57610100808354040283529160200191611737565b820191906000526020600020905b81548152906001019060200180831161171a57829003601f168201915b5050505050905084565b60006117e361174e6141fa565b84846001600061175c6141fa565b73ffffffffffffffffffffffffffffffffffffffff1673ffffffffffffffffffffffffffffffffffffffff16815260200190815260200160002060008873ffffffffffffffffffffffffffffffffffffffff1673ffffffffffffffffffffffffffffffffffffffff168152602001908152602001600020546117de9190615b5f565b614202565b6001905092915050565b600860009054906101000a900463ffffffff1681565b61180b6141fa565b73ffffffffffffffffffffffffffffffffffffffff16611829612b3d565b73ffffffffffffffffffffffffffffffffffffffff161461187f576040517f08c379a0000000000000000000000000000000000000000000000000000000008152600401611876906155ad565b60405180910390fd5b61188761464e565b565b600e818154811061189957600080fd5b90600052602060002090600302016000915090508060000160009054906101000a900463ffffffff16908060000160049054906101000a900463ffffffff16908060000160089054906101000a900463ffffffff169080600001600c9054906101000a900463ffffffff16908060010154908060020160009054906101000a900463ffffffff16908060020160049054906101000a900460ff16908060020160059054906101000a900460ff16908060020160069054906101000a900460ff16905089565b600080600a60003373ffffffffffffffffffffffffffffffffffffffff1673ffffffffffffffffffffffffffffffffffffffff1681526020019081526020016000205410156119e2576040517f08c379a00000000000000000000000000000000000000000000000000000000081526004016119d99061548d565b60405180910390fd5b8460016002811115611a1d577f4e487b7100000000000000000000000000000000000000000000000000000000600052602160045260246000fd5b600c8263ffffffff1681548110611a5d577f4e487b7100000000000000000000000000000000000000000000000000000000600052603260045260246000fd5b906000526020600020906007020160050160059054906101000a900460ff166002811115611ab4577f4e487b7100000000000000000000000000000000000000000000000000000000600052602160045260246000fd5b1480611b8d5750600280811115611af4577f4e487b7100000000000000000000000000000000000000000000000000000000600052602160045260246000fd5b600c8263ffffffff1681548110611b34577f4e487b7100000000000000000000000000000000000000000000000000000000600052603260045260246000fd5b906000526020600020906007020160050160059054906101000a900460ff166002811115611b8b577f4e487b7100000000000000000000000000000000000000000000000000000000600052602160045260246000fd5b145b611bcc576040517f08c379a0000000000000000000000000000000000000000000000000000000008152600401611bc3906155ed565b60405180910390fd5b6000600c8763ffffffff1681548110611c0e577f4e487b7100000000000000000000000000000000000000000000000000000000600052603260045260246000fd5b906000526020600020906007020160050160009054906101000a900463ffffffff168560ff1687611c3f9190615bef565b611c499190615bef565b90506000600c8863ffffffff1681548110611c8d577f4e487b7100000000000000000000000000000000000000000000000000000000600052603260045260246000fd5b906000526020600020906007020160040154600c8963ffffffff1681548110611cdf577f4e487b7100000000000000000000000000000000000000000000000000000000600052603260045260246000fd5b906000526020600020906007020160030154611cfb9190615b5f565b600c8963ffffffff1681548110611d3b577f4e487b7100000000000000000000000000000000000000000000000000000000600052603260045260246000fd5b906000526020600020906007020160020154611d579190615c2d565b90508163ffffffff16811015611da2576040517f08c379a0000000000000000000000000000000000000000000000000000000008152600401611d99906154ed565b60405180910390fd5b6000600e600d60009054906101000a900463ffffffff1663ffffffff1681548110611df6577f4e487b7100000000000000000000000000000000000000000000000000000000600052603260045260246000fd5b90600052602060002090600302019050898160000160046101000a81548163ffffffff021916908363ffffffff160217905550888160000160086101000a81548163ffffffff021916908363ffffffff160217905550600c8963ffffffff1681548110611e8c577f4e487b7100000000000000000000000000000000000000000000000000000000600052603260045260246000fd5b906000526020600020906007020160000160049054906101000a900463ffffffff1681600001600c6101000a81548163ffffffff021916908363ffffffff1602179055508263ffffffff168160010181905550878160020160006101000a81548163ffffffff021916908363ffffffff160217905550868160020160046101000a81548160ff021916908360ff160217905550858160020160056101000a81548160ff02191690831515021790555060008160020160066101000a81548160ff02191690836003811115611f89577f4e487b7100000000000000000000000000000000000000000000000000000000600052602160045260246000fd5b02179055507f08ddbf2387a120cff0436b65891479eb2aeee9f0da8d2a185b7d816230e1e73b600d60009054906101000a900463ffffffff16600960008d63ffffffff1663ffffffff168152602001908152602001600020600101600c8c63ffffffff1681548110612024577f4e487b7100000000000000000000000000000000000000000000000000000000600052603260045260246000fd5b90600052602060002090600702016001016000604051612047949392919061592f565b60405180910390a18263ffffffff16600c8a63ffffffff1681548110612096577f4e487b7100000000000000000000000000000000000000000000000000000000600052603260045260246000fd5b906000526020600020906007020160040160008282546120b69190615b5f565b925050819055506001600e600d60009054906101000a900463ffffffff1663ffffffff1681548110612111577f4e487b7100000000000000000000000000000000000000000000000000000000600052603260045260246000fd5b906000526020600020906003020160020160066101000a81548160ff0219169083600381111561216a577f4e487b7100000000000000000000000000000000000000000000000000000000600052602160045260246000fd5b02179055507f08ddbf2387a120cff0436b65891479eb2aeee9f0da8d2a185b7d816230e1e73b600d60009054906101000a900463ffffffff16600960008d63ffffffff1663ffffffff168152602001908152602001600020600101600c8c63ffffffff1681548110612205577f4e487b7100000000000000000000000000000000000000000000000000000000600052603260045260246000fd5b90600052602060002090600702016001016001604051612228949392919061592f565b60405180910390a16001600d60009054906101000a900463ffffffff1661224f9190615bb5565b600d60006101000a81548163ffffffff021916908363ffffffff160217905550600194505050505095945050505050565b600080600760003373ffffffffffffffffffffffffffffffffffffffff1673ffffffffffffffffffffffffffffffffffffffff1681526020019081526020016000205414612303576040517f08c379a00000000000000000000000000000000000000000000000000000000081526004016122fa906153ad565b60405180910390fd5b6040518060a00160405280600860009054906101000a900463ffffffff1663ffffffff1681526020013373ffffffffffffffffffffffffffffffffffffffff1681526020018481526020018381526020016000600281111561238e577f4e487b7100000000000000000000000000000000000000000000000000000000600052602160045260246000fd5b81525060096000600860009054906101000a900463ffffffff1663ffffffff1663ffffffff16815260200190815260200160002060008201518160000160006101000a81548163ffffffff021916908363ffffffff16021790555060208201518160000160046101000a81548173ffffffffffffffffffffffffffffffffffffffff021916908373ffffffffffffffffffffffffffffffffffffffff160217905550604082015181600101908051906020019061244c9291906148bb565b5060608201518160020190805190602001906124699291906148bb565b5060808201518160030160006101000a81548160ff021916908360028111156124bb577f4e487b7100000000000000000000000000000000000000000000000000000000600052602160045260246000fd5b02179055509050506000600a60003373ffffffffffffffffffffffffffffffffffffffff1673ffffffffffffffffffffffffffffffffffffffff168152602001908152602001600020819055503373ffffffffffffffffffffffffffffffffffffffff167f6e89f035d4709b41769614ad48ebf15796a63117bc7c4443522ccae196a5e370600860009054906101000a900463ffffffff16856040516125629291906158ae565b60405180910390a26001600860009054906101000a900463ffffffff166125899190615bb5565b600860006101000a81548163ffffffff021916908363ffffffff1602179055506001905092915050565b6000600560009054906101000a900460ff16905090565b60008060008373ffffffffffffffffffffffffffffffffffffffff1673ffffffffffffffffffffffffffffffffffffffff168152602001908152602001600020549050919050565b61261a6141fa565b73ffffffffffffffffffffffffffffffffffffffff16612638612b3d565b73ffffffffffffffffffffffffffffffffffffffff161461268e576040517f08c379a0000000000000000000000000000000000000000000000000000000008152600401612685906155ad565b60405180910390fd5b61269860006146f0565b565b6126a26141fa565b73ffffffffffffffffffffffffffffffffffffffff166126c0612b3d565b73ffffffffffffffffffffffffffffffffffffffff1614612716576040517f08c379a000000000000000000000000000000000000000000000000000000000815260040161270d906155ad565b60405180910390fd5b61271e6147b6565b565b60096020528060005260406000206000915090508060000160009054906101000a900463ffffffff16908060000160049054906101000a900473ffffffffffffffffffffffffffffffffffffffff169080600101805461277f90615d9c565b80601f01602080910402602001604051908101604052809291908181526020018280546127ab90615d9c565b80156127f85780601f106127cd576101008083540402835291602001916127f8565b820191906000526020600020905b8154815290600101906020018083116127db57829003601f168201915b50505050509080600201805461280d90615d9c565b80601f016020809104026020016040519081016040528092919081815260200182805461283990615d9c565b80156128865780601f1061285b57610100808354040283529160200191612886565b820191906000526020600020905b81548152906001019060200180831161286957829003601f168201915b5050505050908060030160009054906101000a900460ff16905085565b6000600a60003373ffffffffffffffffffffffffffffffffffffffff1673ffffffffffffffffffffffffffffffffffffffff168152602001908152602001600020541015612926576040517f08c379a000000000000000000000000000000000000000000000000000000000815260040161291d9061548d565b60405180910390fd5b80600a60003373ffffffffffffffffffffffffffffffffffffffff1673ffffffffffffffffffffffffffffffffffffffff1681526020019081526020016000205410156129a8576040517f08c379a000000000000000000000000000000000000000000000000000000000815260040161299f9061562d565b60405180910390fd5b80600a60003373ffffffffffffffffffffffffffffffffffffffff1673ffffffffffffffffffffffffffffffffffffffff16815260200190815260200160002060008282546129f79190615c2d565b925050819055503373ffffffffffffffffffffffffffffffffffffffff167fca62fbd351618e763b8450544cf72f21d3e010b71571021a350a18a66726650782600a60003373ffffffffffffffffffffffffffffffffffffffff1673ffffffffffffffffffffffffffffffffffffffff16815260200190815260200160002054604051612a85929190615748565b60405180910390a260003373ffffffffffffffffffffffffffffffffffffffff1682604051612ab390615300565b60006040518083038185875af1925050503d8060008114612af0576040519150601f19603f3d011682016040523d82523d6000602084013e612af5565b606091505b5050905080612b39576040517f08c379a0000000000000000000000000000000000000000000000000000000008152600401612b309061560d565b60405180910390fd5b5050565b6000600560019054906101000a900473ffffffffffffffffffffffffffffffffffffffff16905090565b6000600760003373ffffffffffffffffffffffffffffffffffffffff1673ffffffffffffffffffffffffffffffffffffffff168152602001908152602001600020541015612bea576040517f08c379a0000000000000000000000000000000000000000000000000000000008152600401612be19061566d565b60405180910390fd5b806000600e8263ffffffff1681548110612c2d577f4e487b7100000000000000000000000000000000000000000000000000000000600052603260045260246000fd5b9060005260206000209060030201600101541015612c80576040517f08c379a0000000000000000000000000000000000000000000000000000000008152600401612c779061568d565b60405180910390fd5b600e8163ffffffff1681548110612cc0577f4e487b7100000000000000000000000000000000000000000000000000000000600052603260045260246000fd5b906000526020600020906003020160020160059054906101000a900460ff16612d1e576040517f08c379a0000000000000000000000000000000000000000000000000000000008152600401612d15906154ad565b60405180910390fd5b60016003811115612d58577f4e487b7100000000000000000000000000000000000000000000000000000000600052602160045260246000fd5b600e8263ffffffff1681548110612d98577f4e487b7100000000000000000000000000000000000000000000000000000000600052603260045260246000fd5b906000526020600020906003020160020160069054906101000a900460ff166003811115612def577f4e487b7100000000000000000000000000000000000000000000000000000000600052602160045260246000fd5b14612e2f576040517f08c379a0000000000000000000000000000000000000000000000000000000008152600401612e26906156ed565b60405180910390fd5b60016002811115612e69577f4e487b7100000000000000000000000000000000000000000000000000000000600052602160045260246000fd5b60096000600e8463ffffffff1681548110612ead577f4e487b7100000000000000000000000000000000000000000000000000000000600052603260045260246000fd5b906000526020600020906003020160000160049054906101000a900463ffffffff1663ffffffff1663ffffffff16815260200190815260200160002060030160009054906101000a900460ff166002811115612f32577f4e487b7100000000000000000000000000000000000000000000000000000000600052602160045260246000fd5b1415612f73576040517f08c379a0000000000000000000000000000000000000000000000000000000008152600401612f6a9061556d565b60405180910390fd5b600e8163ffffffff1681548110612fb3577f4e487b7100000000000000000000000000000000000000000000000000000000600052603260045260246000fd5b906000526020600020906003020160010154600c600e8363ffffffff1681548110613007577f4e487b7100000000000000000000000000000000000000000000000000000000600052603260045260246000fd5b906000526020600020906003020160000160089054906101000a900463ffffffff1663ffffffff1681548110613066577f4e487b7100000000000000000000000000000000000000000000000000000000600052603260045260246000fd5b90600052602060002090600702016004015410156130b9576040517f08c379a00000000000000000000000000000000000000000000000000000000081526004016130b0906156ad565b60405180910390fd5b600e8163ffffffff16815481106130f9577f4e487b7100000000000000000000000000000000000000000000000000000000600052603260045260246000fd5b906000526020600020906003020160010154600760003373ffffffffffffffffffffffffffffffffffffffff1673ffffffffffffffffffffffffffffffffffffffff16815260200190815260200160002054101561318c576040517f08c379a00000000000000000000000000000000000000000000000000000000081526004016131839061554d565b60405180910390fd5b600e8263ffffffff16815481106131cc577f4e487b7100000000000000000000000000000000000000000000000000000000600052603260045260246000fd5b906000526020600020906003020160010154600c600e8463ffffffff1681548110613220577f4e487b7100000000000000000000000000000000000000000000000000000000600052603260045260246000fd5b906000526020600020906003020160000160089054906101000a900463ffffffff1663ffffffff168154811061327f577f4e487b7100000000000000000000000000000000000000000000000000000000600052603260045260246000fd5b9060005260206000209060070201600301600082825461329f9190615b5f565b92505081905550600e8263ffffffff16815481106132e6577f4e487b7100000000000000000000000000000000000000000000000000000000600052603260045260246000fd5b906000526020600020906003020160010154600c600e8463ffffffff168154811061333a577f4e487b7100000000000000000000000000000000000000000000000000000000600052603260045260246000fd5b9060005260206000209060030201600001600c9054906101000a900463ffffffff1663ffffffff1681548110613399577f4e487b7100000000000000000000000000000000000000000000000000000000600052603260045260246000fd5b906000526020600020906007020160040160008282546133b99190615c2d565b925050819055506002600e8363ffffffff1681548110613402577f4e487b7100000000000000000000000000000000000000000000000000000000600052603260045260246000fd5b906000526020600020906003020160020160066101000a81548160ff0219169083600381111561345b577f4e487b7100000000000000000000000000000000000000000000000000000000600052602160045260246000fd5b02179055507f08ddbf2387a120cff0436b65891479eb2aeee9f0da8d2a185b7d816230e1e73b8260096000600e8663ffffffff16815481106134c6577f4e487b7100000000000000000000000000000000000000000000000000000000600052603260045260246000fd5b906000526020600020906003020160000160049054906101000a900463ffffffff1663ffffffff1663ffffffff168152602001908152602001600020600101600c600e8663ffffffff1681548110613547577f4e487b7100000000000000000000000000000000000000000000000000000000600052603260045260246000fd5b906000526020600020906003020160000160089054906101000a900463ffffffff1663ffffffff16815481106135a6577f4e487b7100000000000000000000000000000000000000000000000000000000600052603260045260246000fd5b906000526020600020906007020160010160026040516135c9949392919061592f565b60405180910390a17f6d4ebf9c7976833e896382bcf9e4f20c664a8fca4dd04e317196abcf1469de49600e8363ffffffff1681548110613632577f4e487b7100000000000000000000000000000000000000000000000000000000600052603260045260246000fd5b906000526020600020906003020160000160089054906101000a900463ffffffff16600c600e8563ffffffff1681548110613696577f4e487b7100000000000000000000000000000000000000000000000000000000600052603260045260246000fd5b906000526020600020906003020160000160089054906101000a900463ffffffff1663ffffffff16815481106136f5577f4e487b7100000000000000000000000000000000000000000000000000000000600052603260045260246000fd5b90600052602060002090600702016001016001604051613717939291906158f1565b60405180910390a1600060096000600e8563ffffffff1681548110613765577f4e487b7100000000000000000000000000000000000000000000000000000000600052603260045260246000fd5b906000526020600020906003020160000160049054906101000a900463ffffffff1663ffffffff1663ffffffff16815260200190815260200160002060000160049054906101000a900473ffffffffffffffffffffffffffffffffffffffff1690506000600e8463ffffffff1681548110613809577f4e487b7100000000000000000000000000000000000000000000000000000000600052603260045260246000fd5b906000526020600020906003020160010154905060008273ffffffffffffffffffffffffffffffffffffffff168260405161384390615300565b60006040518083038185875af1925050503d8060008114613880576040519150601f19603f3d011682016040523d82523d6000602084013e613885565b606091505b50509050806138c9576040517f08c379a00000000000000000000000000000000000000000000000000000000081526004016138c09061552d565b60405180910390fd5b5050505050565b6060600480546138df90615d9c565b80601f016020809104026020016040519081016040528092919081815260200182805461390b90615d9c565b80156139585780601f1061392d57610100808354040283529160200191613958565b820191906000526020600020905b81548152906001019060200180831161393b57829003601f168201915b5050505050905090565b600080600160006139716141fa565b73ffffffffffffffffffffffffffffffffffffffff1673ffffffffffffffffffffffffffffffffffffffff16815260200190815260200160002060008573ffffffffffffffffffffffffffffffffffffffff1673ffffffffffffffffffffffffffffffffffffffff16815260200190815260200160002054905082811015613a2e576040517f08c379a0000000000000000000000000000000000000000000000000000000008152600401613a259061570d565b60405180910390fd5b613a42613a396141fa565b85858403614202565b600191505092915050565b6000613a61613a5a6141fa565b84846143cd565b6001905092915050565b600560159054906101000a900463ffffffff1681565b600d60009054906101000a900463ffffffff1681565b6000600760003373ffffffffffffffffffffffffffffffffffffffff1673ffffffffffffffffffffffffffffffffffffffff168152602001908152602001600020541015613b1a576040517f08c379a0000000000000000000000000000000000000000000000000000000008152600401613b119061566d565b60405180910390fd5b81600660008363ffffffff1663ffffffff16815260200190815260200160002060010154600760003373ffffffffffffffffffffffffffffffffffffffff1673ffffffffffffffffffffffffffffffffffffffff16815260200190815260200160002054613b889190615c2d565b1015613bc9576040517f08c379a0000000000000000000000000000000000000000000000000000000008152600401613bc0906155cd565b60405180910390fd5b6000600c8263ffffffff1681548110613c0b577f4e487b7100000000000000000000000000000000000000000000000000000000600052603260045260246000fd5b906000526020600020906007020160000160049054906101000a900463ffffffff16905082600660008363ffffffff1663ffffffff1681526020019081526020016000206001016000828254613c619190615b5f565b9250508190555082600c8363ffffffff1681548110613ca9577f4e487b7100000000000000000000000000000000000000000000000000000000600052603260045260246000fd5b90600052602060002090600702016002016000828254613cc99190615b5f565b925050819055507f6d4ebf9c7976833e896382bcf9e4f20c664a8fca4dd04e317196abcf1469de4982600c8463ffffffff1681548110613d32577f4e487b7100000000000000000000000000000000000000000000000000000000600052603260045260246000fd5b90600052602060002090600702016001016001604051613d54939291906158f1565b60405180910390a1505050565b6000600760003373ffffffffffffffffffffffffffffffffffffffff1673ffffffffffffffffffffffffffffffffffffffff168152602001908152602001600020541015613de4576040517f08c379a0000000000000000000000000000000000000000000000000000000008152600401613ddb9061566d565b60405180910390fd5b80600760003373ffffffffffffffffffffffffffffffffffffffff1673ffffffffffffffffffffffffffffffffffffffff1681526020019081526020016000206000828254613e339190615b5f565b9250508190555060003373ffffffffffffffffffffffffffffffffffffffff1682604051613e6090615300565b60006040518083038185875af1925050503d8060008114613e9d576040519150601f19603f3d011682016040523d82523d6000602084013e613ea2565b606091505b5050905080613ee6576040517f08c379a0000000000000000000000000000000000000000000000000000000008152600401613edd9061536d565b60405180910390fd5b3373ffffffffffffffffffffffffffffffffffffffff167f77d8afee183d11db3d908fb0e5a51061864f89ac6954f40c33855d318d93190d83604051613f2c919061572d565b60405180910390a25050565b6000600160008473ffffffffffffffffffffffffffffffffffffffff1673ffffffffffffffffffffffffffffffffffffffff16815260200190815260200160002060008373ffffffffffffffffffffffffffffffffffffffff1673ffffffffffffffffffffffffffffffffffffffff16815260200190815260200160002054905092915050565b613fc76141fa565b73ffffffffffffffffffffffffffffffffffffffff16613fe5612b3d565b73ffffffffffffffffffffffffffffffffffffffff161461403b576040517f08c379a0000000000000000000000000000000000000000000000000000000008152600401614032906155ad565b60405180910390fd5b600073ffffffffffffffffffffffffffffffffffffffff168173ffffffffffffffffffffffffffffffffffffffff1614156140ab576040517f08c379a00000000000000000000000000000000000000000000000000000000081526004016140a2906153ed565b60405180910390fd5b6140b4816146f0565b50565b600c81815481106140c757600080fd5b90600052602060002090600702016000915090508060000160009054906101000a900463ffffffff16908060000160049054906101000a900463ffffffff169080600101805461411690615d9c565b80601f016020809104026020016040519081016040528092919081815260200182805461414290615d9c565b801561418f5780601f106141645761010080835404028352916020019161418f565b820191906000526020600020905b81548152906001019060200180831161417257829003601f168201915b5050505050908060020154908060030154908060040154908060050160009054906101000a900463ffffffff16908060050160049054906101000a900460ff16908060050160059054906101000a900460ff16908060050160069054906101000a900460ff1690508a565b600033905090565b600073ffffffffffffffffffffffffffffffffffffffff168373ffffffffffffffffffffffffffffffffffffffff161415614272576040517f08c379a0000000000000000000000000000000000000000000000000000000008152600401614269906156cd565b60405180910390fd5b600073ffffffffffffffffffffffffffffffffffffffff168273ffffffffffffffffffffffffffffffffffffffff1614156142e2576040517f08c379a00000000000000000000000000000000000000000000000000000000081526004016142d99061540d565b60405180910390fd5b80600160008573ffffffffffffffffffffffffffffffffffffffff1673ffffffffffffffffffffffffffffffffffffffff16815260200190815260200160002060008473ffffffffffffffffffffffffffffffffffffffff1673ffffffffffffffffffffffffffffffffffffffff168152602001908152602001600020819055508173ffffffffffffffffffffffffffffffffffffffff168373ffffffffffffffffffffffffffffffffffffffff167f8c5be1e5ebec7d5bd14f71427d1e84f3dd0314c0f7b2291e5b200ac8c7c3b925836040516143c0919061572d565b60405180910390a3505050565b600073ffffffffffffffffffffffffffffffffffffffff168373ffffffffffffffffffffffffffffffffffffffff16141561443d576040517f08c379a00000000000000000000000000000000000000000000000000000000081526004016144349061564d565b60405180910390fd5b600073ffffffffffffffffffffffffffffffffffffffff168273ffffffffffffffffffffffffffffffffffffffff1614156144ad576040517f08c379a00000000000000000000000000000000000000000000000000000000081526004016144a49061538d565b60405180910390fd5b6144b8838383614859565b60008060008573ffffffffffffffffffffffffffffffffffffffff1673ffffffffffffffffffffffffffffffffffffffff1681526020019081526020016000205490508181101561453e576040517f08c379a00000000000000000000000000000000000000000000000000000000081526004016145359061546d565b60405180910390fd5b8181036000808673ffffffffffffffffffffffffffffffffffffffff1673ffffffffffffffffffffffffffffffffffffffff16815260200190815260200160002081905550816000808573ffffffffffffffffffffffffffffffffffffffff1673ffffffffffffffffffffffffffffffffffffffff16815260200190815260200160002060008282546145d19190615b5f565b925050819055508273ffffffffffffffffffffffffffffffffffffffff168473ffffffffffffffffffffffffffffffffffffffff167fddf252ad1be2c89b69c2b068fc378daa952ba7f163c4a11628f55a4df523b3ef84604051614635919061572d565b60405180910390a36146488484846148b1565b50505050565b6146566125b3565b614695576040517f08c379a000000000000000000000000000000000000000000000000000000000815260040161468c906153cd565b60405180910390fd5b6000600560006101000a81548160ff0219169083151502179055507f5db9ee0a495bf2e6ff9c91a7834c1ba4fdd244a5e8aa4e537bd38aeae4b073aa6146d96141fa565b6040516146e69190615315565b60405180910390a1565b6000600560019054906101000a900473ffffffffffffffffffffffffffffffffffffffff16905081600560016101000a81548173ffffffffffffffffffffffffffffffffffffffff021916908373ffffffffffffffffffffffffffffffffffffffff1602179055508173ffffffffffffffffffffffffffffffffffffffff168173ffffffffffffffffffffffffffffffffffffffff167f8be0079c531659141344cd1fd0a4f28419497f9722a3daafe3b4186f6b6457e060405160405180910390a35050565b6147be6125b3565b156147fe576040517f08c379a00000000000000000000000000000000000000000000000000000000081526004016147f59061550d565b60405180910390fd5b6001600560006101000a81548160ff0219169083151502179055507f62e78cea01bee320cd4e420270b5ea74000d11b0c9f74754ebdbfc544b05a2586148426141fa565b60405161484f9190615315565b60405180910390a1565b6148616125b3565b156148a1576040517f08c379a00000000000000000000000000000000000000000000000000000000081526004016148989061550d565b60405180910390fd5b6148ac8383836148b6565b505050565b505050565b505050565b8280546148c790615d9c565b90600052602060002090601f0160209004810192826148e95760008555614930565b82601f1061490257805160ff1916838001178555614930565b82800160010185558215614930579182015b8281111561492f578251825591602001919060010190614914565b5b50905061493d9190614941565b5090565b5b8082111561495a576000816000905550600101614942565b5090565b600061497161496c84615af2565b615acd565b90508281526020810184848401111561498957600080fd5b614994848285615d5a565b509392505050565b6000813590506149ab816167f9565b92915050565b6000813590506149c081616810565b92915050565b600082601f8301126149d757600080fd5b81356149e784826020860161495e565b91505092915050565b6000813590506149ff81616827565b92915050565b600081359050614a148161683e565b92915050565b600081359050614a2981616855565b92915050565b600060208284031215614a4157600080fd5b6000614a4f8482850161499c565b91505092915050565b60008060408385031215614a6b57600080fd5b6000614a798582860161499c565b9250506020614a8a8582860161499c565b9150509250929050565b600080600060608486031215614aa957600080fd5b6000614ab78682870161499c565b9350506020614ac88682870161499c565b9250506040614ad9868287016149f0565b9150509250925092565b60008060408385031215614af657600080fd5b6000614b048582860161499c565b9250506020614b15858286016149f0565b9150509250929050565b600060208284031215614b3157600080fd5b600082013567ffffffffffffffff811115614b4b57600080fd5b614b57848285016149c6565b91505092915050565b60008060408385031215614b7357600080fd5b600083013567ffffffffffffffff811115614b8d57600080fd5b614b99858286016149c6565b925050602083013567ffffffffffffffff811115614bb657600080fd5b614bc2858286016149c6565b9150509250929050565b600080600080600060a08688031215614be457600080fd5b600086013567ffffffffffffffff811115614bfe57600080fd5b614c0a888289016149c6565b9550506020614c1b88828901614a05565b9450506040614c2c88828901614a05565b9350506060614c3d88828901614a1a565b9250506080614c4e88828901614a05565b9150509295509295909350565b600060208284031215614c6d57600080fd5b6000614c7b848285016149f0565b91505092915050565b60008060408385031215614c9757600080fd5b6000614ca5858286016149f0565b9250506020614cb685828601614a05565b9150509250929050565b600060208284031215614cd257600080fd5b6000614ce084828501614a05565b91505092915050565b600080600080600060a08688031215614d0157600080fd5b6000614d0f88828901614a05565b9550506020614d2088828901614a05565b9450506040614d3188828901614a05565b9350506060614d4288828901614a1a565b9250506080614d53888289016149b1565b9150509295509295909350565b614d6981615c61565b82525050565b614d7881615c73565b82525050565b614d8781615d12565b82525050565b614d9681615d24565b82525050565b614da581615d36565b82525050565b614db481615d48565b82525050565b6000614dc582615b38565b614dcf8185615b4e565b9350614ddf818560208601615d69565b614de881615ee8565b840191505092915050565b60008154614e0081615d9c565b614e0a8186615b4e565b94506001821660008114614e255760018114614e3757614e6a565b60ff1983168652602086019350614e6a565b614e4085615b23565b60005b83811015614e6257815481890152600182019150602081019050614e43565b808801955050505b50505092915050565b6000614e80602483615b4e565b9150614e8b82615ef9565b604082019050919050565b6000614ea3602383615b4e565b9150614eae82615f48565b604082019050919050565b6000614ec6601b83615b4e565b9150614ed182615f97565b602082019050919050565b6000614ee9601483615b4e565b9150614ef482615fc0565b602082019050919050565b6000614f0c602683615b4e565b9150614f1782615fe9565b604082019050919050565b6000614f2f602283615b4e565b9150614f3a82616038565b604082019050919050565b6000614f52602883615b4e565b9150614f5d82616087565b604082019050919050565b6000614f75602183615b4e565b9150614f80826160d6565b604082019050919050565b6000614f98602683615b4e565b9150614fa382616125565b604082019050919050565b6000614fbb602c83615b4e565b9150614fc682616174565b604082019050919050565b6000614fde603983615b4e565b9150614fe9826161c3565b604082019050919050565b6000615001602983615b4e565b915061500c82616212565b604082019050919050565b6000615024603383615b4e565b915061502f82616261565b604082019050919050565b6000615047601083615b4e565b9150615052826162b0565b602082019050919050565b600061506a602783615b4e565b9150615075826162d9565b604082019050919050565b600061508d600383615b4e565b915061509882616328565b602082019050919050565b60006150b0603083615b4e565b91506150bb82616351565b604082019050919050565b60006150d3603383615b4e565b91506150de826163a0565b604082019050919050565b60006150f6602883615b4e565b9150615101826163ef565b604082019050919050565b6000615119602083615b4e565b91506151248261643e565b602082019050919050565b600061513c602f83615b4e565b915061514782616467565b604082019050919050565b600061515f603583615b4e565b915061516a826164b6565b604082019050919050565b6000615182602583615b4e565b915061518d82616505565b604082019050919050565b60006151a5602283615b4e565b91506151b082616554565b604082019050919050565b60006151c8602583615b4e565b91506151d3826165a3565b604082019050919050565b60006151eb602683615b4e565b91506151f6826165f2565b604082019050919050565b600061520e603983615b4e565b915061521982616641565b604082019050919050565b6000615231600083615b43565b915061523c82616690565b600082019050919050565b6000615254601b83615b4e565b915061525f82616693565b602082019050919050565b6000615277602483615b4e565b9150615282826166bc565b604082019050919050565b600061529a603983615b4e565b91506152a58261670b565b604082019050919050565b60006152bd602583615b4e565b91506152c88261675a565b604082019050919050565b6152dc81615ceb565b82525050565b6152eb81615cf5565b82525050565b6152fa81615d05565b82525050565b600061530b82615224565b9150819050919050565b600060208201905061532a6000830184614d60565b92915050565b60006020820190506153456000830184614d6f565b92915050565b600060208201905081810360008301526153658184614dba565b905092915050565b6000602082019050818103600083015261538681614e73565b9050919050565b600060208201905081810360008301526153a681614e96565b9050919050565b600060208201905081810360008301526153c681614eb9565b9050919050565b600060208201905081810360008301526153e681614edc565b9050919050565b6000602082019050818103600083015261540681614eff565b9050919050565b6000602082019050818103600083015261542681614f22565b9050919050565b6000602082019050818103600083015261544681614f45565b9050919050565b6000602082019050818103600083015261546681614f68565b9050919050565b6000602082019050818103600083015261548681614f8b565b9050919050565b600060208201905081810360008301526154a681614fae565b9050919050565b600060208201905081810360008301526154c681614fd1565b9050919050565b600060208201905081810360008301526154e681614ff4565b9050919050565b6000602082019050818103600083015261550681615017565b9050919050565b600060208201905081810360008301526155268161503a565b9050919050565b600060208201905081810360008301526155468161505d565b9050919050565b60006020820190508181036000830152615566816150a3565b9050919050565b60006020820190508181036000830152615586816150c6565b9050919050565b600060208201905081810360008301526155a6816150e9565b9050919050565b600060208201905081810360008301526155c68161510c565b9050919050565b600060208201905081810360008301526155e68161512f565b9050919050565b6000602082019050818103600083015261560681615152565b9050919050565b6000602082019050818103600083015261562681615175565b9050919050565b6000602082019050818103600083015261564681615198565b9050919050565b60006020820190508181036000830152615666816151bb565b9050919050565b60006020820190508181036000830152615686816151de565b9050919050565b600060208201905081810360008301526156a681615201565b9050919050565b600060208201905081810360008301526156c681615247565b9050919050565b600060208201905081810360008301526156e68161526a565b9050919050565b600060208201905081810360008301526157068161528d565b9050919050565b60006020820190508181036000830152615726816152b0565b9050919050565b600060208201905061574260008301846152d3565b92915050565b600060408201905061575d60008301856152d3565b61576a60208301846152d3565b9392505050565b600060608201905061578660008301866152d3565b61579360208301856152d3565b6157a060408301846152d3565b949350505050565b60006020820190506157bd60008301846152e2565b92915050565b600060a0820190506157d860008301886152e2565b6157e56020830187614d60565b81810360408301526157f78186614dba565b9050818103606083015261580b8185614dba565b905061581a6080830184614d8d565b9695505050505050565b600060808201905061583960008301876152e2565b6158466020830186614d60565b61585360408301856152d3565b81810360608301526158658184614dba565b905095945050505050565b600060608201905061588560008301866152e2565b81810360208301526158978185614dba565b90506158a66040830184614dab565b949350505050565b60006060820190506158c360008301856152e2565b81810360208301526158d58184614dba565b905081810360408301526158e881615080565b90509392505050565b600060608201905061590660008301866152e2565b81810360208301526159188185614df3565b90506159276040830184614dab565b949350505050565b600060808201905061594460008301876152e2565b81810360208301526159568186614df3565b9050818103604083015261596a8185614df3565b90506159796060830184614d7e565b95945050505050565b600061014082019050615998600083018d6152e2565b6159a5602083018c6152e2565b81810360408301526159b7818b614dba565b90506159c6606083018a6152d3565b6159d360808301896152d3565b6159e060a08301886152d3565b6159ed60c08301876152e2565b6159fa60e08301866152f1565b615a08610100830185614dab565b615a16610120830184614d9c565b9b9a5050505050505050505050565b600061012082019050615a3b600083018c6152e2565b615a48602083018b6152e2565b615a55604083018a6152e2565b615a6260608301896152e2565b615a6f60808301886152d3565b615a7c60a08301876152e2565b615a8960c08301866152f1565b615a9660e0830185614d6f565b615aa4610100830184614d7e565b9a9950505050505050505050565b6000602082019050615ac760008301846152f1565b92915050565b6000615ad7615ae8565b9050615ae38282615dce565b919050565b6000604051905090565b600067ffffffffffffffff821115615b0d57615b0c615eb9565b5b615b1682615ee8565b9050602081019050919050565b60008190508160005260206000209050919050565b600081519050919050565b600081905092915050565b600082825260208201905092915050565b6000615b6a82615ceb565b9150615b7583615ceb565b9250827fffffffffffffffffffffffffffffffffffffffffffffffffffffffffffffffff03821115615baa57615ba9615e2c565b5b828201905092915050565b6000615bc082615cf5565b9150615bcb83615cf5565b92508263ffffffff03821115615be457615be3615e2c565b5b828201905092915050565b6000615bfa82615cf5565b9150615c0583615cf5565b92508163ffffffff0483118215151615615c2257615c21615e2c565b5b828202905092915050565b6000615c3882615ceb565b9150615c4383615ceb565b925082821015615c5657615c55615e2c565b5b828203905092915050565b6000615c6c82615ccb565b9050919050565b60008115159050919050565b6000819050615c8d826167a9565b919050565b6000819050615ca0826167bd565b919050565b6000819050615cb3826167d1565b919050565b6000819050615cc6826167e5565b919050565b600073ffffffffffffffffffffffffffffffffffffffff82169050919050565b6000819050919050565b600063ffffffff82169050919050565b600060ff82169050919050565b6000615d1d82615c7f565b9050919050565b6000615d2f82615c92565b9050919050565b6000615d4182615ca5565b9050919050565b6000615d5382615cb8565b9050919050565b82818337600083830152505050565b60005b83811015615d87578082015181840152602081019050615d6c565b83811115615d96576000848401525b50505050565b60006002820490506001821680615db457607f821691505b60208210811415615dc857615dc7615e8a565b5b50919050565b615dd782615ee8565b810181811067ffffffffffffffff82111715615df657615df5615eb9565b5b80604052505050565b6000615e0a82615cf5565b915063ffffffff821415615e2157615e20615e2c565b5b600182019050919050565b7f4e487b7100000000000000000000000000000000000000000000000000000000600052601160045260246000fd5b7f4e487b7100000000000000000000000000000000000000000000000000000000600052602160045260246000fd5b7f4e487b7100000000000000000000000000000000000000000000000000000000600052602260045260246000fd5b7f4e487b7100000000000000000000000000000000000000000000000000000000600052604160045260246000fd5b6000601f19601f8301169050919050565b7f4661696c656420746f206465706f7369742066756e647320746f20746865206460008201527f6f6e6f7200000000000000000000000000000000000000000000000000000000602082015250565b7f45524332303a207472616e7366657220746f20746865207a65726f206164647260008201527f6573730000000000000000000000000000000000000000000000000000000000602082015250565b7f63616e6e6f742062652063616c6c656420627920646f6e6f72732e0000000000600082015250565b7f5061757361626c653a206e6f7420706175736564000000000000000000000000600082015250565b7f4f776e61626c653a206e6577206f776e657220697320746865207a65726f206160008201527f6464726573730000000000000000000000000000000000000000000000000000602082015250565b7f45524332303a20617070726f766520746f20746865207a65726f20616464726560008201527f7373000000000000000000000000000000000000000000000000000000000000602082015250565b7f5769746864726177616c2072657175657374206578636565647320646f6e6f7260008201527f2062616c616e6365000000000000000000000000000000000000000000000000602082015250565b7f63616e6e6f742062652063616c6c6564206279206469737472696275746f727360008201527f2e00000000000000000000000000000000000000000000000000000000000000602082015250565b7f45524332303a207472616e7366657220616d6f756e742065786365656473206260008201527f616c616e63650000000000000000000000000000000000000000000000000000602082015250565b7f546869732066756e6374696f6e206973207265737472696374656420746f206460008201527f69737472696275746f72732e0000000000000000000000000000000000000000602082015250565b7f446973747269627574696f6e2063616e6e6f742070726f63656564202d20446960008201527f73747269627574696f6e206c69737420697320696e766c696400000000000000602082015250565b7f466972737420417070726f7665206f722064656e79206f70656e20646973747260008201527f69627574696f6e732e0000000000000000000000000000000000000000000000602082015250565b7f5468697320646f6e6174696f6e2068617320696e73756666696369656e74206660008201527f756e647320746f20646973747269627574652e00000000000000000000000000602082015250565b7f5061757361626c653a2070617573656400000000000000000000000000000000600082015250565b7f4661696c656420746f2073656e642066756e647320746f20746865206469737460008201527f72696275746f7200000000000000000000000000000000000000000000000000602082015250565b7f4e65770000000000000000000000000000000000000000000000000000000000600082015250565b7f446973747269627574696f6e2063616e6e6f742070726f63656564202d20696e60008201527f73756666696369656e742066756e647300000000000000000000000000000000602082015250565b7f446973747269627574696f6e2063616e6e6f742070726f63656564202d20446960008201527f737472696275746f7220756e7472757374656400000000000000000000000000602082015250565b7f45524332303a207472616e7366657220616d6f756e742065786365656473206160008201527f6c6c6f77616e6365000000000000000000000000000000000000000000000000602082015250565b7f4f776e61626c653a2063616c6c6572206973206e6f7420746865206f776e6572600082015250565b7f446f6e6174696f6e20616d6f756e74206578636565647320646f6e6f7220617660008201527f61696c61626c652062616c616e63650000000000000000000000000000000000602082015250565b7f446973747269627574696f6e2063616e6e6f742070726f6365656420756e746960008201527f6c20646f6e6174696f6e2069732066756e6465642e0000000000000000000000602082015250565b7f4661696c656420746f2077697468647261772066756e647320746f207468652060008201527f646f6e6f72000000000000000000000000000000000000000000000000000000602082015250565b7f5769746864726177616c207265717565737420657863656564732062616c616e60008201527f6365000000000000000000000000000000000000000000000000000000000000602082015250565b7f45524332303a207472616e736665722066726f6d20746865207a65726f20616460008201527f6472657373000000000000000000000000000000000000000000000000000000602082015250565b7f546869732066756e6374696f6e206973207265737472696374656420746f206460008201527f6f6e6f72732e0000000000000000000000000000000000000000000000000000602082015250565b7f446973747269627574696f6e2063616e6e6f742070726f63656564202d20446960008201527f73747269627574696f6e20616d6f756e74206973203c3d203000000000000000602082015250565b50565b7f446973747269627574696f6e2063616e6e6f742070726f636565640000000000600082015250565b7f45524332303a20617070726f76652066726f6d20746865207a65726f2061646460008201527f7265737300000000000000000000000000000000000000000000000000000000602082015250565b7f446973747269627574696f6e2063616e6e6f742070726f63656564207374617460008201527f7573206973206e6f742066756e64732072657175657374656400000000000000602082015250565b7f45524332303a2064656372656173656420616c6c6f77616e63652062656c6f7760008201527f207a65726f000000000000000000000000000000000000000000000000000000602082015250565b600481106167ba576167b9615e5b565b5b50565b600381106167ce576167cd615e5b565b5b50565b600381106167e2576167e1615e5b565b5b50565b600381106167f6576167f5615e5b565b5b50565b61680281615c61565b811461680d57600080fd5b50565b61681981615c73565b811461682457600080fd5b50565b61683081615ceb565b811461683b57600080fd5b50565b61684781615cf5565b811461685257600080fd5b50565b61685e81615d05565b811461686957600080fd5b5056fea2646970667358221220efd182d33b6c0d5e2b756c642d628536e9324f1b3a94efda26749cebf9caa44e64736f6c63430008020033",
  "immutableReferences": {},
  "source": "// SPDX-License-Identifier: MIT\npragma solidity ^0.8.2;\n\n/// @title A contract for managing donations and distribution of donated funds\n/// @author Sean Evans Nov 2021\n/// @notice This contract is meant for the Consensys academoy final project\n\nimport \"@openzeppelin/contracts/token/ERC20/ERC20.sol\";\nimport \"@openzeppelin/contracts/access/Ownable.sol\";\nimport \"@openzeppelin/contracts/security/Pausable.sol\";\n\n//contract DonationManager is Initializable, ERC20Upgradeable, PausableUpgradeable, OwnableUpgradeable, ERC20PermitUpgradeable {\ncontract DonationManager is ERC20, Pausable, Ownable {\n\n    enum DonationState      { DonationCreated, Funded, Distributing }\n    enum DonationPurpose    { FoodTokens, Hospital, Disaster }\n    enum DistributorStatus  { New, unTrusted, Trusted }\n    enum DistributionState  { DistributionCreated, FundsRequested, FundsApproved , FundsNOTApproved }\n\n    /// @dev Donor Details\n    /// @notice  AmountDonated is the amount of balance ring fenced to all donations\n    struct Donor {\n       uint32       donorID;\n       address      donorAddress;\n       uint256      amountDonated;\n       string       donorName;\n    }\n\n    /// @dev Organisation responsible for distributing funds to recipients\n    struct  Distributor {\n       uint32       distributorID;\n       address      distributorAddress;\n       string       distributorName;\n       string       distributorCountry;\n       DistributorStatus  distributorStatus;\n    }\n\n    /// @dev Currently one donor per donation but one donor can do many donations\n    /// @notice donationAmount = Funds availalbe to be claimed (must be <= donor's balance)\n    /// @notice donationGrantedAmount = Funds approved to distributions - possibly sent to distributor\n    /// @notice requestedNotGrantedAmount = Funds requested by distributors but not granted (approved) yet - potential claims\n    /// @dev A donation can have multiple distributions\n    struct  Donation {\n       uint32       donationID;\n       uint32       donorID;\n       string       donationName;\n       uint256      donationAmount;\n       uint256      donationGrantedAmount;\n       uint256      requestedNotGrantedAmount;\n       uint32       USDperRecipientPerMonth;\n       uint8        adminFeePercent;\n       DonationState    donationState;\n       DonationPurpose  donationPurpose;\n       uint32[]         distributionIDs;\n    }\n\n    /// @dev distributionAmount = USD per person * recipientCountr * distributionMonths\n    /// @notice Number of recipients with trusted details; New distributors max 1000 recipients or USD 50k\n    /// @notice Number of months to run the distribution; for example New distributors can only run 1 month\n    /// @dev recipientDetailsAreValid is not properly implemented yet: possibly check against IPFS link to unmodifiable list of trusted recipients\n    struct  Distribution {\n       uint32       distributionID;\n       uint32       distributorID;\n       uint32       donationID;\n       uint32       donorID;\n       uint256      distributionAmount;\n       uint32       recipientCount;\n       uint8        distributionMonths;\n       bool         recipientDetailsAreValid;\n       DistributionState  distributionState;\n    }\n\n    /// @dev Donors\n    uint32 public donorCount;\n    mapping (uint32 => Donor )   public allDonors;\n    mapping (address => uint256) internal donorBalances;\n    event LogDonorAdded(address indexed donorAddress, uint32 donorID);\n    event LogDonorDeposit(address indexed donorAddress, uint256 donationAmount);\n    event LogDonorWithdrawal(address indexed donorAddress, uint256 withdrawAmount, uint256 remainingBalance);\n\n    /// @dev Distributors\n    uint32 public distributorCount;\n    mapping (uint32 => Distributor ) public allDistributors;\n    mapping (address => uint256)     internal distributorBalances;\n    event LogDistributorStatus(address indexed distributorAddress, uint32 distributorID,  string distributorName, string distributorStatus);\n    event LogDistributorWithdrawal(address indexed donorAddress, uint256 withdrawAmount, uint256 remainingBalance);\n\n    /// @dev Donations\n    uint32 public donationCount;\n    /// @dev Using arrays rather than mappings where I need to iterate over the contents\n    Donation[] public donations;\n    event LogDonationState(uint32 donationID, string donationName, DonationState);\n\n    /// @dev Disrtibutions\n    uint32 public distributionCount;\n    Distribution[] public distributions;\n    event LogDistributionState(uint32 distributionID, string distributorName, string donationName, DistributionState);\n    event LogDistributionRequest(uint32 distributionID, string distributorName, uint256 donationAmount);\n\n    modifier isDonor() {\n        require(donorBalances[msg.sender] >= 0, \"This function is restricted to donors.\" );\n        _;\n    }\n\n    /// @dev A distributor cannot become a donor\n    modifier onlyDonor() {\n        require(distributorBalances[msg.sender] == 0 , \"cannot be called by distributors.\" );\n        _;\n    }\n\n    /// @dev A donor cannot become a distributor\n    modifier onlyDistributor() {\n        require(donorBalances[msg.sender] == 0 , \"cannot be called by donors.\" );\n        _;\n    }\n\n    modifier isDistributor() {\n        require(distributorBalances[msg.sender] >= 0, \"This function is restricted to distributors.\" );\n        _;\n    }\n\n    /// @dev We can proceed with distributing funds after these checks\n    /// @dev If the distributorStatus is new they cannot request funding for more than 1000 recipients\n    /// @dev The donation must have sufficient funds for the distribution\n    /// @dev The distribution list must be valid (outside the scope of this project)\n    modifier distributionCanProceed(uint32 _distributionID) {\n        require(distributions[_distributionID].distributionAmount >= 0 , \"Distribution cannot proceed - Distribution amount is <= 0\");\n        require(distributions[_distributionID].recipientDetailsAreValid , \"Distribution cannot proceed - Distribution list is invlid\");\n        require(distributions[_distributionID].distributionState == DistributionState.FundsRequested, \"Distribution cannot proceed status is not funds requested\");\n        require(allDistributors[distributions[_distributionID].distributorID].distributorStatus != DistributorStatus.unTrusted, \"Distribution cannot proceed - Distributor untrusted\");\n        require(donations[distributions[_distributionID].donationID].requestedNotGrantedAmount >= distributions[_distributionID].distributionAmount , \"Distribution cannot proceed\");\n        require(donorBalances[msg.sender] >= distributions[_distributionID].distributionAmount , \"Distribution cannot proceed - insufficient funds\");\n        _;\n    }\n\n    modifier distributionsAreUpToDate(uint32 _donorID) {\n        for (uint32 i = 0; i < distributions.length; i++) {\n            require((distributions[i].donorID == _donorID && distributions[i].distributionState  == DistributionState.FundsRequested), \"First Approve or deny open distributions.\");\n        }\n        _;\n    }\n\n    modifier donationIsFunded(uint32 _donationID) {\n        require((donations[_donationID].donationState == DonationState.Funded || donations[_donationID].donationState == DonationState.Distributing),\n        \"Distribution cannot proceed until donation is funded.\");\n        _;\n    }\n\n    constructor() ERC20(\"\", \"\") {\n        donorCount = 0;\n        distributorCount = 0;\n        donationCount = 0;\n        distributionCount = 0;\n    }\n\n    /// @dev Create a new distributor - It connot come from the same address as an exiting distributor\n    function createDonor(string memory _donorName)  public onlyDonor returns( bool ) {\n        allDonors[donorCount] = Donor( {\n            donorID     : donorCount,\n            donorAddress:  payable(msg.sender),\n            amountDonated : 0,\n            donorName   : _donorName\n        });\n        donorBalances[msg.sender] = 0;\n        emit LogDonorAdded(msg.sender, donorCount);\n        donorCount = donorCount + 1;\n        return true;\n    }\n\n    /// @dev Create a new distributor - It connot come from the same address as an exiting donor\n    function createDistributor(string memory _distributorName, string memory _distributorCountry)\n        public onlyDistributor returns ( bool ) {\n        allDistributors[distributorCount] = Distributor( {\n            distributorID   : distributorCount,\n            distributorAddress  : payable(msg.sender),\n            distributorName: _distributorName,\n            distributorCountry: _distributorCountry,\n            distributorStatus: DistributorStatus.New\n        });\n        /// @notice  Set the donation balance to\n        distributorBalances[msg.sender] = 0;\n        emit LogDistributorStatus(msg.sender, distributorCount, _distributorName, \"New\");\n        distributorCount = distributorCount + 1;\n        return true;\n    }\n\n    /// @dev Create a new Donation. It can only be created by donors\n    function createDonation(string memory _donationName, uint32  _donorID,\n        uint32  _USDperRecipientPerMonth, uint8  _adminFeePercent, uint32 _donationPurpose)\n        public isDonor returns ( bool ) {\n        Donation storage d = donations[donationCount];\n        d.donorID                 = _donorID;\n        d.donationName            = _donationName;\n        d.donationAmount          = 0;\n        d.donationGrantedAmount   = 0;\n        d.requestedNotGrantedAmount = 0;\n        d.USDperRecipientPerMonth = _USDperRecipientPerMonth;\n        d.adminFeePercent         = _adminFeePercent;\n        d.donationState           = DonationState.DonationCreated;\n        d.donationPurpose         = DonationPurpose(_donationPurpose);\n\n        /// @notice Add this donation to the donor\n        emit LogDonationState(donationCount, _donationName, DonationState.DonationCreated);\n        donationCount = donationCount + 1;\n        return true;\n    }\n\n    function donorDeposit(uint256 _depositAmount) public isDonor payable {\n        donorBalances[msg.sender] += _depositAmount;\n        (bool sent,) = msg.sender.call{value: _depositAmount}(\"\");\n        require(sent, \"Failed to deposit funds to the donor\");\n        emit LogDonorDeposit(msg.sender, _depositAmount);\n    }\n\n    /// @dev Allow the donor to ring fence funds for a donation. No actual transfer of funds.\n    function makeDonation(uint256 _donationAmount, uint32 _donationID) public isDonor  {\n      require((donorBalances[msg.sender] - allDonors[_donationID].amountDonated) >= _donationAmount, \"Donation amount exceeds donor available balance\");\n      uint32 donorID = donations[_donationID].donorID;\n      allDonors[donorID].amountDonated += _donationAmount;\n      donations[_donationID].donationAmount += _donationAmount;\n      emit LogDonationState(_donationID, donations[_donationID].donationName, DonationState.Funded);\n    }\n\n    /// @dev Get the balances of a specific donation : Used by the distributor to check what funds are available\n    /// @return donatedAmount\n    /// @return grantedAmount Distributed Amount - funds actually sent to distributor\n    /// @return requestedNotGranted Requested amount but not approved\n    function getDonationBalance(uint32 _donationID)\n      public view returns (uint256 donatedAmount, uint256 grantedAmount, uint256 requestedNotGranted) {\n      return (donations[_donationID].donationAmount, donations[_donationID].donationGrantedAmount, donations[_donationID].requestedNotGrantedAmount);\n    }\n\n    /// @dev Get the balances of the donor ; i.e. all summarise all donations made by this donor\n    /// @return donatedAmount  Total Donated Amount\n    /// @return grantedAmount Distributed Amount - funds actually sent to distributor\n    /// @return requestedNotGranted Requested amount but not approved\n    /// @return fundsAvailableToWithdraw Funds available to withdraw\n    function getDonorBalance(uint32 _donorID)  private isDonor view\n        returns (uint256 donatedAmount, uint256 grantedAmount, uint256 requestedNotGranted, uint256 fundsAvailableToWithdraw) {\n      uint256  _donatedAmount = 0;\n      uint256  _grantedAmount = 0;\n      uint256  _requestedNotGranted = 0;\n      for (uint32 i = 0; i < donations.length; i++) {\n            if (donations[i].donorID == _donorID) {\n                _donatedAmount += _donatedAmount;\n                _grantedAmount += _grantedAmount;\n                _requestedNotGranted += _requestedNotGranted;\n            }\n      }\n      return (_donatedAmount,_grantedAmount,_requestedNotGranted,donorBalances[msg.sender] );\n    }\n\n    /// @dev Get the balances of the ddistributor across all distributions\n    function getDistributorBalance() public isDistributor view returns (uint256 availbleToWithdraw) {\n      return (distributorBalances[msg.sender]);\n    }\n\n    /// @dev Create a new distribution - It connot come from an exiting donor\n    /// @notice Requires that The donor list is verified - verification of lists to happen outside on IPFS - not implemented\n    function createDistribution(uint32 _distributorID, uint32 _donationID, uint32 _recipientCount, uint8 _distributionMonths,\n                                bool _recipientDetailsAreValid)\n                                public isDistributor donationIsFunded(_donationID) returns( bool ) {\n\n        uint32  distributionClaim = _recipientCount * _distributionMonths * donations[_donationID].USDperRecipientPerMonth;\n        uint256  availableToClaim  = donations[_donationID].donationAmount -\n                                (donations[_donationID].donationGrantedAmount + donations[_donationID].requestedNotGrantedAmount);\n        require( availableToClaim >= distributionClaim, \"This donation has insufficient funds to distribute.\" );\n        Distribution storage dist = distributions[distributionCount];\n\n            dist.distributorID           = _distributorID;\n            dist.donationID              = _donationID;\n            dist.donorID                 = donations[_donationID].donorID;\n            dist.distributionAmount      = distributionClaim;\n            dist.recipientCount          = _recipientCount;\n            dist.distributionMonths      = _distributionMonths;\n            dist.recipientDetailsAreValid  = _recipientDetailsAreValid;\n            dist.distributionState       = DistributionState.DistributionCreated;\n\n        emit LogDistributionState(distributionCount, allDistributors[_distributorID].distributorName,\n                                  donations[_donationID].donationName, DistributionState.DistributionCreated);\n\n        /// @notice Now make a claim against the Donation\n        donations[_donationID].requestedNotGrantedAmount += distributionClaim;\n        distributions[distributionCount].distributionState = DistributionState.FundsRequested;\n        emit LogDistributionState(distributionCount, allDistributors[_distributorID].distributorName,\n                                  donations[_donationID].donationName, DistributionState.FundsRequested);\n        distributionCount = distributionCount + 1;\n        return true;\n    }\n\n    /// @dev send funds to a Distribution if the conditions are met\n    /// @notice if successful Update the amount granted on the donation and reduce the amount requested\n    function requestDonationFunds(uint32 _distributionID) public payable isDonor distributionCanProceed(_distributionID) {\n      donations[distributions[_distributionID].donationID].donationGrantedAmount += distributions[_distributionID].distributionAmount;\n      donations[distributions[_distributionID].donorID].requestedNotGrantedAmount -= distributions[_distributionID].distributionAmount;\n      distributions[_distributionID].distributionState = DistributionState.FundsApproved;\n      emit LogDistributionState(_distributionID, allDistributors[distributions[_distributionID].distributorID].distributorName,\n                                 donations[distributions[_distributionID].donationID].donationName,\n                                 DistributionState.FundsApproved);\n      emit LogDonationState(distributions[_distributionID].donationID,\n                            donations[distributions[_distributionID].donationID].donationName,\n                            DonationState.Funded);\n      address distAddr = payable(allDistributors[distributions[_distributionID].distributorID].distributorAddress);\n      uint256 distrAmt = distributions[_distributionID].distributionAmount;\n      /// @notice Check that this is actually seding from donor to distributor\n      (bool sent,) = distAddr.call{value: distrAmt}(\"\");\n      require(sent, \"Failed to send funds to the distributor\");\n    }\n\n    // Allow the donor to withdraw funds balance provided there are no distributions that have submitted funding requests\n    function donorWithdrawal(uint256 _withdrawAmount, uint32 _donorID) public payable isDonor distributionsAreUpToDate (_donorID) {\n      require(donorBalances[msg.sender] >= _withdrawAmount, \"Withdrawal request exceeds donor balance\");\n      donorBalances[msg.sender] -= _withdrawAmount;\n      emit LogDonorWithdrawal(msg.sender, _withdrawAmount, donorBalances[msg.sender]);\n      //payable(msg.sender).transfer(_withdrawAmount);\n      (bool sent,) = msg.sender.call{value: _withdrawAmount}(\"\");\n      require(sent, \"Failed to withdraw funds to the donor\");\n    }\n\n    // Allow the distributor to withdraw funds balance\n    function distributorWithdrawal(uint _withdrawAmount) public payable isDistributor  {\n      require(distributorBalances[msg.sender] >= _withdrawAmount, \"Withdrawal request exceeds balance\");\n      distributorBalances[msg.sender] -= _withdrawAmount;\n      emit LogDistributorWithdrawal(msg.sender, _withdrawAmount, distributorBalances[msg.sender]);\n      //payable(msg.sender).transfer(withdrawAmount);\n      (bool sent,) = msg.sender.call{value: _withdrawAmount}(\"\");\n      require(sent, \"Failed to withdraw funds to the donor\");\n    }\n\n/*    function initialize() initializer public {\n        __ERC20_init(\"MyToken\", \"MTK\");\n        __Pausable_init();\n        __Ownable_init();\n        __ERC20Permit_init(\"MyToken\");\n    }\n*/\n    function pause() public onlyOwner {\n        _pause();\n    }\n\n    function unpause() public onlyOwner {\n        _unpause();\n    }\n\n    function _beforeTokenTransfer(address from, address to, uint256 amount)\n        internal\n        whenNotPaused\n        override\n    {\n        super._beforeTokenTransfer(from, to, amount);\n    }\n\n}\n",
  "sourcePath": "/Users/seanevans/Crypto/Course/finalProject/contracts/DonationManager.sol",
  "compiler": {
    "name": "solc",
    "version": "0.8.2+commit.661d1103.Emscripten.clang"
  },
  "schemaVersion": "3.4.3",
  "updatedAt": "2021-10-31T11:21:04.879Z",
  "devdoc": {
    "kind": "dev",
    "methods": {
      "allowance(address,address)": {
        "details": "See {IERC20-allowance}."
      },
      "approve(address,uint256)": {
        "details": "See {IERC20-approve}. Requirements: - `spender` cannot be the zero address."
      },
      "balanceOf(address)": {
        "details": "See {IERC20-balanceOf}."
      },
      "createDistribution(uint32,uint32,uint32,uint8,bool)": {
        "details": "Create a new distribution - It connot come from an exiting donor"
      },
      "createDistributor(string,string)": {
        "details": "Create a new distributor - It connot come from the same address as an exiting donor"
      },
      "createDonation(string,uint32,uint32,uint8,uint32)": {
        "details": "Create a new Donation. It can only be created by donors"
      },
      "createDonor(string)": {
        "details": "Create a new distributor - It connot come from the same address as an exiting distributor"
      },
      "decimals()": {
        "details": "Returns the number of decimals used to get its user representation. For example, if `decimals` equals `2`, a balance of `505` tokens should be displayed to a user as `5.05` (`505 / 10 ** 2`). Tokens usually opt for a value of 18, imitating the relationship between Ether and Wei. This is the value {ERC20} uses, unless this function is overridden; NOTE: This information is only used for _display_ purposes: it in no way affects any of the arithmetic of the contract, including {IERC20-balanceOf} and {IERC20-transfer}."
      },
      "decreaseAllowance(address,uint256)": {
        "details": "Atomically decreases the allowance granted to `spender` by the caller. This is an alternative to {approve} that can be used as a mitigation for problems described in {IERC20-approve}. Emits an {Approval} event indicating the updated allowance. Requirements: - `spender` cannot be the zero address. - `spender` must have allowance for the caller of at least `subtractedValue`."
      },
      "getDistributorBalance()": {
        "details": "Get the balances of the ddistributor across all distributions"
      },
      "getDonationBalance(uint32)": {
        "details": "Get the balances of a specific donation : Used by the distributor to check what funds are available",
        "returns": {
          "donatedAmount": "donatedAmount",
          "grantedAmount": "Distributed Amount - funds actually sent to distributor",
          "requestedNotGranted": "Requested amount but not approved"
        }
      },
      "increaseAllowance(address,uint256)": {
        "details": "Atomically increases the allowance granted to `spender` by the caller. This is an alternative to {approve} that can be used as a mitigation for problems described in {IERC20-approve}. Emits an {Approval} event indicating the updated allowance. Requirements: - `spender` cannot be the zero address."
      },
      "makeDonation(uint256,uint32)": {
        "details": "Allow the donor to ring fence funds for a donation. No actual transfer of funds."
      },
      "name()": {
        "details": "Returns the name of the token."
      },
      "owner()": {
        "details": "Returns the address of the current owner."
      },
      "paused()": {
        "details": "Returns true if the contract is paused, and false otherwise."
      },
      "renounceOwnership()": {
        "details": "Leaves the contract without owner. It will not be possible to call `onlyOwner` functions anymore. Can only be called by the current owner. NOTE: Renouncing ownership will leave the contract without an owner, thereby removing any functionality that is only available to the owner."
      },
      "requestDonationFunds(uint32)": {
        "details": "send funds to a Distribution if the conditions are met"
      },
      "symbol()": {
        "details": "Returns the symbol of the token, usually a shorter version of the name."
      },
      "totalSupply()": {
        "details": "See {IERC20-totalSupply}."
      },
      "transfer(address,uint256)": {
        "details": "See {IERC20-transfer}. Requirements: - `recipient` cannot be the zero address. - the caller must have a balance of at least `amount`."
      },
      "transferFrom(address,address,uint256)": {
        "details": "See {IERC20-transferFrom}. Emits an {Approval} event indicating the updated allowance. This is not required by the EIP. See the note at the beginning of {ERC20}. Requirements: - `sender` and `recipient` cannot be the zero address. - `sender` must have a balance of at least `amount`. - the caller must have allowance for ``sender``'s tokens of at least `amount`."
      },
      "transferOwnership(address)": {
        "details": "Transfers ownership of the contract to a new account (`newOwner`). Can only be called by the current owner."
      }
    },
    "stateVariables": {
      "distributionCount": {
        "details": "Disrtibutions"
      },
      "distributorCount": {
        "details": "Distributors"
      },
      "donationCount": {
        "details": "Donations"
      },
      "donations": {
        "details": "Using arrays rather than mappings where I need to iterate over the contents"
      },
      "donorCount": {
        "details": "Donors"
      }
    },
    "version": 1
  },
  "userdoc": {
    "kind": "user",
    "methods": {
      "createDistribution(uint32,uint32,uint32,uint8,bool)": {
        "notice": "Requires that The donor list is verified - verification of lists to happen outside on IPFS - not implemented"
      },
      "requestDonationFunds(uint32)": {
        "notice": "if successful Update the amount granted on the donation and reduce the amount requested"
      }
    },
    "version": 1
  }
}