{
  "contractName": "DonationManager",
  "abi": [
    {
      "inputs": [],
      "stateMutability": "nonpayable",
      "type": "constructor"
    },
    {
      "anonymous": false,
      "inputs": [
        {
          "indexed": true,
          "internalType": "address",
          "name": "owner",
          "type": "address"
        },
        {
          "indexed": true,
          "internalType": "address",
          "name": "spender",
          "type": "address"
        },
        {
          "indexed": false,
          "internalType": "uint256",
          "name": "value",
          "type": "uint256"
        }
      ],
      "name": "Approval",
      "type": "event"
    },
    {
      "anonymous": false,
      "inputs": [
        {
          "indexed": false,
          "internalType": "uint32",
          "name": "distributionID",
          "type": "uint32"
        },
        {
          "indexed": false,
          "internalType": "string",
          "name": "distributorName",
          "type": "string"
        },
        {
          "indexed": false,
          "internalType": "uint256",
          "name": "donationAmount",
          "type": "uint256"
        }
      ],
      "name": "LogDistributionRequest",
      "type": "event"
    },
    {
      "anonymous": false,
      "inputs": [
        {
          "indexed": false,
          "internalType": "uint32",
          "name": "distributionID",
          "type": "uint32"
        },
        {
          "indexed": false,
          "internalType": "string",
          "name": "distributorName",
          "type": "string"
        },
        {
          "indexed": false,
          "internalType": "string",
          "name": "donationName",
          "type": "string"
        },
        {
          "indexed": false,
          "internalType": "enum DonationManager.DistributionState",
          "name": "",
          "type": "uint8"
        }
      ],
      "name": "LogDistributionState",
      "type": "event"
    },
    {
      "anonymous": false,
      "inputs": [
        {
          "indexed": true,
          "internalType": "address",
          "name": "distributorAddress",
          "type": "address"
        },
        {
          "indexed": false,
          "internalType": "uint32",
          "name": "distributorID",
          "type": "uint32"
        },
        {
          "indexed": false,
          "internalType": "string",
          "name": "distributorName",
          "type": "string"
        },
        {
          "indexed": false,
          "internalType": "enum DonationManager.DistributorStatus",
          "name": "distributorStatus",
          "type": "uint8"
        }
      ],
      "name": "LogDistributorStatus",
      "type": "event"
    },
    {
      "anonymous": false,
      "inputs": [
        {
          "indexed": true,
          "internalType": "address",
          "name": "donorAddress",
          "type": "address"
        },
        {
          "indexed": false,
          "internalType": "uint256",
          "name": "withdrawAmount",
          "type": "uint256"
        },
        {
          "indexed": false,
          "internalType": "uint256",
          "name": "remainingBalance",
          "type": "uint256"
        }
      ],
      "name": "LogDistributorWithdrawal",
      "type": "event"
    },
    {
      "anonymous": false,
      "inputs": [
        {
          "indexed": false,
          "internalType": "uint32",
          "name": "donationID",
          "type": "uint32"
        },
        {
          "indexed": false,
          "internalType": "string",
          "name": "donationName",
          "type": "string"
        },
        {
          "indexed": false,
          "internalType": "enum DonationManager.DonationState",
          "name": "",
          "type": "uint8"
        }
      ],
      "name": "LogDonationState",
      "type": "event"
    },
    {
      "anonymous": false,
      "inputs": [
        {
          "indexed": true,
          "internalType": "address",
          "name": "donorAddress",
          "type": "address"
        },
        {
          "indexed": false,
          "internalType": "uint32",
          "name": "donorID",
          "type": "uint32"
        },
        {
          "indexed": false,
          "internalType": "uint256",
          "name": "balance",
          "type": "uint256"
        }
      ],
      "name": "LogDonorAdded",
      "type": "event"
    },
    {
      "anonymous": false,
      "inputs": [
        {
          "indexed": true,
          "internalType": "address",
          "name": "donorAddress",
          "type": "address"
        },
        {
          "indexed": false,
          "internalType": "uint256",
          "name": "donationAmount",
          "type": "uint256"
        }
      ],
      "name": "LogDonorDeposit",
      "type": "event"
    },
    {
      "anonymous": false,
      "inputs": [
        {
          "indexed": true,
          "internalType": "address",
          "name": "donorAddress",
          "type": "address"
        },
        {
          "indexed": false,
          "internalType": "uint256",
          "name": "withdrawAmount",
          "type": "uint256"
        },
        {
          "indexed": false,
          "internalType": "uint256",
          "name": "remainingBalance",
          "type": "uint256"
        }
      ],
      "name": "LogDonorWithdrawal",
      "type": "event"
    },
    {
      "anonymous": false,
      "inputs": [
        {
          "indexed": true,
          "internalType": "address",
          "name": "previousOwner",
          "type": "address"
        },
        {
          "indexed": true,
          "internalType": "address",
          "name": "newOwner",
          "type": "address"
        }
      ],
      "name": "OwnershipTransferred",
      "type": "event"
    },
    {
      "anonymous": false,
      "inputs": [
        {
          "indexed": false,
          "internalType": "address",
          "name": "account",
          "type": "address"
        }
      ],
      "name": "Paused",
      "type": "event"
    },
    {
      "anonymous": false,
      "inputs": [
        {
          "indexed": true,
          "internalType": "address",
          "name": "from",
          "type": "address"
        },
        {
          "indexed": true,
          "internalType": "address",
          "name": "to",
          "type": "address"
        },
        {
          "indexed": false,
          "internalType": "uint256",
          "name": "value",
          "type": "uint256"
        }
      ],
      "name": "Transfer",
      "type": "event"
    },
    {
      "anonymous": false,
      "inputs": [
        {
          "indexed": false,
          "internalType": "address",
          "name": "account",
          "type": "address"
        }
      ],
      "name": "Unpaused",
      "type": "event"
    },
    {
      "inputs": [
        {
          "internalType": "uint32",
          "name": "",
          "type": "uint32"
        }
      ],
      "name": "allDistributors",
      "outputs": [
        {
          "internalType": "uint32",
          "name": "distributorID",
          "type": "uint32"
        },
        {
          "internalType": "address",
          "name": "distributorAddress",
          "type": "address"
        },
        {
          "internalType": "string",
          "name": "distributorName",
          "type": "string"
        },
        {
          "internalType": "string",
          "name": "distributorCountry",
          "type": "string"
        },
        {
          "internalType": "enum DonationManager.DistributorStatus",
          "name": "distributorStatus",
          "type": "uint8"
        }
      ],
      "stateMutability": "view",
      "type": "function",
      "constant": true
    },
    {
      "inputs": [
        {
          "internalType": "uint32",
          "name": "",
          "type": "uint32"
        }
      ],
      "name": "allDonors",
      "outputs": [
        {
          "internalType": "uint32",
          "name": "donorID",
          "type": "uint32"
        },
        {
          "internalType": "address",
          "name": "donorAddress",
          "type": "address"
        },
        {
          "internalType": "uint256",
          "name": "amountDonated",
          "type": "uint256"
        },
        {
          "internalType": "string",
          "name": "donorName",
          "type": "string"
        }
      ],
      "stateMutability": "view",
      "type": "function",
      "constant": true
    },
    {
      "inputs": [
        {
          "internalType": "address",
          "name": "owner",
          "type": "address"
        },
        {
          "internalType": "address",
          "name": "spender",
          "type": "address"
        }
      ],
      "name": "allowance",
      "outputs": [
        {
          "internalType": "uint256",
          "name": "",
          "type": "uint256"
        }
      ],
      "stateMutability": "view",
      "type": "function",
      "constant": true
    },
    {
      "inputs": [
        {
          "internalType": "address",
          "name": "spender",
          "type": "address"
        },
        {
          "internalType": "uint256",
          "name": "amount",
          "type": "uint256"
        }
      ],
      "name": "approve",
      "outputs": [
        {
          "internalType": "bool",
          "name": "",
          "type": "bool"
        }
      ],
      "stateMutability": "nonpayable",
      "type": "function"
    },
    {
      "inputs": [
        {
          "internalType": "address",
          "name": "account",
          "type": "address"
        }
      ],
      "name": "balanceOf",
      "outputs": [
        {
          "internalType": "uint256",
          "name": "",
          "type": "uint256"
        }
      ],
      "stateMutability": "view",
      "type": "function",
      "constant": true
    },
    {
      "inputs": [],
      "name": "decimals",
      "outputs": [
        {
          "internalType": "uint8",
          "name": "",
          "type": "uint8"
        }
      ],
      "stateMutability": "view",
      "type": "function",
      "constant": true
    },
    {
      "inputs": [
        {
          "internalType": "address",
          "name": "spender",
          "type": "address"
        },
        {
          "internalType": "uint256",
          "name": "subtractedValue",
          "type": "uint256"
        }
      ],
      "name": "decreaseAllowance",
      "outputs": [
        {
          "internalType": "bool",
          "name": "",
          "type": "bool"
        }
      ],
      "stateMutability": "nonpayable",
      "type": "function"
    },
    {
      "inputs": [],
      "name": "distributionCount",
      "outputs": [
        {
          "internalType": "uint32",
          "name": "",
          "type": "uint32"
        }
      ],
      "stateMutability": "view",
      "type": "function",
      "constant": true
    },
    {
      "inputs": [
        {
          "internalType": "uint256",
          "name": "",
          "type": "uint256"
        }
      ],
      "name": "distributions",
      "outputs": [
        {
          "internalType": "uint32",
          "name": "distributionID",
          "type": "uint32"
        },
        {
          "internalType": "uint32",
          "name": "distributorID",
          "type": "uint32"
        },
        {
          "internalType": "uint32",
          "name": "donationID",
          "type": "uint32"
        },
        {
          "internalType": "uint32",
          "name": "donorID",
          "type": "uint32"
        },
        {
          "internalType": "uint256",
          "name": "distributionAmount",
          "type": "uint256"
        },
        {
          "internalType": "uint32",
          "name": "recipientCount",
          "type": "uint32"
        },
        {
          "internalType": "uint8",
          "name": "distributionMonths",
          "type": "uint8"
        },
        {
          "internalType": "bool",
          "name": "recipientDetailsAreValid",
          "type": "bool"
        },
        {
          "internalType": "enum DonationManager.DistributionState",
          "name": "distributionState",
          "type": "uint8"
        }
      ],
      "stateMutability": "view",
      "type": "function",
      "constant": true
    },
    {
      "inputs": [],
      "name": "distributorCount",
      "outputs": [
        {
          "internalType": "uint32",
          "name": "",
          "type": "uint32"
        }
      ],
      "stateMutability": "view",
      "type": "function",
      "constant": true
    },
    {
      "inputs": [],
      "name": "donationCount",
      "outputs": [
        {
          "internalType": "uint32",
          "name": "",
          "type": "uint32"
        }
      ],
      "stateMutability": "view",
      "type": "function",
      "constant": true
    },
    {
      "inputs": [
        {
          "internalType": "uint256",
          "name": "",
          "type": "uint256"
        }
      ],
      "name": "donations",
      "outputs": [
        {
          "internalType": "uint32",
          "name": "donationID",
          "type": "uint32"
        },
        {
          "internalType": "uint32",
          "name": "donorID",
          "type": "uint32"
        },
        {
          "internalType": "string",
          "name": "donationName",
          "type": "string"
        },
        {
          "internalType": "uint256",
          "name": "donationAmount",
          "type": "uint256"
        },
        {
          "internalType": "uint256",
          "name": "donationGrantedAmount",
          "type": "uint256"
        },
        {
          "internalType": "uint256",
          "name": "requestedNotGrantedAmount",
          "type": "uint256"
        },
        {
          "internalType": "uint32",
          "name": "USDperRecipientPerMonth",
          "type": "uint32"
        },
        {
          "internalType": "uint8",
          "name": "adminFeePercent",
          "type": "uint8"
        },
        {
          "internalType": "enum DonationManager.DonationState",
          "name": "donationState",
          "type": "uint8"
        },
        {
          "internalType": "enum DonationManager.DonationPurpose",
          "name": "donationPurpose",
          "type": "uint8"
        }
      ],
      "stateMutability": "view",
      "type": "function",
      "constant": true
    },
    {
      "inputs": [
        {
          "internalType": "address",
          "name": "",
          "type": "address"
        }
      ],
      "name": "donorBalances",
      "outputs": [
        {
          "internalType": "uint256",
          "name": "",
          "type": "uint256"
        }
      ],
      "stateMutability": "view",
      "type": "function",
      "constant": true
    },
    {
      "inputs": [],
      "name": "donorCount",
      "outputs": [
        {
          "internalType": "uint32",
          "name": "",
          "type": "uint32"
        }
      ],
      "stateMutability": "view",
      "type": "function",
      "constant": true
    },
    {
      "inputs": [
        {
          "internalType": "address",
          "name": "spender",
          "type": "address"
        },
        {
          "internalType": "uint256",
          "name": "addedValue",
          "type": "uint256"
        }
      ],
      "name": "increaseAllowance",
      "outputs": [
        {
          "internalType": "bool",
          "name": "",
          "type": "bool"
        }
      ],
      "stateMutability": "nonpayable",
      "type": "function"
    },
    {
      "inputs": [],
      "name": "name",
      "outputs": [
        {
          "internalType": "string",
          "name": "",
          "type": "string"
        }
      ],
      "stateMutability": "view",
      "type": "function",
      "constant": true
    },
    {
      "inputs": [],
      "name": "owner",
      "outputs": [
        {
          "internalType": "address",
          "name": "",
          "type": "address"
        }
      ],
      "stateMutability": "view",
      "type": "function",
      "constant": true
    },
    {
      "inputs": [],
      "name": "paused",
      "outputs": [
        {
          "internalType": "bool",
          "name": "",
          "type": "bool"
        }
      ],
      "stateMutability": "view",
      "type": "function",
      "constant": true
    },
    {
      "inputs": [],
      "name": "renounceOwnership",
      "outputs": [],
      "stateMutability": "nonpayable",
      "type": "function"
    },
    {
      "inputs": [],
      "name": "symbol",
      "outputs": [
        {
          "internalType": "string",
          "name": "",
          "type": "string"
        }
      ],
      "stateMutability": "view",
      "type": "function",
      "constant": true
    },
    {
      "inputs": [],
      "name": "totalSupply",
      "outputs": [
        {
          "internalType": "uint256",
          "name": "",
          "type": "uint256"
        }
      ],
      "stateMutability": "view",
      "type": "function",
      "constant": true
    },
    {
      "inputs": [
        {
          "internalType": "address",
          "name": "recipient",
          "type": "address"
        },
        {
          "internalType": "uint256",
          "name": "amount",
          "type": "uint256"
        }
      ],
      "name": "transfer",
      "outputs": [
        {
          "internalType": "bool",
          "name": "",
          "type": "bool"
        }
      ],
      "stateMutability": "nonpayable",
      "type": "function"
    },
    {
      "inputs": [
        {
          "internalType": "address",
          "name": "sender",
          "type": "address"
        },
        {
          "internalType": "address",
          "name": "recipient",
          "type": "address"
        },
        {
          "internalType": "uint256",
          "name": "amount",
          "type": "uint256"
        }
      ],
      "name": "transferFrom",
      "outputs": [
        {
          "internalType": "bool",
          "name": "",
          "type": "bool"
        }
      ],
      "stateMutability": "nonpayable",
      "type": "function"
    },
    {
      "inputs": [
        {
          "internalType": "address",
          "name": "newOwner",
          "type": "address"
        }
      ],
      "name": "transferOwnership",
      "outputs": [],
      "stateMutability": "nonpayable",
      "type": "function"
    },
    {
      "inputs": [
        {
          "internalType": "string",
          "name": "_donorName",
          "type": "string"
        },
        {
          "internalType": "uint256",
          "name": "currentBalance",
          "type": "uint256"
        }
      ],
      "name": "createDonor",
      "outputs": [
        {
          "internalType": "bool",
          "name": "",
          "type": "bool"
        }
      ],
      "stateMutability": "payable",
      "type": "function",
      "payable": true
    },
    {
      "inputs": [
        {
          "internalType": "string",
          "name": "_distributorName",
          "type": "string"
        },
        {
          "internalType": "string",
          "name": "_distributorCountry",
          "type": "string"
        }
      ],
      "name": "createDistributor",
      "outputs": [
        {
          "internalType": "bool",
          "name": "",
          "type": "bool"
        }
      ],
      "stateMutability": "nonpayable",
      "type": "function"
    },
    {
      "inputs": [
        {
          "internalType": "string",
          "name": "_donationName",
          "type": "string"
        },
        {
          "internalType": "uint32",
          "name": "_donorID",
          "type": "uint32"
        },
        {
          "internalType": "uint32",
          "name": "_USDperRecipientPerMonth",
          "type": "uint32"
        },
        {
          "internalType": "uint8",
          "name": "_adminFeePercent",
          "type": "uint8"
        }
      ],
      "name": "createDonation",
      "outputs": [
        {
          "internalType": "bool",
          "name": "",
          "type": "bool"
        }
      ],
      "stateMutability": "nonpayable",
      "type": "function"
    },
    {
      "inputs": [
        {
          "internalType": "uint256",
          "name": "_depositAmount",
          "type": "uint256"
        }
      ],
      "name": "donorDeposit",
      "outputs": [],
      "stateMutability": "payable",
      "type": "function",
      "payable": true
    },
    {
      "inputs": [
        {
          "internalType": "uint256",
          "name": "_donationAmount",
          "type": "uint256"
        },
        {
          "internalType": "uint32",
          "name": "_donationID",
          "type": "uint32"
        }
      ],
      "name": "makeDonation",
      "outputs": [],
      "stateMutability": "nonpayable",
      "type": "function"
    },
    {
      "inputs": [
        {
          "internalType": "uint32",
          "name": "_distributorID",
          "type": "uint32"
        },
        {
          "internalType": "uint32",
          "name": "_distributorStatus",
          "type": "uint32"
        }
      ],
      "name": "changeDistributorStatus",
      "outputs": [],
      "stateMutability": "nonpayable",
      "type": "function"
    },
    {
      "inputs": [
        {
          "internalType": "uint32",
          "name": "_donationID",
          "type": "uint32"
        }
      ],
      "name": "getDonationBalance",
      "outputs": [
        {
          "internalType": "uint256",
          "name": "donatedAmount",
          "type": "uint256"
        },
        {
          "internalType": "uint256",
          "name": "grantedAmount",
          "type": "uint256"
        },
        {
          "internalType": "uint256",
          "name": "requestedNotGranted",
          "type": "uint256"
        }
      ],
      "stateMutability": "view",
      "type": "function",
      "constant": true
    },
    {
      "inputs": [
        {
          "internalType": "uint32",
          "name": "_donorID",
          "type": "uint32"
        }
      ],
      "name": "getAllDonorBalances",
      "outputs": [
        {
          "internalType": "uint256",
          "name": "donatedAmount",
          "type": "uint256"
        },
        {
          "internalType": "uint256",
          "name": "grantedAmount",
          "type": "uint256"
        },
        {
          "internalType": "uint256",
          "name": "requestedNotGranted",
          "type": "uint256"
        },
        {
          "internalType": "uint256",
          "name": "fundsAvailableToWithdraw",
          "type": "uint256"
        }
      ],
      "stateMutability": "view",
      "type": "function",
      "constant": true
    },
    {
      "inputs": [],
      "name": "getDistributorBalance",
      "outputs": [
        {
          "internalType": "uint256",
          "name": "availbleToWithdraw",
          "type": "uint256"
        }
      ],
      "stateMutability": "view",
      "type": "function",
      "constant": true
    },
    {
      "inputs": [
        {
          "internalType": "uint32",
          "name": "_distributorID",
          "type": "uint32"
        },
        {
          "internalType": "uint32",
          "name": "_donationID",
          "type": "uint32"
        },
        {
          "internalType": "uint32",
          "name": "_recipientCount",
          "type": "uint32"
        },
        {
          "internalType": "uint8",
          "name": "_distributionMonths",
          "type": "uint8"
        },
        {
          "internalType": "bool",
          "name": "_recipientDetailsAreValid",
          "type": "bool"
        }
      ],
      "name": "createDistribution",
      "outputs": [
        {
          "internalType": "bool",
          "name": "",
          "type": "bool"
        }
      ],
      "stateMutability": "nonpayable",
      "type": "function"
    },
    {
      "inputs": [
        {
          "internalType": "uint32",
          "name": "_distributionID",
          "type": "uint32"
        }
      ],
      "name": "requestDonationFunds",
      "outputs": [],
      "stateMutability": "payable",
      "type": "function",
      "payable": true
    },
    {
      "inputs": [
        {
          "internalType": "uint256",
          "name": "_withdrawAmount",
          "type": "uint256"
        },
        {
          "internalType": "uint32",
          "name": "_donorID",
          "type": "uint32"
        }
      ],
      "name": "donorWithdrawal",
      "outputs": [],
      "stateMutability": "payable",
      "type": "function",
      "payable": true
    },
    {
      "inputs": [
        {
          "internalType": "uint256",
          "name": "_withdrawAmount",
          "type": "uint256"
        }
      ],
      "name": "distributorWithdrawal",
      "outputs": [],
      "stateMutability": "payable",
      "type": "function",
      "payable": true
    },
    {
      "inputs": [],
      "name": "pause",
      "outputs": [],
      "stateMutability": "nonpayable",
      "type": "function"
    },
    {
      "inputs": [],
      "name": "unpause",
      "outputs": [],
      "stateMutability": "nonpayable",
      "type": "function"
    }
  ],
  "bytecode": "0x60806040523480156200001157600080fd5b5060408051602080820180845260008084528451928301909452928152815191929091620000429160039162000123565b5080516200005890600490602084019062000123565b50506005805460ff19169055506200008b6200007c640100000000620000c5810204565b640100000000620000c9810204565b6005805460a860020a63ffffffff02191690556008805463ffffffff19908116909155600b805482169055600d805490911690556200021f565b3390565b60058054600160a060020a0383811661010081810261010060a860020a031985161790945560405193909204169182907f8be0079c531659141344cd1fd0a4f28419497f9722a3daafe3b4186f6b6457e090600090a35050565b8280546200013190620001c9565b90600052602060002090601f016020900481019282620001555760008555620001a0565b82601f106200017057805160ff1916838001178555620001a0565b82800160010185558215620001a0579182015b82811115620001a057825182559160200191906001019062000183565b50620001ae929150620001b2565b5090565b5b80821115620001ae5760008155600101620001b3565b600281046001821680620001de57607f821691505b6020821081141562000219577f4e487b7100000000000000000000000000000000000000000000000000000000600052602260045260246000fd5b50919050565b614385806200022f6000396000f3fe60806040526004361061024d576000357c010000000000000000000000000000000000000000000000000000000090048063715018a61161014b578063a9059cbb116100c8578063d9b4699d1161008c578063d9b4699d146106ee578063dce06a3114610701578063dd62ed3e14610714578063f2fde38b1461075a578063f8626af81461077a5761024d565b8063a9059cbb1461062d578063c407670f1461064d578063c65c3d9514610671578063ca7893971461068e578063ccfb6a41146106ae5761024d565b80638a0b67401161010f5780638a0b6740146105965780638da5cb5b146105a95780638f7a336b146105e557806395d89b41146105f8578063a457c2d71461060d5761024d565b8063715018a6146104ee578063746d1e4c146105035780637b8c8de1146105235780638456cb5914610550578063871d8f09146105655761024d565b806335f3d58f116101d95780635531735f1161019d5780635531735f146104565780635669a047146104765780635c975abb146104965780635decd6db146104ae57806370a08231146104ce5761024d565b806335f3d58f1461039f57806339509351146103cf5780633ac140e8146103ef5780633f4ba83a1461040c5780634487d3df146104215761024d565b80632266633e116102205780632266633e146102e157806323b872dd146102f65780632a0521f8146103165780632abfab4d14610351578063313ce567146103835761024d565b806306fdde0314610252578063095ea7b31461027d57806318160ddd146102ad57806319d084ec146102cc575b600080fd5b34801561025e57600080fd5b506102676107b0565b6040516102749190613ef1565b60405180910390f35b34801561028957600080fd5b5061029d610298366004613bce565b610842565b6040519015158152602001610274565b3480156102b957600080fd5b506002545b604051908152602001610274565b3480156102d857600080fd5b506102be610858565b6102f46102ef366004613d20565b610885565b005b34801561030257600080fd5b5061029d610311366004613b93565b610b5e565b34801561032257600080fd5b50610336610331366004613d42565b610c20565b60408051938452602084019290925290820152606001610274565b34801561035d57600080fd5b50600b5461036e9063ffffffff1681565b60405163ffffffff9091168152602001610274565b34801561038f57600080fd5b5060405160128152602001610274565b3480156103ab57600080fd5b506103bf6103ba366004613d42565b610ce6565b604051610274949392919061404f565b3480156103db57600080fd5b5061029d6103ea366004613bce565b610daa565b3480156103fb57600080fd5b5060085461036e9063ffffffff1681565b34801561041857600080fd5b506102f4610de6565b34801561042d57600080fd5b5061044161043c366004613d08565b610e23565b604051610274999897969594939291906141ad565b34801561046257600080fd5b5061029d610471366004613d85565b610eb0565b34801561048257600080fd5b5061029d610491366004613bf7565b611644565b3480156104a257600080fd5b5060055460ff1661029d565b3480156104ba57600080fd5b506102f46104c9366004613d5c565b611835565b3480156104da57600080fd5b506102be6104e9366004613b40565b611994565b3480156104fa57600080fd5b506102f46119b3565b34801561050f57600080fd5b5061029d61051e366004613c9b565b6119f0565b34801561052f57600080fd5b506102be61053e366004613b40565b60076020526000908152604090205481565b34801561055c57600080fd5b506102f4611c54565b34801561057157600080fd5b50610585610580366004613d42565b611c8f565b604051610274959493929190613ff3565b6102f46105a4366004613d08565b611de5565b3480156105b557600080fd5b506105cd6005546101009004600160a060020a031690565b604051600160a060020a039091168152602001610274565b6102f46105f3366004613d42565b611f48565b34801561060457600080fd5b50610267612a1e565b34801561061957600080fd5b5061029d610628366004613bce565b612a2d565b34801561063957600080fd5b5061029d610648366004613bce565b612ae1565b34801561065957600080fd5b5060055461036e9060a860020a900463ffffffff1681565b34801561067d57600080fd5b50600d5461036e9063ffffffff1681565b34801561069a57600080fd5b506102f46106a9366004613d20565b612aee565b3480156106ba57600080fd5b506106ce6106c9366004613d42565b612d51565b604080519485526020850193909352918301526060820152608001610274565b6102f46106fc366004613d08565b612e1c565b61029d61070f366004613c58565b612f8b565b34801561072057600080fd5b506102be61072f366004613b61565b600160a060020a03918216600090815260016020908152604080832093909416825291909152205490565b34801561076657600080fd5b506102f4610775366004613b40565b6131fe565b34801561078657600080fd5b5061079a610795366004613d08565b6132bc565b6040516102749a9998979695949392919061412e565b6060600380546107bf90614292565b80601f01602080910402602001604051908101604052809291908181526020018280546107eb90614292565b80156108385780601f1061080d57610100808354040283529160200191610838565b820191906000526020600020905b81548152906001019060200180831161081b57829003601f168201915b5050505050905090565b600061084f3384846133ce565b50600192915050565b336000908152600a602052610871565b60405180910390fd5b50336000908152600a602052604090205490565b3360005260076020528060005b600e5463ffffffff821610156109f8578163ffffffff16600e8263ffffffff16815481106108d35760e060020a634e487b7102600052603260045260246000fd5b60009182526020909120600390910201546c01000000000000000000000000900463ffffffff1614801561097157506001600e8263ffffffff168154811061092e5760e060020a634e487b7102600052603260045260246000fd5b906000526020600020906003020160020160069054906101000a900460ff16600381111561096f5760e060020a634e487b7102600052602160045260246000fd5b145b6109e65760405160e560020a62461bcd02815260206004820152602960248201527f466972737420417070726f7665206f722064656e79206f70656e20646973747260448201527f69627574696f6e732e00000000000000000000000000000000000000000000006064820152608401610868565b806109f0816142d0565b915050610892565b5033600090815260076020526040902054831115610a815760405160e560020a62461bcd02815260206004820152602860248201527f5769746864726177616c2072657175657374206578636565647320646f6e6f7260448201527f2062616c616e63650000000000000000000000000000000000000000000000006064820152608401610868565b3360009081526007602052604081208054859290610aa090849061427b565b909155505033600081815260076020908152604091829020548251878152918201527fd511aaa7476b4b0f6ed1c5eafd6aea6007d77cc74b3c3bac462ae50edc989abb910160405180910390a2604051600090339085908381818185875af1925050503d8060008114610b2f576040519150601f19603f3d011682016040523d82523d6000602084013e610b34565b606091505b5050905080610b585760405160e560020a62461bcd02815260040161086890613f96565b50505050565b6000610b6b84848461352c565b600160a060020a038416600090815260016020908152604080832033845290915290205482811015610c085760405160e560020a62461bcd02815260206004820152602860248201527f45524332303a207472616e7366657220616d6f756e742065786365656473206160448201527f6c6c6f77616e63650000000000000000000000000000000000000000000000006064820152608401610868565b610c1585338584036133ce565b506001949350505050565b6000806000600c8463ffffffff1681548110610c4f5760e060020a634e487b7102600052603260045260246000fd5b906000526020600020906006020160020154600c8563ffffffff1681548110610c8b5760e060020a634e487b7102600052603260045260246000fd5b906000526020600020906006020160030154600c8663ffffffff1681548110610cc75760e060020a634e487b7102600052603260045260246000fd5b9060005260206000209060060201600401549250925092509193909250565b60066020526000908152604090208054600182015460028301805463ffffffff841694640100000000909404600160a060020a0316939190610d2790614292565b80601f0160208091040260200160405190810160405280929190818152602001828054610d5390614292565b8015610da05780601f10610d7557610100808354040283529160200191610da0565b820191906000526020600020905b815481529060010190602001808311610d8357829003601f168201915b5050505050905084565b336000818152600160209081526040808320600160a060020a0387168452909152812054909161084f918590610de190869061420f565b6133ce565b600554600160a060020a03610100909104163314610e195760405160e560020a62461bcd02815260040161086890613f61565b610e21613757565b565b600e8181548110610e3357600080fd5b600091825260209091206003909102018054600182015460029092015463ffffffff80831694506401000000008084048216946801000000000000000085048316946c010000000000000000000000009004831693909281169160ff90820481169165010000000000810482169166010000000000009091041689565b336000908152600a602052846001600c8263ffffffff1681548110610ee85760e060020a634e487b7102600052603260045260246000fd5b906000526020600020906006020160050160059054906101000a900460ff166002811115610f295760e060020a634e487b7102600052602160045260246000fd5b1480610f9f57506002600c8263ffffffff1681548110610f5c5760e060020a634e487b7102600052603260045260246000fd5b906000526020600020906006020160050160059054906101000a900460ff166002811115610f9d5760e060020a634e487b7102600052602160045260246000fd5b145b6110145760405160e560020a62461bcd02815260206004820152603560248201527f446973747269627574696f6e2063616e6e6f742070726f6365656420756e746960448201527f6c20646f6e6174696f6e2069732066756e6465642e00000000000000000000006064820152608401610868565b6000600c8763ffffffff16815481106110405760e060020a634e487b7102600052603260045260246000fd5b600091825260209091206005600690920201015463ffffffff1661106760ff87168861424f565b611071919061424f565b90506000600c8863ffffffff168154811061109f5760e060020a634e487b7102600052603260045260246000fd5b906000526020600020906006020160040154600c8963ffffffff16815481106110db5760e060020a634e487b7102600052603260045260246000fd5b9060005260206000209060060201600301546110f7919061420f565b600c8963ffffffff16815481106111215760e060020a634e487b7102600052603260045260246000fd5b90600052602060002090600602016002015461113d919061427b565b90508163ffffffff168110156111be5760405160e560020a62461bcd02815260206004820152603360248201527f5468697320646f6e6174696f6e2068617320696e73756666696369656e74206660448201527f756e647320746f20646973747269627574652e000000000000000000000000006064820152608401610868565b6111c6613943565b600d5463ffffffff90811682528a81166020830152891660408201819052600c8054909190811061120a5760e060020a634e487b7102600052603260045260246000fd5b906000526020600020906006020160000160049054906101000a900463ffffffff16816060019063ffffffff16908163ffffffff16815250508263ffffffff16816080018181525050878160a0019063ffffffff16908163ffffffff1681525050868160c0019060ff16908160ff1681525050858160e0019015159081151581525050600e81908060018154018082558091505060019003906000526020600020906003020160009091909190915060008201518160000160006101000a81548163ffffffff021916908363ffffffff16021790555060208201518160000160046101000a81548163ffffffff021916908363ffffffff16021790555060408201518160000160086101000a81548163ffffffff021916908363ffffffff160217905550606082015181600001600c6101000a81548163ffffffff021916908363ffffffff1602179055506080820151816001015560a08201518160020160006101000a81548163ffffffff021916908363ffffffff16021790555060c08201518160020160046101000a81548160ff021916908360ff16021790555060e08201518160020160056101000a81548160ff0219169083151502179055506101008201518160020160066101000a81548160ff021916908360038111156114035760e060020a634e487b7102600052602160045260246000fd5b021790555050600d5463ffffffff8c81166000908152600960205260409020600c80547f08ddbf2387a120cff0436b65891479eb2aeee9f0da8d2a185b7d816230e1e73b9550938316936001909201929091908e169081106114785760e060020a634e487b7102600052603260045260246000fd5b9060005260206000209060060201600101600060405161149b94939291906140e4565b60405180910390a18263ffffffff16600c8a63ffffffff16815481106114d45760e060020a634e487b7102600052603260045260246000fd5b906000526020600020906006020160040160008282546114f4919061420f565b9091555050600d54600e805460019263ffffffff169081106115295760e060020a634e487b7102600052603260045260246000fd5b906000526020600020906003020160020160066101000a81548160ff0219169083600381111561156c5760e060020a634e487b7102600052602160045260246000fd5b0217905550600d5463ffffffff8b81166000908152600960205260409020600c80547f08ddbf2387a120cff0436b65891479eb2aeee9f0da8d2a185b7d816230e1e73b948416936001909301928e169081106115db5760e060020a634e487b7102600052603260045260246000fd5b906000526020600020906006020160010160016040516115fe94939291906140e4565b60405180910390a1600d5461161a9063ffffffff166001614227565b600d805463ffffffff191663ffffffff929092169190911790555060019998505050505050505050565b33600090815260076020526040812054156116a45760405160e560020a62461bcd02815260206004820152601b60248201527f63616e6e6f742062652063616c6c656420627920646f6e6f72732e00000000006044820152606401610868565b6040805160a08101825260085463ffffffff16815233602082015290810184905260608101839052608081016000905260085463ffffffff9081166000908152600960209081526040918290208451815486840151600160a060020a03166401000000000277ffffffffffffffffffffffffffffffffffffffff00000000199290961663ffffffff19909116171693909317835590830151805161174e9260018501920190613990565b506060820151805161176a916002840191602090910190613990565b50608082015160038201805460ff1916600183600281111561179f5760e060020a634e487b7102600052602160045260246000fd5b021790555050336000818152600a602052604080822082905560085490519293507ff5340f6d3528b15a37a1ce3c13714a92b5b56c823b6cad1f087b98d4fad1d760926117f69263ffffffff90921691889161408d565b60405180910390a26008546118129063ffffffff166001614227565b6008805463ffffffff191663ffffffff9290921691909117905550600192915050565b63ffffffff8216600090815260096020526040902060030154829060019060ff1660028111156118785760e060020a634e487b7102600052602160045260246000fd5b14156118995760405160e560020a62461bcd02815260040161086890613f04565b60008263ffffffff1660028111156118c45760e060020a634e487b7102600052602160045260246000fd5b63ffffffff851660009081526009602052604090206003018054919250829160ff1916600183600281111561190c5760e060020a634e487b7102600052602160045260246000fd5b021790555063ffffffff808516600090815260096020526040902033917ff5340f6d3528b15a37a1ce3c13714a92b5b56c823b6cad1f087b98d4fad1d760918791600190910190871660028111156119775760e060020a634e487b7102600052602160045260246000fd5b604051611986939291906140c5565b60405180910390a250505050565b600160a060020a0381166000908152602081905260409020545b919050565b600554600160a060020a036101009091041633146119e65760405160e560020a62461bcd02815260040161086890613f61565b610e2160006137f6565b3360009081526007602052611a03613a14565b600b5463ffffffff90811682528581166020808401918252604084018981526000606086018190526080860181905260a0860181905288851660c087015260ff881660e0870152600c80546001810182559152855160069091027fdf6966c971051c3d54ec59162606531493a51404a002842f56009d7e5cf4a8c781018054955187166401000000000267ffffffff00000000199390971663ffffffff1990961695909517919091169490941783555180518594611ae7937fdf6966c971051c3d54ec59162606531493a51404a002842f56009d7e5cf4a8c8909101920190613990565b5060608201516002808301919091556080830151600383015560a0830151600483015560c083015160058301805460e086015160ff166401000000000264ff000000001963ffffffff90941663ffffffff199092169190911792909216919091178082556101008501519265ff0000000000199091169065010000000000908490811115611b885760e060020a634e487b7102600052602160045260246000fd5b021790555061012082015160058201805466ff00000000000019166601000000000000836002811115611bce5760e060020a634e487b7102600052602160045260246000fd5b021790555050600b546040517f6d4ebf9c7976833e896382bcf9e4f20c664a8fca4dd04e317196abcf1469de499250611c129163ffffffff1690899060009061408d565b60405180910390a1600b54611c2e9063ffffffff166001614227565b600b805463ffffffff191663ffffffff9290921691909117905550600195945050505050565b600554600160a060020a03610100909104163314611c875760405160e560020a62461bcd02815260040161086890613f61565b610e2161385d565b6009602052600090815260409020805460018201805463ffffffff831693640100000000909304600160a060020a0316929190611ccb90614292565b80601f0160208091040260200160405190810160405280929190818152602001828054611cf790614292565b8015611d445780601f10611d1957610100808354040283529160200191611d44565b820191906000526020600020905b815481529060010190602001808311611d2757829003601f168201915b505050505090806002018054611d5990614292565b80601f0160208091040260200160405190810160405280929190818152602001828054611d8590614292565b8015611dd25780601f10611da757610100808354040283529160200191611dd2565b820191906000526020600020905b815481529060010190602001808311611db557829003601f168201915b5050506003909301549192505060ff1685565b336000908152600a6020526040902054811115611e6d5760405160e560020a62461bcd02815260206004820152602260248201527f5769746864726177616c207265717565737420657863656564732062616c616e60448201527f63650000000000000000000000000000000000000000000000000000000000006064820152608401610868565b336000908152600a602052604081208054839290611e8c90849061427b565b9091555050336000818152600a6020908152604091829020548251858152918201527fca62fbd351618e763b8450544cf72f21d3e010b71571021a350a18a667266507910160405180910390a2604051600090339083908381818185875af1925050503d8060008114611f1b576040519150601f19603f3d011682016040523d82523d6000602084013e611f20565b606091505b5050905080611f445760405160e560020a62461bcd02815260040161086890613f96565b5050565b336000526007602052806000600e8263ffffffff1681548110611f7e5760e060020a634e487b7102600052603260045260246000fd5b90600052602060002090600302016001015410156120075760405160e560020a62461bcd02815260206004820152603960248201527f446973747269627574696f6e2063616e6e6f742070726f63656564202d20446960448201527f73747269627574696f6e20616d6f756e74206973203c3d2030000000000000006064820152608401610868565b600e8163ffffffff16815481106120315760e060020a634e487b7102600052603260045260246000fd5b906000526020600020906003020160020160059054906101000a900460ff166120c55760405160e560020a62461bcd02815260206004820152603960248201527f446973747269627574696f6e2063616e6e6f742070726f63656564202d20446960448201527f73747269627574696f6e206c69737420697320696e766c6964000000000000006064820152608401610868565b6001600e8263ffffffff16815481106120f15760e060020a634e487b7102600052603260045260246000fd5b906000526020600020906003020160020160069054906101000a900460ff1660038111156121325760e060020a634e487b7102600052602160045260246000fd5b146121a85760405160e560020a62461bcd02815260206004820152603960248201527f446973747269627574696f6e2063616e6e6f742070726f63656564207374617460448201527f7573206973206e6f742066756e647320726571756573746564000000000000006064820152608401610868565b600160096000600e8463ffffffff16815481106121d85760e060020a634e487b7102600052603260045260246000fd5b6000918252602080832060039283020154640100000000900463ffffffff16845283019390935260409091019020015460ff16600281111561222d5760e060020a634e487b7102600052602160045260246000fd5b141561224e5760405160e560020a62461bcd02815260040161086890613f04565b600e8163ffffffff16815481106122785760e060020a634e487b7102600052603260045260246000fd5b906000526020600020906003020160010154600c600e8363ffffffff16815481106122b65760e060020a634e487b7102600052603260045260246000fd5b906000526020600020906003020160000160089054906101000a900463ffffffff1663ffffffff16815481106122ff5760e060020a634e487b7102600052603260045260246000fd5b90600052602060002090600602016004015410156123625760405160e560020a62461bcd02815260206004820152601b60248201527f446973747269627574696f6e2063616e6e6f742070726f6365656400000000006044820152606401610868565b600e8163ffffffff168154811061238c5760e060020a634e487b7102600052603260045260246000fd5b6000918252602080832060016003909302019190910154338352600790915260409091205410156124285760405160e560020a62461bcd02815260206004820152603060248201527f446973747269627574696f6e2063616e6e6f742070726f63656564202d20696e60448201527f73756666696369656e742066756e6473000000000000000000000000000000006064820152608401610868565b600e8263ffffffff16815481106124525760e060020a634e487b7102600052603260045260246000fd5b906000526020600020906003020160010154600c600e8463ffffffff16815481106124905760e060020a634e487b7102600052603260045260246000fd5b906000526020600020906003020160000160089054906101000a900463ffffffff1663ffffffff16815481106124d95760e060020a634e487b7102600052603260045260246000fd5b906000526020600020906006020160030160008282546124f9919061420f565b9091555050600e805463ffffffff84169081106125295760e060020a634e487b7102600052603260045260246000fd5b906000526020600020906003020160010154600c600e8463ffffffff16815481106125675760e060020a634e487b7102600052603260045260246000fd5b9060005260206000209060030201600001600c9054906101000a900463ffffffff1663ffffffff16815481106125b05760e060020a634e487b7102600052603260045260246000fd5b906000526020600020906006020160040160008282546125d0919061427b565b925050819055506002600e8363ffffffff16815481106126035760e060020a634e487b7102600052603260045260246000fd5b906000526020600020906003020160020160066101000a81548160ff021916908360038111156126465760e060020a634e487b7102600052602160045260246000fd5b02179055507f08ddbf2387a120cff0436b65891479eb2aeee9f0da8d2a185b7d816230e1e73b8260096000600e8663ffffffff168154811061269b5760e060020a634e487b7102600052603260045260246000fd5b906000526020600020906003020160000160049054906101000a900463ffffffff1663ffffffff1663ffffffff168152602001908152602001600020600101600c600e8663ffffffff16815481106127065760e060020a634e487b7102600052603260045260246000fd5b906000526020600020906003020160000160089054906101000a900463ffffffff1663ffffffff168154811061274f5760e060020a634e487b7102600052603260045260246000fd5b9060005260206000209060060201600101600260405161277294939291906140e4565b60405180910390a17f6d4ebf9c7976833e896382bcf9e4f20c664a8fca4dd04e317196abcf1469de49600e8363ffffffff16815481106127c55760e060020a634e487b7102600052603260045260246000fd5b906000526020600020906003020160000160089054906101000a900463ffffffff16600c600e8563ffffffff16815481106128135760e060020a634e487b7102600052603260045260246000fd5b906000526020600020906003020160000160089054906101000a900463ffffffff1663ffffffff168154811061285c5760e060020a634e487b7102600052603260045260246000fd5b9060005260206000209060060201600101600160405161287e939291906140c5565b60405180910390a1600060096000600e8563ffffffff16815481106128b65760e060020a634e487b7102600052603260045260246000fd5b906000526020600020906003020160000160049054906101000a900463ffffffff1663ffffffff1663ffffffff16815260200190815260200160002060000160049054906101000a9004600160a060020a031690506000600e8463ffffffff16815481106129375760e060020a634e487b7102600052603260045260246000fd5b9060005260206000209060030201600101549050600082600160a060020a03168260405160006040518083038185875af1925050503d8060008114612998576040519150601f19603f3d011682016040523d82523d6000602084013e61299d565b606091505b5050905080612a175760405160e560020a62461bcd02815260206004820152602760248201527f4661696c656420746f2073656e642066756e647320746f20746865206469737460448201527f72696275746f72000000000000000000000000000000000000000000000000006064820152608401610868565b5050505050565b6060600480546107bf90614292565b336000908152600160209081526040808320600160a060020a038616845290915281205482811015612aca5760405160e560020a62461bcd02815260206004820152602560248201527f45524332303a2064656372656173656420616c6c6f77616e63652062656c6f7760448201527f207a65726f0000000000000000000000000000000000000000000000000000006064820152608401610868565b612ad733858584036133ce565b5060019392505050565b600061084f33848461352c565b63ffffffff81166000908152600660209081526040808320600101543384526007909252909120548391612b219161427b565b1015612b985760405160e560020a62461bcd02815260206004820152602f60248201527f446f6e6174696f6e20616d6f756e74206578636565647320646f6e6f7220617660448201527f61696c61626c652062616c616e636500000000000000000000000000000000006064820152608401610868565b6000600c8263ffffffff1681548110612bc45760e060020a634e487b7102600052603260045260246000fd5b6000918252602080832060069283020154640100000000900463ffffffff1680845291905260408220600101805491935085929091612c0490849061420f565b9250508190555082600c8363ffffffff1681548110612c365760e060020a634e487b7102600052603260045260246000fd5b90600052602060002090600602016002016000828254612c56919061420f565b925050819055506001600c8363ffffffff1681548110612c895760e060020a634e487b7102600052603260045260246000fd5b60009182526020909120600560069092020101805465ff0000000000191665010000000000836002811115612cd15760e060020a634e487b7102600052602160045260246000fd5b02179055507f6d4ebf9c7976833e896382bcf9e4f20c664a8fca4dd04e317196abcf1469de4982600c8463ffffffff1681548110612d225760e060020a634e487b7102600052603260045260246000fd5b90600052602060002090600602016001016001604051612d44939291906140c5565b60405180910390a1505050565b33600090815260076020526040812054819081908190819081908190815b600c5463ffffffff82161015612e0c578963ffffffff16600c8263ffffffff1681548110612db05760e060020a634e487b7102600052603260045260246000fd5b6000918252602090912060069091020154640100000000900463ffffffff161415612dfa57612ddf858061420f565b9450612deb848061420f565b9350612df7838061420f565b92505b80612e04816142d0565b915050612d6f565b5092989197509550909350915050565b3360009081526007602052604081208054839290612e3b90849061420f565b9091555050348110612e925760405160e560020a62461bcd02815260206004820152601260248201527f496e73756666696369656e742066756e647300000000000000000000000000006044820152606401610868565b604051600090339083908381818185875af1925050503d8060008114612ed4576040519150601f19603f3d011682016040523d82523d6000602084013e612ed9565b606091505b5050905080612f525760405160e560020a62461bcd028152602060048201526024808201527f4661696c656420746f206465706f7369742066756e647320746f20746865206460448201527f6f6e6f72000000000000000000000000000000000000000000000000000000006064820152608401610868565b60405182815233907f77d8afee183d11db3d908fb0e5a51061864f89ac6954f40c33855d318d93190d9060200160405180910390a25050565b336000908152600a6020526040812054156130115760405160e560020a62461bcd02815260206004820152602160248201527f63616e6e6f742062652063616c6c6564206279206469737472696275746f727360448201527f2e000000000000000000000000000000000000000000000000000000000000006064820152608401610868565b33600090815260076020526040902054156130975760405160e560020a62461bcd02815260206004820152602d60248201527f63616e6e6f742063726561746520616e6f7468657220646f6e6f7220666f722060448201527f74686973206163636f756e742e000000000000000000000000000000000000006064820152608401610868565b6040805160808101825260055463ffffffff60a860020a90910481168083523360208085019182526000858701818152606087018b815294825260068352969020855181549351600160a060020a03166401000000000277ffffffffffffffffffffffffffffffffffffffff00000000199190961663ffffffff199094169390931792909216939093178155935160018501555180519293926131409260028501920190613990565b505033600081815260076020908152604091829020869055600554825160a860020a90910463ffffffff16815234918101919091529192507fe3a6f05109f9c5364a4a4672a1960be53433c573829417088813d16a73bf80e3910160405180910390a26005546131be9060a860020a900463ffffffff166001614227565b6005805463ffffffff9290921660a860020a0278ffffffff0000000000000000000000000000000000000000001990921691909117905550600192915050565b600554600160a060020a036101009091041633146132315760405160e560020a62461bcd02815260040161086890613f61565b600160a060020a0381166132b05760405160e560020a62461bcd02815260206004820152602660248201527f4f776e61626c653a206e6577206f776e657220697320746865207a65726f206160448201527f64647265737300000000000000000000000000000000000000000000000000006064820152608401610868565b6132b9816137f6565b50565b600c81815481106132cc57600080fd5b60009182526020909120600690910201805460018201805463ffffffff8084169550640100000000909304909216929161330590614292565b80601f016020809104026020016040519081016040528092919081815260200182805461333190614292565b801561337e5780601f106133535761010080835404028352916020019161337e565b820191906000526020600020905b81548152906001019060200180831161336157829003601f168201915b505050506002830154600384015460048501546005909501549394919390925063ffffffff81169060ff64010000000082048116916501000000000081048216916601000000000000909104168a565b600160a060020a03831661344c5760405160e560020a62461bcd028152602060048201526024808201527f45524332303a20617070726f76652066726f6d20746865207a65726f2061646460448201527f72657373000000000000000000000000000000000000000000000000000000006064820152608401610868565b600160a060020a0382166134cb5760405160e560020a62461bcd02815260206004820152602260248201527f45524332303a20617070726f766520746f20746865207a65726f20616464726560448201527f73730000000000000000000000000000000000000000000000000000000000006064820152608401610868565b600160a060020a0383811660008181526001602090815260408083209487168084529482529182902085905590518481527f8c5be1e5ebec7d5bd14f71427d1e84f3dd0314c0f7b2291e5b200ac8c7c3b925910160405180910390a3505050565b600160a060020a0383166135ab5760405160e560020a62461bcd02815260206004820152602560248201527f45524332303a207472616e736665722066726f6d20746865207a65726f20616460448201527f64726573730000000000000000000000000000000000000000000000000000006064820152608401610868565b600160a060020a03821661362a5760405160e560020a62461bcd02815260206004820152602360248201527f45524332303a207472616e7366657220746f20746865207a65726f206164647260448201527f65737300000000000000000000000000000000000000000000000000000000006064820152608401610868565b6136358383836138e8565b600160a060020a038316600090815260208190526040902054818110156136c75760405160e560020a62461bcd02815260206004820152602660248201527f45524332303a207472616e7366657220616d6f756e742065786365656473206260448201527f616c616e636500000000000000000000000000000000000000000000000000006064820152608401610868565b600160a060020a038085166000908152602081905260408082208585039055918516815290812080548492906136fe90849061420f565b9250508190555082600160a060020a031684600160a060020a03167fddf252ad1be2c89b69c2b068fc378daa952ba7f163c4a11628f55a4df523b3ef8460405161374a91815260200190565b60405180910390a3610b58565b60055460ff166137ac5760405160e560020a62461bcd02815260206004820152601460248201527f5061757361626c653a206e6f74207061757365640000000000000000000000006044820152606401610868565b6005805460ff191690557f5db9ee0a495bf2e6ff9c91a7834c1ba4fdd244a5e8aa4e537bd38aeae4b073aa335b604051600160a060020a03909116815260200160405180910390a1565b60058054600160a060020a0383811661010081810274ffffffffffffffffffffffffffffffffffffffff001985161790945560405193909204169182907f8be0079c531659141344cd1fd0a4f28419497f9722a3daafe3b4186f6b6457e090600090a35050565b60055460ff16156138b35760405160e560020a62461bcd02815260206004820152601060248201527f5061757361626c653a20706175736564000000000000000000000000000000006044820152606401610868565b6005805460ff191660011790557f62e78cea01bee320cd4e420270b5ea74000d11b0c9f74754ebdbfc544b05a2586137d93390565b60055460ff161561393e5760405160e560020a62461bcd02815260206004820152601060248201527f5061757361626c653a20706175736564000000000000000000000000000000006044820152606401610868565b505050565b6040805161012081018252600080825260208201819052918101829052606081018290526080810182905260a0810182905260c0810182905260e08101829052906101008201905b905290565b82805461399c90614292565b90600052602060002090601f0160209004810192826139be5760008555613a04565b82601f106139d757805160ff1916838001178555613a04565b82800160010185558215613a04579182015b82811115613a045782518255916020019190600101906139e9565b50613a10929150613a68565b5090565b604080516101408101825260008082526020820181905260609282018390529181018290526080810182905260a0810182905260c0810182905260e08101829052906101008201908152602001600061398b565b5b80821115613a105760008155600101613a69565b8035600160a060020a03811681146119ae57600080fd5b600082601f830112613aa4578081fd5b813567ffffffffffffffff80821115613abf57613abf614326565b604051601f8301601f19908116603f01168101908282118183101715613ae757613ae7614326565b81604052838152866020858801011115613aff578485fd5b8360208701602083013792830160200193909352509392505050565b803563ffffffff811681146119ae57600080fd5b803560ff811681146119ae57600080fd5b600060208284031215613b51578081fd5b613b5a82613a7d565b9392505050565b60008060408385031215613b73578081fd5b613b7c83613a7d565b9150613b8a60208401613a7d565b90509250929050565b600080600060608486031215613ba7578081fd5b613bb084613a7d565b9250613bbe60208501613a7d565b9150604084013590509250925092565b60008060408385031215613be0578182fd5b613be983613a7d565b946020939093013593505050565b60008060408385031215613c09578182fd5b823567ffffffffffffffff80821115613c20578384fd5b613c2c86838701613a94565b93506020850135915080821115613c41578283fd5b50613c4e85828601613a94565b9150509250929050565b60008060408385031215613c6a578182fd5b823567ffffffffffffffff811115613c80578283fd5b613c8c85828601613a94565b95602094909401359450505050565b60008060008060808587031215613cb0578081fd5b843567ffffffffffffffff811115613cc6578182fd5b613cd287828801613a94565b945050613ce160208601613b1b565b9250613cef60408601613b1b565b9150613cfd60608601613b2f565b905092959194509250565b600060208284031215613d19578081fd5b5035919050565b60008060408385031215613d32578182fd5b82359150613b8a60208401613b1b565b600060208284031215613d53578081fd5b613b5a82613b1b565b60008060408385031215613d6e578182fd5b613d7783613b1b565b9150613b8a60208401613b1b565b600080600080600060a08688031215613d9c578081fd5b613da586613b1b565b9450613db360208701613b1b565b9350613dc160408701613b1b565b9250613dcf60608701613b2f565b915060808601358015158114613de3578182fd5b809150509295509295909350565b60048110613e0157613e0161430d565b9052565b60008151808452815b81811015613e2a57602081850181015186830182015201613e0e565b81811115613e3b5782602083870101525b50601f01601f19169290920160200192915050565b805460009060028104600180831680613e6a57607f831692505b6020808410821415613e8d5760e060020a634e487b710286526022600452602486fd5b83885260208801828015613ea85760018114613eb957613ee4565b60ff19871682528282019750613ee4565b60008981526020902060005b87811015613ede57815484820152908601908401613ec5565b83019850505b5050505050505092915050565b600060208252613b5a6020830184613e05565b60208082526033908201527f446973747269627574696f6e2063616e6e6f742070726f63656564202d20446960408201527f737472696275746f7220756e7472757374656400000000000000000000000000606082015260800190565b6020808252818101527f4f776e61626c653a2063616c6c6572206973206e6f7420746865206f776e6572604082015260600190565b60208082526025908201527f4661696c656420746f2077697468647261772066756e647320746f207468652060408201527f646f6e6f72000000000000000000000000000000000000000000000000000000606082015260800190565b600063ffffffff87168252600160a060020a038616602083015260a0604083015261402160a0830186613e05565b82810360608401526140338186613e05565b91505061403f8361433f565b8260808301529695505050505050565b600063ffffffff86168252600160a060020a0385166020830152836040830152608060608301526140836080830184613e05565b9695505050505050565b600063ffffffff85168252606060208301526140ac6060830185613e05565b90506140b78361433f565b826040830152949350505050565b600063ffffffff85168252606060208301526140ac6060830185613e50565b600063ffffffff86168252608060208301526141036080830186613e50565b82810360408401526141158186613e50565b9150506141256060830184613df1565b95945050505050565b600061014063ffffffff808e168452808d1660208501528160408501526141578285018d613e05565b92508a60608501528960808501528860a085015280881660c0850152505060ff851660e08301526141878461433f565b836101008301526141978361433f565b826101208301529b9a5050505050505050505050565b63ffffffff8a8116825289811660208301528881166040830152878116606083015260808201879052851660a082015260ff841660c082015282151560e08201526101208101614201610100830184613df1565b9a9950505050505050505050565b60008219821115614222576142226142f4565b500190565b600063ffffffff808316818516808303821115614246576142466142f4565b01949350505050565b600063ffffffff80831681851681830481118215151615614272576142726142f4565b02949350505050565b60008282101561428d5761428d6142f4565b500390565b6002810460018216806142a657607f821691505b602082108114156142ca5760e060020a634e487b7102600052602260045260246000fd5b50919050565b600063ffffffff808316818114156142ea576142ea6142f4565b6001019392505050565b60e060020a634e487b7102600052601160045260246000fd5b60e060020a634e487b7102600052602160045260246000fd5b60e060020a634e487b7102600052604160045260246000fd5b600381106132b9576132b961430d56fea2646970667358221220b9ec14fbe4ae7a2d12488058d4b90c9c496a7a7b30e5c0951aa3b7015109232f64736f6c63430008020033",
  "immutableReferences": {},
  "source": "// SPDX-License-Identifier: MIT\npragma solidity ^0.8.2;\n\n/// @title A contract for managing donations and distribution of donated funds\n/// @author Sean Evans Nov 2021\n/// @notice This contract is meant for the Consensys academoy final project\n\nimport \"@openzeppelin/contracts/token/ERC20/ERC20.sol\";\nimport \"@openzeppelin/contracts/access/Ownable.sol\";\nimport \"@openzeppelin/contracts/security/Pausable.sol\";\n\n//contract DonationManager is Initializable, ERC20Upgradeable, PausableUpgradeable, OwnableUpgradeable, ERC20PermitUpgradeable {\ncontract DonationManager is ERC20, Pausable, Ownable {\n\n    enum DonationState      { DonationCreated, Funded, Distributing }\n    enum DonationPurpose    { FoodTokens, Hospital, Disaster }\n    enum DistributorStatus  { New, unTrusted, Trusted }\n    enum DistributionState  { DistributionCreated, FundsRequested, FundsApproved , FundsNOTApproved }\n\n    /// @dev Donor Details\n    /// @notice  AmountDonated is the amount of balance ring fenced to all donations\n    struct Donor {\n       uint32       donorID;\n       address      donorAddress;\n       uint256      amountDonated;\n       string       donorName;\n    }\n\n    /// @dev Organisation responsible for distributing funds to recipients\n    struct  Distributor {\n       uint32       distributorID;\n       address      distributorAddress;\n       string       distributorName;\n       string       distributorCountry;\n       DistributorStatus  distributorStatus;\n    }\n\n    /// @dev Currently one donor per donation but one donor can do many donations\n    /// @notice donationAmount = Funds availalbe to be claimed (must be <= donor's balance)\n    /// @notice donationGrantedAmount = Funds approved to distributions - possibly sent to distributor\n    /// @notice requestedNotGrantedAmount = Funds requested by distributors but not granted (approved) yet - potential claims\n    /// @dev A donation can have multiple distributions\n    struct  Donation {\n       uint32       donationID;\n       uint32       donorID;\n       string       donationName;\n       uint256      donationAmount;\n       uint256      donationGrantedAmount;\n       uint256      requestedNotGrantedAmount;\n       uint32       USDperRecipientPerMonth;\n       uint8        adminFeePercent;\n       DonationState    donationState;\n       DonationPurpose  donationPurpose;\n    }\n    //uint32[]         distributionIDs;\n\n    /// @dev distributionAmount = USD per person * recipientCountr * distributionMonths\n    /// @notice Number of recipients with trusted details; New distributors max 1000 recipients or USD 50k\n    /// @notice Number of months to run the distribution; for example New distributors can only run 1 month\n    /// @dev recipientDetailsAreValid is not properly implemented yet: possibly check against IPFS link to unmodifiable list of trusted recipients\n    struct  Distribution {\n       uint32       distributionID;\n       uint32       distributorID;\n       uint32       donationID;\n       uint32       donorID;\n       uint256      distributionAmount;\n       uint32       recipientCount;\n       uint8        distributionMonths;\n       bool         recipientDetailsAreValid;\n       DistributionState  distributionState;\n    }\n\n    /// @dev Donors\n    uint32 public donorCount;\n    mapping (uint32 => Donor )   public allDonors;\n    mapping (address => uint256) public donorBalances;\n    event LogDonorAdded(address indexed donorAddress, uint32 donorID, uint256 balance);\n    event LogDonorDeposit(address indexed donorAddress, uint256 donationAmount);\n    event LogDonorWithdrawal(address indexed donorAddress, uint256 withdrawAmount, uint256 remainingBalance);\n\n    /// @dev Distributors\n    uint32 public distributorCount;\n    mapping (uint32 => Distributor ) public allDistributors;\n    mapping (address => uint256)     internal distributorBalances;\n    event LogDistributorStatus(address indexed distributorAddress, uint32 distributorID,  string distributorName, DistributorStatus distributorStatus);\n    event LogDistributorWithdrawal(address indexed donorAddress, uint256 withdrawAmount, uint256 remainingBalance);\n\n    /// @dev Donations\n    uint32 public donationCount;\n    /// @dev Using arrays rather than mappings where I need to iterate over the contents\n    Donation[] public donations;\n    event LogDonationState(uint32 donationID, string donationName, DonationState);\n\n    /// @dev Disrtibutions\n    uint32 public distributionCount;\n    Distribution[] public distributions;\n    event LogDistributionState(uint32 distributionID, string distributorName, string donationName, DistributionState);\n    event LogDistributionRequest(uint32 distributionID, string distributorName, uint256 donationAmount);\n\n    modifier isDonor() {\n        require(donorBalances[msg.sender] >= 0, \"This function is restricted to donors.\" );\n        _;\n    }\n\n    /// @dev A distributor cannot become a donor\n    /// @dev A donor can only be added once\n    modifier onlyDonor() {\n        require(distributorBalances[msg.sender] == 0 , \"cannot be called by distributors.\" );\n        require(donorBalances[msg.sender] == 0 , \"cannot create another donor for this account.\" );\n        _;\n    }\n\n    /// @dev A donor cannot become a distributor\n    modifier onlyDistributor() {\n        require(donorBalances[msg.sender] == 0 , \"cannot be called by donors.\" );\n        _;\n    }\n\n    modifier isDistributor() {\n        require(distributorBalances[msg.sender] >= 0, \"This function is restricted to distributors.\" );\n        _;\n    }\n\n    /// @dev We can proceed with distributing funds after these checks\n    /// @dev If the distributorStatus is new they cannot request funding for more than 1000 recipients\n    /// @dev The donation must have sufficient funds for the distribution\n    /// @dev The distribution list must be valid (outside the scope of this project)\n    modifier distributionCanProceed(uint32 _distributionID) {\n        require(distributions[_distributionID].distributionAmount >= 0 , \"Distribution cannot proceed - Distribution amount is <= 0\");\n        require(distributions[_distributionID].recipientDetailsAreValid , \"Distribution cannot proceed - Distribution list is invlid\");\n        require(distributions[_distributionID].distributionState == DistributionState.FundsRequested, \"Distribution cannot proceed status is not funds requested\");\n        require(allDistributors[distributions[_distributionID].distributorID].distributorStatus != DistributorStatus.unTrusted, \"Distribution cannot proceed - Distributor untrusted\");\n        require(donations[distributions[_distributionID].donationID].requestedNotGrantedAmount >= distributions[_distributionID].distributionAmount , \"Distribution cannot proceed\");\n        require(donorBalances[msg.sender] >= distributions[_distributionID].distributionAmount , \"Distribution cannot proceed - insufficient funds\");\n        _;\n    }\n\n    modifier distributorStatusCanChange(uint32 _distributorID) {\n        require(allDistributors[_distributorID].distributorStatus != DistributorStatus.unTrusted, \"Distribution cannot proceed - Distributor untrusted\");\n        _;\n    }\n\n    modifier distributionsAreUpToDate(uint32 _donorID) {\n        for (uint32 i = 0; i < distributions.length; i++) {\n            require((distributions[i].donorID == _donorID && distributions[i].distributionState  == DistributionState.FundsRequested), \"First Approve or deny open distributions.\");\n        }\n        _;\n    }\n\n    modifier donationIsFunded(uint32 _donationID) {\n        require((donations[_donationID].donationState == DonationState.Funded || donations[_donationID].donationState == DonationState.Distributing),\n        \"Distribution cannot proceed until donation is funded.\");\n        _;\n    }\n\n    constructor() ERC20(\"\", \"\") {\n        donorCount = 0;\n        distributorCount = 0;\n        donationCount = 0;\n        distributionCount = 0;\n    }\n\n    /// @dev Create a new donor - It connot come from the same address as an exiting distributor\n    /// @dev amount donated is just a running balance, not an actual account balance\n    function createDonor(string memory _donorName, uint256 currentBalance) payable public onlyDonor returns( bool ) {\n        allDonors[donorCount] = Donor( {\n            donorID         : donorCount,\n            donorAddress    :  payable(msg.sender),\n            amountDonated   : 0,\n            donorName       : _donorName\n        });\n        //donorBalances[msg.sender] = 0;\n        // Set donor balance to amount in donor's account\n        donorBalances[msg.sender] = currentBalance;\n        emit LogDonorAdded(msg.sender, donorCount, msg.value);\n        donorCount = donorCount + 1;\n        return true;\n    }\n\n    /// @dev Create a new distributor - It connot come from the same address as an exiting donor\n    function createDistributor(string memory _distributorName, string memory _distributorCountry)\n        public onlyDistributor returns ( bool ) {\n        allDistributors[distributorCount] = Distributor( {\n            distributorID       : distributorCount,\n            distributorAddress  : payable(msg.sender),\n            distributorName     : _distributorName,\n            distributorCountry  : _distributorCountry,\n            distributorStatus   : DistributorStatus.New\n        });\n        /// @notice  Set the donation balance to\n        distributorBalances[msg.sender] = 0;\n        emit LogDistributorStatus(msg.sender, distributorCount, _distributorName, DistributorStatus.New);\n        distributorCount = distributorCount + 1;\n        return true;\n    }\n\n    /// @dev Create a new Donation. It can only be created by donors\n    function createDonation(string memory _donationName, uint32  _donorID,\n        uint32  _USDperRecipientPerMonth, uint8  _adminFeePercent)\n        public isDonor returns ( bool ) {\n\n        Donation memory currentDonation;\n\n        currentDonation.donationID                  = donationCount;\n        currentDonation.donorID                     = _donorID;\n        currentDonation.donationName                = _donationName;\n        currentDonation.donationAmount              = 0;\n        currentDonation.donationGrantedAmount       = 0;\n        currentDonation.requestedNotGrantedAmount   = 0;\n        currentDonation.USDperRecipientPerMonth     = _USDperRecipientPerMonth;\n        currentDonation.adminFeePercent             = _adminFeePercent;\n        donations.push(currentDonation);\n\n/*\n        d.donationPurpose         = DonationPurpose.FoodTokens;\n        d.donationPurpose         = DonationPurpose.FoodTokens(_donationPurpose);\n*/\n        emit LogDonationState(donationCount, _donationName, DonationState.DonationCreated);\n        /// @notice Add this donation to the donor\n        donationCount = donationCount + 1;\n        return true;\n    }\n\n    function donorDeposit(uint256 _depositAmount) public isDonor payable {\n        donorBalances[msg.sender] += _depositAmount;\n        require(msg.value > _depositAmount, \"Insufficient funds\");\n        (bool sent,) = msg.sender.call{value: _depositAmount}(\"\");\n        require(sent, \"Failed to deposit funds to the donor\");\n        emit LogDonorDeposit(msg.sender, _depositAmount);\n    }\n\n    /// @dev Allow the donor to ring fence funds for a donation. No actual transfer of funds.\n    function makeDonation(uint256 _donationAmount, uint32 _donationID) public isDonor  {\n      require((donorBalances[msg.sender] - allDonors[_donationID].amountDonated) >= _donationAmount, \"Donation amount exceeds donor available balance\");\n      uint32 donorID = donations[_donationID].donorID;\n      allDonors[donorID].amountDonated += _donationAmount;\n      donations[_donationID].donationAmount += _donationAmount;\n      donations[_donationID].donationState = DonationState.Funded;\n      emit LogDonationState(_donationID, donations[_donationID].donationName, DonationState.Funded);\n    }\n\n    /// @dev Allow the donor to change the status of the distributor to either trusted or untrusted.\n    /// @dev Once set to untrusted it cannot be altered.\n    function changeDistributorStatus(uint32 _distributorID, uint32 _distributorStatus)\n            public isDonor distributorStatusCanChange(_distributorID) {\n      DistributorStatus newDistributorStatus = DistributorStatus(_distributorStatus);\n      allDistributors[_distributorID].distributorStatus = newDistributorStatus;\n      emit LogDistributorStatus(msg.sender, _distributorID,\n                                allDistributors[_distributorID].distributorName,\n                                DistributorStatus(_distributorStatus));\n    }\n\n    /// @dev Get the balances of a specific donation : Used by the distributor to check what funds are available\n    /// @return donatedAmount\n    /// @return grantedAmount Distributed Amount - funds actually sent to distributor\n    /// @return requestedNotGranted Requested amount but not approved\n    function getDonationBalance(uint32 _donationID)\n      public view returns (uint256 donatedAmount, uint256 grantedAmount, uint256 requestedNotGranted) {\n      return (donations[_donationID].donationAmount, donations[_donationID].donationGrantedAmount, donations[_donationID].requestedNotGrantedAmount);\n    }\n\n    /// @dev Get the balances of the donor ; i.e. all summarise all donations made by this donor\n    /// @return donatedAmount  Total Donated Amount\n    /// @return grantedAmount Distributed Amount - funds actually sent to distributor\n    /// @return requestedNotGranted Requested amount but not approved\n    /// @return fundsAvailableToWithdraw Funds available to withdraw\n    function getAllDonorBalances(uint32 _donorID)  public isDonor view\n        returns (uint256 donatedAmount, uint256 grantedAmount, uint256 requestedNotGranted,\n        uint256 fundsAvailableToWithdraw) {\n      uint256  _donatedAmount = 0;\n      uint256  _grantedAmount = 0;\n      uint256  _requestedNotGranted = 0;\n      uint256  _fundsAvailableToWithdraw = donorBalances[msg.sender];\n      for (uint32 i = 0; i < donations.length; i++) {\n            if (donations[i].donorID == _donorID) {\n                _donatedAmount += _donatedAmount;\n                _grantedAmount += _grantedAmount;\n                _requestedNotGranted += _requestedNotGranted;\n            }\n      }\n      return (_donatedAmount,_grantedAmount,_requestedNotGranted,_fundsAvailableToWithdraw );\n    }\n\n    /// @dev Get the balances of the ddistributor across all distributions\n    function getDistributorBalance() public isDistributor view returns (uint256 availbleToWithdraw) {\n      return (distributorBalances[msg.sender]);\n    }\n\n    /// @dev Create a new distribution - It cannot come from an exiting donor\n    /// @notice Requires that The donor list is verified - verification of lists to happen outside on IPFS - not implemented\n    function createDistribution(uint32 _distributorID, uint32 _donationID, uint32 _recipientCount, uint8 _distributionMonths,\n                                bool _recipientDetailsAreValid)\n                                public isDistributor donationIsFunded(_donationID) returns( bool ) {\n\n        uint32  distributionClaim = _recipientCount * _distributionMonths * donations[_donationID].USDperRecipientPerMonth;\n        uint256  availableToClaim  = donations[_donationID].donationAmount -\n                                (donations[_donationID].donationGrantedAmount + donations[_donationID].requestedNotGrantedAmount);\n        require( availableToClaim >= distributionClaim, \"This donation has insufficient funds to distribute.\" );\n\n        Distribution memory currentDistribution;\n            currentDistribution.distributionID          = distributionCount;\n            currentDistribution.distributorID           = _distributorID;\n            currentDistribution.donationID              = _donationID;\n            currentDistribution.donorID                 = donations[_donationID].donorID;\n            currentDistribution.distributionAmount      = distributionClaim;\n            currentDistribution.recipientCount          = _recipientCount;\n            currentDistribution.distributionMonths      = _distributionMonths;\n            currentDistribution.recipientDetailsAreValid  = _recipientDetailsAreValid;\n            //currentDistribution.distributionState       = DistributionState.DistributionCreated;\n            distributions.push(currentDistribution);\n\n        emit LogDistributionState(distributionCount, allDistributors[_distributorID].distributorName,\n                                  donations[_donationID].donationName, DistributionState.DistributionCreated);\n\n        /// @notice Now make a claim against the Donation\n        donations[_donationID].requestedNotGrantedAmount += distributionClaim;\n        distributions[distributionCount].distributionState = DistributionState.FundsRequested;\n        emit LogDistributionState(distributionCount, allDistributors[_distributorID].distributorName,\n                                  donations[_donationID].donationName, DistributionState.FundsRequested);\n        distributionCount = distributionCount + 1;\n        return true;\n    }\n\n    /// @dev send funds to a Distribution if the conditions are met\n    /// @notice if successful Update the amount granted on the donation and reduce the amount requested\n    function requestDonationFunds(uint32 _distributionID) public payable isDonor distributionCanProceed(_distributionID) {\n      donations[distributions[_distributionID].donationID].donationGrantedAmount += distributions[_distributionID].distributionAmount;\n      donations[distributions[_distributionID].donorID].requestedNotGrantedAmount -= distributions[_distributionID].distributionAmount;\n      distributions[_distributionID].distributionState = DistributionState.FundsApproved;\n      emit LogDistributionState(_distributionID, allDistributors[distributions[_distributionID].distributorID].distributorName,\n                                 donations[distributions[_distributionID].donationID].donationName,\n                                 DistributionState.FundsApproved);\n      emit LogDonationState(distributions[_distributionID].donationID,\n                            donations[distributions[_distributionID].donationID].donationName,\n                            DonationState.Funded);\n      address distAddr = payable(allDistributors[distributions[_distributionID].distributorID].distributorAddress);\n      uint256 distrAmt = distributions[_distributionID].distributionAmount;\n      /// @notice Check that this is actually seding from donor to distributor\n      (bool sent,) = distAddr.call{value: distrAmt}(\"\");\n      require(sent, \"Failed to send funds to the distributor\");\n    }\n\n    /// @dev Allow the donor to withdraw funds balance provided there are no distributions that have submitted funding requests\n    function donorWithdrawal(uint256 _withdrawAmount, uint32 _donorID) public payable isDonor distributionsAreUpToDate (_donorID) {\n      require(donorBalances[msg.sender] >= _withdrawAmount, \"Withdrawal request exceeds donor balance\");\n      donorBalances[msg.sender] -= _withdrawAmount;\n      emit LogDonorWithdrawal(msg.sender, _withdrawAmount, donorBalances[msg.sender]);\n      //payable(msg.sender).transfer(_withdrawAmount);\n      (bool sent,) = msg.sender.call{value: _withdrawAmount}(\"\");\n      require(sent, \"Failed to withdraw funds to the donor\");\n    }\n\n    /// @dev Allow the distributor to withdraw funds balance\n    function distributorWithdrawal(uint _withdrawAmount) public payable isDistributor  {\n      require(distributorBalances[msg.sender] >= _withdrawAmount, \"Withdrawal request exceeds balance\");\n      distributorBalances[msg.sender] -= _withdrawAmount;\n      emit LogDistributorWithdrawal(msg.sender, _withdrawAmount, distributorBalances[msg.sender]);\n      //payable(msg.sender).transfer(withdrawAmount);\n      (bool sent,) = msg.sender.call{value: _withdrawAmount}(\"\");\n      require(sent, \"Failed to withdraw funds to the donor\");\n    }\n\n/*    function initialize() initializer public {\n        __ERC20_init(\"MyToken\", \"MTK\");\n        __Pausable_init();\n        __Ownable_init();\n        __ERC20Permit_init(\"MyToken\");\n    }\n*/\n    function pause() public onlyOwner {\n        _pause();\n    }\n\n    function unpause() public onlyOwner {\n        _unpause();\n    }\n\n    function _beforeTokenTransfer(address from, address to, uint256 amount)\n        internal\n        whenNotPaused\n        override\n    {\n        super._beforeTokenTransfer(from, to, amount);\n    }\n\n}\n",
  "sourcePath": "/Users/seanevans/Crypto/Course/finalProject/contracts/DonationManager.sol",
  "compiler": {
    "name": "solc",
    "version": "0.8.2+commit.661d1103.Emscripten.clang"
  },
  "schemaVersion": "3.4.3",
  "updatedAt": "2021-11-12T11:55:33.129Z",
  "networkType": "ethereum",
  "devdoc": {
    "kind": "dev",
    "methods": {
      "allowance(address,address)": {
        "details": "See {IERC20-allowance}."
      },
      "approve(address,uint256)": {
        "details": "See {IERC20-approve}. Requirements: - `spender` cannot be the zero address."
      },
      "balanceOf(address)": {
        "details": "See {IERC20-balanceOf}."
      },
      "changeDistributorStatus(uint32,uint32)": {
        "details": "Allow the donor to change the status of the distributor to either trusted or untrusted.Once set to untrusted it cannot be altered."
      },
      "createDistribution(uint32,uint32,uint32,uint8,bool)": {
        "details": "Create a new distribution - It cannot come from an exiting donor"
      },
      "createDistributor(string,string)": {
        "details": "Create a new distributor - It connot come from the same address as an exiting donor"
      },
      "createDonation(string,uint32,uint32,uint8)": {
        "details": "Create a new Donation. It can only be created by donors"
      },
      "createDonor(string,uint256)": {
        "details": "Create a new donor - It connot come from the same address as an exiting distributoramount donated is just a running balance, not an actual account balance"
      },
      "decimals()": {
        "details": "Returns the number of decimals used to get its user representation. For example, if `decimals` equals `2`, a balance of `505` tokens should be displayed to a user as `5.05` (`505 / 10 ** 2`). Tokens usually opt for a value of 18, imitating the relationship between Ether and Wei. This is the value {ERC20} uses, unless this function is overridden; NOTE: This information is only used for _display_ purposes: it in no way affects any of the arithmetic of the contract, including {IERC20-balanceOf} and {IERC20-transfer}."
      },
      "decreaseAllowance(address,uint256)": {
        "details": "Atomically decreases the allowance granted to `spender` by the caller. This is an alternative to {approve} that can be used as a mitigation for problems described in {IERC20-approve}. Emits an {Approval} event indicating the updated allowance. Requirements: - `spender` cannot be the zero address. - `spender` must have allowance for the caller of at least `subtractedValue`."
      },
      "distributorWithdrawal(uint256)": {
        "details": "Allow the distributor to withdraw funds balance"
      },
      "donorWithdrawal(uint256,uint32)": {
        "details": "Allow the donor to withdraw funds balance provided there are no distributions that have submitted funding requests"
      },
      "getAllDonorBalances(uint32)": {
        "details": "Get the balances of the donor ; i.e. all summarise all donations made by this donor",
        "returns": {
          "donatedAmount": " Total Donated Amount",
          "fundsAvailableToWithdraw": "Funds available to withdraw",
          "grantedAmount": "Distributed Amount - funds actually sent to distributor",
          "requestedNotGranted": "Requested amount but not approved"
        }
      },
      "getDistributorBalance()": {
        "details": "Get the balances of the ddistributor across all distributions"
      },
      "getDonationBalance(uint32)": {
        "details": "Get the balances of a specific donation : Used by the distributor to check what funds are available",
        "returns": {
          "donatedAmount": "donatedAmount",
          "grantedAmount": "Distributed Amount - funds actually sent to distributor",
          "requestedNotGranted": "Requested amount but not approved"
        }
      },
      "increaseAllowance(address,uint256)": {
        "details": "Atomically increases the allowance granted to `spender` by the caller. This is an alternative to {approve} that can be used as a mitigation for problems described in {IERC20-approve}. Emits an {Approval} event indicating the updated allowance. Requirements: - `spender` cannot be the zero address."
      },
      "makeDonation(uint256,uint32)": {
        "details": "Allow the donor to ring fence funds for a donation. No actual transfer of funds."
      },
      "name()": {
        "details": "Returns the name of the token."
      },
      "owner()": {
        "details": "Returns the address of the current owner."
      },
      "paused()": {
        "details": "Returns true if the contract is paused, and false otherwise."
      },
      "renounceOwnership()": {
        "details": "Leaves the contract without owner. It will not be possible to call `onlyOwner` functions anymore. Can only be called by the current owner. NOTE: Renouncing ownership will leave the contract without an owner, thereby removing any functionality that is only available to the owner."
      },
      "requestDonationFunds(uint32)": {
        "details": "send funds to a Distribution if the conditions are met"
      },
      "symbol()": {
        "details": "Returns the symbol of the token, usually a shorter version of the name."
      },
      "totalSupply()": {
        "details": "See {IERC20-totalSupply}."
      },
      "transfer(address,uint256)": {
        "details": "See {IERC20-transfer}. Requirements: - `recipient` cannot be the zero address. - the caller must have a balance of at least `amount`."
      },
      "transferFrom(address,address,uint256)": {
        "details": "See {IERC20-transferFrom}. Emits an {Approval} event indicating the updated allowance. This is not required by the EIP. See the note at the beginning of {ERC20}. Requirements: - `sender` and `recipient` cannot be the zero address. - `sender` must have a balance of at least `amount`. - the caller must have allowance for ``sender``'s tokens of at least `amount`."
      },
      "transferOwnership(address)": {
        "details": "Transfers ownership of the contract to a new account (`newOwner`). Can only be called by the current owner."
      }
    },
    "stateVariables": {
      "distributionCount": {
        "details": "Disrtibutions"
      },
      "distributorCount": {
        "details": "Distributors"
      },
      "donationCount": {
        "details": "Donations"
      },
      "donations": {
        "details": "Using arrays rather than mappings where I need to iterate over the contents"
      },
      "donorCount": {
        "details": "Donors"
      }
    },
    "version": 1
  },
  "userdoc": {
    "kind": "user",
    "methods": {
      "createDistribution(uint32,uint32,uint32,uint8,bool)": {
        "notice": "Requires that The donor list is verified - verification of lists to happen outside on IPFS - not implemented"
      },
      "requestDonationFunds(uint32)": {
        "notice": "if successful Update the amount granted on the donation and reduce the amount requested"
      }
    },
    "version": 1
  }
}