{
  "contractName": "DonationManager",
  "abi": [
    {
      "inputs": [],
      "stateMutability": "nonpayable",
      "type": "constructor"
    },
    {
      "anonymous": false,
      "inputs": [
        {
          "indexed": true,
          "internalType": "address",
          "name": "owner",
          "type": "address"
        },
        {
          "indexed": true,
          "internalType": "address",
          "name": "spender",
          "type": "address"
        },
        {
          "indexed": false,
          "internalType": "uint256",
          "name": "value",
          "type": "uint256"
        }
      ],
      "name": "Approval",
      "type": "event"
    },
    {
      "anonymous": false,
      "inputs": [
        {
          "indexed": false,
          "internalType": "uint32",
          "name": "distributionID",
          "type": "uint32"
        },
        {
          "indexed": false,
          "internalType": "string",
          "name": "distributorName",
          "type": "string"
        },
        {
          "indexed": false,
          "internalType": "uint256",
          "name": "donationAmount",
          "type": "uint256"
        }
      ],
      "name": "LogDistributionRequest",
      "type": "event"
    },
    {
      "anonymous": false,
      "inputs": [
        {
          "indexed": false,
          "internalType": "uint32",
          "name": "distributionID",
          "type": "uint32"
        },
        {
          "indexed": false,
          "internalType": "string",
          "name": "distributorName",
          "type": "string"
        },
        {
          "indexed": false,
          "internalType": "string",
          "name": "donationName",
          "type": "string"
        },
        {
          "indexed": false,
          "internalType": "enum DonationManager.DistributionState",
          "name": "",
          "type": "uint8"
        }
      ],
      "name": "LogDistributionState",
      "type": "event"
    },
    {
      "anonymous": false,
      "inputs": [
        {
          "indexed": true,
          "internalType": "address",
          "name": "distributorAddress",
          "type": "address"
        },
        {
          "indexed": false,
          "internalType": "uint32",
          "name": "distributorID",
          "type": "uint32"
        },
        {
          "indexed": false,
          "internalType": "string",
          "name": "distributorName",
          "type": "string"
        },
        {
          "indexed": false,
          "internalType": "enum DonationManager.DistributorStatus",
          "name": "distributorStatus",
          "type": "uint8"
        }
      ],
      "name": "LogDistributorStatus",
      "type": "event"
    },
    {
      "anonymous": false,
      "inputs": [
        {
          "indexed": true,
          "internalType": "address",
          "name": "donorAddress",
          "type": "address"
        },
        {
          "indexed": false,
          "internalType": "uint256",
          "name": "withdrawAmount",
          "type": "uint256"
        },
        {
          "indexed": false,
          "internalType": "uint256",
          "name": "remainingBalance",
          "type": "uint256"
        }
      ],
      "name": "LogDistributorWithdrawal",
      "type": "event"
    },
    {
      "anonymous": false,
      "inputs": [
        {
          "indexed": false,
          "internalType": "uint32",
          "name": "donationID",
          "type": "uint32"
        },
        {
          "indexed": false,
          "internalType": "string",
          "name": "donationName",
          "type": "string"
        },
        {
          "indexed": false,
          "internalType": "enum DonationManager.DonationState",
          "name": "",
          "type": "uint8"
        }
      ],
      "name": "LogDonationState",
      "type": "event"
    },
    {
      "anonymous": false,
      "inputs": [
        {
          "indexed": true,
          "internalType": "address",
          "name": "donorAddress",
          "type": "address"
        },
        {
          "indexed": false,
          "internalType": "uint32",
          "name": "donorID",
          "type": "uint32"
        },
        {
          "indexed": false,
          "internalType": "uint256",
          "name": "balance",
          "type": "uint256"
        }
      ],
      "name": "LogDonorAdded",
      "type": "event"
    },
    {
      "anonymous": false,
      "inputs": [
        {
          "indexed": true,
          "internalType": "address",
          "name": "donorAddress",
          "type": "address"
        },
        {
          "indexed": false,
          "internalType": "uint256",
          "name": "donationAmount",
          "type": "uint256"
        }
      ],
      "name": "LogDonorDeposit",
      "type": "event"
    },
    {
      "anonymous": false,
      "inputs": [
        {
          "indexed": true,
          "internalType": "address",
          "name": "donorAddress",
          "type": "address"
        },
        {
          "indexed": false,
          "internalType": "uint256",
          "name": "withdrawAmount",
          "type": "uint256"
        },
        {
          "indexed": false,
          "internalType": "uint256",
          "name": "remainingBalance",
          "type": "uint256"
        }
      ],
      "name": "LogDonorWithdrawal",
      "type": "event"
    },
    {
      "anonymous": false,
      "inputs": [
        {
          "indexed": false,
          "internalType": "address",
          "name": "senderAddr",
          "type": "address"
        },
        {
          "indexed": false,
          "internalType": "uint256",
          "name": "senderBal",
          "type": "uint256"
        }
      ],
      "name": "LogSender",
      "type": "event"
    },
    {
      "anonymous": false,
      "inputs": [
        {
          "indexed": true,
          "internalType": "address",
          "name": "previousOwner",
          "type": "address"
        },
        {
          "indexed": true,
          "internalType": "address",
          "name": "newOwner",
          "type": "address"
        }
      ],
      "name": "OwnershipTransferred",
      "type": "event"
    },
    {
      "anonymous": false,
      "inputs": [
        {
          "indexed": false,
          "internalType": "address",
          "name": "account",
          "type": "address"
        }
      ],
      "name": "Paused",
      "type": "event"
    },
    {
      "anonymous": false,
      "inputs": [
        {
          "indexed": true,
          "internalType": "address",
          "name": "from",
          "type": "address"
        },
        {
          "indexed": true,
          "internalType": "address",
          "name": "to",
          "type": "address"
        },
        {
          "indexed": false,
          "internalType": "uint256",
          "name": "value",
          "type": "uint256"
        }
      ],
      "name": "Transfer",
      "type": "event"
    },
    {
      "anonymous": false,
      "inputs": [
        {
          "indexed": false,
          "internalType": "address",
          "name": "account",
          "type": "address"
        }
      ],
      "name": "Unpaused",
      "type": "event"
    },
    {
      "inputs": [
        {
          "internalType": "uint32",
          "name": "",
          "type": "uint32"
        }
      ],
      "name": "allDistributors",
      "outputs": [
        {
          "internalType": "uint32",
          "name": "distributorID",
          "type": "uint32"
        },
        {
          "internalType": "address",
          "name": "distributorAddress",
          "type": "address"
        },
        {
          "internalType": "string",
          "name": "distributorName",
          "type": "string"
        },
        {
          "internalType": "string",
          "name": "distributorCountry",
          "type": "string"
        },
        {
          "internalType": "enum DonationManager.DistributorStatus",
          "name": "distributorStatus",
          "type": "uint8"
        }
      ],
      "stateMutability": "view",
      "type": "function",
      "constant": true
    },
    {
      "inputs": [
        {
          "internalType": "uint32",
          "name": "",
          "type": "uint32"
        }
      ],
      "name": "allDonors",
      "outputs": [
        {
          "internalType": "uint32",
          "name": "donorID",
          "type": "uint32"
        },
        {
          "internalType": "address",
          "name": "donorAddress",
          "type": "address"
        },
        {
          "internalType": "uint256",
          "name": "amountDonated",
          "type": "uint256"
        },
        {
          "internalType": "string",
          "name": "donorName",
          "type": "string"
        }
      ],
      "stateMutability": "view",
      "type": "function",
      "constant": true
    },
    {
      "inputs": [
        {
          "internalType": "address",
          "name": "owner",
          "type": "address"
        },
        {
          "internalType": "address",
          "name": "spender",
          "type": "address"
        }
      ],
      "name": "allowance",
      "outputs": [
        {
          "internalType": "uint256",
          "name": "",
          "type": "uint256"
        }
      ],
      "stateMutability": "view",
      "type": "function",
      "constant": true
    },
    {
      "inputs": [
        {
          "internalType": "address",
          "name": "spender",
          "type": "address"
        },
        {
          "internalType": "uint256",
          "name": "amount",
          "type": "uint256"
        }
      ],
      "name": "approve",
      "outputs": [
        {
          "internalType": "bool",
          "name": "",
          "type": "bool"
        }
      ],
      "stateMutability": "nonpayable",
      "type": "function"
    },
    {
      "inputs": [
        {
          "internalType": "address",
          "name": "account",
          "type": "address"
        }
      ],
      "name": "balanceOf",
      "outputs": [
        {
          "internalType": "uint256",
          "name": "",
          "type": "uint256"
        }
      ],
      "stateMutability": "view",
      "type": "function",
      "constant": true
    },
    {
      "inputs": [],
      "name": "decimals",
      "outputs": [
        {
          "internalType": "uint8",
          "name": "",
          "type": "uint8"
        }
      ],
      "stateMutability": "view",
      "type": "function",
      "constant": true
    },
    {
      "inputs": [
        {
          "internalType": "address",
          "name": "spender",
          "type": "address"
        },
        {
          "internalType": "uint256",
          "name": "subtractedValue",
          "type": "uint256"
        }
      ],
      "name": "decreaseAllowance",
      "outputs": [
        {
          "internalType": "bool",
          "name": "",
          "type": "bool"
        }
      ],
      "stateMutability": "nonpayable",
      "type": "function"
    },
    {
      "inputs": [],
      "name": "distributionCount",
      "outputs": [
        {
          "internalType": "uint32",
          "name": "",
          "type": "uint32"
        }
      ],
      "stateMutability": "view",
      "type": "function",
      "constant": true
    },
    {
      "inputs": [
        {
          "internalType": "uint256",
          "name": "",
          "type": "uint256"
        }
      ],
      "name": "distributions",
      "outputs": [
        {
          "internalType": "uint32",
          "name": "distributionID",
          "type": "uint32"
        },
        {
          "internalType": "uint32",
          "name": "distributorID",
          "type": "uint32"
        },
        {
          "internalType": "uint32",
          "name": "donationID",
          "type": "uint32"
        },
        {
          "internalType": "uint32",
          "name": "donorID",
          "type": "uint32"
        },
        {
          "internalType": "uint256",
          "name": "distributionAmount",
          "type": "uint256"
        },
        {
          "internalType": "uint32",
          "name": "recipientCount",
          "type": "uint32"
        },
        {
          "internalType": "uint8",
          "name": "distributionMonths",
          "type": "uint8"
        },
        {
          "internalType": "bool",
          "name": "recipientDetailsAreValid",
          "type": "bool"
        },
        {
          "internalType": "enum DonationManager.DistributionState",
          "name": "distributionState",
          "type": "uint8"
        }
      ],
      "stateMutability": "view",
      "type": "function",
      "constant": true
    },
    {
      "inputs": [],
      "name": "distributorCount",
      "outputs": [
        {
          "internalType": "uint32",
          "name": "",
          "type": "uint32"
        }
      ],
      "stateMutability": "view",
      "type": "function",
      "constant": true
    },
    {
      "inputs": [],
      "name": "donationCount",
      "outputs": [
        {
          "internalType": "uint32",
          "name": "",
          "type": "uint32"
        }
      ],
      "stateMutability": "view",
      "type": "function",
      "constant": true
    },
    {
      "inputs": [
        {
          "internalType": "uint256",
          "name": "",
          "type": "uint256"
        }
      ],
      "name": "donations",
      "outputs": [
        {
          "internalType": "uint32",
          "name": "donationID",
          "type": "uint32"
        },
        {
          "internalType": "uint32",
          "name": "donorID",
          "type": "uint32"
        },
        {
          "internalType": "string",
          "name": "donationName",
          "type": "string"
        },
        {
          "internalType": "uint256",
          "name": "donationAmount",
          "type": "uint256"
        },
        {
          "internalType": "uint256",
          "name": "donationGrantedAmount",
          "type": "uint256"
        },
        {
          "internalType": "uint256",
          "name": "requestedNotGrantedAmount",
          "type": "uint256"
        },
        {
          "internalType": "uint256",
          "name": "USDperRecipientPerMonth",
          "type": "uint256"
        },
        {
          "internalType": "uint8",
          "name": "adminFeePercent",
          "type": "uint8"
        },
        {
          "internalType": "enum DonationManager.DonationState",
          "name": "donationState",
          "type": "uint8"
        },
        {
          "internalType": "enum DonationManager.DonationPurpose",
          "name": "donationPurpose",
          "type": "uint8"
        }
      ],
      "stateMutability": "view",
      "type": "function",
      "constant": true
    },
    {
      "inputs": [
        {
          "internalType": "address",
          "name": "",
          "type": "address"
        }
      ],
      "name": "donorBalances",
      "outputs": [
        {
          "internalType": "uint256",
          "name": "",
          "type": "uint256"
        }
      ],
      "stateMutability": "view",
      "type": "function",
      "constant": true
    },
    {
      "inputs": [],
      "name": "donorCount",
      "outputs": [
        {
          "internalType": "uint32",
          "name": "",
          "type": "uint32"
        }
      ],
      "stateMutability": "view",
      "type": "function",
      "constant": true
    },
    {
      "inputs": [
        {
          "internalType": "address",
          "name": "spender",
          "type": "address"
        },
        {
          "internalType": "uint256",
          "name": "addedValue",
          "type": "uint256"
        }
      ],
      "name": "increaseAllowance",
      "outputs": [
        {
          "internalType": "bool",
          "name": "",
          "type": "bool"
        }
      ],
      "stateMutability": "nonpayable",
      "type": "function"
    },
    {
      "inputs": [],
      "name": "name",
      "outputs": [
        {
          "internalType": "string",
          "name": "",
          "type": "string"
        }
      ],
      "stateMutability": "view",
      "type": "function",
      "constant": true
    },
    {
      "inputs": [],
      "name": "owner",
      "outputs": [
        {
          "internalType": "address",
          "name": "",
          "type": "address"
        }
      ],
      "stateMutability": "view",
      "type": "function",
      "constant": true
    },
    {
      "inputs": [],
      "name": "paused",
      "outputs": [
        {
          "internalType": "bool",
          "name": "",
          "type": "bool"
        }
      ],
      "stateMutability": "view",
      "type": "function",
      "constant": true
    },
    {
      "inputs": [],
      "name": "renounceOwnership",
      "outputs": [],
      "stateMutability": "nonpayable",
      "type": "function"
    },
    {
      "inputs": [],
      "name": "symbol",
      "outputs": [
        {
          "internalType": "string",
          "name": "",
          "type": "string"
        }
      ],
      "stateMutability": "view",
      "type": "function",
      "constant": true
    },
    {
      "inputs": [],
      "name": "totalSupply",
      "outputs": [
        {
          "internalType": "uint256",
          "name": "",
          "type": "uint256"
        }
      ],
      "stateMutability": "view",
      "type": "function",
      "constant": true
    },
    {
      "inputs": [
        {
          "internalType": "address",
          "name": "recipient",
          "type": "address"
        },
        {
          "internalType": "uint256",
          "name": "amount",
          "type": "uint256"
        }
      ],
      "name": "transfer",
      "outputs": [
        {
          "internalType": "bool",
          "name": "",
          "type": "bool"
        }
      ],
      "stateMutability": "nonpayable",
      "type": "function"
    },
    {
      "inputs": [
        {
          "internalType": "address",
          "name": "sender",
          "type": "address"
        },
        {
          "internalType": "address",
          "name": "recipient",
          "type": "address"
        },
        {
          "internalType": "uint256",
          "name": "amount",
          "type": "uint256"
        }
      ],
      "name": "transferFrom",
      "outputs": [
        {
          "internalType": "bool",
          "name": "",
          "type": "bool"
        }
      ],
      "stateMutability": "nonpayable",
      "type": "function"
    },
    {
      "inputs": [
        {
          "internalType": "address",
          "name": "newOwner",
          "type": "address"
        }
      ],
      "name": "transferOwnership",
      "outputs": [],
      "stateMutability": "nonpayable",
      "type": "function"
    },
    {
      "inputs": [
        {
          "internalType": "string",
          "name": "_donorName",
          "type": "string"
        }
      ],
      "name": "createDonor",
      "outputs": [
        {
          "internalType": "bool",
          "name": "",
          "type": "bool"
        }
      ],
      "stateMutability": "nonpayable",
      "type": "function"
    },
    {
      "inputs": [
        {
          "internalType": "string",
          "name": "_distributorName",
          "type": "string"
        },
        {
          "internalType": "string",
          "name": "_distributorCountry",
          "type": "string"
        }
      ],
      "name": "createDistributor",
      "outputs": [
        {
          "internalType": "bool",
          "name": "",
          "type": "bool"
        }
      ],
      "stateMutability": "nonpayable",
      "type": "function"
    },
    {
      "inputs": [
        {
          "internalType": "string",
          "name": "_donationName",
          "type": "string"
        },
        {
          "internalType": "uint32",
          "name": "_donorID",
          "type": "uint32"
        },
        {
          "internalType": "uint256",
          "name": "_USDperRecipientPerMonth",
          "type": "uint256"
        },
        {
          "internalType": "uint8",
          "name": "_adminFeePercent",
          "type": "uint8"
        }
      ],
      "name": "createDonation",
      "outputs": [
        {
          "internalType": "bool",
          "name": "",
          "type": "bool"
        }
      ],
      "stateMutability": "nonpayable",
      "type": "function"
    },
    {
      "inputs": [
        {
          "internalType": "uint256",
          "name": "_donationAmount",
          "type": "uint256"
        },
        {
          "internalType": "uint32",
          "name": "_donationID",
          "type": "uint32"
        },
        {
          "internalType": "uint32",
          "name": "_donorID",
          "type": "uint32"
        }
      ],
      "name": "makeDonation",
      "outputs": [],
      "stateMutability": "nonpayable",
      "type": "function"
    },
    {
      "inputs": [
        {
          "internalType": "uint32",
          "name": "_distributorID",
          "type": "uint32"
        },
        {
          "internalType": "uint32",
          "name": "_distributorStatus",
          "type": "uint32"
        }
      ],
      "name": "changeDistributorStatus",
      "outputs": [],
      "stateMutability": "nonpayable",
      "type": "function"
    },
    {
      "inputs": [
        {
          "internalType": "uint32",
          "name": "_donationID",
          "type": "uint32"
        }
      ],
      "name": "getDonationBalance",
      "outputs": [
        {
          "internalType": "uint256",
          "name": "donatedAmount",
          "type": "uint256"
        },
        {
          "internalType": "uint256",
          "name": "grantedAmount",
          "type": "uint256"
        },
        {
          "internalType": "uint256",
          "name": "requestedNotGranted",
          "type": "uint256"
        }
      ],
      "stateMutability": "view",
      "type": "function",
      "constant": true
    },
    {
      "inputs": [
        {
          "internalType": "uint32",
          "name": "_donorID",
          "type": "uint32"
        }
      ],
      "name": "getAllDonorBalances",
      "outputs": [
        {
          "internalType": "uint256",
          "name": "donatedAmount",
          "type": "uint256"
        },
        {
          "internalType": "uint256",
          "name": "grantedAmount",
          "type": "uint256"
        },
        {
          "internalType": "uint256",
          "name": "requestedNotGranted",
          "type": "uint256"
        },
        {
          "internalType": "uint256",
          "name": "fundsAvailableToWithdraw",
          "type": "uint256"
        }
      ],
      "stateMutability": "view",
      "type": "function",
      "constant": true
    },
    {
      "inputs": [
        {
          "internalType": "uint32",
          "name": "_distributorID",
          "type": "uint32"
        },
        {
          "internalType": "uint32",
          "name": "_donationID",
          "type": "uint32"
        },
        {
          "internalType": "uint32",
          "name": "_recipientCount",
          "type": "uint32"
        },
        {
          "internalType": "uint8",
          "name": "_distributionMonths",
          "type": "uint8"
        },
        {
          "internalType": "bool",
          "name": "_recipientDetailsAreValid",
          "type": "bool"
        }
      ],
      "name": "createDistribution",
      "outputs": [
        {
          "internalType": "bool",
          "name": "",
          "type": "bool"
        }
      ],
      "stateMutability": "nonpayable",
      "type": "function"
    },
    {
      "inputs": [
        {
          "internalType": "uint32",
          "name": "_distributionID",
          "type": "uint32"
        },
        {
          "internalType": "uint32",
          "name": "_donorID",
          "type": "uint32"
        }
      ],
      "name": "approveFunds",
      "outputs": [
        {
          "internalType": "bool",
          "name": "",
          "type": "bool"
        }
      ],
      "stateMutability": "nonpayable",
      "type": "function"
    },
    {
      "inputs": [
        {
          "internalType": "uint32",
          "name": "_distributionID",
          "type": "uint32"
        },
        {
          "internalType": "uint32",
          "name": "_donorID",
          "type": "uint32"
        },
        {
          "internalType": "address payable",
          "name": "recipient",
          "type": "address"
        }
      ],
      "name": "giveFunds",
      "outputs": [
        {
          "internalType": "bool",
          "name": "",
          "type": "bool"
        }
      ],
      "stateMutability": "nonpayable",
      "type": "function"
    },
    {
      "inputs": [
        {
          "internalType": "uint256",
          "name": "_withdrawAmount",
          "type": "uint256"
        },
        {
          "internalType": "uint32",
          "name": "_donorID",
          "type": "uint32"
        }
      ],
      "name": "donorWithdrawal",
      "outputs": [],
      "stateMutability": "payable",
      "type": "function",
      "payable": true
    },
    {
      "inputs": [
        {
          "internalType": "uint256",
          "name": "_withdrawAmount",
          "type": "uint256"
        }
      ],
      "name": "distributorWithdrawal",
      "outputs": [],
      "stateMutability": "payable",
      "type": "function",
      "payable": true
    },
    {
      "inputs": [],
      "name": "pause",
      "outputs": [],
      "stateMutability": "nonpayable",
      "type": "function"
    },
    {
      "inputs": [],
      "name": "unpause",
      "outputs": [],
      "stateMutability": "nonpayable",
      "type": "function"
    }
  ],
  "bytecode": "0x60806040523480156200001157600080fd5b5060408051602080820180845260008084528451928301909452928152815191929091620000429160039162000123565b5080516200005890600490602084019062000123565b50506005805460ff19169055506200008b6200007c640100000000620000c5810204565b640100000000620000c9810204565b6005805460a860020a63ffffffff02191690556008805463ffffffff19908116909155600b805482169055600d805490911690556200021f565b3390565b60058054600160a060020a0383811661010081810261010060a860020a031985161790945560405193909204169182907f8be0079c531659141344cd1fd0a4f28419497f9722a3daafe3b4186f6b6457e090600090a35050565b8280546200013190620001c9565b90600052602060002090601f016020900481019282620001555760008555620001a0565b82601f106200017057805160ff1916838001178555620001a0565b82800160010185558215620001a0579182015b82811115620001a057825182559160200191906001019062000183565b50620001ae929150620001b2565b5090565b5b80821115620001ae5760008155600101620001b3565b600281046001821680620001de57607f821691505b6020821081141562000219577f4e487b7100000000000000000000000000000000000000000000000000000000600052602260045260246000fd5b50919050565b613d69806200022f6000396000f3fe608060405260043610610242576000357c01000000000000000000000000000000000000000000000000000000009004806370a0823111610140578063a457c2d7116100c8578063ccfb6a411161008c578063ccfb6a41146106d1578063dd62ed3e14610711578063eba9350714610757578063f2fde38b14610777578063f8626af81461079757610242565b8063a457c2d714610630578063a9059cbb14610650578063b69b80b314610670578063c407670f14610690578063c65c3d95146106b457610242565b8063871d8f091161010f578063871d8f091461057b57806388074a9a146105ac5780638a0b6740146105cc5780638da5cb5b146105df57806395d89b411461061b57610242565b806370a08231146104ee578063715018a6146105245780637b8c8de1146105395780638456cb591461056657610242565b806335f3d58f116101ce5780635531735f116101925780635531735f146104565780635669a047146104765780635c975abb146104965780635decd6db146104ae57806364d550df146104ce57610242565b806335f3d58f1461039f57806339509351146103cf5780633ac140e8146103ef5780633f4ba83a1461040c5780634487d3df1461042157610242565b80632266633e116102155780632266633e146102e157806323b872dd146102f65780632a0521f8146103165780632abfab4d14610351578063313ce5671461038357610242565b806306fdde0314610247578063095ea7b3146102725780630df11b1c146102a257806318160ddd146102c2575b600080fd5b34801561025357600080fd5b5061025c6107cd565b60405161026991906138ac565b60405180910390f35b34801561027e57600080fd5b5061029261028d36600461350c565b61085f565b6040519015158152602001610269565b3480156102ae57600080fd5b506102926102bd366004613537565b610875565b3480156102ce57600080fd5b506002545b604051908152602001610269565b6102f46102ef366004613651565b610aef565b005b34801561030257600080fd5b506102926103113660046134cc565b610d94565b34801561032257600080fd5b506103366103313660046136b7565b610e56565b60408051938452602084019290925290820152606001610269565b34801561035d57600080fd5b50600b5461036e9063ffffffff1681565b60405163ffffffff9091168152602001610269565b34801561038f57600080fd5b5060405160128152602001610269565b3480156103ab57600080fd5b506103bf6103ba3660046136b7565b610f1c565b6040516102699493929190613a0a565b3480156103db57600080fd5b506102926103ea36600461350c565b610fe0565b3480156103fb57600080fd5b5060085461036e9063ffffffff1681565b34801561041857600080fd5b506102f461101c565b34801561042d57600080fd5b5061044161043c366004613639565b611059565b60405161026999989796959493929190613b5d565b34801561046257600080fd5b50610292610471366004613740565b6110e6565b34801561048257600080fd5b50610292610491366004613572565b611868565b3480156104a257600080fd5b5060055460ff16610292565b3480156104ba57600080fd5b506102f46104c93660046136d1565b611a5a565b3480156104da57600080fd5b506102926104e93660046136d1565b611c0f565b3480156104fa57600080fd5b506102d3610509366004613471565b600160a060020a031660009081526020819052604090205490565b34801561053057600080fd5b506102f4611ed4565b34801561054557600080fd5b506102d3610554366004613471565b60076020526000908152604090205481565b34801561057257600080fd5b506102f4611f11565b34801561058757600080fd5b5061059b6105963660046136b7565b611f4c565b6040516102699594939291906139ae565b3480156105b857600080fd5b506102926105c73660046136fa565b6120a2565b6102f46105da366004613639565b61222c565b3480156105eb57600080fd5b506106036005546101009004600160a060020a031690565b604051600160a060020a039091168152602001610269565b34801561062757600080fd5b5061025c612364565b34801561063c57600080fd5b5061029261064b36600461350c565b612373565b34801561065c57600080fd5b5061029261066b36600461350c565b612427565b34801561067c57600080fd5b5061029261068b3660046135d3565b612434565b34801561069c57600080fd5b5060055461036e9060a860020a900463ffffffff1681565b3480156106c057600080fd5b50600d5461036e9063ffffffff1681565b3480156106dd57600080fd5b506106f16106ec3660046136b7565b612668565b604080519485526020850193909352918301526060820152608001610269565b34801561071d57600080fd5b506102d361072c366004613494565b600160a060020a03918216600090815260016020908152604080832093909416825291909152205490565b34801561076357600080fd5b506102f461077236600461367c565b61280e565b34801561078357600080fd5b506102f4610792366004613471565b612b28565b3480156107a357600080fd5b506107b76107b2366004613639565b612be6565b6040516102699a99989796959493929190613ae0565b6060600380546107dc90613c61565b80601f016020809104026020016040519081016040528092919081815260200182805461080890613c61565b80156108555780601f1061082a57610100808354040283529160200191610855565b820191906000526020600020905b81548152906001019060200180831161083857829003601f168201915b5050505050905090565b600061086c338484612ce7565b50600192915050565b336000908152600a6020526040812054156109005760405160e560020a62461bcd02815260206004820152602160248201527f63616e6e6f742062652063616c6c6564206279206469737472696275746f727360448201527f2e0000000000000000000000000000000000000000000000000000000000000060648201526084015b60405180910390fd5b33600090815260076020526040902054156109865760405160e560020a62461bcd02815260206004820152602d60248201527f63616e6e6f742063726561746520616e6f7468657220646f6e6f7220666f722060448201527f74686973206163636f756e742e0000000000000000000000000000000000000060648201526084016108f7565b6040805160808101825260055463ffffffff60a860020a90910481168083523360208085019182526000858701818152606087018a815294825260068352969020855181549351600160a060020a03166401000000000277ffffffffffffffffffffffffffffffffffffffff00000000199190961663ffffffff19909416939093179290921693909317815593516001850155518051929392610a2f926002850192019061325c565b50503360008181526007602090815260409182902083319055600554825160a860020a90910463ffffffff1681528331918101919091529192507fe3a6f05109f9c5364a4a4672a1960be53433c573829417088813d16a73bf80e3910160405180910390a2600554610aaf9060a860020a900463ffffffff166001613bd7565b6005805463ffffffff9290921660a860020a0278ffffffff000000000000000000000000000000000000000000199092169190911790555060015b919050565b3360005260076020528060005b600e5463ffffffff82161015610c62578163ffffffff16600e8263ffffffff1681548110610b3d5760e060020a634e487b7102600052603260045260246000fd5b60009182526020909120600390910201546c01000000000000000000000000900463ffffffff16148015610bdb57506001600e8263ffffffff1681548110610b985760e060020a634e487b7102600052603260045260246000fd5b906000526020600020906003020160020160069054906101000a900460ff166003811115610bd95760e060020a634e487b7102600052602160045260246000fd5b145b610c505760405160e560020a62461bcd02815260206004820152602960248201527f466972737420417070726f7665206f722064656e79206f70656e20646973747260448201527f69627574696f6e732e000000000000000000000000000000000000000000000060648201526084016108f7565b80610c5a81613c9f565b915050610afc565b503331831115610cdd5760405160e560020a62461bcd02815260206004820152602860248201527f5769746864726177616c2072657175657374206578636565647320646f6e6f7260448201527f2062616c616e636500000000000000000000000000000000000000000000000060648201526084016108f7565b337fd511aaa7476b4b0f6ed1c5eafd6aea6007d77cc74b3c3bac462ae50edc989abb84610d0b818431613c4a565b6040805192835260208301919091520160405180910390a2604051600090339085908381818185875af1925050503d8060008114610d65576040519150601f19603f3d011682016040523d82523d6000602084013e610d6a565b606091505b5050905080610d8e5760405160e560020a62461bcd0281526004016108f790613951565b50505050565b6000610da1848484612e45565b600160a060020a038416600090815260016020908152604080832033845290915290205482811015610e3e5760405160e560020a62461bcd02815260206004820152602860248201527f45524332303a207472616e7366657220616d6f756e742065786365656473206160448201527f6c6c6f77616e636500000000000000000000000000000000000000000000000060648201526084016108f7565b610e4b8533858403612ce7565b506001949350505050565b6000806000600c8463ffffffff1681548110610e855760e060020a634e487b7102600052603260045260246000fd5b906000526020600020906007020160020154600c8563ffffffff1681548110610ec15760e060020a634e487b7102600052603260045260246000fd5b906000526020600020906007020160030154600c8663ffffffff1681548110610efd5760e060020a634e487b7102600052603260045260246000fd5b9060005260206000209060070201600401549250925092509193909250565b60066020526000908152604090208054600182015460028301805463ffffffff841694640100000000909404600160a060020a0316939190610f5d90613c61565b80601f0160208091040260200160405190810160405280929190818152602001828054610f8990613c61565b8015610fd65780601f10610fab57610100808354040283529160200191610fd6565b820191906000526020600020905b815481529060010190602001808311610fb957829003601f168201915b5050505050905084565b336000818152600160209081526040808320600160a060020a0387168452909152812054909161086c918590611017908690613bbf565b612ce7565b600554600160a060020a0361010090910416331461104f5760405160e560020a62461bcd0281526004016108f79061391c565b611057613070565b565b600e818154811061106957600080fd5b600091825260209091206003909102018054600182015460029092015463ffffffff80831694506401000000008084048216946801000000000000000085048316946c010000000000000000000000009004831693909281169160ff90820481169165010000000000810482169166010000000000009091041689565b336000908152600a602052846001600c8263ffffffff168154811061111e5760e060020a634e487b7102600052603260045260246000fd5b906000526020600020906007020160060160019054906101000a900460ff16600281111561115f5760e060020a634e487b7102600052602160045260246000fd5b14806111d557506002600c8263ffffffff16815481106111925760e060020a634e487b7102600052603260045260246000fd5b906000526020600020906007020160060160019054906101000a900460ff1660028111156111d35760e060020a634e487b7102600052602160045260246000fd5b145b61124a5760405160e560020a62461bcd02815260206004820152603560248201527f446973747269627574696f6e2063616e6e6f742070726f6365656420756e746960448201527f6c20646f6e6174696f6e2069732066756e6465642e000000000000000000000060648201526084016108f7565b6000600c8763ffffffff16815481106112765760e060020a634e487b7102600052603260045260246000fd5b9060005260206000209060070201600501548560ff16876112979190613c1e565b63ffffffff166112a79190613bff565b90506000600c8863ffffffff16815481106112d55760e060020a634e487b7102600052603260045260246000fd5b906000526020600020906007020160040154600c8963ffffffff16815481106113115760e060020a634e487b7102600052603260045260246000fd5b90600052602060002090600702016003015461132d9190613bbf565b600c8963ffffffff16815481106113575760e060020a634e487b7102600052603260045260246000fd5b9060005260206000209060070201600201546113739190613c4a565b9050818110156113ee5760405160e560020a62461bcd02815260206004820152603360248201527f5468697320646f6e6174696f6e2068617320696e73756666696369656e74206660448201527f756e647320746f20646973747269627574652e0000000000000000000000000060648201526084016108f7565b6113f66132e0565b600d5463ffffffff90811682528a81166020830152891660408201819052600c8054909190811061143a5760e060020a634e487b7102600052603260045260246000fd5b906000526020600020906007020160000160049054906101000a900463ffffffff16816060019063ffffffff16908163ffffffff168152505082816080018181525050878160a0019063ffffffff16908163ffffffff1681525050868160c0019060ff16908160ff1681525050858160e0019015159081151581525050600e81908060018154018082558091505060019003906000526020600020906003020160009091909190915060008201518160000160006101000a81548163ffffffff021916908363ffffffff16021790555060208201518160000160046101000a81548163ffffffff021916908363ffffffff16021790555060408201518160000160086101000a81548163ffffffff021916908363ffffffff160217905550606082015181600001600c6101000a81548163ffffffff021916908363ffffffff1602179055506080820151816001015560a08201518160020160006101000a81548163ffffffff021916908363ffffffff16021790555060c08201518160020160046101000a81548160ff021916908360ff16021790555060e08201518160020160056101000a81548160ff0219169083151502179055506101008201518160020160066101000a81548160ff0219169083600381111561162d5760e060020a634e487b7102600052602160045260246000fd5b021790555050600d5463ffffffff8c81166000908152600960205260409020600c80547f08ddbf2387a120cff0436b65891479eb2aeee9f0da8d2a185b7d816230e1e73b9550938316936001909201929091908e169081106116a25760e060020a634e487b7102600052603260045260246000fd5b906000526020600020906007020160010160006040516116c59493929190613a9f565b60405180910390a182600c8a63ffffffff16815481106116f85760e060020a634e487b7102600052603260045260246000fd5b906000526020600020906007020160040160008282546117189190613bbf565b9091555050600d54600e805460019263ffffffff1690811061174d5760e060020a634e487b7102600052603260045260246000fd5b906000526020600020906003020160020160066101000a81548160ff021916908360038111156117905760e060020a634e487b7102600052602160045260246000fd5b0217905550600d5463ffffffff8b81166000908152600960205260409020600c80547f08ddbf2387a120cff0436b65891479eb2aeee9f0da8d2a185b7d816230e1e73b948416936001909301928e169081106117ff5760e060020a634e487b7102600052603260045260246000fd5b906000526020600020906007020160010160016040516118229493929190613a9f565b60405180910390a1600d5461183e9063ffffffff166001613bd7565b600d805463ffffffff191663ffffffff929092169190911790555060019998505050505050505050565b33600090815260076020526040812054156118c85760405160e560020a62461bcd02815260206004820152601b60248201527f63616e6e6f742062652063616c6c656420627920646f6e6f72732e000000000060448201526064016108f7565b6040805160a08101825260085463ffffffff16815233602082015290810184905260608101839052608081016000905260085463ffffffff9081166000908152600960209081526040918290208451815486840151600160a060020a03166401000000000277ffffffffffffffffffffffffffffffffffffffff00000000199290961663ffffffff199091161716939093178355908301518051611972926001850192019061325c565b506060820151805161198e91600284019160209091019061325c565b50608082015160038201805460ff191660018360028111156119c35760e060020a634e487b7102600052602160045260246000fd5b021790555050336000818152600a60205260408082208331905560085490519293507ff5340f6d3528b15a37a1ce3c13714a92b5b56c823b6cad1f087b98d4fad1d76092611a1b9263ffffffff909216918891613a48565b60405180910390a2600854611a379063ffffffff166001613bd7565b6008805463ffffffff191663ffffffff9290921691909117905550600192915050565b63ffffffff8216600090815260096020526040902060030154829060019060ff166002811115611a9d5760e060020a634e487b7102600052602160045260246000fd5b1415611b145760405160e560020a62461bcd02815260206004820152603360248201527f446973747269627574696f6e2063616e6e6f742070726f63656564202d20446960448201527f737472696275746f7220756e747275737465640000000000000000000000000060648201526084016108f7565b60008263ffffffff166002811115611b3f5760e060020a634e487b7102600052602160045260246000fd5b63ffffffff851660009081526009602052604090206003018054919250829160ff19166001836002811115611b875760e060020a634e487b7102600052602160045260246000fd5b021790555063ffffffff808516600090815260096020526040902033917ff5340f6d3528b15a37a1ce3c13714a92b5b56c823b6cad1f087b98d4fad1d76091879160019091019087166002811115611bf25760e060020a634e487b7102600052602160045260246000fd5b604051611c0193929190613a80565b60405180910390a250505050565b63ffffffff818116600090815260066020526040812054600e80549293640100000000909204600160a060020a03169284928716908110611c635760e060020a634e487b7102600052603260045260246000fd5b906000526020600020906003020160010154905060008111611c9a5760405160e560020a62461bcd0281526004016108f7906138bf565b81600160a060020a0316318110611cf65760405160e560020a62461bcd02815260206004820152601860248201527f496e73756666696369656e7420446f6e6f722046756e6473000000000000000060448201526064016108f7565b80600c8563ffffffff1681548110611d215760e060020a634e487b7102600052603260045260246000fd5b90600052602060002090600702016003016000828254611d419190613bbf565b9250508190555080600c8563ffffffff1681548110611d735760e060020a634e487b7102600052603260045260246000fd5b90600052602060002090600702016004016000828254611d939190613c4a565b925050819055506002600e8663ffffffff1681548110611dc65760e060020a634e487b7102600052603260045260246000fd5b906000526020600020906003020160020160066101000a81548160ff02191690836003811115611e095760e060020a634e487b7102600052602160045260246000fd5b021790555060408051308152602081018390527f9af3756fbf7c0ba9124782e798fb11e538f6a96778bc63d954ce83ebd8c0ccd1910160405180910390a16000611e53308361085f565b905080611ecb5760405160e560020a62461bcd02815260206004820152603360248201527f4661696c656420746f20617070726f76652066756e6473207472616e7366657260448201527f20746f20746865206469737472696275746f720000000000000000000000000060648201526084016108f7565b95945050505050565b600554600160a060020a03610100909104163314611f075760405160e560020a62461bcd0281526004016108f79061391c565b611057600061310f565b600554600160a060020a03610100909104163314611f445760405160e560020a62461bcd0281526004016108f79061391c565b611057613176565b6009602052600090815260409020805460018201805463ffffffff831693640100000000909304600160a060020a0316929190611f8890613c61565b80601f0160208091040260200160405190810160405280929190818152602001828054611fb490613c61565b80156120015780601f10611fd657610100808354040283529160200191612001565b820191906000526020600020905b815481529060010190602001808311611fe457829003601f168201915b50505050509080600201805461201690613c61565b80601f016020809104026020016040519081016040528092919081815260200182805461204290613c61565b801561208f5780601f106120645761010080835404028352916020019161208f565b820191906000526020600020905b81548152906001019060200180831161207257829003601f168201915b5050506003909301549192505060ff1685565b63ffffffff828116600090815260066020526040812054600e80549293640100000000909204600160a060020a031692849288169081106120f65760e060020a634e487b7102600052603260045260246000fd5b90600052602060002090600302016001015490506000811161212d5760405160e560020a62461bcd0281526004016108f7906138bf565b33600160a060020a038316146121885760405160e560020a62461bcd02815260206004820152601860248201527f53656e646572206973206e6f742074686520446f6e6f7220000000000000000060448201526064016108f7565b333181106121db5760405160e560020a62461bcd02815260206004820152601260248201527f496e73756666696369656e742046756e6473000000000000000000000000000060448201526064016108f7565b60408051338152602081018390527f9af3756fbf7c0ba9124782e798fb11e538f6a96778bc63d954ce83ebd8c0ccd1910160405180910390a16000612221838684610d94565b979650505050505050565b33600052600a60205233318111156122af5760405160e560020a62461bcd02815260206004820152602260248201527f5769746864726177616c207265717565737420657863656564732062616c616e60448201527f636500000000000000000000000000000000000000000000000000000000000060648201526084016108f7565b337fca62fbd351618e763b8450544cf72f21d3e010b71571021a350a18a667266507826122dd818431613c4a565b6040805192835260208301919091520160405180910390a2604051600090339083908381818185875af1925050503d8060008114612337576040519150601f19603f3d011682016040523d82523d6000602084013e61233c565b606091505b50509050806123605760405160e560020a62461bcd0281526004016108f790613951565b5050565b6060600480546107dc90613c61565b336000908152600160209081526040808320600160a060020a0386168452909152812054828110156124105760405160e560020a62461bcd02815260206004820152602560248201527f45524332303a2064656372656173656420616c6c6f77616e63652062656c6f7760448201527f207a65726f00000000000000000000000000000000000000000000000000000060648201526084016108f7565b61241d3385858403612ce7565b5060019392505050565b600061086c338484612e45565b336000908152600760205261244761332d565b600b5463ffffffff90811682528581166020808401918252604084018981526000606086018190526080860181905260a0860181905260c0860189905260ff881660e0870152600c80546001810182559152855160079091027fdf6966c971051c3d54ec59162606531493a51404a002842f56009d7e5cf4a8c781018054955187166401000000000267ffffffff00000000199390971663ffffffff199096169590951791909116949094178355518051859461252a937fdf6966c971051c3d54ec59162606531493a51404a002842f56009d7e5cf4a8c890910192019061325c565b5060608201516002828101919091556080830151600383015560a0830151600483015560c0830151600583015560e083015160068301805460ff191660ff90921691909117808255610100808601519361ff00199092169184908111156125a45760e060020a634e487b7102600052602160045260246000fd5b021790555061012082015160068201805462ff00001916620100008360028111156125e25760e060020a634e487b7102600052602160045260246000fd5b021790555050600b546040517f6d4ebf9c7976833e896382bcf9e4f20c664a8fca4dd04e317196abcf1469de4992506126269163ffffffff16908990600090613a48565b60405180910390a1600b546126429063ffffffff166001613bd7565b600b805463ffffffff191663ffffffff9290921691909117905550600195945050505050565b336000908152600760205280808060008060008060005b600c5463ffffffff821610156127fe578963ffffffff16600c8263ffffffff16815481106126c05760e060020a634e487b7102600052603260045260246000fd5b6000918252602090912060079091020154640100000000900463ffffffff1614156127ec57600c8163ffffffff168154811061270f5760e060020a634e487b7102600052603260045260246000fd5b9060005260206000209060070201600201548561272c9190613bbf565b9450600c8163ffffffff16815481106127585760e060020a634e487b7102600052603260045260246000fd5b906000526020600020906007020160030154846127759190613bbf565b9350600c8163ffffffff16815481106127a15760e060020a634e487b7102600052603260045260246000fd5b906000526020600020906007020160040154836127be9190613bbf565b63ffffffff82166000908152600660205260409020549093506401000000009004600160a060020a03163191505b806127f681613c9f565b91505061267f565b5092989197509550909350915050565b63ffffffff82166000908152600660205260409020600101548390612834903331613c4a565b10156128ab5760405160e560020a62461bcd02815260206004820152602f60248201527f446f6e6174696f6e20616d6f756e74206578636565647320646f6e6f7220617660448201527f61696c61626c652062616c616e6365000000000000000000000000000000000060648201526084016108f7565b8063ffffffff16600c8363ffffffff16815481106128dc5760e060020a634e487b7102600052603260045260246000fd5b6000918252602090912060079091020154640100000000900463ffffffff16146129715760405160e560020a62461bcd02815260206004820152602660248201527f446f6e6174696f6e20646f6573206e6f742062656c6f6e6720746f207468697360448201527f20646f6e6f72000000000000000000000000000000000000000000000000000060648201526084016108f7565b6000600c8363ffffffff168154811061299d5760e060020a634e487b7102600052603260045260246000fd5b6000918252602080832060079092029091015463ffffffff640100000000909104168083526006909152604082206001018054919350869290916129e2908490613bbf565b9250508190555083600c8463ffffffff1681548110612a145760e060020a634e487b7102600052603260045260246000fd5b90600052602060002090600702016002016000828254612a349190613bbf565b925050819055506001600c8463ffffffff1681548110612a675760e060020a634e487b7102600052603260045260246000fd5b60009182526020909120600660079092020101805461ff001916610100836002811115612aa75760e060020a634e487b7102600052602160045260246000fd5b02179055507f6d4ebf9c7976833e896382bcf9e4f20c664a8fca4dd04e317196abcf1469de4983600c8563ffffffff1681548110612af85760e060020a634e487b7102600052603260045260246000fd5b90600052602060002090600702016001016001604051612b1a93929190613a80565b60405180910390a150505050565b600554600160a060020a03610100909104163314612b5b5760405160e560020a62461bcd0281526004016108f79061391c565b600160a060020a038116612bda5760405160e560020a62461bcd02815260206004820152602660248201527f4f776e61626c653a206e6577206f776e657220697320746865207a65726f206160448201527f646472657373000000000000000000000000000000000000000000000000000060648201526084016108f7565b612be38161310f565b50565b600c8181548110612bf657600080fd5b60009182526020909120600790910201805460018201805463ffffffff80841695506401000000009093049092169291612c2f90613c61565b80601f0160208091040260200160405190810160405280929190818152602001828054612c5b90613c61565b8015612ca85780601f10612c7d57610100808354040283529160200191612ca8565b820191906000526020600020905b815481529060010190602001808311612c8b57829003601f168201915b505050600284015460038501546004860154600587015460069097015495969295919450925060ff80821691610100810482169162010000909104168a565b600160a060020a038316612d655760405160e560020a62461bcd028152602060048201526024808201527f45524332303a20617070726f76652066726f6d20746865207a65726f2061646460448201527f726573730000000000000000000000000000000000000000000000000000000060648201526084016108f7565b600160a060020a038216612de45760405160e560020a62461bcd02815260206004820152602260248201527f45524332303a20617070726f766520746f20746865207a65726f20616464726560448201527f737300000000000000000000000000000000000000000000000000000000000060648201526084016108f7565b600160a060020a0383811660008181526001602090815260408083209487168084529482529182902085905590518481527f8c5be1e5ebec7d5bd14f71427d1e84f3dd0314c0f7b2291e5b200ac8c7c3b925910160405180910390a3505050565b600160a060020a038316612ec45760405160e560020a62461bcd02815260206004820152602560248201527f45524332303a207472616e736665722066726f6d20746865207a65726f20616460448201527f647265737300000000000000000000000000000000000000000000000000000060648201526084016108f7565b600160a060020a038216612f435760405160e560020a62461bcd02815260206004820152602360248201527f45524332303a207472616e7366657220746f20746865207a65726f206164647260448201527f657373000000000000000000000000000000000000000000000000000000000060648201526084016108f7565b612f4e838383613201565b600160a060020a03831660009081526020819052604090205481811015612fe05760405160e560020a62461bcd02815260206004820152602660248201527f45524332303a207472616e7366657220616d6f756e742065786365656473206260448201527f616c616e6365000000000000000000000000000000000000000000000000000060648201526084016108f7565b600160a060020a03808516600090815260208190526040808220858503905591851681529081208054849290613017908490613bbf565b9250508190555082600160a060020a031684600160a060020a03167fddf252ad1be2c89b69c2b068fc378daa952ba7f163c4a11628f55a4df523b3ef8460405161306391815260200190565b60405180910390a3610d8e565b60055460ff166130c55760405160e560020a62461bcd02815260206004820152601460248201527f5061757361626c653a206e6f742070617573656400000000000000000000000060448201526064016108f7565b6005805460ff191690557f5db9ee0a495bf2e6ff9c91a7834c1ba4fdd244a5e8aa4e537bd38aeae4b073aa335b604051600160a060020a03909116815260200160405180910390a1565b60058054600160a060020a0383811661010081810274ffffffffffffffffffffffffffffffffffffffff001985161790945560405193909204169182907f8be0079c531659141344cd1fd0a4f28419497f9722a3daafe3b4186f6b6457e090600090a35050565b60055460ff16156131cc5760405160e560020a62461bcd02815260206004820152601060248201527f5061757361626c653a207061757365640000000000000000000000000000000060448201526064016108f7565b6005805460ff191660011790557f62e78cea01bee320cd4e420270b5ea74000d11b0c9f74754ebdbfc544b05a2586130f23390565b60055460ff16156132575760405160e560020a62461bcd02815260206004820152601060248201527f5061757361626c653a207061757365640000000000000000000000000000000060448201526064016108f7565b505050565b82805461326890613c61565b90600052602060002090601f01602090048101928261328a57600085556132d0565b82601f106132a357805160ff19168380011785556132d0565b828001600101855582156132d0579182015b828111156132d05782518255916020019190600101906132b5565b506132dc9291506133b0565b5090565b6040805161012081018252600080825260208201819052918101829052606081018290526080810182905260a0810182905260c0810182905260e08101829052906101008201905b905290565b604051806101400160405280600063ffffffff168152602001600063ffffffff1681526020016060815260200160008152602001600081526020016000815260200160008152602001600060ff168152602001600060028111156133a45760e060020a634e487b7102600052602160045260246000fd5b81526020016000613328565b5b808211156132dc57600081556001016133b1565b600082601f8301126133d5578081fd5b813567ffffffffffffffff808211156133f0576133f0613cf5565b604051601f8301601f19908116603f0116810190828211818310171561341857613418613cf5565b81604052838152866020858801011115613430578485fd5b8360208701602083013792830160200193909352509392505050565b803563ffffffff81168114610aea57600080fd5b803560ff81168114610aea57600080fd5b600060208284031215613482578081fd5b813561348d81613d1e565b9392505050565b600080604083850312156134a6578081fd5b82356134b181613d1e565b915060208301356134c181613d1e565b809150509250929050565b6000806000606084860312156134e0578081fd5b83356134eb81613d1e565b925060208401356134fb81613d1e565b929592945050506040919091013590565b6000806040838503121561351e578182fd5b823561352981613d1e565b946020939093013593505050565b600060208284031215613548578081fd5b813567ffffffffffffffff81111561355e578182fd5b61356a848285016133c5565b949350505050565b60008060408385031215613584578182fd5b823567ffffffffffffffff8082111561359b578384fd5b6135a7868387016133c5565b935060208501359150808211156135bc578283fd5b506135c9858286016133c5565b9150509250929050565b600080600080608085870312156135e8578081fd5b843567ffffffffffffffff8111156135fe578182fd5b61360a878288016133c5565b9450506136196020860161344c565b92506040850135915061362e60608601613460565b905092959194509250565b60006020828403121561364a578081fd5b5035919050565b60008060408385031215613663578182fd5b823591506136736020840161344c565b90509250929050565b600080600060608486031215613690578283fd5b833592506136a06020850161344c565b91506136ae6040850161344c565b90509250925092565b6000602082840312156136c8578081fd5b61348d8261344c565b600080604083850312156136e3578182fd5b6136ec8361344c565b91506136736020840161344c565b60008060006060848603121561370e578283fd5b6137178461344c565b92506137256020850161344c565b9150604084013561373581613d1e565b809150509250925092565b600080600080600060a08688031215613757578081fd5b6137608661344c565b945061376e6020870161344c565b935061377c6040870161344c565b925061378a60608701613460565b91506080860135801515811461379e578182fd5b809150509295509295909350565b600481106137bc576137bc613cdc565b9052565b60008151808452815b818110156137e5576020818501810151868301820152016137c9565b818111156137f65782602083870101525b50601f01601f19169290920160200192915050565b80546000906002810460018083168061382557607f831692505b60208084108214156138485760e060020a634e487b710286526022600452602486fd5b8388526020880182801561386357600181146138745761389f565b60ff1987168252828201975061389f565b60008981526020902060005b8781101561389957815484820152908601908401613880565b83019850505b5050505050505092915050565b60006020825261348d60208301846137c0565b60208082526026908201527f446973747269627574696f6e20616d6f756e742063616e6e6f74206265206e6560408201527f6761746976650000000000000000000000000000000000000000000000000000606082015260800190565b6020808252818101527f4f776e61626c653a2063616c6c6572206973206e6f7420746865206f776e6572604082015260600190565b60208082526025908201527f4661696c656420746f2077697468647261772066756e647320746f207468652060408201527f646f6e6f72000000000000000000000000000000000000000000000000000000606082015260800190565b600063ffffffff87168252600160a060020a038616602083015260a060408301526139dc60a08301866137c0565b82810360608401526139ee81866137c0565b9150506139fa83613d0e565b8260808301529695505050505050565b600063ffffffff86168252600160a060020a038516602083015283604083015260806060830152613a3e60808301846137c0565b9695505050505050565b600063ffffffff8516825260606020830152613a6760608301856137c0565b9050613a7283613d0e565b826040830152949350505050565b600063ffffffff8516825260606020830152613a67606083018561380b565b600063ffffffff8616825260806020830152613abe608083018661380b565b8281036040840152613ad0818661380b565b915050611ecb60608301846137ac565b600061014063ffffffff808e168452808d16602085015250806040840152613b0a8184018c6137c0565b9150508860608301528760808301528660a08301528560c083015260ff851660e0830152613b3784613d0e565b83610100830152613b4783613d0e565b826101208301529b9a5050505050505050505050565b63ffffffff8a8116825289811660208301528881166040830152878116606083015260808201879052851660a082015260ff841660c082015282151560e08201526101208101613bb16101008301846137ac565b9a9950505050505050505050565b60008219821115613bd257613bd2613cc3565b500190565b600063ffffffff808316818516808303821115613bf657613bf6613cc3565b01949350505050565b6000816000190483118215151615613c1957613c19613cc3565b500290565b600063ffffffff80831681851681830481118215151615613c4157613c41613cc3565b02949350505050565b600082821015613c5c57613c5c613cc3565b500390565b600281046001821680613c7557607f821691505b60208210811415613c995760e060020a634e487b7102600052602260045260246000fd5b50919050565b600063ffffffff80831681811415613cb957613cb9613cc3565b6001019392505050565b60e060020a634e487b7102600052601160045260246000fd5b60e060020a634e487b7102600052602160045260246000fd5b60e060020a634e487b7102600052604160045260246000fd5b60038110612be357612be3613cdc565b600160a060020a0381168114612be357600080fdfea2646970667358221220d71d6a0a3df1c6eb05361d6c425a6643cb7e5c9d7b5d9dba78362ba4f43844a864736f6c63430008020033",
  "immutableReferences": {},
  "source": "// SPDX-License-Identifier: MIT\npragma solidity ^0.8.2;\n\n/// @title A contract for managing donations and distribution of donated funds\n/// @author Sean Evans Nov 2021\n/// @notice This contract is meant for the Consensys academoy final project\n\nimport \"@openzeppelin/contracts/token/ERC20/ERC20.sol\";\nimport \"@openzeppelin/contracts/access/Ownable.sol\";\nimport \"@openzeppelin/contracts/security/Pausable.sol\";\n\n//contract DonationManager is Initializable, ERC20Upgradeable, PausableUpgradeable, OwnableUpgradeable, ERC20PermitUpgradeable {\ncontract DonationManager is ERC20, Pausable, Ownable {\n\n    enum DonationState      { DonationCreated, Funded, Distributing }\n    enum DonationPurpose    { FoodTokens, Hospital, Disaster }\n    enum DistributorStatus  { New, unTrusted, Trusted }\n    enum DistributionState  { DistributionCreated, FundsRequested, FundsApproved , FundsNOTApproved }\n\n    /// @dev Donor Details\n    /// @notice  AmountDonated is the amount of balance ring fenced to all donations\n    struct Donor {\n       uint32       donorID;\n       address      donorAddress;\n       uint256      amountDonated;\n       string       donorName;\n    }\n\n    /// @dev Organisation responsible for distributing funds to recipients\n    struct  Distributor {\n       uint32       distributorID;\n       address      distributorAddress;\n       string       distributorName;\n       string       distributorCountry;\n       DistributorStatus  distributorStatus;\n    }\n\n    /// @dev Currently one donor per donation but one donor can do many donations\n    /// @notice donationAmount = Funds availalbe to be claimed (must be <= donor's balance)\n    /// @notice donationGrantedAmount = Funds approved to distributions - possibly sent to distributor\n    /// @notice requestedNotGrantedAmount = Funds requested by distributors but not granted (approved) yet - potential claims\n    /// @dev A donation can have multiple distributions\n    struct  Donation {\n       uint32       donationID;\n       uint32       donorID;\n       string       donationName;\n       uint256      donationAmount;\n       uint256      donationGrantedAmount;\n       uint256      requestedNotGrantedAmount;\n       uint256      USDperRecipientPerMonth;\n       uint8        adminFeePercent;\n       DonationState    donationState;\n       DonationPurpose  donationPurpose;\n    }\n    //uint32[]         distributionIDs;\n\n    /// @dev distributionAmount = USD per person * recipientCountr * distributionMonths\n    /// @notice Number of recipients with trusted details; New distributors max 1000 recipients or USD 50k\n    /// @notice Number of months to run the distribution; for example New distributors can only run 1 month\n    /// @dev recipientDetailsAreValid is not properly implemented yet: possibly check against IPFS link to unmodifiable list of trusted recipients\n    struct  Distribution {\n       uint32       distributionID;\n       uint32       distributorID;\n       uint32       donationID;\n       uint32       donorID;\n       uint256      distributionAmount;\n       uint32       recipientCount;\n       uint8        distributionMonths;\n       bool         recipientDetailsAreValid;\n       DistributionState  distributionState;\n    }\n\n    //address public owner;\n    \n    /// @dev Donors\n    uint32 public donorCount;\n    mapping (uint32 => Donor )   public allDonors;\n    mapping (address => uint256) public donorBalances;\n    event LogDonorAdded(address indexed donorAddress, uint32 donorID, uint256 balance);\n    event LogDonorDeposit(address indexed donorAddress, uint256 donationAmount);\n    event LogDonorWithdrawal(address indexed donorAddress, uint256 withdrawAmount, uint256 remainingBalance);\n    event LogSender(address senderAddr, uint256 senderBal);\n\n    /// @dev Distributors\n    uint32 public distributorCount;\n    mapping (uint32 => Distributor ) public allDistributors;\n    mapping (address => uint256)     internal distributorBalances;\n    event LogDistributorStatus(address indexed distributorAddress, uint32 distributorID,  string distributorName, DistributorStatus distributorStatus);\n    event LogDistributorWithdrawal(address indexed donorAddress, uint256 withdrawAmount, uint256 remainingBalance);\n\n    /// @dev Donations\n    uint32 public donationCount;\n    /// @dev Using arrays rather than mappings where I need to iterate over the contents\n    Donation[] public donations;\n    event LogDonationState(uint32 donationID, string donationName, DonationState);\n\n    /// @dev Disrtibutions\n    uint32 public distributionCount;\n    Distribution[] public distributions;\n    event LogDistributionState(uint32 distributionID, string distributorName, string donationName, DistributionState);\n    event LogDistributionRequest(uint32 distributionID, string distributorName, uint256 donationAmount);\n\n    modifier isDonor() {\n        require(donorBalances[msg.sender] >= 0, \"This function is restricted to donors.\" );\n        _;\n    }\n\n    /// @dev check that this is the donor of this donation\n    // modifier isTheDonorOf(uint32 _donorID, uint32 _donationID) {\n    //     require(donations[_donorID]. >= 0, \"This function is restricted to donors.\" );\n    //     _;\n    // }\n\n    /// @dev A distributor cannot become a donor\n    /// @dev A donor can only be added once\n    modifier onlyDonor() {\n        require(distributorBalances[msg.sender] == 0 , \"cannot be called by distributors.\" );\n        require(donorBalances[msg.sender] == 0 , \"cannot create another donor for this account.\" );\n        _;\n    }\n\n    /// @dev A donor cannot become a distributor\n    modifier onlyDistributor() {\n        require(donorBalances[msg.sender] == 0 , \"cannot be called by donors.\" );\n        _;\n    }\n\n    modifier isDistributor() {\n        require(distributorBalances[msg.sender] >= 0, \"This function is restricted to distributors.\" );\n        _;\n    }\n\n    /// @dev We can proceed with distributing funds after these checks\n    /// @dev If the distributorStatus is new they cannot request funding for more than 1000 recipients\n    /// @dev The donation must have sufficient funds for the distribution\n    /// @dev The distribution list must be valid (outside the scope of this project)\n    modifier distributionCanProceed(uint32 _distributionID, uint32 _donorID) {\n        require(distributions[_distributionID].distributionAmount >= 0 , \"Distribution cannot proceed - Distribution amount is <= 0\");\n        require(distributions[_distributionID].recipientDetailsAreValid , \"Distribution cannot proceed - Distribution list is invlid\");\n        require(distributions[_distributionID].donorID == _donorID , \"Distribution cannot proceed - Distribution is not for this donor\");\n        require(distributions[_distributionID].distributionState == DistributionState.FundsRequested, \"Distribution cannot proceed status is not funds requested\");\n        require(allDistributors[distributions[_distributionID].distributorID].distributorStatus != DistributorStatus.unTrusted, \"Distribution cannot proceed - Distributor untrusted\");\n        require(donations[distributions[_distributionID].donationID].requestedNotGrantedAmount >= distributions[_distributionID].distributionAmount , \"Distribution cannot proceed\");\n        //require(donorBalances[msg.sender] >= distributions[_distributionID].distributionAmount , \"Distribution cannot proceed - insufficient funds\");\n        _;\n    }\n\n    modifier distributorStatusCanChange(uint32 _distributorID) {\n        require(allDistributors[_distributorID].distributorStatus != DistributorStatus.unTrusted, \"Distribution cannot proceed - Distributor untrusted\");\n        _;\n    }\n\n    modifier distributionsAreUpToDate(uint32 _donorID) {\n        for (uint32 i = 0; i < distributions.length; i++) {\n            require((distributions[i].donorID == _donorID && distributions[i].distributionState  == DistributionState.FundsRequested), \"First Approve or deny open distributions.\");\n        }\n        _;\n    }\n\n    modifier donationIsFunded(uint32 _donationID) {\n        require((donations[_donationID].donationState == DonationState.Funded || donations[_donationID].donationState == DonationState.Distributing),\n        \"Distribution cannot proceed until donation is funded.\");\n        _;\n    }\n\n    constructor() ERC20(\"\", \"\") {\n        //owner = msg.sender ;\n        donorCount = 0;\n        distributorCount = 0;\n        donationCount = 0;\n        distributionCount = 0;\n    }\n\n    // fallback () external payable {\n    // }\n\n    /// @dev Create a new donor - It connot come from the same address as an exiting distributor\n    /// @dev amount donated is just a running balance, not an actual account balance\n    function createDonor(string memory _donorName) public onlyDonor returns( bool ) {\n        allDonors[donorCount] = Donor( {\n            donorID         : donorCount,\n            donorAddress    : payable(msg.sender),\n            amountDonated   : 0,\n            donorName       : _donorName\n        });\n        //donorBalances[msg.sender] = 0;\n        // Set donor balance to amount in donor's account\n        donorBalances[msg.sender] = msg.sender.balance;\n        emit LogDonorAdded(msg.sender, donorCount, msg.sender.balance);\n        donorCount = donorCount + 1;\n        return true;\n    }\n\n    /// @dev Create a new distributor - It connot come from the same address as an exiting donor\n    function createDistributor(string memory _distributorName, string memory _distributorCountry)\n        public onlyDistributor returns ( bool ) {\n        allDistributors[distributorCount] = Distributor( {\n            distributorID       : distributorCount,\n            distributorAddress  : payable(msg.sender),\n            distributorName     : _distributorName,\n            distributorCountry  : _distributorCountry,\n            distributorStatus   : DistributorStatus.New\n        });\n        /// @notice  Set the distributor's balance to\n        distributorBalances[msg.sender] = msg.sender.balance;\n        emit LogDistributorStatus(msg.sender, distributorCount, _distributorName, DistributorStatus.New);\n        distributorCount = distributorCount + 1;\n        return true;\n    }\n\n    /// @dev Create a new Donation. It can only be created by donors\n    function createDonation(string memory _donationName, uint32  _donorID,\n        uint256  _USDperRecipientPerMonth, uint8  _adminFeePercent)\n        public isDonor returns ( bool ) {\n\n        Donation memory currentDonation;\n\n        currentDonation.donationID                  = donationCount;\n        currentDonation.donorID                     = _donorID;\n        currentDonation.donationName                = _donationName;\n        currentDonation.donationAmount              = 0;\n        currentDonation.donationGrantedAmount       = 0;\n        currentDonation.requestedNotGrantedAmount   = 0;\n        currentDonation.USDperRecipientPerMonth     = _USDperRecipientPerMonth;\n        currentDonation.adminFeePercent             = _adminFeePercent;\n        donations.push(currentDonation);\n\n/*\n        d.donationPurpose         = DonationPurpose.FoodTokens;\n        d.donationPurpose         = DonationPurpose.FoodTokens(_donationPurpose);\n*/\n        emit LogDonationState(donationCount, _donationName, DonationState.DonationCreated);\n        /// @notice Add this donation to the donor\n        donationCount = donationCount + 1;\n        return true;\n    }\n\n    // function donorDeposit(uint256 _depositAmount) public isDonor payable {\n    //     donorBalances[msg.sender] += _depositAmount;\n    //     require(msg.value > _depositAmount, \"Insufficient funds\");\n    //     (bool sent,) = msg.sender.call{value: _depositAmount}(\"\");\n    //     require(sent, \"Failed to deposit funds to the donor\");\n    //     emit LogDonorDeposit(msg.sender, _depositAmount);\n    // }\n\n    /// @dev Allow the donor to ring fence funds for a donation. No actual transfer of funds.\n    function makeDonation(uint256 _donationAmount, uint32 _donationID, uint32 _donorID) public isDonor  {\n      require((msg.sender.balance - allDonors[_donationID].amountDonated) >= _donationAmount, \"Donation amount exceeds donor available balance\");\n      require(donations[_donationID].donorID  == _donorID, \"Donation does not belong to this donor\");\n      uint32 donorID = donations[_donationID].donorID;\n      allDonors[donorID].amountDonated += _donationAmount;\n      donations[_donationID].donationAmount += _donationAmount;\n      donations[_donationID].donationState = DonationState.Funded;\n      emit LogDonationState(_donationID, donations[_donationID].donationName, DonationState.Funded);\n    }\n\n    /// @dev Allow the donor to change the status of the distributor to either trusted or untrusted.\n    /// @dev Once set to untrusted it cannot be altered.\n    function changeDistributorStatus(uint32 _distributorID, uint32 _distributorStatus)\n            public isDonor distributorStatusCanChange(_distributorID) {\n      DistributorStatus newDistributorStatus = DistributorStatus(_distributorStatus);\n      allDistributors[_distributorID].distributorStatus = newDistributorStatus;\n      emit LogDistributorStatus(msg.sender, _distributorID,\n                                allDistributors[_distributorID].distributorName,\n                                DistributorStatus(_distributorStatus));\n    }\n\n    /// @dev Get the balances of a specific donation : Used by the distributor to check what funds are available\n    /// @return donatedAmount\n    /// @return grantedAmount Distributed Amount - funds actually sent to distributor\n    /// @return requestedNotGranted Requested amount but not approved\n    function getDonationBalance(uint32 _donationID)\n      public view returns (uint256 donatedAmount, uint256 grantedAmount, uint256 requestedNotGranted) {\n      return (donations[_donationID].donationAmount, donations[_donationID].donationGrantedAmount, donations[_donationID].requestedNotGrantedAmount);\n    }\n\n    /// @dev Get the balances of the donor ; i.e. all summarise all donations made by this donor\n    /// @return donatedAmount  Total Donated Amount\n    /// @return grantedAmount Distributed Amount - funds actually sent to distributor\n    /// @return requestedNotGranted Requested amount but not approved\n    /// @return fundsAvailableToWithdraw Funds available to withdraw\n    function getAllDonorBalances(uint32 _donorID)  public isDonor view\n        returns (uint256 donatedAmount, uint256 grantedAmount, uint256 requestedNotGranted,\n        uint256 fundsAvailableToWithdraw) {\n      uint256  _donatedAmount = 0;\n      uint256  _grantedAmount = 0;\n      uint256  _requestedNotGranted = 0;\n      uint256  _fundsAvailableToWithdraw = 0;\n      //uint256  _fundsAvailableToWithdraw = msg.sender.balance;   // For some reason giving very high balances???\n      //uint256  _fundsAvailableToWithdraw = address(this).balance;\n      \n      for (uint32 i = 0; i < donations.length; i++) {\n            if (donations[i].donorID == _donorID) {\n                _donatedAmount += donations[i].donationAmount;\n                _grantedAmount += donations[i].donationGrantedAmount;\n                _requestedNotGranted += donations[i].requestedNotGrantedAmount;\n                _fundsAvailableToWithdraw =  allDonors[i].donorAddress.balance;\n            }\n      }\n      return (_donatedAmount,_grantedAmount,_requestedNotGranted,_fundsAvailableToWithdraw );\n    }\n\n    /// @dev Get the balances of the ddistributor across all distributions\n    // function getDistributorBalance() public isDistributor view returns (uint256 availbleToWithdraw) {\n    //   return (distributorBalances[msg.sender]);\n    // }\n\n    /// @dev Create a new distribution - It cannot come from an exiting donor\n    /// @notice Requires that The donor list is verified - verification of lists to happen outside on IPFS - not implemented\n    function createDistribution(uint32 _distributorID, uint32 _donationID, uint32 _recipientCount, uint8 _distributionMonths,\n                                bool _recipientDetailsAreValid)\n                                public isDistributor donationIsFunded(_donationID) returns( bool ) {\n\n        uint256  distributionClaim = _recipientCount * _distributionMonths * donations[_donationID].USDperRecipientPerMonth;\n        uint256  availableToClaim  = donations[_donationID].donationAmount -\n                                (donations[_donationID].donationGrantedAmount + donations[_donationID].requestedNotGrantedAmount);\n        require( availableToClaim >= distributionClaim, \"This donation has insufficient funds to distribute.\" );\n\n        Distribution memory currentDistribution;\n            currentDistribution.distributionID          = distributionCount;\n            currentDistribution.distributorID           = _distributorID;\n            currentDistribution.donationID              = _donationID;\n            currentDistribution.donorID                 = donations[_donationID].donorID;\n            currentDistribution.distributionAmount      = distributionClaim;\n            currentDistribution.recipientCount          = _recipientCount;\n            currentDistribution.distributionMonths      = _distributionMonths;\n            currentDistribution.recipientDetailsAreValid  = _recipientDetailsAreValid;\n            //currentDistribution.distributionState       = DistributionState.DistributionCreated;\n            distributions.push(currentDistribution);\n\n        emit LogDistributionState(distributionCount, allDistributors[_distributorID].distributorName,\n                                  donations[_donationID].donationName, DistributionState.DistributionCreated);\n\n        /// @notice Now make a claim against the Donation\n        donations[_donationID].requestedNotGrantedAmount += distributionClaim;\n        distributions[distributionCount].distributionState = DistributionState.FundsRequested;\n        emit LogDistributionState(distributionCount, allDistributors[_distributorID].distributorName,\n                                  donations[_donationID].donationName, DistributionState.FundsRequested);\n        distributionCount = distributionCount + 1;\n        return true;\n    }\n\n    /// @dev send funds to a Distributor if the conditions are met\n    /// @notice if successful Update the amount granted on the donation and reduce the amount requested\n    function approveFunds(uint32 _distributionID, uint32 _donorID) public returns ( bool ){\n\n      address donorAddr = (allDonors[_donorID].donorAddress);\n      uint256 distrAmt  = distributions[_distributionID].distributionAmount;\n      require((distrAmt > 0 ), \"Distribution amount cannot be negative\");\n      require((distrAmt < donorAddr.balance ), \"Insufficient Donor Funds\");\n\n      donations[_donorID].donationGrantedAmount += distrAmt;\n      donations[_donorID].requestedNotGrantedAmount -= distrAmt;\n      distributions[_distributionID].distributionState = DistributionState.FundsApproved;\n      //(bool approved ) = approve( owner() ,distrAmt);\n      emit LogSender( address(this) ,  distrAmt );\n      (bool approved ) = approve( address(this) ,distrAmt);\n      require(approved, \"Failed to approve funds transfer to the distributor\");\n      return approved;\n    }\n\n    function giveFunds(uint32 _distributionID, uint32 _donorID, address payable recipient ) \n                public isDonor returns( bool ){\n\n      //address distAddr  = (allDistributors[distributions[_distributionID].distributorID].distributorAddress);\n      address donorAddr = (allDonors[_donorID].donorAddress);\n      uint256 distrAmt  = distributions[_distributionID].distributionAmount;\n      require((distrAmt > 0 ), \"Distribution amount cannot be negative\");\n      //require((distrAmt < donorAddr.balance ), \"Insufficient Donor Funds\");\n      require((msg.sender == donorAddr ), \"Sender is not the Donor \");\n      require((distrAmt < msg.sender.balance ), \"Insufficient Funds\");\n      emit LogSender( msg.sender ,  distrAmt );\n      (bool sent ) = transferFrom( donorAddr, recipient, distrAmt);\n      //(bool sent ,) = recipient.call{value: distrAmt}(\"\");\n      return sent;\n    }\n    // function giveFunds(uint32 _distributionID, uint32 _donorID) \n    //             public payable isDonor distributionCanProceed(_distributionID, _donorID) returns( bool ){\n    // function giveFunds(uint32 _distributionID, uint32 _donorID) \n    //             public payable isDonor returns( bool ){\n\n    //   address payable distAddr  = payable(allDistributors[distributions[_distributionID].distributorID].distributorAddress);\n    //   address payable donorAddr = payable(allDonors[_donorID].donorAddress);\n    //   uint256 distrAmt = distributions[_distributionID].distributionAmount;\n    //   require((distrAmt > 0 ), \"Distribution amount cannot be negative\");\n    //   require((distrAmt < donorAddr.balance ), \"Insufficient Donor Funds\");\n    //   //require((msg.sender = donorAddr ), \"Sender is not the Donor \");\n    //   //require((distrAmt < msg.sender.balance ), \"Insufficient Funds\");\n\n    //   donations[_donorID].donationGrantedAmount += distrAmt;\n    //   donations[_donorID].requestedNotGrantedAmount -= distrAmt;\n    //   distributions[_distributionID].distributionState = DistributionState.FundsApproved;\n      //donorBalances[allDonors[_donorID].donorAddress] -=  distrAmt;\n      /// @notice Check that this is actually seding from donor to distributor\n      // distAddr.transfer( distrAmt );\n      // The transfer gives a revert error and seems to be trying to send to the contract addr??\n      //(bool sent ) = transferFrom( donorAddr, distAddr, distrAmt);\n      //(bool sent ) = transferFrom( msg.sender, address(this), distrAmt);\n      //(bool sent ,) = distAddr.call{value: distrAmt}(\"\");\n      //require(sent, \"Failed to send funds to the distributor\");\n    //   emit LogDistributionState(_distributionID, allDistributors[distributions[_distributionID].distributorID].distributorName,\n    //                              donations[distributions[_distributionID].donationID].donationName,\n    //                              DistributionState.FundsApproved);\n    //   emit LogDonationState(distributions[_distributionID].donationID,\n    //                         donations[distributions[_distributionID].donationID].donationName,\n    //                         DonationState.Distributing);\n\n\n    /// @dev Allow the donor to withdraw funds balance provided there are no distributions that have submitted funding requests\n    function donorWithdrawal(uint256 _withdrawAmount, uint32 _donorID) public payable isDonor distributionsAreUpToDate (_donorID) {\n      require(msg.sender.balance >= _withdrawAmount, \"Withdrawal request exceeds donor balance\");\n      //donorBalances[msg.sender] -= _withdrawAmount;\n      emit LogDonorWithdrawal(msg.sender, _withdrawAmount, (msg.sender.balance - _withdrawAmount));\n      //payable(msg.sender).transfer(_withdrawAmount);\n      (bool sent,) = msg.sender.call{value: _withdrawAmount}(\"\");\n      require(sent, \"Failed to withdraw funds to the donor\");\n    }\n\n    /// @dev Allow the distributor to withdraw funds balance\n    function distributorWithdrawal(uint _withdrawAmount) public payable isDistributor  {\n      require(msg.sender.balance >= _withdrawAmount, \"Withdrawal request exceeds balance\");\n      //distributorBalances[msg.sender] -= _withdrawAmount;\n      emit LogDistributorWithdrawal(msg.sender, _withdrawAmount, (msg.sender.balance - _withdrawAmount));\n      //payable(msg.sender).transfer(withdrawAmount);\n      (bool sent,) = msg.sender.call{value: _withdrawAmount}(\"\");\n      require(sent, \"Failed to withdraw funds to the donor\");\n    }\n\n/*    function initialize() initializer public {\n        __ERC20_init(\"MyToken\", \"MTK\");\n        __Pausable_init();\n        __Ownable_init();\n        __ERC20Permit_init(\"MyToken\");\n    }\n*/\n    function pause() public onlyOwner {\n        _pause();\n    }\n\n    function unpause() public onlyOwner {\n        _unpause();\n    }\n\n    function _beforeTokenTransfer(address from, address to, uint256 amount)\n        internal\n        whenNotPaused\n        override\n    {\n        super._beforeTokenTransfer(from, to, amount);\n    }\n\n}\n",
  "sourcePath": "/Users/seanevans/Crypto/Course/finalProject/contracts/DonationManager.sol",
  "compiler": {
    "name": "solc",
    "version": "0.8.2+commit.661d1103.Emscripten.clang"
  },
  "schemaVersion": "3.4.3",
  "updatedAt": "2021-11-18T02:39:51.164Z",
  "networkType": "ethereum",
  "devdoc": {
    "kind": "dev",
    "methods": {
      "allowance(address,address)": {
        "details": "See {IERC20-allowance}."
      },
      "approve(address,uint256)": {
        "details": "See {IERC20-approve}. Requirements: - `spender` cannot be the zero address."
      },
      "approveFunds(uint32,uint32)": {
        "details": "send funds to a Distributor if the conditions are met"
      },
      "balanceOf(address)": {
        "details": "See {IERC20-balanceOf}."
      },
      "changeDistributorStatus(uint32,uint32)": {
        "details": "Allow the donor to change the status of the distributor to either trusted or untrusted.Once set to untrusted it cannot be altered."
      },
      "createDistribution(uint32,uint32,uint32,uint8,bool)": {
        "details": "Create a new distribution - It cannot come from an exiting donor"
      },
      "createDistributor(string,string)": {
        "details": "Create a new distributor - It connot come from the same address as an exiting donor"
      },
      "createDonation(string,uint32,uint256,uint8)": {
        "details": "Create a new Donation. It can only be created by donors"
      },
      "createDonor(string)": {
        "details": "Create a new donor - It connot come from the same address as an exiting distributoramount donated is just a running balance, not an actual account balance"
      },
      "decimals()": {
        "details": "Returns the number of decimals used to get its user representation. For example, if `decimals` equals `2`, a balance of `505` tokens should be displayed to a user as `5.05` (`505 / 10 ** 2`). Tokens usually opt for a value of 18, imitating the relationship between Ether and Wei. This is the value {ERC20} uses, unless this function is overridden; NOTE: This information is only used for _display_ purposes: it in no way affects any of the arithmetic of the contract, including {IERC20-balanceOf} and {IERC20-transfer}."
      },
      "decreaseAllowance(address,uint256)": {
        "details": "Atomically decreases the allowance granted to `spender` by the caller. This is an alternative to {approve} that can be used as a mitigation for problems described in {IERC20-approve}. Emits an {Approval} event indicating the updated allowance. Requirements: - `spender` cannot be the zero address. - `spender` must have allowance for the caller of at least `subtractedValue`."
      },
      "distributorWithdrawal(uint256)": {
        "details": "Allow the distributor to withdraw funds balance"
      },
      "donorWithdrawal(uint256,uint32)": {
        "details": "Allow the donor to withdraw funds balance provided there are no distributions that have submitted funding requests"
      },
      "getAllDonorBalances(uint32)": {
        "details": "Get the balances of the donor ; i.e. all summarise all donations made by this donor",
        "returns": {
          "donatedAmount": " Total Donated Amount",
          "fundsAvailableToWithdraw": "Funds available to withdraw",
          "grantedAmount": "Distributed Amount - funds actually sent to distributor",
          "requestedNotGranted": "Requested amount but not approved"
        }
      },
      "getDonationBalance(uint32)": {
        "details": "Get the balances of a specific donation : Used by the distributor to check what funds are available",
        "returns": {
          "donatedAmount": "donatedAmount",
          "grantedAmount": "Distributed Amount - funds actually sent to distributor",
          "requestedNotGranted": "Requested amount but not approved"
        }
      },
      "increaseAllowance(address,uint256)": {
        "details": "Atomically increases the allowance granted to `spender` by the caller. This is an alternative to {approve} that can be used as a mitigation for problems described in {IERC20-approve}. Emits an {Approval} event indicating the updated allowance. Requirements: - `spender` cannot be the zero address."
      },
      "makeDonation(uint256,uint32,uint32)": {
        "details": "Allow the donor to ring fence funds for a donation. No actual transfer of funds."
      },
      "name()": {
        "details": "Returns the name of the token."
      },
      "owner()": {
        "details": "Returns the address of the current owner."
      },
      "paused()": {
        "details": "Returns true if the contract is paused, and false otherwise."
      },
      "renounceOwnership()": {
        "details": "Leaves the contract without owner. It will not be possible to call `onlyOwner` functions anymore. Can only be called by the current owner. NOTE: Renouncing ownership will leave the contract without an owner, thereby removing any functionality that is only available to the owner."
      },
      "symbol()": {
        "details": "Returns the symbol of the token, usually a shorter version of the name."
      },
      "totalSupply()": {
        "details": "See {IERC20-totalSupply}."
      },
      "transfer(address,uint256)": {
        "details": "See {IERC20-transfer}. Requirements: - `recipient` cannot be the zero address. - the caller must have a balance of at least `amount`."
      },
      "transferFrom(address,address,uint256)": {
        "details": "See {IERC20-transferFrom}. Emits an {Approval} event indicating the updated allowance. This is not required by the EIP. See the note at the beginning of {ERC20}. Requirements: - `sender` and `recipient` cannot be the zero address. - `sender` must have a balance of at least `amount`. - the caller must have allowance for ``sender``'s tokens of at least `amount`."
      },
      "transferOwnership(address)": {
        "details": "Transfers ownership of the contract to a new account (`newOwner`). Can only be called by the current owner."
      }
    },
    "stateVariables": {
      "distributionCount": {
        "details": "Disrtibutions"
      },
      "distributorCount": {
        "details": "Distributors"
      },
      "donationCount": {
        "details": "Donations"
      },
      "donations": {
        "details": "Using arrays rather than mappings where I need to iterate over the contents"
      },
      "donorCount": {
        "details": "Donors"
      }
    },
    "version": 1
  },
  "userdoc": {
    "kind": "user",
    "methods": {
      "approveFunds(uint32,uint32)": {
        "notice": "if successful Update the amount granted on the donation and reduce the amount requested"
      },
      "createDistribution(uint32,uint32,uint32,uint8,bool)": {
        "notice": "Requires that The donor list is verified - verification of lists to happen outside on IPFS - not implemented"
      }
    },
    "version": 1
  }
}