{
  "contractName": "DonationManager",
  "abi": [
    {
      "inputs": [],
      "stateMutability": "nonpayable",
      "type": "constructor"
    },
    {
      "anonymous": false,
      "inputs": [
        {
          "indexed": true,
          "internalType": "address",
          "name": "owner",
          "type": "address"
        },
        {
          "indexed": true,
          "internalType": "address",
          "name": "spender",
          "type": "address"
        },
        {
          "indexed": false,
          "internalType": "uint256",
          "name": "value",
          "type": "uint256"
        }
      ],
      "name": "Approval",
      "type": "event"
    },
    {
      "anonymous": false,
      "inputs": [
        {
          "indexed": false,
          "internalType": "uint32",
          "name": "distributionID",
          "type": "uint32"
        },
        {
          "indexed": false,
          "internalType": "string",
          "name": "distributorName",
          "type": "string"
        },
        {
          "indexed": false,
          "internalType": "uint256",
          "name": "donationAmount",
          "type": "uint256"
        }
      ],
      "name": "LogDistributionRequest",
      "type": "event"
    },
    {
      "anonymous": false,
      "inputs": [
        {
          "indexed": false,
          "internalType": "uint32",
          "name": "distributionID",
          "type": "uint32"
        },
        {
          "indexed": false,
          "internalType": "string",
          "name": "distributorName",
          "type": "string"
        },
        {
          "indexed": false,
          "internalType": "string",
          "name": "donationName",
          "type": "string"
        },
        {
          "indexed": false,
          "internalType": "enum DonationManager.DistributionState",
          "name": "",
          "type": "uint8"
        }
      ],
      "name": "LogDistributionState",
      "type": "event"
    },
    {
      "anonymous": false,
      "inputs": [
        {
          "indexed": true,
          "internalType": "address",
          "name": "distributorAddress",
          "type": "address"
        },
        {
          "indexed": false,
          "internalType": "uint32",
          "name": "distributorID",
          "type": "uint32"
        },
        {
          "indexed": false,
          "internalType": "string",
          "name": "distributorName",
          "type": "string"
        },
        {
          "indexed": false,
          "internalType": "enum DonationManager.DistributorStatus",
          "name": "distributorStatus",
          "type": "uint8"
        }
      ],
      "name": "LogDistributorStatus",
      "type": "event"
    },
    {
      "anonymous": false,
      "inputs": [
        {
          "indexed": true,
          "internalType": "address",
          "name": "donorAddress",
          "type": "address"
        },
        {
          "indexed": false,
          "internalType": "uint256",
          "name": "withdrawAmount",
          "type": "uint256"
        },
        {
          "indexed": false,
          "internalType": "uint256",
          "name": "remainingBalance",
          "type": "uint256"
        }
      ],
      "name": "LogDistributorWithdrawal",
      "type": "event"
    },
    {
      "anonymous": false,
      "inputs": [
        {
          "indexed": false,
          "internalType": "uint32",
          "name": "donationID",
          "type": "uint32"
        },
        {
          "indexed": false,
          "internalType": "string",
          "name": "donationName",
          "type": "string"
        },
        {
          "indexed": false,
          "internalType": "enum DonationManager.DonationState",
          "name": "",
          "type": "uint8"
        }
      ],
      "name": "LogDonationState",
      "type": "event"
    },
    {
      "anonymous": false,
      "inputs": [
        {
          "indexed": true,
          "internalType": "address",
          "name": "donorAddress",
          "type": "address"
        },
        {
          "indexed": false,
          "internalType": "uint32",
          "name": "donorID",
          "type": "uint32"
        },
        {
          "indexed": false,
          "internalType": "uint256",
          "name": "balance",
          "type": "uint256"
        }
      ],
      "name": "LogDonorAdded",
      "type": "event"
    },
    {
      "anonymous": false,
      "inputs": [
        {
          "indexed": true,
          "internalType": "address",
          "name": "donorAddress",
          "type": "address"
        },
        {
          "indexed": false,
          "internalType": "uint256",
          "name": "donationAmount",
          "type": "uint256"
        }
      ],
      "name": "LogDonorDeposit",
      "type": "event"
    },
    {
      "anonymous": false,
      "inputs": [
        {
          "indexed": true,
          "internalType": "address",
          "name": "donorAddress",
          "type": "address"
        },
        {
          "indexed": false,
          "internalType": "uint256",
          "name": "withdrawAmount",
          "type": "uint256"
        },
        {
          "indexed": false,
          "internalType": "uint256",
          "name": "remainingBalance",
          "type": "uint256"
        }
      ],
      "name": "LogDonorWithdrawal",
      "type": "event"
    },
    {
      "anonymous": false,
      "inputs": [
        {
          "indexed": false,
          "internalType": "address",
          "name": "senderAddr",
          "type": "address"
        },
        {
          "indexed": false,
          "internalType": "uint256",
          "name": "senderBal",
          "type": "uint256"
        }
      ],
      "name": "LogSender",
      "type": "event"
    },
    {
      "anonymous": false,
      "inputs": [
        {
          "indexed": true,
          "internalType": "address",
          "name": "previousOwner",
          "type": "address"
        },
        {
          "indexed": true,
          "internalType": "address",
          "name": "newOwner",
          "type": "address"
        }
      ],
      "name": "OwnershipTransferred",
      "type": "event"
    },
    {
      "anonymous": false,
      "inputs": [
        {
          "indexed": false,
          "internalType": "address",
          "name": "account",
          "type": "address"
        }
      ],
      "name": "Paused",
      "type": "event"
    },
    {
      "anonymous": false,
      "inputs": [
        {
          "indexed": true,
          "internalType": "address",
          "name": "from",
          "type": "address"
        },
        {
          "indexed": true,
          "internalType": "address",
          "name": "to",
          "type": "address"
        },
        {
          "indexed": false,
          "internalType": "uint256",
          "name": "value",
          "type": "uint256"
        }
      ],
      "name": "Transfer",
      "type": "event"
    },
    {
      "anonymous": false,
      "inputs": [
        {
          "indexed": false,
          "internalType": "address",
          "name": "account",
          "type": "address"
        }
      ],
      "name": "Unpaused",
      "type": "event"
    },
    {
      "inputs": [
        {
          "internalType": "uint32",
          "name": "",
          "type": "uint32"
        }
      ],
      "name": "allDistributors",
      "outputs": [
        {
          "internalType": "uint32",
          "name": "distributorID",
          "type": "uint32"
        },
        {
          "internalType": "address",
          "name": "distributorAddress",
          "type": "address"
        },
        {
          "internalType": "string",
          "name": "distributorName",
          "type": "string"
        },
        {
          "internalType": "string",
          "name": "distributorCountry",
          "type": "string"
        },
        {
          "internalType": "enum DonationManager.DistributorStatus",
          "name": "distributorStatus",
          "type": "uint8"
        }
      ],
      "stateMutability": "view",
      "type": "function",
      "constant": true
    },
    {
      "inputs": [
        {
          "internalType": "uint32",
          "name": "",
          "type": "uint32"
        }
      ],
      "name": "allDonors",
      "outputs": [
        {
          "internalType": "uint32",
          "name": "donorID",
          "type": "uint32"
        },
        {
          "internalType": "address",
          "name": "donorAddress",
          "type": "address"
        },
        {
          "internalType": "uint256",
          "name": "amountDonated",
          "type": "uint256"
        },
        {
          "internalType": "string",
          "name": "donorName",
          "type": "string"
        }
      ],
      "stateMutability": "view",
      "type": "function",
      "constant": true
    },
    {
      "inputs": [
        {
          "internalType": "address",
          "name": "owner",
          "type": "address"
        },
        {
          "internalType": "address",
          "name": "spender",
          "type": "address"
        }
      ],
      "name": "allowance",
      "outputs": [
        {
          "internalType": "uint256",
          "name": "",
          "type": "uint256"
        }
      ],
      "stateMutability": "view",
      "type": "function",
      "constant": true
    },
    {
      "inputs": [
        {
          "internalType": "address",
          "name": "spender",
          "type": "address"
        },
        {
          "internalType": "uint256",
          "name": "amount",
          "type": "uint256"
        }
      ],
      "name": "approve",
      "outputs": [
        {
          "internalType": "bool",
          "name": "",
          "type": "bool"
        }
      ],
      "stateMutability": "nonpayable",
      "type": "function"
    },
    {
      "inputs": [
        {
          "internalType": "address",
          "name": "account",
          "type": "address"
        }
      ],
      "name": "balanceOf",
      "outputs": [
        {
          "internalType": "uint256",
          "name": "",
          "type": "uint256"
        }
      ],
      "stateMutability": "view",
      "type": "function",
      "constant": true
    },
    {
      "inputs": [],
      "name": "decimals",
      "outputs": [
        {
          "internalType": "uint8",
          "name": "",
          "type": "uint8"
        }
      ],
      "stateMutability": "view",
      "type": "function",
      "constant": true
    },
    {
      "inputs": [
        {
          "internalType": "address",
          "name": "spender",
          "type": "address"
        },
        {
          "internalType": "uint256",
          "name": "subtractedValue",
          "type": "uint256"
        }
      ],
      "name": "decreaseAllowance",
      "outputs": [
        {
          "internalType": "bool",
          "name": "",
          "type": "bool"
        }
      ],
      "stateMutability": "nonpayable",
      "type": "function"
    },
    {
      "inputs": [],
      "name": "distributionCount",
      "outputs": [
        {
          "internalType": "uint32",
          "name": "",
          "type": "uint32"
        }
      ],
      "stateMutability": "view",
      "type": "function",
      "constant": true
    },
    {
      "inputs": [
        {
          "internalType": "uint256",
          "name": "",
          "type": "uint256"
        }
      ],
      "name": "distributions",
      "outputs": [
        {
          "internalType": "uint32",
          "name": "distributionID",
          "type": "uint32"
        },
        {
          "internalType": "uint32",
          "name": "distributorID",
          "type": "uint32"
        },
        {
          "internalType": "uint32",
          "name": "donationID",
          "type": "uint32"
        },
        {
          "internalType": "uint32",
          "name": "donorID",
          "type": "uint32"
        },
        {
          "internalType": "uint256",
          "name": "distributionAmount",
          "type": "uint256"
        },
        {
          "internalType": "uint32",
          "name": "recipientCount",
          "type": "uint32"
        },
        {
          "internalType": "uint8",
          "name": "distributionMonths",
          "type": "uint8"
        },
        {
          "internalType": "bool",
          "name": "recipientDetailsAreValid",
          "type": "bool"
        },
        {
          "internalType": "enum DonationManager.DistributionState",
          "name": "distributionState",
          "type": "uint8"
        }
      ],
      "stateMutability": "view",
      "type": "function",
      "constant": true
    },
    {
      "inputs": [],
      "name": "distributorCount",
      "outputs": [
        {
          "internalType": "uint32",
          "name": "",
          "type": "uint32"
        }
      ],
      "stateMutability": "view",
      "type": "function",
      "constant": true
    },
    {
      "inputs": [],
      "name": "donationCount",
      "outputs": [
        {
          "internalType": "uint32",
          "name": "",
          "type": "uint32"
        }
      ],
      "stateMutability": "view",
      "type": "function",
      "constant": true
    },
    {
      "inputs": [
        {
          "internalType": "uint256",
          "name": "",
          "type": "uint256"
        }
      ],
      "name": "donations",
      "outputs": [
        {
          "internalType": "uint32",
          "name": "donationID",
          "type": "uint32"
        },
        {
          "internalType": "uint32",
          "name": "donorID",
          "type": "uint32"
        },
        {
          "internalType": "string",
          "name": "donationName",
          "type": "string"
        },
        {
          "internalType": "uint256",
          "name": "donationAmount",
          "type": "uint256"
        },
        {
          "internalType": "uint256",
          "name": "donationGrantedAmount",
          "type": "uint256"
        },
        {
          "internalType": "uint256",
          "name": "requestedNotGrantedAmount",
          "type": "uint256"
        },
        {
          "internalType": "uint256",
          "name": "USDperRecipientPerMonth",
          "type": "uint256"
        },
        {
          "internalType": "uint8",
          "name": "adminFeePercent",
          "type": "uint8"
        },
        {
          "internalType": "enum DonationManager.DonationState",
          "name": "donationState",
          "type": "uint8"
        },
        {
          "internalType": "enum DonationManager.DonationPurpose",
          "name": "donationPurpose",
          "type": "uint8"
        }
      ],
      "stateMutability": "view",
      "type": "function",
      "constant": true
    },
    {
      "inputs": [
        {
          "internalType": "address",
          "name": "",
          "type": "address"
        }
      ],
      "name": "donorBalances",
      "outputs": [
        {
          "internalType": "uint256",
          "name": "",
          "type": "uint256"
        }
      ],
      "stateMutability": "view",
      "type": "function",
      "constant": true
    },
    {
      "inputs": [],
      "name": "donorCount",
      "outputs": [
        {
          "internalType": "uint32",
          "name": "",
          "type": "uint32"
        }
      ],
      "stateMutability": "view",
      "type": "function",
      "constant": true
    },
    {
      "inputs": [
        {
          "internalType": "address",
          "name": "spender",
          "type": "address"
        },
        {
          "internalType": "uint256",
          "name": "addedValue",
          "type": "uint256"
        }
      ],
      "name": "increaseAllowance",
      "outputs": [
        {
          "internalType": "bool",
          "name": "",
          "type": "bool"
        }
      ],
      "stateMutability": "nonpayable",
      "type": "function"
    },
    {
      "inputs": [],
      "name": "name",
      "outputs": [
        {
          "internalType": "string",
          "name": "",
          "type": "string"
        }
      ],
      "stateMutability": "view",
      "type": "function",
      "constant": true
    },
    {
      "inputs": [],
      "name": "owner",
      "outputs": [
        {
          "internalType": "address",
          "name": "",
          "type": "address"
        }
      ],
      "stateMutability": "view",
      "type": "function",
      "constant": true
    },
    {
      "inputs": [],
      "name": "paused",
      "outputs": [
        {
          "internalType": "bool",
          "name": "",
          "type": "bool"
        }
      ],
      "stateMutability": "view",
      "type": "function",
      "constant": true
    },
    {
      "inputs": [],
      "name": "renounceOwnership",
      "outputs": [],
      "stateMutability": "nonpayable",
      "type": "function"
    },
    {
      "inputs": [],
      "name": "symbol",
      "outputs": [
        {
          "internalType": "string",
          "name": "",
          "type": "string"
        }
      ],
      "stateMutability": "view",
      "type": "function",
      "constant": true
    },
    {
      "inputs": [],
      "name": "totalSupply",
      "outputs": [
        {
          "internalType": "uint256",
          "name": "",
          "type": "uint256"
        }
      ],
      "stateMutability": "view",
      "type": "function",
      "constant": true
    },
    {
      "inputs": [
        {
          "internalType": "address",
          "name": "recipient",
          "type": "address"
        },
        {
          "internalType": "uint256",
          "name": "amount",
          "type": "uint256"
        }
      ],
      "name": "transfer",
      "outputs": [
        {
          "internalType": "bool",
          "name": "",
          "type": "bool"
        }
      ],
      "stateMutability": "nonpayable",
      "type": "function"
    },
    {
      "inputs": [
        {
          "internalType": "address",
          "name": "sender",
          "type": "address"
        },
        {
          "internalType": "address",
          "name": "recipient",
          "type": "address"
        },
        {
          "internalType": "uint256",
          "name": "amount",
          "type": "uint256"
        }
      ],
      "name": "transferFrom",
      "outputs": [
        {
          "internalType": "bool",
          "name": "",
          "type": "bool"
        }
      ],
      "stateMutability": "nonpayable",
      "type": "function"
    },
    {
      "inputs": [
        {
          "internalType": "address",
          "name": "newOwner",
          "type": "address"
        }
      ],
      "name": "transferOwnership",
      "outputs": [],
      "stateMutability": "nonpayable",
      "type": "function"
    },
    {
      "inputs": [
        {
          "internalType": "string",
          "name": "_donorName",
          "type": "string"
        }
      ],
      "name": "createDonor",
      "outputs": [
        {
          "internalType": "bool",
          "name": "",
          "type": "bool"
        }
      ],
      "stateMutability": "nonpayable",
      "type": "function"
    },
    {
      "inputs": [
        {
          "internalType": "string",
          "name": "_distributorName",
          "type": "string"
        },
        {
          "internalType": "string",
          "name": "_distributorCountry",
          "type": "string"
        }
      ],
      "name": "createDistributor",
      "outputs": [
        {
          "internalType": "bool",
          "name": "",
          "type": "bool"
        }
      ],
      "stateMutability": "nonpayable",
      "type": "function"
    },
    {
      "inputs": [
        {
          "internalType": "string",
          "name": "_donationName",
          "type": "string"
        },
        {
          "internalType": "uint32",
          "name": "_donorID",
          "type": "uint32"
        },
        {
          "internalType": "uint256",
          "name": "_USDperRecipientPerMonth",
          "type": "uint256"
        },
        {
          "internalType": "uint8",
          "name": "_adminFeePercent",
          "type": "uint8"
        }
      ],
      "name": "createDonation",
      "outputs": [
        {
          "internalType": "bool",
          "name": "",
          "type": "bool"
        }
      ],
      "stateMutability": "nonpayable",
      "type": "function"
    },
    {
      "inputs": [
        {
          "internalType": "uint256",
          "name": "_donationAmount",
          "type": "uint256"
        },
        {
          "internalType": "uint32",
          "name": "_donationID",
          "type": "uint32"
        },
        {
          "internalType": "uint32",
          "name": "_donorID",
          "type": "uint32"
        }
      ],
      "name": "makeDonation",
      "outputs": [],
      "stateMutability": "nonpayable",
      "type": "function"
    },
    {
      "inputs": [
        {
          "internalType": "uint32",
          "name": "_distributorID",
          "type": "uint32"
        },
        {
          "internalType": "uint32",
          "name": "_distributorStatus",
          "type": "uint32"
        }
      ],
      "name": "changeDistributorStatus",
      "outputs": [],
      "stateMutability": "nonpayable",
      "type": "function"
    },
    {
      "inputs": [
        {
          "internalType": "uint32",
          "name": "_donationID",
          "type": "uint32"
        }
      ],
      "name": "getDonationBalance",
      "outputs": [
        {
          "internalType": "uint256",
          "name": "donatedAmount",
          "type": "uint256"
        },
        {
          "internalType": "uint256",
          "name": "grantedAmount",
          "type": "uint256"
        },
        {
          "internalType": "uint256",
          "name": "requestedNotGranted",
          "type": "uint256"
        }
      ],
      "stateMutability": "view",
      "type": "function",
      "constant": true
    },
    {
      "inputs": [
        {
          "internalType": "uint32",
          "name": "_donorID",
          "type": "uint32"
        }
      ],
      "name": "getAllDonorBalances",
      "outputs": [
        {
          "internalType": "uint256",
          "name": "donatedAmount",
          "type": "uint256"
        },
        {
          "internalType": "uint256",
          "name": "grantedAmount",
          "type": "uint256"
        },
        {
          "internalType": "uint256",
          "name": "requestedNotGranted",
          "type": "uint256"
        },
        {
          "internalType": "uint256",
          "name": "fundsAvailableToWithdraw",
          "type": "uint256"
        }
      ],
      "stateMutability": "view",
      "type": "function",
      "constant": true
    },
    {
      "inputs": [
        {
          "internalType": "uint32",
          "name": "_distributorID",
          "type": "uint32"
        },
        {
          "internalType": "uint32",
          "name": "_donationID",
          "type": "uint32"
        },
        {
          "internalType": "uint32",
          "name": "_recipientCount",
          "type": "uint32"
        },
        {
          "internalType": "uint8",
          "name": "_distributionMonths",
          "type": "uint8"
        },
        {
          "internalType": "bool",
          "name": "_recipientDetailsAreValid",
          "type": "bool"
        }
      ],
      "name": "createDistribution",
      "outputs": [
        {
          "internalType": "bool",
          "name": "",
          "type": "bool"
        }
      ],
      "stateMutability": "nonpayable",
      "type": "function"
    },
    {
      "inputs": [
        {
          "internalType": "uint32",
          "name": "_distributionID",
          "type": "uint32"
        },
        {
          "internalType": "uint32",
          "name": "_donorID",
          "type": "uint32"
        }
      ],
      "name": "approveFunds",
      "outputs": [
        {
          "internalType": "bool",
          "name": "",
          "type": "bool"
        }
      ],
      "stateMutability": "nonpayable",
      "type": "function"
    },
    {
      "inputs": [
        {
          "internalType": "uint32",
          "name": "_distributionID",
          "type": "uint32"
        },
        {
          "internalType": "uint32",
          "name": "_donorID",
          "type": "uint32"
        }
      ],
      "name": "giveFunds",
      "outputs": [
        {
          "internalType": "bool",
          "name": "",
          "type": "bool"
        }
      ],
      "stateMutability": "nonpayable",
      "type": "function"
    },
    {
      "inputs": [
        {
          "internalType": "uint256",
          "name": "_withdrawAmount",
          "type": "uint256"
        },
        {
          "internalType": "uint32",
          "name": "_donorID",
          "type": "uint32"
        }
      ],
      "name": "donorWithdrawal",
      "outputs": [],
      "stateMutability": "payable",
      "type": "function",
      "payable": true
    },
    {
      "inputs": [
        {
          "internalType": "uint256",
          "name": "_withdrawAmount",
          "type": "uint256"
        }
      ],
      "name": "distributorWithdrawal",
      "outputs": [],
      "stateMutability": "payable",
      "type": "function",
      "payable": true
    },
    {
      "inputs": [],
      "name": "pause",
      "outputs": [],
      "stateMutability": "nonpayable",
      "type": "function"
    },
    {
      "inputs": [],
      "name": "unpause",
      "outputs": [],
      "stateMutability": "nonpayable",
      "type": "function"
    }
  ],
  "bytecode": "0x60806040523480156200001157600080fd5b5060408051602080820180845260008084528451928301909452928152815191929091620000429160039162000123565b5080516200005890600490602084019062000123565b50506005805460ff19169055506200008b6200007c640100000000620000c5810204565b640100000000620000c9810204565b6005805460a860020a63ffffffff02191690556008805463ffffffff19908116909155600b805482169055600d805490911690556200021f565b3390565b60058054600160a060020a0383811661010081810261010060a860020a031985161790945560405193909204169182907f8be0079c531659141344cd1fd0a4f28419497f9722a3daafe3b4186f6b6457e090600090a35050565b8280546200013190620001c9565b90600052602060002090601f016020900481019282620001555760008555620001a0565b82601f106200017057805160ff1916838001178555620001a0565b82800160010185558215620001a0579182015b82811115620001a057825182559160200191906001019062000183565b50620001ae929150620001b2565b5090565b5b80821115620001ae5760008155600101620001b3565b600281046001821680620001de57607f821691505b6020821081141562000219577f4e487b7100000000000000000000000000000000000000000000000000000000600052602260045260246000fd5b50919050565b61409b806200022f6000396000f3fe608060405260043610610242576000357c01000000000000000000000000000000000000000000000000000000009004806370a0823111610140578063a457c2d7116100c8578063ccfb6a411161008c578063ccfb6a41146106d1578063dd62ed3e14610711578063eba9350714610757578063f2fde38b14610777578063f8626af81461079757610242565b8063a457c2d714610630578063a9059cbb14610650578063b69b80b314610670578063c407670f14610690578063c65c3d95146106b457610242565b80638456cb591161010f5780638456cb5914610586578063871d8f091461059b5780638a0b6740146105cc5780638da5cb5b146105df57806395d89b411461061b57610242565b806370a08231146104ee578063715018a61461052457806374564f4a146105395780637b8c8de11461055957610242565b806335f3d58f116101ce5780635531735f116101925780635531735f146104565780635669a047146104765780635c975abb146104965780635decd6db146104ae57806364d550df146104ce57610242565b806335f3d58f1461039f57806339509351146103cf5780633ac140e8146103ef5780633f4ba83a1461040c5780634487d3df1461042157610242565b80632266633e116102155780632266633e146102e157806323b872dd146102f65780632a0521f8146103165780632abfab4d14610351578063313ce5671461038357610242565b806306fdde0314610247578063095ea7b3146102725780630df11b1c146102a257806318160ddd146102c2575b600080fd5b34801561025357600080fd5b5061025c6107cd565b6040516102699190613bf3565b60405180910390f35b34801561027e57600080fd5b5061029261028d3660046138a4565b61085f565b6040519015158152602001610269565b3480156102ae57600080fd5b506102926102bd3660046138cd565b610875565b3480156102ce57600080fd5b506002545b604051908152602001610269565b6102f46102ef3660046139e7565b610aef565b005b34801561030257600080fd5b50610292610311366004613869565b610d94565b34801561032257600080fd5b50610336610331366004613a44565b610e56565b60408051938452602084019290925290820152606001610269565b34801561035d57600080fd5b50600b5461036e9063ffffffff1681565b60405163ffffffff9091168152602001610269565b34801561038f57600080fd5b5060405160128152602001610269565b3480156103ab57600080fd5b506103bf6103ba366004613a44565b610f1c565b6040516102699493929190613d51565b3480156103db57600080fd5b506102926103ea3660046138a4565b610fe0565b3480156103fb57600080fd5b5060085461036e9063ffffffff1681565b34801561041857600080fd5b506102f461101c565b34801561042d57600080fd5b5061044161043c3660046139cf565b611059565b60405161026999989796959493929190613ea4565b34801561046257600080fd5b50610292610471366004613a87565b6110e6565b34801561048257600080fd5b50610292610491366004613908565b611868565b3480156104a257600080fd5b5060055460ff16610292565b3480156104ba57600080fd5b506102f46104c9366004613a5e565b611a5a565b3480156104da57600080fd5b506102926104e9366004613a5e565b611c0f565b3480156104fa57600080fd5b506102d3610509366004613816565b600160a060020a031660009081526020819052604090205490565b34801561053057600080fd5b506102f4611ed4565b34801561054557600080fd5b50610292610554366004613a5e565b611f11565b34801561056557600080fd5b506102d3610574366004613816565b60076020526000908152604090205481565b34801561059257600080fd5b506102f4612429565b3480156105a757600080fd5b506105bb6105b6366004613a44565b612464565b604051610269959493929190613cf5565b6102f46105da3660046139cf565b6125ba565b3480156105eb57600080fd5b506106036005546101009004600160a060020a031690565b604051600160a060020a039091168152602001610269565b34801561062757600080fd5b5061025c6126f2565b34801561063c57600080fd5b5061029261064b3660046138a4565b612701565b34801561065c57600080fd5b5061029261066b3660046138a4565b6127b5565b34801561067c57600080fd5b5061029261068b366004613969565b6127c2565b34801561069c57600080fd5b5060055461036e9060a860020a900463ffffffff1681565b3480156106c057600080fd5b50600d5461036e9063ffffffff1681565b3480156106dd57600080fd5b506106f16106ec366004613a44565b6129f6565b604080519485526020850193909352918301526060820152608001610269565b34801561071d57600080fd5b506102d361072c366004613837565b600160a060020a03918216600090815260016020908152604080832093909416825291909152205490565b34801561076357600080fd5b506102f4610772366004613a09565b612b9c565b34801561078357600080fd5b506102f4610792366004613816565b612eb6565b3480156107a357600080fd5b506107b76107b23660046139cf565b612f74565b6040516102699a99989796959493929190613e27565b6060600380546107dc90613fa8565b80601f016020809104026020016040519081016040528092919081815260200182805461080890613fa8565b80156108555780601f1061082a57610100808354040283529160200191610855565b820191906000526020600020905b81548152906001019060200180831161083857829003601f168201915b5050505050905090565b600061086c338484613075565b50600192915050565b336000908152600a6020526040812054156109005760405160e560020a62461bcd02815260206004820152602160248201527f63616e6e6f742062652063616c6c6564206279206469737472696275746f727360448201527f2e0000000000000000000000000000000000000000000000000000000000000060648201526084015b60405180910390fd5b33600090815260076020526040902054156109865760405160e560020a62461bcd02815260206004820152602d60248201527f63616e6e6f742063726561746520616e6f7468657220646f6e6f7220666f722060448201527f74686973206163636f756e742e0000000000000000000000000000000000000060648201526084016108f7565b6040805160808101825260055463ffffffff60a860020a90910481168083523360208085019182526000858701818152606087018a815294825260068352969020855181549351600160a060020a03166401000000000277ffffffffffffffffffffffffffffffffffffffff00000000199190961663ffffffff19909416939093179290921693909317815593516001850155518051929392610a2f92600285019201906135ea565b50503360008181526007602090815260409182902083319055600554825160a860020a90910463ffffffff1681528331918101919091529192507fe3a6f05109f9c5364a4a4672a1960be53433c573829417088813d16a73bf80e3910160405180910390a2600554610aaf9060a860020a900463ffffffff166001613f1e565b6005805463ffffffff9290921660a860020a0278ffffffff000000000000000000000000000000000000000000199092169190911790555060015b919050565b3360005260076020528060005b600e5463ffffffff82161015610c62578163ffffffff16600e8263ffffffff1681548110610b3d5760e060020a634e487b7102600052603260045260246000fd5b60009182526020909120600390910201546c01000000000000000000000000900463ffffffff16148015610bdb57506001600e8263ffffffff1681548110610b985760e060020a634e487b7102600052603260045260246000fd5b906000526020600020906003020160020160069054906101000a900460ff166003811115610bd95760e060020a634e487b7102600052602160045260246000fd5b145b610c505760405160e560020a62461bcd02815260206004820152602960248201527f466972737420417070726f7665206f722064656e79206f70656e20646973747260448201527f69627574696f6e732e000000000000000000000000000000000000000000000060648201526084016108f7565b80610c5a81613fe6565b915050610afc565b503331831115610cdd5760405160e560020a62461bcd02815260206004820152602860248201527f5769746864726177616c2072657175657374206578636565647320646f6e6f7260448201527f2062616c616e636500000000000000000000000000000000000000000000000060648201526084016108f7565b337fd511aaa7476b4b0f6ed1c5eafd6aea6007d77cc74b3c3bac462ae50edc989abb84610d0b818431613f91565b6040805192835260208301919091520160405180910390a2604051600090339085908381818185875af1925050503d8060008114610d65576040519150601f19603f3d011682016040523d82523d6000602084013e610d6a565b606091505b5050905080610d8e5760405160e560020a62461bcd0281526004016108f790613c98565b50505050565b6000610da18484846131d3565b600160a060020a038416600090815260016020908152604080832033845290915290205482811015610e3e5760405160e560020a62461bcd02815260206004820152602860248201527f45524332303a207472616e7366657220616d6f756e742065786365656473206160448201527f6c6c6f77616e636500000000000000000000000000000000000000000000000060648201526084016108f7565b610e4b8533858403613075565b506001949350505050565b6000806000600c8463ffffffff1681548110610e855760e060020a634e487b7102600052603260045260246000fd5b906000526020600020906007020160020154600c8563ffffffff1681548110610ec15760e060020a634e487b7102600052603260045260246000fd5b906000526020600020906007020160030154600c8663ffffffff1681548110610efd5760e060020a634e487b7102600052603260045260246000fd5b9060005260206000209060070201600401549250925092509193909250565b60066020526000908152604090208054600182015460028301805463ffffffff841694640100000000909404600160a060020a0316939190610f5d90613fa8565b80601f0160208091040260200160405190810160405280929190818152602001828054610f8990613fa8565b8015610fd65780601f10610fab57610100808354040283529160200191610fd6565b820191906000526020600020905b815481529060010190602001808311610fb957829003601f168201915b5050505050905084565b336000818152600160209081526040808320600160a060020a0387168452909152812054909161086c918590611017908690613f06565b613075565b600554600160a060020a0361010090910416331461104f5760405160e560020a62461bcd0281526004016108f790613c63565b6110576133fe565b565b600e818154811061106957600080fd5b600091825260209091206003909102018054600182015460029092015463ffffffff80831694506401000000008084048216946801000000000000000085048316946c010000000000000000000000009004831693909281169160ff90820481169165010000000000810482169166010000000000009091041689565b336000908152600a602052846001600c8263ffffffff168154811061111e5760e060020a634e487b7102600052603260045260246000fd5b906000526020600020906007020160060160019054906101000a900460ff16600281111561115f5760e060020a634e487b7102600052602160045260246000fd5b14806111d557506002600c8263ffffffff16815481106111925760e060020a634e487b7102600052603260045260246000fd5b906000526020600020906007020160060160019054906101000a900460ff1660028111156111d35760e060020a634e487b7102600052602160045260246000fd5b145b61124a5760405160e560020a62461bcd02815260206004820152603560248201527f446973747269627574696f6e2063616e6e6f742070726f6365656420756e746960448201527f6c20646f6e6174696f6e2069732066756e6465642e000000000000000000000060648201526084016108f7565b6000600c8763ffffffff16815481106112765760e060020a634e487b7102600052603260045260246000fd5b9060005260206000209060070201600501548560ff16876112979190613f65565b63ffffffff166112a79190613f46565b90506000600c8863ffffffff16815481106112d55760e060020a634e487b7102600052603260045260246000fd5b906000526020600020906007020160040154600c8963ffffffff16815481106113115760e060020a634e487b7102600052603260045260246000fd5b90600052602060002090600702016003015461132d9190613f06565b600c8963ffffffff16815481106113575760e060020a634e487b7102600052603260045260246000fd5b9060005260206000209060070201600201546113739190613f91565b9050818110156113ee5760405160e560020a62461bcd02815260206004820152603360248201527f5468697320646f6e6174696f6e2068617320696e73756666696369656e74206660448201527f756e647320746f20646973747269627574652e0000000000000000000000000060648201526084016108f7565b6113f661366e565b600d5463ffffffff90811682528a81166020830152891660408201819052600c8054909190811061143a5760e060020a634e487b7102600052603260045260246000fd5b906000526020600020906007020160000160049054906101000a900463ffffffff16816060019063ffffffff16908163ffffffff168152505082816080018181525050878160a0019063ffffffff16908163ffffffff1681525050868160c0019060ff16908160ff1681525050858160e0019015159081151581525050600e81908060018154018082558091505060019003906000526020600020906003020160009091909190915060008201518160000160006101000a81548163ffffffff021916908363ffffffff16021790555060208201518160000160046101000a81548163ffffffff021916908363ffffffff16021790555060408201518160000160086101000a81548163ffffffff021916908363ffffffff160217905550606082015181600001600c6101000a81548163ffffffff021916908363ffffffff1602179055506080820151816001015560a08201518160020160006101000a81548163ffffffff021916908363ffffffff16021790555060c08201518160020160046101000a81548160ff021916908360ff16021790555060e08201518160020160056101000a81548160ff0219169083151502179055506101008201518160020160066101000a81548160ff0219169083600381111561162d5760e060020a634e487b7102600052602160045260246000fd5b021790555050600d5463ffffffff8c81166000908152600960205260409020600c80547f08ddbf2387a120cff0436b65891479eb2aeee9f0da8d2a185b7d816230e1e73b9550938316936001909201929091908e169081106116a25760e060020a634e487b7102600052603260045260246000fd5b906000526020600020906007020160010160006040516116c59493929190613de6565b60405180910390a182600c8a63ffffffff16815481106116f85760e060020a634e487b7102600052603260045260246000fd5b906000526020600020906007020160040160008282546117189190613f06565b9091555050600d54600e805460019263ffffffff1690811061174d5760e060020a634e487b7102600052603260045260246000fd5b906000526020600020906003020160020160066101000a81548160ff021916908360038111156117905760e060020a634e487b7102600052602160045260246000fd5b0217905550600d5463ffffffff8b81166000908152600960205260409020600c80547f08ddbf2387a120cff0436b65891479eb2aeee9f0da8d2a185b7d816230e1e73b948416936001909301928e169081106117ff5760e060020a634e487b7102600052603260045260246000fd5b906000526020600020906007020160010160016040516118229493929190613de6565b60405180910390a1600d5461183e9063ffffffff166001613f1e565b600d805463ffffffff191663ffffffff929092169190911790555060019998505050505050505050565b33600090815260076020526040812054156118c85760405160e560020a62461bcd02815260206004820152601b60248201527f63616e6e6f742062652063616c6c656420627920646f6e6f72732e000000000060448201526064016108f7565b6040805160a08101825260085463ffffffff16815233602082015290810184905260608101839052608081016000905260085463ffffffff9081166000908152600960209081526040918290208451815486840151600160a060020a03166401000000000277ffffffffffffffffffffffffffffffffffffffff00000000199290961663ffffffff19909116171693909317835590830151805161197292600185019201906135ea565b506060820151805161198e9160028401916020909101906135ea565b50608082015160038201805460ff191660018360028111156119c35760e060020a634e487b7102600052602160045260246000fd5b021790555050336000818152600a60205260408082208331905560085490519293507ff5340f6d3528b15a37a1ce3c13714a92b5b56c823b6cad1f087b98d4fad1d76092611a1b9263ffffffff909216918891613d8f565b60405180910390a2600854611a379063ffffffff166001613f1e565b6008805463ffffffff191663ffffffff9290921691909117905550600192915050565b63ffffffff8216600090815260096020526040902060030154829060019060ff166002811115611a9d5760e060020a634e487b7102600052602160045260246000fd5b1415611b145760405160e560020a62461bcd02815260206004820152603360248201527f446973747269627574696f6e2063616e6e6f742070726f63656564202d20446960448201527f737472696275746f7220756e747275737465640000000000000000000000000060648201526084016108f7565b60008263ffffffff166002811115611b3f5760e060020a634e487b7102600052602160045260246000fd5b63ffffffff851660009081526009602052604090206003018054919250829160ff19166001836002811115611b875760e060020a634e487b7102600052602160045260246000fd5b021790555063ffffffff808516600090815260096020526040902033917ff5340f6d3528b15a37a1ce3c13714a92b5b56c823b6cad1f087b98d4fad1d76091879160019091019087166002811115611bf25760e060020a634e487b7102600052602160045260246000fd5b604051611c0193929190613dc7565b60405180910390a250505050565b63ffffffff818116600090815260066020526040812054600e80549293640100000000909204600160a060020a03169284928716908110611c635760e060020a634e487b7102600052603260045260246000fd5b906000526020600020906003020160010154905060008111611c9a5760405160e560020a62461bcd0281526004016108f790613c06565b81600160a060020a0316318110611cf65760405160e560020a62461bcd02815260206004820152601860248201527f496e73756666696369656e7420446f6e6f722046756e6473000000000000000060448201526064016108f7565b80600c8563ffffffff1681548110611d215760e060020a634e487b7102600052603260045260246000fd5b90600052602060002090600702016003016000828254611d419190613f06565b9250508190555080600c8563ffffffff1681548110611d735760e060020a634e487b7102600052603260045260246000fd5b90600052602060002090600702016004016000828254611d939190613f91565b925050819055506002600e8663ffffffff1681548110611dc65760e060020a634e487b7102600052603260045260246000fd5b906000526020600020906003020160020160066101000a81548160ff02191690836003811115611e095760e060020a634e487b7102600052602160045260246000fd5b021790555060408051308152602081018390527f9af3756fbf7c0ba9124782e798fb11e538f6a96778bc63d954ce83ebd8c0ccd1910160405180910390a16000611e53308361085f565b905080611ecb5760405160e560020a62461bcd02815260206004820152603360248201527f4661696c656420746f20617070726f76652066756e6473207472616e7366657260448201527f20746f20746865206469737472696275746f720000000000000000000000000060648201526084016108f7565b95945050505050565b600554600160a060020a03610100909104163314611f075760405160e560020a62461bcd0281526004016108f790613c63565b611057600061349d565b63ffffffff818116600090815260066020526040812054600e80549293640100000000909204600160a060020a03169284928716908110611f655760e060020a634e487b7102600052603260045260246000fd5b906000526020600020906003020160010154905060008111611f9c5760405160e560020a62461bcd0281526004016108f790613c06565b33600160a060020a03831614611ff75760405160e560020a62461bcd02815260206004820152601860248201527f53656e646572206973206e6f742074686520446f6e6f7220000000000000000060448201526064016108f7565b3331811061204a5760405160e560020a62461bcd02815260206004820152601260248201527f496e73756666696369656e742046756e6473000000000000000000000000000060448201526064016108f7565b80600c8563ffffffff16815481106120755760e060020a634e487b7102600052603260045260246000fd5b906000526020600020906007020160030160008282546120959190613f06565b9250508190555080600c8563ffffffff16815481106120c75760e060020a634e487b7102600052603260045260246000fd5b906000526020600020906007020160040160008282546120e79190613f91565b925050819055506002600e8663ffffffff168154811061211a5760e060020a634e487b7102600052603260045260246000fd5b906000526020600020906003020160020160066101000a81548160ff0219169083600381111561215d5760e060020a634e487b7102600052602160045260246000fd5b021790555063ffffffff84166000908152600660209081526040808320546401000000009004600160a060020a031683526007909152812080548392906121a5908490613f91565b909155505060408051338152602081018390527f9af3756fbf7c0ba9124782e798fb11e538f6a96778bc63d954ce83ebd8c0ccd1910160405180910390a17f08ddbf2387a120cff0436b65891479eb2aeee9f0da8d2a185b7d816230e1e73b8560096000600e8963ffffffff16815481106122335760e060020a634e487b7102600052603260045260246000fd5b906000526020600020906003020160000160049054906101000a900463ffffffff1663ffffffff1663ffffffff168152602001908152602001600020600101600c600e8963ffffffff168154811061229e5760e060020a634e487b7102600052603260045260246000fd5b906000526020600020906003020160000160089054906101000a900463ffffffff1663ffffffff16815481106122e75760e060020a634e487b7102600052603260045260246000fd5b9060005260206000209060070201600101600260405161230a9493929190613de6565b60405180910390a17f6d4ebf9c7976833e896382bcf9e4f20c664a8fca4dd04e317196abcf1469de49600e8663ffffffff168154811061235d5760e060020a634e487b7102600052603260045260246000fd5b906000526020600020906003020160000160089054906101000a900463ffffffff16600c600e8863ffffffff16815481106123ab5760e060020a634e487b7102600052603260045260246000fd5b906000526020600020906003020160000160089054906101000a900463ffffffff1663ffffffff16815481106123f45760e060020a634e487b7102600052603260045260246000fd5b9060005260206000209060070201600101600260405161241693929190613dc7565b60405180910390a1506001949350505050565b600554600160a060020a0361010090910416331461245c5760405160e560020a62461bcd0281526004016108f790613c63565b611057613504565b6009602052600090815260409020805460018201805463ffffffff831693640100000000909304600160a060020a03169291906124a090613fa8565b80601f01602080910402602001604051908101604052809291908181526020018280546124cc90613fa8565b80156125195780601f106124ee57610100808354040283529160200191612519565b820191906000526020600020905b8154815290600101906020018083116124fc57829003601f168201915b50505050509080600201805461252e90613fa8565b80601f016020809104026020016040519081016040528092919081815260200182805461255a90613fa8565b80156125a75780601f1061257c576101008083540402835291602001916125a7565b820191906000526020600020905b81548152906001019060200180831161258a57829003601f168201915b5050506003909301549192505060ff1685565b33600052600a602052333181111561263d5760405160e560020a62461bcd02815260206004820152602260248201527f5769746864726177616c207265717565737420657863656564732062616c616e60448201527f636500000000000000000000000000000000000000000000000000000000000060648201526084016108f7565b337fca62fbd351618e763b8450544cf72f21d3e010b71571021a350a18a6672665078261266b818431613f91565b6040805192835260208301919091520160405180910390a2604051600090339083908381818185875af1925050503d80600081146126c5576040519150601f19603f3d011682016040523d82523d6000602084013e6126ca565b606091505b50509050806126ee5760405160e560020a62461bcd0281526004016108f790613c98565b5050565b6060600480546107dc90613fa8565b336000908152600160209081526040808320600160a060020a03861684529091528120548281101561279e5760405160e560020a62461bcd02815260206004820152602560248201527f45524332303a2064656372656173656420616c6c6f77616e63652062656c6f7760448201527f207a65726f00000000000000000000000000000000000000000000000000000060648201526084016108f7565b6127ab3385858403613075565b5060019392505050565b600061086c3384846131d3565b33600090815260076020526127d56136bb565b600b5463ffffffff90811682528581166020808401918252604084018981526000606086018190526080860181905260a0860181905260c0860189905260ff881660e0870152600c80546001810182559152855160079091027fdf6966c971051c3d54ec59162606531493a51404a002842f56009d7e5cf4a8c781018054955187166401000000000267ffffffff00000000199390971663ffffffff19909616959095179190911694909417835551805185946128b8937fdf6966c971051c3d54ec59162606531493a51404a002842f56009d7e5cf4a8c89091019201906135ea565b5060608201516002828101919091556080830151600383015560a0830151600483015560c0830151600583015560e083015160068301805460ff191660ff90921691909117808255610100808601519361ff00199092169184908111156129325760e060020a634e487b7102600052602160045260246000fd5b021790555061012082015160068201805462ff00001916620100008360028111156129705760e060020a634e487b7102600052602160045260246000fd5b021790555050600b546040517f6d4ebf9c7976833e896382bcf9e4f20c664a8fca4dd04e317196abcf1469de4992506129b49163ffffffff16908990600090613d8f565b60405180910390a1600b546129d09063ffffffff166001613f1e565b600b805463ffffffff191663ffffffff9290921691909117905550600195945050505050565b336000908152600760205280808060008060008060005b600c5463ffffffff82161015612b8c578963ffffffff16600c8263ffffffff1681548110612a4e5760e060020a634e487b7102600052603260045260246000fd5b6000918252602090912060079091020154640100000000900463ffffffff161415612b7a57600c8163ffffffff1681548110612a9d5760e060020a634e487b7102600052603260045260246000fd5b90600052602060002090600702016002015485612aba9190613f06565b9450600c8163ffffffff1681548110612ae65760e060020a634e487b7102600052603260045260246000fd5b90600052602060002090600702016003015484612b039190613f06565b9350600c8163ffffffff1681548110612b2f5760e060020a634e487b7102600052603260045260246000fd5b90600052602060002090600702016004015483612b4c9190613f06565b63ffffffff82166000908152600660205260409020549093506401000000009004600160a060020a03163191505b80612b8481613fe6565b915050612a0d565b5092989197509550909350915050565b63ffffffff82166000908152600660205260409020600101548390612bc2903331613f91565b1015612c395760405160e560020a62461bcd02815260206004820152602f60248201527f446f6e6174696f6e20616d6f756e74206578636565647320646f6e6f7220617660448201527f61696c61626c652062616c616e6365000000000000000000000000000000000060648201526084016108f7565b8063ffffffff16600c8363ffffffff1681548110612c6a5760e060020a634e487b7102600052603260045260246000fd5b6000918252602090912060079091020154640100000000900463ffffffff1614612cff5760405160e560020a62461bcd02815260206004820152602660248201527f446f6e6174696f6e20646f6573206e6f742062656c6f6e6720746f207468697360448201527f20646f6e6f72000000000000000000000000000000000000000000000000000060648201526084016108f7565b6000600c8363ffffffff1681548110612d2b5760e060020a634e487b7102600052603260045260246000fd5b6000918252602080832060079092029091015463ffffffff64010000000090910416808352600690915260408220600101805491935086929091612d70908490613f06565b9250508190555083600c8463ffffffff1681548110612da25760e060020a634e487b7102600052603260045260246000fd5b90600052602060002090600702016002016000828254612dc29190613f06565b925050819055506001600c8463ffffffff1681548110612df55760e060020a634e487b7102600052603260045260246000fd5b60009182526020909120600660079092020101805461ff001916610100836002811115612e355760e060020a634e487b7102600052602160045260246000fd5b02179055507f6d4ebf9c7976833e896382bcf9e4f20c664a8fca4dd04e317196abcf1469de4983600c8563ffffffff1681548110612e865760e060020a634e487b7102600052603260045260246000fd5b90600052602060002090600702016001016001604051612ea893929190613dc7565b60405180910390a150505050565b600554600160a060020a03610100909104163314612ee95760405160e560020a62461bcd0281526004016108f790613c63565b600160a060020a038116612f685760405160e560020a62461bcd02815260206004820152602660248201527f4f776e61626c653a206e6577206f776e657220697320746865207a65726f206160448201527f646472657373000000000000000000000000000000000000000000000000000060648201526084016108f7565b612f718161349d565b50565b600c8181548110612f8457600080fd5b60009182526020909120600790910201805460018201805463ffffffff80841695506401000000009093049092169291612fbd90613fa8565b80601f0160208091040260200160405190810160405280929190818152602001828054612fe990613fa8565b80156130365780601f1061300b57610100808354040283529160200191613036565b820191906000526020600020905b81548152906001019060200180831161301957829003601f168201915b505050600284015460038501546004860154600587015460069097015495969295919450925060ff80821691610100810482169162010000909104168a565b600160a060020a0383166130f35760405160e560020a62461bcd028152602060048201526024808201527f45524332303a20617070726f76652066726f6d20746865207a65726f2061646460448201527f726573730000000000000000000000000000000000000000000000000000000060648201526084016108f7565b600160a060020a0382166131725760405160e560020a62461bcd02815260206004820152602260248201527f45524332303a20617070726f766520746f20746865207a65726f20616464726560448201527f737300000000000000000000000000000000000000000000000000000000000060648201526084016108f7565b600160a060020a0383811660008181526001602090815260408083209487168084529482529182902085905590518481527f8c5be1e5ebec7d5bd14f71427d1e84f3dd0314c0f7b2291e5b200ac8c7c3b925910160405180910390a3505050565b600160a060020a0383166132525760405160e560020a62461bcd02815260206004820152602560248201527f45524332303a207472616e736665722066726f6d20746865207a65726f20616460448201527f647265737300000000000000000000000000000000000000000000000000000060648201526084016108f7565b600160a060020a0382166132d15760405160e560020a62461bcd02815260206004820152602360248201527f45524332303a207472616e7366657220746f20746865207a65726f206164647260448201527f657373000000000000000000000000000000000000000000000000000000000060648201526084016108f7565b6132dc83838361358f565b600160a060020a0383166000908152602081905260409020548181101561336e5760405160e560020a62461bcd02815260206004820152602660248201527f45524332303a207472616e7366657220616d6f756e742065786365656473206260448201527f616c616e6365000000000000000000000000000000000000000000000000000060648201526084016108f7565b600160a060020a038085166000908152602081905260408082208585039055918516815290812080548492906133a5908490613f06565b9250508190555082600160a060020a031684600160a060020a03167fddf252ad1be2c89b69c2b068fc378daa952ba7f163c4a11628f55a4df523b3ef846040516133f191815260200190565b60405180910390a3610d8e565b60055460ff166134535760405160e560020a62461bcd02815260206004820152601460248201527f5061757361626c653a206e6f742070617573656400000000000000000000000060448201526064016108f7565b6005805460ff191690557f5db9ee0a495bf2e6ff9c91a7834c1ba4fdd244a5e8aa4e537bd38aeae4b073aa335b604051600160a060020a03909116815260200160405180910390a1565b60058054600160a060020a0383811661010081810274ffffffffffffffffffffffffffffffffffffffff001985161790945560405193909204169182907f8be0079c531659141344cd1fd0a4f28419497f9722a3daafe3b4186f6b6457e090600090a35050565b60055460ff161561355a5760405160e560020a62461bcd02815260206004820152601060248201527f5061757361626c653a207061757365640000000000000000000000000000000060448201526064016108f7565b6005805460ff191660011790557f62e78cea01bee320cd4e420270b5ea74000d11b0c9f74754ebdbfc544b05a2586134803390565b60055460ff16156135e55760405160e560020a62461bcd02815260206004820152601060248201527f5061757361626c653a207061757365640000000000000000000000000000000060448201526064016108f7565b505050565b8280546135f690613fa8565b90600052602060002090601f016020900481019282613618576000855561365e565b82601f1061363157805160ff191683800117855561365e565b8280016001018555821561365e579182015b8281111561365e578251825591602001919060010190613643565b5061366a92915061373e565b5090565b6040805161012081018252600080825260208201819052918101829052606081018290526080810182905260a0810182905260c0810182905260e08101829052906101008201905b905290565b604051806101400160405280600063ffffffff168152602001600063ffffffff1681526020016060815260200160008152602001600081526020016000815260200160008152602001600060ff168152602001600060028111156137325760e060020a634e487b7102600052602160045260246000fd5b815260200160006136b6565b5b8082111561366a576000815560010161373f565b8035600160a060020a0381168114610aea57600080fd5b600082601f83011261377a578081fd5b813567ffffffffffffffff808211156137955761379561403c565b604051601f8301601f19908116603f011681019082821181831017156137bd576137bd61403c565b816040528381528660208588010111156137d5578485fd5b8360208701602083013792830160200193909352509392505050565b803563ffffffff81168114610aea57600080fd5b803560ff81168114610aea57600080fd5b600060208284031215613827578081fd5b61383082613753565b9392505050565b60008060408385031215613849578081fd5b61385283613753565b915061386060208401613753565b90509250929050565b60008060006060848603121561387d578081fd5b61388684613753565b925061389460208501613753565b9150604084013590509250925092565b600080604083850312156138b6578182fd5b6138bf83613753565b946020939093013593505050565b6000602082840312156138de578081fd5b813567ffffffffffffffff8111156138f4578182fd5b6139008482850161376a565b949350505050565b6000806040838503121561391a578182fd5b823567ffffffffffffffff80821115613931578384fd5b61393d8683870161376a565b93506020850135915080821115613952578283fd5b5061395f8582860161376a565b9150509250929050565b6000806000806080858703121561397e578081fd5b843567ffffffffffffffff811115613994578182fd5b6139a08782880161376a565b9450506139af602086016137f1565b9250604085013591506139c460608601613805565b905092959194509250565b6000602082840312156139e0578081fd5b5035919050565b600080604083850312156139f9578182fd5b82359150613860602084016137f1565b600080600060608486031215613a1d578283fd5b83359250613a2d602085016137f1565b9150613a3b604085016137f1565b90509250925092565b600060208284031215613a55578081fd5b613830826137f1565b60008060408385031215613a70578182fd5b613a79836137f1565b9150613860602084016137f1565b600080600080600060a08688031215613a9e578081fd5b613aa7866137f1565b9450613ab5602087016137f1565b9350613ac3604087016137f1565b9250613ad160608701613805565b915060808601358015158114613ae5578182fd5b809150509295509295909350565b60048110613b0357613b03614023565b9052565b60008151808452815b81811015613b2c57602081850181015186830182015201613b10565b81811115613b3d5782602083870101525b50601f01601f19169290920160200192915050565b805460009060028104600180831680613b6c57607f831692505b6020808410821415613b8f5760e060020a634e487b710286526022600452602486fd5b83885260208801828015613baa5760018114613bbb57613be6565b60ff19871682528282019750613be6565b60008981526020902060005b87811015613be057815484820152908601908401613bc7565b83019850505b5050505050505092915050565b6000602082526138306020830184613b07565b60208082526026908201527f446973747269627574696f6e20616d6f756e742063616e6e6f74206265206e6560408201527f6761746976650000000000000000000000000000000000000000000000000000606082015260800190565b6020808252818101527f4f776e61626c653a2063616c6c6572206973206e6f7420746865206f776e6572604082015260600190565b60208082526025908201527f4661696c656420746f2077697468647261772066756e647320746f207468652060408201527f646f6e6f72000000000000000000000000000000000000000000000000000000606082015260800190565b600063ffffffff87168252600160a060020a038616602083015260a06040830152613d2360a0830186613b07565b8281036060840152613d358186613b07565b915050613d4183614055565b8260808301529695505050505050565b600063ffffffff86168252600160a060020a038516602083015283604083015260806060830152613d856080830184613b07565b9695505050505050565b600063ffffffff8516825260606020830152613dae6060830185613b07565b9050613db983614055565b826040830152949350505050565b600063ffffffff8516825260606020830152613dae6060830185613b52565b600063ffffffff8616825260806020830152613e056080830186613b52565b8281036040840152613e178186613b52565b915050611ecb6060830184613af3565b600061014063ffffffff808e168452808d16602085015250806040840152613e518184018c613b07565b9150508860608301528760808301528660a08301528560c083015260ff851660e0830152613e7e84614055565b83610100830152613e8e83614055565b826101208301529b9a5050505050505050505050565b63ffffffff8a8116825289811660208301528881166040830152878116606083015260808201879052851660a082015260ff841660c082015282151560e08201526101208101613ef8610100830184613af3565b9a9950505050505050505050565b60008219821115613f1957613f1961400a565b500190565b600063ffffffff808316818516808303821115613f3d57613f3d61400a565b01949350505050565b6000816000190483118215151615613f6057613f6061400a565b500290565b600063ffffffff80831681851681830481118215151615613f8857613f8861400a565b02949350505050565b600082821015613fa357613fa361400a565b500390565b600281046001821680613fbc57607f821691505b60208210811415613fe05760e060020a634e487b7102600052602260045260246000fd5b50919050565b600063ffffffff808316818114156140005761400061400a565b6001019392505050565b60e060020a634e487b7102600052601160045260246000fd5b60e060020a634e487b7102600052602160045260246000fd5b60e060020a634e487b7102600052604160045260246000fd5b60038110612f7157612f7161402356fea2646970667358221220c3fe128e874fd121ff6e09bfd0602773c644582d9fac542dff12766d6c8bc9c464736f6c63430008020033",
  "immutableReferences": {},
  "source": "// SPDX-License-Identifier: MIT\npragma solidity ^0.8.2;\n\n/// @title A contract for managing donations and distribution of donated funds\n/// @author Sean Evans Nov 2021\n/// @notice This contract is meant for the Consensys academoy final project\n\nimport \"@openzeppelin/contracts/token/ERC20/ERC20.sol\";\nimport \"@openzeppelin/contracts/access/Ownable.sol\";\nimport \"@openzeppelin/contracts/security/Pausable.sol\";\n\n//contract DonationManager is Initializable, ERC20Upgradeable, PausableUpgradeable, OwnableUpgradeable, ERC20PermitUpgradeable {\ncontract DonationManager is ERC20, Pausable, Ownable {\n\n    enum DonationState      { DonationCreated, Funded, Distributing }\n    enum DonationPurpose    { FoodTokens, Hospital, Disaster }\n    enum DistributorStatus  { New, unTrusted, Trusted }\n    enum DistributionState  { DistributionCreated, FundsRequested, FundsApproved , FundsNOTApproved }\n\n    /// @dev Donor Details\n    /// @notice  AmountDonated is the amount of balance ring fenced to all donations\n    struct Donor {\n       uint32       donorID;\n       address      donorAddress;\n       uint256      amountDonated;\n       string       donorName;\n    }\n\n    /// @dev Organisation responsible for distributing funds to recipients\n    struct  Distributor {\n       uint32       distributorID;\n       address      distributorAddress;\n       string       distributorName;\n       string       distributorCountry;\n       DistributorStatus  distributorStatus;\n    }\n\n    /// @dev Currently one donor per donation but one donor can do many donations\n    /// @notice donationAmount = Funds availalbe to be claimed (must be <= donor's balance)\n    /// @notice donationGrantedAmount = Funds approved to distributions - possibly sent to distributor\n    /// @notice requestedNotGrantedAmount = Funds requested by distributors but not granted (approved) yet - potential claims\n    /// @dev A donation can have multiple distributions\n    struct  Donation {\n       uint32       donationID;\n       uint32       donorID;\n       string       donationName;\n       uint256      donationAmount;\n       uint256      donationGrantedAmount;\n       uint256      requestedNotGrantedAmount;\n       uint256      USDperRecipientPerMonth;\n       uint8        adminFeePercent;\n       DonationState    donationState;\n       DonationPurpose  donationPurpose;\n    }\n    //uint32[]         distributionIDs;\n\n    /// @dev distributionAmount = USD per person * recipientCountr * distributionMonths\n    /// @notice Number of recipients with trusted details; New distributors max 1000 recipients or USD 50k\n    /// @notice Number of months to run the distribution; for example New distributors can only run 1 month\n    /// @dev recipientDetailsAreValid is not properly implemented yet: possibly check against IPFS link to unmodifiable list of trusted recipients\n    struct  Distribution {\n       uint32       distributionID;\n       uint32       distributorID;\n       uint32       donationID;\n       uint32       donorID;\n       uint256      distributionAmount;\n       uint32       recipientCount;\n       uint8        distributionMonths;\n       bool         recipientDetailsAreValid;\n       DistributionState  distributionState;\n    }\n\n    /// @dev Donors\n    uint32 public donorCount;\n    mapping (uint32 => Donor )   public allDonors;\n    mapping (address => uint256) public donorBalances;\n    event LogDonorAdded(address indexed donorAddress, uint32 donorID, uint256 balance);\n    event LogDonorDeposit(address indexed donorAddress, uint256 donationAmount);\n    event LogDonorWithdrawal(address indexed donorAddress, uint256 withdrawAmount, uint256 remainingBalance);\n    event LogSender(address senderAddr, uint256 senderBal);\n\n    /// @dev Distributors\n    uint32 public distributorCount;\n    mapping (uint32 => Distributor ) public allDistributors;\n    mapping (address => uint256)     internal distributorBalances;\n    event LogDistributorStatus(address indexed distributorAddress, uint32 distributorID,  string distributorName, DistributorStatus distributorStatus);\n    event LogDistributorWithdrawal(address indexed donorAddress, uint256 withdrawAmount, uint256 remainingBalance);\n\n    /// @dev Donations\n    uint32 public donationCount;\n    /// @dev Using arrays rather than mappings where I need to iterate over the contents\n    Donation[] public donations;\n    event LogDonationState(uint32 donationID, string donationName, DonationState);\n\n    /// @dev Disrtibutions\n    uint32 public distributionCount;\n    Distribution[] public distributions;\n    event LogDistributionState(uint32 distributionID, string distributorName, string donationName, DistributionState);\n    event LogDistributionRequest(uint32 distributionID, string distributorName, uint256 donationAmount);\n\n    modifier isDonor() {\n        require(donorBalances[msg.sender] >= 0, \"This function is restricted to donors.\" );\n        _;\n    }\n\n    /// @dev A distributor cannot become a donor\n    /// @dev A donor can only be added once\n    modifier onlyDonor() {\n        require(distributorBalances[msg.sender] == 0 , \"cannot be called by distributors.\" );\n        require(donorBalances[msg.sender] == 0 , \"cannot create another donor for this account.\" );\n        _;\n    }\n\n    /// @dev A donor cannot become a distributor\n    modifier onlyDistributor() {\n        require(donorBalances[msg.sender] == 0 , \"cannot be called by donors.\" );\n        _;\n    }\n\n    modifier isDistributor() {\n        require(distributorBalances[msg.sender] >= 0, \"This function is restricted to distributors.\" );\n        _;\n    }\n\n    /// @dev We can proceed with distributing funds after these checks\n    /// @dev If the distributorStatus is new they cannot request funding for more than 1000 recipients\n    /// @dev The donation must have sufficient funds for the distribution\n    /// @dev The distribution list must be valid (outside the scope of this project)\n    modifier distributionCanProceed(uint32 _distributionID, uint32 _donorID) {\n        require(distributions[_distributionID].distributionAmount >= 0 , \"Distribution cannot proceed - Distribution amount is <= 0\");\n        require(distributions[_distributionID].recipientDetailsAreValid , \"Distribution cannot proceed - Distribution list is invlid\");\n        require(distributions[_distributionID].donorID == _donorID , \"Distribution cannot proceed - Distribution is not for this donor\");\n        require(distributions[_distributionID].distributionState == DistributionState.FundsRequested, \"Distribution cannot proceed status is not funds requested\");\n        require(allDistributors[distributions[_distributionID].distributorID].distributorStatus != DistributorStatus.unTrusted, \"Distribution cannot proceed - Distributor untrusted\");\n        require(donations[distributions[_distributionID].donationID].requestedNotGrantedAmount >= distributions[_distributionID].distributionAmount , \"Distribution cannot proceed\");\n        //require(donorBalances[msg.sender] >= distributions[_distributionID].distributionAmount , \"Distribution cannot proceed - insufficient funds\");\n        _;\n    }\n\n    modifier distributorStatusCanChange(uint32 _distributorID) {\n        require(allDistributors[_distributorID].distributorStatus != DistributorStatus.unTrusted, \"Distribution cannot proceed - Distributor untrusted\");\n        _;\n    }\n\n    modifier distributionsAreUpToDate(uint32 _donorID) {\n        for (uint32 i = 0; i < distributions.length; i++) {\n            require((distributions[i].donorID == _donorID && distributions[i].distributionState  == DistributionState.FundsRequested), \"First Approve or deny open distributions.\");\n        }\n        _;\n    }\n\n    modifier donationIsFunded(uint32 _donationID) {\n        require((donations[_donationID].donationState == DonationState.Funded || donations[_donationID].donationState == DonationState.Distributing),\n        \"Distribution cannot proceed until donation is funded.\");\n        _;\n    }\n\n    constructor() ERC20(\"\", \"\") {\n        donorCount = 0;\n        distributorCount = 0;\n        donationCount = 0;\n        distributionCount = 0;\n    }\n\n    /// @dev Create a new donor - It connot come from the same address as an exiting distributor\n    /// @dev amount donated is just a running balance, not an actual account balance\n    function createDonor(string memory _donorName) public onlyDonor returns( bool ) {\n        allDonors[donorCount] = Donor( {\n            donorID         : donorCount,\n            donorAddress    : payable(msg.sender),\n            amountDonated   : 0,\n            donorName       : _donorName\n        });\n        //donorBalances[msg.sender] = 0;\n        // Set donor balance to amount in donor's account\n        donorBalances[msg.sender] = msg.sender.balance;\n        emit LogDonorAdded(msg.sender, donorCount, msg.sender.balance);\n        donorCount = donorCount + 1;\n        return true;\n    }\n\n    /// @dev Create a new distributor - It connot come from the same address as an exiting donor\n    function createDistributor(string memory _distributorName, string memory _distributorCountry)\n        public onlyDistributor returns ( bool ) {\n        allDistributors[distributorCount] = Distributor( {\n            distributorID       : distributorCount,\n            distributorAddress  : payable(msg.sender),\n            distributorName     : _distributorName,\n            distributorCountry  : _distributorCountry,\n            distributorStatus   : DistributorStatus.New\n        });\n        /// @notice  Set the distributor's balance to\n        distributorBalances[msg.sender] = msg.sender.balance;\n        emit LogDistributorStatus(msg.sender, distributorCount, _distributorName, DistributorStatus.New);\n        distributorCount = distributorCount + 1;\n        return true;\n    }\n\n    /// @dev Create a new Donation. It can only be created by donors\n    function createDonation(string memory _donationName, uint32  _donorID,\n        uint256  _USDperRecipientPerMonth, uint8  _adminFeePercent)\n        public isDonor returns ( bool ) {\n\n        Donation memory currentDonation;\n\n        currentDonation.donationID                  = donationCount;\n        currentDonation.donorID                     = _donorID;\n        currentDonation.donationName                = _donationName;\n        currentDonation.donationAmount              = 0;\n        currentDonation.donationGrantedAmount       = 0;\n        currentDonation.requestedNotGrantedAmount   = 0;\n        currentDonation.USDperRecipientPerMonth     = _USDperRecipientPerMonth;\n        currentDonation.adminFeePercent             = _adminFeePercent;\n        donations.push(currentDonation);\n\n/*\n        d.donationPurpose         = DonationPurpose.FoodTokens;\n        d.donationPurpose         = DonationPurpose.FoodTokens(_donationPurpose);\n*/\n        emit LogDonationState(donationCount, _donationName, DonationState.DonationCreated);\n        /// @notice Add this donation to the donor\n        donationCount = donationCount + 1;\n        return true;\n    }\n\n    // function donorDeposit(uint256 _depositAmount) public isDonor payable {\n    //     donorBalances[msg.sender] += _depositAmount;\n    //     require(msg.value > _depositAmount, \"Insufficient funds\");\n    //     (bool sent,) = msg.sender.call{value: _depositAmount}(\"\");\n    //     require(sent, \"Failed to deposit funds to the donor\");\n    //     emit LogDonorDeposit(msg.sender, _depositAmount);\n    // }\n\n    /// @dev Allow the donor to ring fence funds for a donation. No actual transfer of funds.\n    function makeDonation(uint256 _donationAmount, uint32 _donationID, uint32 _donorID) public isDonor  {\n      require((msg.sender.balance - allDonors[_donationID].amountDonated) >= _donationAmount, \"Donation amount exceeds donor available balance\");\n      require(donations[_donationID].donorID  == _donorID, \"Donation does not belong to this donor\");\n      uint32 donorID = donations[_donationID].donorID;\n      allDonors[donorID].amountDonated += _donationAmount;\n      donations[_donationID].donationAmount += _donationAmount;\n      donations[_donationID].donationState = DonationState.Funded;\n      emit LogDonationState(_donationID, donations[_donationID].donationName, DonationState.Funded);\n    }\n\n    /// @dev Allow the donor to change the status of the distributor to either trusted or untrusted.\n    /// @dev Once set to untrusted it cannot be altered.\n    function changeDistributorStatus(uint32 _distributorID, uint32 _distributorStatus)\n            public isDonor distributorStatusCanChange(_distributorID) {\n      DistributorStatus newDistributorStatus = DistributorStatus(_distributorStatus);\n      allDistributors[_distributorID].distributorStatus = newDistributorStatus;\n      emit LogDistributorStatus(msg.sender, _distributorID,\n                                allDistributors[_distributorID].distributorName,\n                                DistributorStatus(_distributorStatus));\n    }\n\n    /// @dev Get the balances of a specific donation : Used by the distributor to check what funds are available\n    /// @return donatedAmount\n    /// @return grantedAmount Distributed Amount - funds actually sent to distributor\n    /// @return requestedNotGranted Requested amount but not approved\n    function getDonationBalance(uint32 _donationID)\n      public view returns (uint256 donatedAmount, uint256 grantedAmount, uint256 requestedNotGranted) {\n      return (donations[_donationID].donationAmount, donations[_donationID].donationGrantedAmount, donations[_donationID].requestedNotGrantedAmount);\n    }\n\n    /// @dev Get the balances of the donor ; i.e. all summarise all donations made by this donor\n    /// @return donatedAmount  Total Donated Amount\n    /// @return grantedAmount Distributed Amount - funds actually sent to distributor\n    /// @return requestedNotGranted Requested amount but not approved\n    /// @return fundsAvailableToWithdraw Funds available to withdraw\n    function getAllDonorBalances(uint32 _donorID)  public isDonor view\n        returns (uint256 donatedAmount, uint256 grantedAmount, uint256 requestedNotGranted,\n        uint256 fundsAvailableToWithdraw) {\n      uint256  _donatedAmount = 0;\n      uint256  _grantedAmount = 0;\n      uint256  _requestedNotGranted = 0;\n      uint256  _fundsAvailableToWithdraw = 0;\n      //uint256  _fundsAvailableToWithdraw = msg.sender.balance;   // For some reason giving very high balances???\n      //uint256  _fundsAvailableToWithdraw = address(this).balance;\n\n      for (uint32 i = 0; i < donations.length; i++) {\n            if (donations[i].donorID == _donorID) {\n                _donatedAmount += donations[i].donationAmount;\n                _grantedAmount += donations[i].donationGrantedAmount;\n                _requestedNotGranted += donations[i].requestedNotGrantedAmount;\n                _fundsAvailableToWithdraw =  allDonors[i].donorAddress.balance;\n            }\n      }\n      return (_donatedAmount,_grantedAmount,_requestedNotGranted,_fundsAvailableToWithdraw );\n    }\n\n    /// @dev Get the balances of the ddistributor across all distributions\n    // function getDistributorBalance() public isDistributor view returns (uint256 availbleToWithdraw) {\n    //   return (distributorBalances[msg.sender]);\n    // }\n\n    /// @dev Create a new distribution - It cannot come from an exiting donor\n    /// @notice Requires that The donor list is verified - verification of lists to happen outside on IPFS - not implemented\n    function createDistribution(uint32 _distributorID, uint32 _donationID, uint32 _recipientCount, uint8 _distributionMonths,\n                                bool _recipientDetailsAreValid)\n                                public isDistributor donationIsFunded(_donationID) returns( bool ) {\n\n        uint256  distributionClaim = _recipientCount * _distributionMonths * donations[_donationID].USDperRecipientPerMonth;\n        uint256  availableToClaim  = donations[_donationID].donationAmount -\n                                (donations[_donationID].donationGrantedAmount + donations[_donationID].requestedNotGrantedAmount);\n        require( availableToClaim >= distributionClaim, \"This donation has insufficient funds to distribute.\" );\n\n        Distribution memory currentDistribution;\n            currentDistribution.distributionID          = distributionCount;\n            currentDistribution.distributorID           = _distributorID;\n            currentDistribution.donationID              = _donationID;\n            currentDistribution.donorID                 = donations[_donationID].donorID;\n            currentDistribution.distributionAmount      = distributionClaim;\n            currentDistribution.recipientCount          = _recipientCount;\n            currentDistribution.distributionMonths      = _distributionMonths;\n            currentDistribution.recipientDetailsAreValid  = _recipientDetailsAreValid;\n            //currentDistribution.distributionState       = DistributionState.DistributionCreated;\n            distributions.push(currentDistribution);\n\n        emit LogDistributionState(distributionCount, allDistributors[_distributorID].distributorName,\n                                  donations[_donationID].donationName, DistributionState.DistributionCreated);\n\n        /// @notice Now make a claim against the Donation\n        donations[_donationID].requestedNotGrantedAmount += distributionClaim;\n        distributions[distributionCount].distributionState = DistributionState.FundsRequested;\n        emit LogDistributionState(distributionCount, allDistributors[_distributorID].distributorName,\n                                  donations[_donationID].donationName, DistributionState.FundsRequested);\n        distributionCount = distributionCount + 1;\n        return true;\n    }\n\n    /// @dev send funds to a Distributor if the conditions are met\n    /// @notice if successful Update the amount granted on the donation and reduce the amount requested\n    function approveFunds(uint32 _distributionID, uint32 _donorID) public returns ( bool ){\n\n      address donorAddr = (allDonors[_donorID].donorAddress);\n      uint256 distrAmt  = distributions[_distributionID].distributionAmount;\n      require((distrAmt > 0 ), \"Distribution amount cannot be negative\");\n      require((distrAmt < donorAddr.balance ), \"Insufficient Donor Funds\");\n\n      donations[_donorID].donationGrantedAmount += distrAmt;\n      donations[_donorID].requestedNotGrantedAmount -= distrAmt;\n      distributions[_distributionID].distributionState = DistributionState.FundsApproved;\n      //(bool approved ) = approve( owner() ,distrAmt);\n      emit LogSender( address(this) ,  distrAmt );\n      (bool approved ) = approve( address(this) ,distrAmt);\n      require(approved, \"Failed to approve funds transfer to the distributor\");\n      return approved;\n    }\n\n    function giveFunds(uint32 _distributionID, uint32 _donorID ) \n                public isDonor returns( bool ){\n    // function giveFunds(uint32 _distributionID, uint32 _donorID, address payable recipient )\n    //             public payable isDonor distributionCanProceed(_distributionID, _donorID) returns( bool ){\n\n      //address distAddr  = (allDistributors[distributions[_distributionID].distributorID].distributorAddress);\n      address donorAddr = (allDonors[_donorID].donorAddress);\n      uint256 distrAmt  = distributions[_distributionID].distributionAmount;\n      require((distrAmt > 0 ), \"Distribution amount cannot be negative\");\n      require((msg.sender == donorAddr ), \"Sender is not the Donor \");\n      require((distrAmt < msg.sender.balance ), \"Insufficient Funds\");\n\n      donations[_donorID].donationGrantedAmount += distrAmt;\n      donations[_donorID].requestedNotGrantedAmount -= distrAmt;\n      distributions[_distributionID].distributionState = DistributionState.FundsApproved;\n      donorBalances[allDonors[_donorID].donorAddress] -=  distrAmt;\n\n      emit LogSender( msg.sender ,  distrAmt );\n      //(bool sent ) = transferFrom( donorAddr, recipient, distrAmt);\n      //(bool sent ,) = recipient.call{value: distrAmt}(\"\");\n\n      emit LogDistributionState(_distributionID, allDistributors[distributions[_distributionID].distributorID].distributorName,\n                                 donations[distributions[_distributionID].donationID].donationName,\n                                 DistributionState.FundsApproved);\n      emit LogDonationState(distributions[_distributionID].donationID,\n                            donations[distributions[_distributionID].donationID].donationName,\n                            DonationState.Distributing);\n\n      return true;\n    }\n\n    /// @dev Allow the donor to withdraw funds balance provided there are no distributions that have submitted funding requests\n    function donorWithdrawal(uint256 _withdrawAmount, uint32 _donorID) public payable isDonor distributionsAreUpToDate (_donorID) {\n      require(msg.sender.balance >= _withdrawAmount, \"Withdrawal request exceeds donor balance\");\n      //donorBalances[msg.sender] -= _withdrawAmount;\n      emit LogDonorWithdrawal(msg.sender, _withdrawAmount, (msg.sender.balance - _withdrawAmount));\n      //payable(msg.sender).transfer(_withdrawAmount);\n      (bool sent,) = msg.sender.call{value: _withdrawAmount}(\"\");\n      require(sent, \"Failed to withdraw funds to the donor\");\n    }\n\n    /// @dev Allow the distributor to withdraw funds balance\n    function distributorWithdrawal(uint _withdrawAmount) public payable isDistributor  {\n      require(msg.sender.balance >= _withdrawAmount, \"Withdrawal request exceeds balance\");\n      //distributorBalances[msg.sender] -= _withdrawAmount;\n      emit LogDistributorWithdrawal(msg.sender, _withdrawAmount, (msg.sender.balance - _withdrawAmount));\n      //payable(msg.sender).transfer(withdrawAmount);\n      (bool sent,) = msg.sender.call{value: _withdrawAmount}(\"\");\n      require(sent, \"Failed to withdraw funds to the donor\");\n    }\n\n/*    function initialize() initializer public {\n        __ERC20_init(\"MyToken\", \"MTK\");\n        __Pausable_init();\n        __Ownable_init();\n        __ERC20Permit_init(\"MyToken\");\n    }\n*/\n    function pause() public onlyOwner {\n        _pause();\n    }\n\n    function unpause() public onlyOwner {\n        _unpause();\n    }\n\n    function _beforeTokenTransfer(address from, address to, uint256 amount)\n        internal\n        whenNotPaused\n        override\n    {\n        super._beforeTokenTransfer(from, to, amount);\n    }\n\n}\n",
  "sourcePath": "/Users/seanevans/Crypto/Course/finalProject/contracts/DonationManager.sol",
  "compiler": {
    "name": "solc",
    "version": "0.8.2+commit.661d1103.Emscripten.clang"
  },
  "schemaVersion": "3.4.3",
  "updatedAt": "2021-11-21T08:27:31.026Z",
  "networkType": "ethereum",
  "devdoc": {
    "kind": "dev",
    "methods": {
      "allowance(address,address)": {
        "details": "See {IERC20-allowance}."
      },
      "approve(address,uint256)": {
        "details": "See {IERC20-approve}. Requirements: - `spender` cannot be the zero address."
      },
      "approveFunds(uint32,uint32)": {
        "details": "send funds to a Distributor if the conditions are met"
      },
      "balanceOf(address)": {
        "details": "See {IERC20-balanceOf}."
      },
      "changeDistributorStatus(uint32,uint32)": {
        "details": "Allow the donor to change the status of the distributor to either trusted or untrusted.Once set to untrusted it cannot be altered."
      },
      "createDistribution(uint32,uint32,uint32,uint8,bool)": {
        "details": "Create a new distribution - It cannot come from an exiting donor"
      },
      "createDistributor(string,string)": {
        "details": "Create a new distributor - It connot come from the same address as an exiting donor"
      },
      "createDonation(string,uint32,uint256,uint8)": {
        "details": "Create a new Donation. It can only be created by donors"
      },
      "createDonor(string)": {
        "details": "Create a new donor - It connot come from the same address as an exiting distributoramount donated is just a running balance, not an actual account balance"
      },
      "decimals()": {
        "details": "Returns the number of decimals used to get its user representation. For example, if `decimals` equals `2`, a balance of `505` tokens should be displayed to a user as `5.05` (`505 / 10 ** 2`). Tokens usually opt for a value of 18, imitating the relationship between Ether and Wei. This is the value {ERC20} uses, unless this function is overridden; NOTE: This information is only used for _display_ purposes: it in no way affects any of the arithmetic of the contract, including {IERC20-balanceOf} and {IERC20-transfer}."
      },
      "decreaseAllowance(address,uint256)": {
        "details": "Atomically decreases the allowance granted to `spender` by the caller. This is an alternative to {approve} that can be used as a mitigation for problems described in {IERC20-approve}. Emits an {Approval} event indicating the updated allowance. Requirements: - `spender` cannot be the zero address. - `spender` must have allowance for the caller of at least `subtractedValue`."
      },
      "distributorWithdrawal(uint256)": {
        "details": "Allow the distributor to withdraw funds balance"
      },
      "donorWithdrawal(uint256,uint32)": {
        "details": "Allow the donor to withdraw funds balance provided there are no distributions that have submitted funding requests"
      },
      "getAllDonorBalances(uint32)": {
        "details": "Get the balances of the donor ; i.e. all summarise all donations made by this donor",
        "returns": {
          "donatedAmount": " Total Donated Amount",
          "fundsAvailableToWithdraw": "Funds available to withdraw",
          "grantedAmount": "Distributed Amount - funds actually sent to distributor",
          "requestedNotGranted": "Requested amount but not approved"
        }
      },
      "getDonationBalance(uint32)": {
        "details": "Get the balances of a specific donation : Used by the distributor to check what funds are available",
        "returns": {
          "donatedAmount": "donatedAmount",
          "grantedAmount": "Distributed Amount - funds actually sent to distributor",
          "requestedNotGranted": "Requested amount but not approved"
        }
      },
      "increaseAllowance(address,uint256)": {
        "details": "Atomically increases the allowance granted to `spender` by the caller. This is an alternative to {approve} that can be used as a mitigation for problems described in {IERC20-approve}. Emits an {Approval} event indicating the updated allowance. Requirements: - `spender` cannot be the zero address."
      },
      "makeDonation(uint256,uint32,uint32)": {
        "details": "Allow the donor to ring fence funds for a donation. No actual transfer of funds."
      },
      "name()": {
        "details": "Returns the name of the token."
      },
      "owner()": {
        "details": "Returns the address of the current owner."
      },
      "paused()": {
        "details": "Returns true if the contract is paused, and false otherwise."
      },
      "renounceOwnership()": {
        "details": "Leaves the contract without owner. It will not be possible to call `onlyOwner` functions anymore. Can only be called by the current owner. NOTE: Renouncing ownership will leave the contract without an owner, thereby removing any functionality that is only available to the owner."
      },
      "symbol()": {
        "details": "Returns the symbol of the token, usually a shorter version of the name."
      },
      "totalSupply()": {
        "details": "See {IERC20-totalSupply}."
      },
      "transfer(address,uint256)": {
        "details": "See {IERC20-transfer}. Requirements: - `recipient` cannot be the zero address. - the caller must have a balance of at least `amount`."
      },
      "transferFrom(address,address,uint256)": {
        "details": "See {IERC20-transferFrom}. Emits an {Approval} event indicating the updated allowance. This is not required by the EIP. See the note at the beginning of {ERC20}. Requirements: - `sender` and `recipient` cannot be the zero address. - `sender` must have a balance of at least `amount`. - the caller must have allowance for ``sender``'s tokens of at least `amount`."
      },
      "transferOwnership(address)": {
        "details": "Transfers ownership of the contract to a new account (`newOwner`). Can only be called by the current owner."
      }
    },
    "stateVariables": {
      "distributionCount": {
        "details": "Disrtibutions"
      },
      "distributorCount": {
        "details": "Distributors"
      },
      "donationCount": {
        "details": "Donations"
      },
      "donations": {
        "details": "Using arrays rather than mappings where I need to iterate over the contents"
      },
      "donorCount": {
        "details": "Donors"
      }
    },
    "version": 1
  },
  "userdoc": {
    "kind": "user",
    "methods": {
      "approveFunds(uint32,uint32)": {
        "notice": "if successful Update the amount granted on the donation and reduce the amount requested"
      },
      "createDistribution(uint32,uint32,uint32,uint8,bool)": {
        "notice": "Requires that The donor list is verified - verification of lists to happen outside on IPFS - not implemented"
      }
    },
    "version": 1
  }
}