{
  "contractName": "DonationManager",
  "abi": [
    {
      "inputs": [],
      "stateMutability": "nonpayable",
      "type": "constructor"
    },
    {
      "anonymous": false,
      "inputs": [
        {
          "indexed": true,
          "internalType": "address",
          "name": "owner",
          "type": "address"
        },
        {
          "indexed": true,
          "internalType": "address",
          "name": "spender",
          "type": "address"
        },
        {
          "indexed": false,
          "internalType": "uint256",
          "name": "value",
          "type": "uint256"
        }
      ],
      "name": "Approval",
      "type": "event"
    },
    {
      "anonymous": false,
      "inputs": [
        {
          "indexed": false,
          "internalType": "uint32",
          "name": "distributionID",
          "type": "uint32"
        },
        {
          "indexed": false,
          "internalType": "string",
          "name": "distributorName",
          "type": "string"
        },
        {
          "indexed": false,
          "internalType": "uint256",
          "name": "donationAmount",
          "type": "uint256"
        }
      ],
      "name": "LogDistributionRequest",
      "type": "event"
    },
    {
      "anonymous": false,
      "inputs": [
        {
          "indexed": false,
          "internalType": "uint32",
          "name": "distributionID",
          "type": "uint32"
        },
        {
          "indexed": false,
          "internalType": "string",
          "name": "distributorName",
          "type": "string"
        },
        {
          "indexed": false,
          "internalType": "string",
          "name": "donationName",
          "type": "string"
        },
        {
          "indexed": false,
          "internalType": "enum DonationManager.DistributionState",
          "name": "",
          "type": "uint8"
        }
      ],
      "name": "LogDistributionState",
      "type": "event"
    },
    {
      "anonymous": false,
      "inputs": [
        {
          "indexed": true,
          "internalType": "address",
          "name": "distributorAddress",
          "type": "address"
        },
        {
          "indexed": false,
          "internalType": "uint32",
          "name": "distributorID",
          "type": "uint32"
        },
        {
          "indexed": false,
          "internalType": "string",
          "name": "distributorName",
          "type": "string"
        },
        {
          "indexed": false,
          "internalType": "enum DonationManager.DistributorStatus",
          "name": "distributorStatus",
          "type": "uint8"
        }
      ],
      "name": "LogDistributorStatus",
      "type": "event"
    },
    {
      "anonymous": false,
      "inputs": [
        {
          "indexed": true,
          "internalType": "address",
          "name": "donorAddress",
          "type": "address"
        },
        {
          "indexed": false,
          "internalType": "uint256",
          "name": "withdrawAmount",
          "type": "uint256"
        },
        {
          "indexed": false,
          "internalType": "uint256",
          "name": "remainingBalance",
          "type": "uint256"
        }
      ],
      "name": "LogDistributorWithdrawal",
      "type": "event"
    },
    {
      "anonymous": false,
      "inputs": [
        {
          "indexed": false,
          "internalType": "uint32",
          "name": "donationID",
          "type": "uint32"
        },
        {
          "indexed": false,
          "internalType": "string",
          "name": "donationName",
          "type": "string"
        },
        {
          "indexed": false,
          "internalType": "enum DonationManager.DonationState",
          "name": "",
          "type": "uint8"
        }
      ],
      "name": "LogDonationState",
      "type": "event"
    },
    {
      "anonymous": false,
      "inputs": [
        {
          "indexed": true,
          "internalType": "address",
          "name": "donorAddress",
          "type": "address"
        },
        {
          "indexed": false,
          "internalType": "uint32",
          "name": "donorID",
          "type": "uint32"
        },
        {
          "indexed": false,
          "internalType": "uint256",
          "name": "balance",
          "type": "uint256"
        }
      ],
      "name": "LogDonorAdded",
      "type": "event"
    },
    {
      "anonymous": false,
      "inputs": [
        {
          "indexed": true,
          "internalType": "address",
          "name": "donorAddress",
          "type": "address"
        },
        {
          "indexed": false,
          "internalType": "uint256",
          "name": "donationAmount",
          "type": "uint256"
        }
      ],
      "name": "LogDonorDeposit",
      "type": "event"
    },
    {
      "anonymous": false,
      "inputs": [
        {
          "indexed": true,
          "internalType": "address",
          "name": "donorAddress",
          "type": "address"
        },
        {
          "indexed": false,
          "internalType": "uint256",
          "name": "withdrawAmount",
          "type": "uint256"
        },
        {
          "indexed": false,
          "internalType": "uint256",
          "name": "remainingBalance",
          "type": "uint256"
        }
      ],
      "name": "LogDonorWithdrawal",
      "type": "event"
    },
    {
      "anonymous": false,
      "inputs": [
        {
          "indexed": true,
          "internalType": "address",
          "name": "previousOwner",
          "type": "address"
        },
        {
          "indexed": true,
          "internalType": "address",
          "name": "newOwner",
          "type": "address"
        }
      ],
      "name": "OwnershipTransferred",
      "type": "event"
    },
    {
      "anonymous": false,
      "inputs": [
        {
          "indexed": false,
          "internalType": "address",
          "name": "account",
          "type": "address"
        }
      ],
      "name": "Paused",
      "type": "event"
    },
    {
      "anonymous": false,
      "inputs": [
        {
          "indexed": true,
          "internalType": "address",
          "name": "from",
          "type": "address"
        },
        {
          "indexed": true,
          "internalType": "address",
          "name": "to",
          "type": "address"
        },
        {
          "indexed": false,
          "internalType": "uint256",
          "name": "value",
          "type": "uint256"
        }
      ],
      "name": "Transfer",
      "type": "event"
    },
    {
      "anonymous": false,
      "inputs": [
        {
          "indexed": false,
          "internalType": "address",
          "name": "account",
          "type": "address"
        }
      ],
      "name": "Unpaused",
      "type": "event"
    },
    {
      "inputs": [
        {
          "internalType": "uint32",
          "name": "",
          "type": "uint32"
        }
      ],
      "name": "allDistributors",
      "outputs": [
        {
          "internalType": "uint32",
          "name": "distributorID",
          "type": "uint32"
        },
        {
          "internalType": "address",
          "name": "distributorAddress",
          "type": "address"
        },
        {
          "internalType": "string",
          "name": "distributorName",
          "type": "string"
        },
        {
          "internalType": "string",
          "name": "distributorCountry",
          "type": "string"
        },
        {
          "internalType": "enum DonationManager.DistributorStatus",
          "name": "distributorStatus",
          "type": "uint8"
        }
      ],
      "stateMutability": "view",
      "type": "function"
    },
    {
      "inputs": [
        {
          "internalType": "uint32",
          "name": "",
          "type": "uint32"
        }
      ],
      "name": "allDonors",
      "outputs": [
        {
          "internalType": "uint32",
          "name": "donorID",
          "type": "uint32"
        },
        {
          "internalType": "address",
          "name": "donorAddress",
          "type": "address"
        },
        {
          "internalType": "uint256",
          "name": "amountDonated",
          "type": "uint256"
        },
        {
          "internalType": "string",
          "name": "donorName",
          "type": "string"
        }
      ],
      "stateMutability": "view",
      "type": "function"
    },
    {
      "inputs": [
        {
          "internalType": "address",
          "name": "owner",
          "type": "address"
        },
        {
          "internalType": "address",
          "name": "spender",
          "type": "address"
        }
      ],
      "name": "allowance",
      "outputs": [
        {
          "internalType": "uint256",
          "name": "",
          "type": "uint256"
        }
      ],
      "stateMutability": "view",
      "type": "function"
    },
    {
      "inputs": [
        {
          "internalType": "address",
          "name": "spender",
          "type": "address"
        },
        {
          "internalType": "uint256",
          "name": "amount",
          "type": "uint256"
        }
      ],
      "name": "approve",
      "outputs": [
        {
          "internalType": "bool",
          "name": "",
          "type": "bool"
        }
      ],
      "stateMutability": "nonpayable",
      "type": "function"
    },
    {
      "inputs": [
        {
          "internalType": "address",
          "name": "account",
          "type": "address"
        }
      ],
      "name": "balanceOf",
      "outputs": [
        {
          "internalType": "uint256",
          "name": "",
          "type": "uint256"
        }
      ],
      "stateMutability": "view",
      "type": "function"
    },
    {
      "inputs": [],
      "name": "decimals",
      "outputs": [
        {
          "internalType": "uint8",
          "name": "",
          "type": "uint8"
        }
      ],
      "stateMutability": "view",
      "type": "function"
    },
    {
      "inputs": [
        {
          "internalType": "address",
          "name": "spender",
          "type": "address"
        },
        {
          "internalType": "uint256",
          "name": "subtractedValue",
          "type": "uint256"
        }
      ],
      "name": "decreaseAllowance",
      "outputs": [
        {
          "internalType": "bool",
          "name": "",
          "type": "bool"
        }
      ],
      "stateMutability": "nonpayable",
      "type": "function"
    },
    {
      "inputs": [],
      "name": "distributionCount",
      "outputs": [
        {
          "internalType": "uint32",
          "name": "",
          "type": "uint32"
        }
      ],
      "stateMutability": "view",
      "type": "function"
    },
    {
      "inputs": [
        {
          "internalType": "uint256",
          "name": "",
          "type": "uint256"
        }
      ],
      "name": "distributions",
      "outputs": [
        {
          "internalType": "uint32",
          "name": "distributionID",
          "type": "uint32"
        },
        {
          "internalType": "uint32",
          "name": "distributorID",
          "type": "uint32"
        },
        {
          "internalType": "uint32",
          "name": "donationID",
          "type": "uint32"
        },
        {
          "internalType": "uint32",
          "name": "donorID",
          "type": "uint32"
        },
        {
          "internalType": "uint256",
          "name": "distributionAmount",
          "type": "uint256"
        },
        {
          "internalType": "uint32",
          "name": "recipientCount",
          "type": "uint32"
        },
        {
          "internalType": "uint8",
          "name": "distributionMonths",
          "type": "uint8"
        },
        {
          "internalType": "bool",
          "name": "recipientDetailsAreValid",
          "type": "bool"
        },
        {
          "internalType": "enum DonationManager.DistributionState",
          "name": "distributionState",
          "type": "uint8"
        }
      ],
      "stateMutability": "view",
      "type": "function"
    },
    {
      "inputs": [],
      "name": "distributorCount",
      "outputs": [
        {
          "internalType": "uint32",
          "name": "",
          "type": "uint32"
        }
      ],
      "stateMutability": "view",
      "type": "function"
    },
    {
      "inputs": [],
      "name": "donationCount",
      "outputs": [
        {
          "internalType": "uint32",
          "name": "",
          "type": "uint32"
        }
      ],
      "stateMutability": "view",
      "type": "function"
    },
    {
      "inputs": [
        {
          "internalType": "uint256",
          "name": "",
          "type": "uint256"
        }
      ],
      "name": "donations",
      "outputs": [
        {
          "internalType": "uint32",
          "name": "donationID",
          "type": "uint32"
        },
        {
          "internalType": "uint32",
          "name": "donorID",
          "type": "uint32"
        },
        {
          "internalType": "string",
          "name": "donationName",
          "type": "string"
        },
        {
          "internalType": "uint256",
          "name": "donationAmount",
          "type": "uint256"
        },
        {
          "internalType": "uint256",
          "name": "donationGrantedAmount",
          "type": "uint256"
        },
        {
          "internalType": "uint256",
          "name": "requestedNotGrantedAmount",
          "type": "uint256"
        },
        {
          "internalType": "uint32",
          "name": "USDperRecipientPerMonth",
          "type": "uint32"
        },
        {
          "internalType": "uint8",
          "name": "adminFeePercent",
          "type": "uint8"
        },
        {
          "internalType": "enum DonationManager.DonationState",
          "name": "donationState",
          "type": "uint8"
        },
        {
          "internalType": "enum DonationManager.DonationPurpose",
          "name": "donationPurpose",
          "type": "uint8"
        }
      ],
      "stateMutability": "view",
      "type": "function"
    },
    {
      "inputs": [
        {
          "internalType": "address",
          "name": "",
          "type": "address"
        }
      ],
      "name": "donorBalances",
      "outputs": [
        {
          "internalType": "uint256",
          "name": "",
          "type": "uint256"
        }
      ],
      "stateMutability": "view",
      "type": "function"
    },
    {
      "inputs": [],
      "name": "donorCount",
      "outputs": [
        {
          "internalType": "uint32",
          "name": "",
          "type": "uint32"
        }
      ],
      "stateMutability": "view",
      "type": "function"
    },
    {
      "inputs": [
        {
          "internalType": "address",
          "name": "spender",
          "type": "address"
        },
        {
          "internalType": "uint256",
          "name": "addedValue",
          "type": "uint256"
        }
      ],
      "name": "increaseAllowance",
      "outputs": [
        {
          "internalType": "bool",
          "name": "",
          "type": "bool"
        }
      ],
      "stateMutability": "nonpayable",
      "type": "function"
    },
    {
      "inputs": [],
      "name": "name",
      "outputs": [
        {
          "internalType": "string",
          "name": "",
          "type": "string"
        }
      ],
      "stateMutability": "view",
      "type": "function"
    },
    {
      "inputs": [],
      "name": "owner",
      "outputs": [
        {
          "internalType": "address",
          "name": "",
          "type": "address"
        }
      ],
      "stateMutability": "view",
      "type": "function"
    },
    {
      "inputs": [],
      "name": "paused",
      "outputs": [
        {
          "internalType": "bool",
          "name": "",
          "type": "bool"
        }
      ],
      "stateMutability": "view",
      "type": "function"
    },
    {
      "inputs": [],
      "name": "renounceOwnership",
      "outputs": [],
      "stateMutability": "nonpayable",
      "type": "function"
    },
    {
      "inputs": [],
      "name": "symbol",
      "outputs": [
        {
          "internalType": "string",
          "name": "",
          "type": "string"
        }
      ],
      "stateMutability": "view",
      "type": "function"
    },
    {
      "inputs": [],
      "name": "totalSupply",
      "outputs": [
        {
          "internalType": "uint256",
          "name": "",
          "type": "uint256"
        }
      ],
      "stateMutability": "view",
      "type": "function"
    },
    {
      "inputs": [
        {
          "internalType": "address",
          "name": "recipient",
          "type": "address"
        },
        {
          "internalType": "uint256",
          "name": "amount",
          "type": "uint256"
        }
      ],
      "name": "transfer",
      "outputs": [
        {
          "internalType": "bool",
          "name": "",
          "type": "bool"
        }
      ],
      "stateMutability": "nonpayable",
      "type": "function"
    },
    {
      "inputs": [
        {
          "internalType": "address",
          "name": "sender",
          "type": "address"
        },
        {
          "internalType": "address",
          "name": "recipient",
          "type": "address"
        },
        {
          "internalType": "uint256",
          "name": "amount",
          "type": "uint256"
        }
      ],
      "name": "transferFrom",
      "outputs": [
        {
          "internalType": "bool",
          "name": "",
          "type": "bool"
        }
      ],
      "stateMutability": "nonpayable",
      "type": "function"
    },
    {
      "inputs": [
        {
          "internalType": "address",
          "name": "newOwner",
          "type": "address"
        }
      ],
      "name": "transferOwnership",
      "outputs": [],
      "stateMutability": "nonpayable",
      "type": "function"
    },
    {
      "inputs": [
        {
          "internalType": "string",
          "name": "_donorName",
          "type": "string"
        },
        {
          "internalType": "uint256",
          "name": "currentBalance",
          "type": "uint256"
        }
      ],
      "name": "createDonor",
      "outputs": [
        {
          "internalType": "bool",
          "name": "",
          "type": "bool"
        }
      ],
      "stateMutability": "payable",
      "type": "function"
    },
    {
      "inputs": [
        {
          "internalType": "string",
          "name": "_distributorName",
          "type": "string"
        },
        {
          "internalType": "string",
          "name": "_distributorCountry",
          "type": "string"
        }
      ],
      "name": "createDistributor",
      "outputs": [
        {
          "internalType": "bool",
          "name": "",
          "type": "bool"
        }
      ],
      "stateMutability": "nonpayable",
      "type": "function"
    },
    {
      "inputs": [
        {
          "internalType": "string",
          "name": "_donationName",
          "type": "string"
        },
        {
          "internalType": "uint32",
          "name": "_donorID",
          "type": "uint32"
        },
        {
          "internalType": "uint32",
          "name": "_USDperRecipientPerMonth",
          "type": "uint32"
        },
        {
          "internalType": "uint8",
          "name": "_adminFeePercent",
          "type": "uint8"
        },
        {
          "internalType": "uint32",
          "name": "_donationPurpose",
          "type": "uint32"
        }
      ],
      "name": "createDonation",
      "outputs": [
        {
          "internalType": "bool",
          "name": "",
          "type": "bool"
        }
      ],
      "stateMutability": "nonpayable",
      "type": "function"
    },
    {
      "inputs": [
        {
          "internalType": "uint256",
          "name": "_depositAmount",
          "type": "uint256"
        }
      ],
      "name": "donorDeposit",
      "outputs": [],
      "stateMutability": "payable",
      "type": "function"
    },
    {
      "inputs": [
        {
          "internalType": "uint256",
          "name": "_donationAmount",
          "type": "uint256"
        },
        {
          "internalType": "uint32",
          "name": "_donationID",
          "type": "uint32"
        }
      ],
      "name": "makeDonation",
      "outputs": [],
      "stateMutability": "nonpayable",
      "type": "function"
    },
    {
      "inputs": [
        {
          "internalType": "uint32",
          "name": "_distributorID",
          "type": "uint32"
        },
        {
          "internalType": "uint32",
          "name": "_distributorStatus",
          "type": "uint32"
        }
      ],
      "name": "changeDistributorStatus",
      "outputs": [],
      "stateMutability": "nonpayable",
      "type": "function"
    },
    {
      "inputs": [
        {
          "internalType": "uint32",
          "name": "_donationID",
          "type": "uint32"
        }
      ],
      "name": "getDonationBalance",
      "outputs": [
        {
          "internalType": "uint256",
          "name": "donatedAmount",
          "type": "uint256"
        },
        {
          "internalType": "uint256",
          "name": "grantedAmount",
          "type": "uint256"
        },
        {
          "internalType": "uint256",
          "name": "requestedNotGranted",
          "type": "uint256"
        }
      ],
      "stateMutability": "view",
      "type": "function"
    },
    {
      "inputs": [],
      "name": "getDistributorBalance",
      "outputs": [
        {
          "internalType": "uint256",
          "name": "availbleToWithdraw",
          "type": "uint256"
        }
      ],
      "stateMutability": "view",
      "type": "function"
    },
    {
      "inputs": [
        {
          "internalType": "uint32",
          "name": "_distributorID",
          "type": "uint32"
        },
        {
          "internalType": "uint32",
          "name": "_donationID",
          "type": "uint32"
        },
        {
          "internalType": "uint32",
          "name": "_recipientCount",
          "type": "uint32"
        },
        {
          "internalType": "uint8",
          "name": "_distributionMonths",
          "type": "uint8"
        },
        {
          "internalType": "bool",
          "name": "_recipientDetailsAreValid",
          "type": "bool"
        }
      ],
      "name": "createDistribution",
      "outputs": [
        {
          "internalType": "bool",
          "name": "",
          "type": "bool"
        }
      ],
      "stateMutability": "nonpayable",
      "type": "function"
    },
    {
      "inputs": [
        {
          "internalType": "uint32",
          "name": "_distributionID",
          "type": "uint32"
        }
      ],
      "name": "requestDonationFunds",
      "outputs": [],
      "stateMutability": "payable",
      "type": "function"
    },
    {
      "inputs": [
        {
          "internalType": "uint256",
          "name": "_withdrawAmount",
          "type": "uint256"
        },
        {
          "internalType": "uint32",
          "name": "_donorID",
          "type": "uint32"
        }
      ],
      "name": "donorWithdrawal",
      "outputs": [],
      "stateMutability": "payable",
      "type": "function"
    },
    {
      "inputs": [
        {
          "internalType": "uint256",
          "name": "_withdrawAmount",
          "type": "uint256"
        }
      ],
      "name": "distributorWithdrawal",
      "outputs": [],
      "stateMutability": "payable",
      "type": "function"
    },
    {
      "inputs": [],
      "name": "pause",
      "outputs": [],
      "stateMutability": "nonpayable",
      "type": "function"
    },
    {
      "inputs": [],
      "name": "unpause",
      "outputs": [],
      "stateMutability": "nonpayable",
      "type": "function"
    }
  ],
  "bytecode": "0x60806040523480156200001157600080fd5b5060408051602080820180845260008084528451928301909452928152815191929091620000429160039162000123565b5080516200005890600490602084019062000123565b50506005805460ff19169055506200008b6200007c640100000000620000c5810204565b640100000000620000c9810204565b6005805460a860020a63ffffffff02191690556008805463ffffffff19908116909155600b805482169055600d805490911690556200021f565b3390565b60058054600160a060020a0383811661010081810261010060a860020a031985161790945560405193909204169182907f8be0079c531659141344cd1fd0a4f28419497f9722a3daafe3b4186f6b6457e090600090a35050565b8280546200013190620001c9565b90600052602060002090601f016020900481019282620001555760008555620001a0565b82601f106200017057805160ff1916838001178555620001a0565b82800160010185558215620001a0579182015b82811115620001a057825182559160200191906001019062000183565b50620001ae929150620001b2565b5090565b5b80821115620001ae5760008155600101620001b3565b600281046001821680620001de57607f821691505b6020821081141562000219577f4e487b7100000000000000000000000000000000000000000000000000000000600052602260045260246000fd5b50919050565b61427a806200022f6000396000f3fe608060405260043610610242576000357c01000000000000000000000000000000000000000000000000000000009004806370a0823111610140578063a457c2d7116100c8578063d9b4699d1161008c578063d9b4699d146106a3578063dce06a31146106b6578063dd62ed3e146106c9578063f2fde38b1461070f578063f8626af81461072f57610242565b8063a457c2d714610602578063a9059cbb14610622578063c407670f14610642578063c65c3d9514610666578063ca7893971461068357610242565b8063871d8f091161010f578063871d8f091461055a5780638a0b67401461058b5780638da5cb5b1461059e5780638f7a336b146105da57806395d89b41146105ed57610242565b806370a08231146104e3578063715018a6146105035780637b8c8de1146105185780638456cb591461054557610242565b8063313ce567116101ce5780634487d3df116101925780634487d3df146104365780635531735f1461046b5780635669a0471461048b5780635c975abb146104ab5780635decd6db146104c357610242565b8063313ce5671461039857806335f3d58f146103b457806339509351146103e45780633ac140e8146104045780633f4ba83a1461042157610242565b80632266633e116102155780632266633e146102d657806323b872dd146102eb578063244f11f21461030b5780632a0521f81461032b5780632abfab4d1461036657610242565b806306fdde0314610247578063095ea7b31461027257806318160ddd146102a257806319d084ec146102c1575b600080fd5b34801561025357600080fd5b5061025c610765565b6040516102699190613def565b60405180910390f35b34801561027e57600080fd5b5061029261028d366004613abb565b6107f7565b6040519015158152602001610269565b3480156102ae57600080fd5b506002545b604051908152602001610269565b3480156102cd57600080fd5b506102b361080d565b6102e96102e4366004613c1e565b61083a565b005b3480156102f757600080fd5b50610292610306366004613a80565b610b13565b34801561031757600080fd5b50610292610326366004613b88565b610bd5565b34801561033757600080fd5b5061034b610346366004613c40565b610e3c565b60408051938452602084019290925290820152606001610269565b34801561037257600080fd5b50600b546103839063ffffffff1681565b60405163ffffffff9091168152602001610269565b3480156103a457600080fd5b5060405160128152602001610269565b3480156103c057600080fd5b506103d46103cf366004613c40565b610f02565b6040516102699493929190613f4d565b3480156103f057600080fd5b506102926103ff366004613abb565b610fc6565b34801561041057600080fd5b506008546103839063ffffffff1681565b34801561042d57600080fd5b506102e9611002565b34801561044257600080fd5b50610456610451366004613c06565b61103f565b604051610269999897969594939291906140a2565b34801561047757600080fd5b50610292610486366004613c83565b6110cc565b34801561049757600080fd5b506102926104a6366004613ae4565b611860565b3480156104b757600080fd5b5060055460ff16610292565b3480156104cf57600080fd5b506102e96104de366004613c5a565b611a51565b3480156104ef57600080fd5b506102b36104fe366004613a2d565b611bb0565b34801561050f57600080fd5b506102e9611bcf565b34801561052457600080fd5b506102b3610533366004613a2d565b60076020526000908152604090205481565b34801561055157600080fd5b506102e9611c0c565b34801561056657600080fd5b5061057a610575366004613c40565b611c47565b604051610269959493929190613ef1565b6102e9610599366004613c06565b611d9d565b3480156105aa57600080fd5b506105c26005546101009004600160a060020a031690565b604051600160a060020a039091168152602001610269565b6102e96105e8366004613c40565b611f00565b3480156105f957600080fd5b5061025c6129d6565b34801561060e57600080fd5b5061029261061d366004613abb565b6129e5565b34801561062e57600080fd5b5061029261063d366004613abb565b612a99565b34801561064e57600080fd5b506005546103839060a860020a900463ffffffff1681565b34801561067257600080fd5b50600d546103839063ffffffff1681565b34801561068f57600080fd5b506102e961069e366004613c1e565b612aa6565b6102e96106b1366004613c06565b612d09565b6102926106c4366004613b45565b612e78565b3480156106d557600080fd5b506102b36106e4366004613a4e565b600160a060020a03918216600090815260016020908152604080832093909416825291909152205490565b34801561071b57600080fd5b506102e961072a366004613a2d565b6130eb565b34801561073b57600080fd5b5061074f61074a366004613c06565b6131a9565b6040516102699a99989796959493929190614023565b60606003805461077490614187565b80601f01602080910402602001604051908101604052809291908181526020018280546107a090614187565b80156107ed5780601f106107c2576101008083540402835291602001916107ed565b820191906000526020600020905b8154815290600101906020018083116107d057829003601f168201915b5050505050905090565b60006108043384846132bb565b50600192915050565b336000908152600a602052610826565b60405180910390fd5b50336000908152600a602052604090205490565b3360005260076020528060005b600e5463ffffffff821610156109ad578163ffffffff16600e8263ffffffff16815481106108885760e060020a634e487b7102600052603260045260246000fd5b60009182526020909120600390910201546c01000000000000000000000000900463ffffffff1614801561092657506001600e8263ffffffff16815481106108e35760e060020a634e487b7102600052603260045260246000fd5b906000526020600020906003020160020160069054906101000a900460ff1660038111156109245760e060020a634e487b7102600052602160045260246000fd5b145b61099b5760405160e560020a62461bcd02815260206004820152602960248201527f466972737420417070726f7665206f722064656e79206f70656e20646973747260448201527f69627574696f6e732e0000000000000000000000000000000000000000000000606482015260840161081d565b806109a5816141c5565b915050610847565b5033600090815260076020526040902054831115610a365760405160e560020a62461bcd02815260206004820152602860248201527f5769746864726177616c2072657175657374206578636565647320646f6e6f7260448201527f2062616c616e6365000000000000000000000000000000000000000000000000606482015260840161081d565b3360009081526007602052604081208054859290610a55908490614170565b909155505033600081815260076020908152604091829020548251878152918201527fd511aaa7476b4b0f6ed1c5eafd6aea6007d77cc74b3c3bac462ae50edc989abb910160405180910390a2604051600090339085908381818185875af1925050503d8060008114610ae4576040519150601f19603f3d011682016040523d82523d6000602084013e610ae9565b606091505b5050905080610b0d5760405160e560020a62461bcd02815260040161081d90613e94565b50505050565b6000610b20848484613419565b600160a060020a038416600090815260016020908152604080832033845290915290205482811015610bbd5760405160e560020a62461bcd02815260206004820152602860248201527f45524332303a207472616e7366657220616d6f756e742065786365656473206160448201527f6c6c6f77616e6365000000000000000000000000000000000000000000000000606482015260840161081d565b610bca85338584036132bb565b506001949350505050565b3360009081526007602052610be8613830565b600b5463ffffffff90811682528681166020808401918252604084018a81526000606086018190526080860181905260a0860181905289851660c087015260ff891660e0870152600c80546001810182559152855160069091027fdf6966c971051c3d54ec59162606531493a51404a002842f56009d7e5cf4a8c781018054955187166401000000000267ffffffff00000000199390971663ffffffff1990961695909517919091169490941783555180518594610ccc937fdf6966c971051c3d54ec59162606531493a51404a002842f56009d7e5cf4a8c8909101920190613885565b5060608201516002808301919091556080830151600383015560a0830151600483015560c083015160058301805460e086015160ff166401000000000264ff000000001963ffffffff90941663ffffffff199092169190911792909216919091178082556101008501519265ff0000000000199091169065010000000000908490811115610d6d5760e060020a634e487b7102600052602160045260246000fd5b021790555061012082015160058201805466ff00000000000019166601000000000000836002811115610db35760e060020a634e487b7102600052602160045260246000fd5b021790555050600b546040517f6d4ebf9c7976833e896382bcf9e4f20c664a8fca4dd04e317196abcf1469de499250610df79163ffffffff16908a90600090613f8b565b60405180910390a1600b54610e139063ffffffff16600161411c565b600b805463ffffffff191663ffffffff9290921691909117905550600190505b95945050505050565b6000806000600c8463ffffffff1681548110610e6b5760e060020a634e487b7102600052603260045260246000fd5b906000526020600020906006020160020154600c8563ffffffff1681548110610ea75760e060020a634e487b7102600052603260045260246000fd5b906000526020600020906006020160030154600c8663ffffffff1681548110610ee35760e060020a634e487b7102600052603260045260246000fd5b9060005260206000209060060201600401549250925092509193909250565b60066020526000908152604090208054600182015460028301805463ffffffff841694640100000000909404600160a060020a0316939190610f4390614187565b80601f0160208091040260200160405190810160405280929190818152602001828054610f6f90614187565b8015610fbc5780601f10610f9157610100808354040283529160200191610fbc565b820191906000526020600020905b815481529060010190602001808311610f9f57829003601f168201915b5050505050905084565b336000818152600160209081526040808320600160a060020a03871684529091528120549091610804918590610ffd908690614104565b6132bb565b600554600160a060020a036101009091041633146110355760405160e560020a62461bcd02815260040161081d90613e5f565b61103d613644565b565b600e818154811061104f57600080fd5b600091825260209091206003909102018054600182015460029092015463ffffffff80831694506401000000008084048216946801000000000000000085048316946c010000000000000000000000009004831693909281169160ff90820481169165010000000000810482169166010000000000009091041689565b336000908152600a602052846001600c8263ffffffff16815481106111045760e060020a634e487b7102600052603260045260246000fd5b906000526020600020906006020160050160059054906101000a900460ff1660028111156111455760e060020a634e487b7102600052602160045260246000fd5b14806111bb57506002600c8263ffffffff16815481106111785760e060020a634e487b7102600052603260045260246000fd5b906000526020600020906006020160050160059054906101000a900460ff1660028111156111b95760e060020a634e487b7102600052602160045260246000fd5b145b6112305760405160e560020a62461bcd02815260206004820152603560248201527f446973747269627574696f6e2063616e6e6f742070726f6365656420756e746960448201527f6c20646f6e6174696f6e2069732066756e6465642e0000000000000000000000606482015260840161081d565b6000600c8763ffffffff168154811061125c5760e060020a634e487b7102600052603260045260246000fd5b600091825260209091206005600690920201015463ffffffff1661128360ff871688614144565b61128d9190614144565b90506000600c8863ffffffff16815481106112bb5760e060020a634e487b7102600052603260045260246000fd5b906000526020600020906006020160040154600c8963ffffffff16815481106112f75760e060020a634e487b7102600052603260045260246000fd5b9060005260206000209060060201600301546113139190614104565b600c8963ffffffff168154811061133d5760e060020a634e487b7102600052603260045260246000fd5b9060005260206000209060060201600201546113599190614170565b90508163ffffffff168110156113da5760405160e560020a62461bcd02815260206004820152603360248201527f5468697320646f6e6174696f6e2068617320696e73756666696369656e74206660448201527f756e647320746f20646973747269627574652e00000000000000000000000000606482015260840161081d565b6113e2613909565b600d5463ffffffff90811682528a81166020830152891660408201819052600c805490919081106114265760e060020a634e487b7102600052603260045260246000fd5b906000526020600020906006020160000160049054906101000a900463ffffffff16816060019063ffffffff16908163ffffffff16815250508263ffffffff16816080018181525050878160a0019063ffffffff16908163ffffffff1681525050868160c0019060ff16908160ff1681525050858160e0019015159081151581525050600e81908060018154018082558091505060019003906000526020600020906003020160009091909190915060008201518160000160006101000a81548163ffffffff021916908363ffffffff16021790555060208201518160000160046101000a81548163ffffffff021916908363ffffffff16021790555060408201518160000160086101000a81548163ffffffff021916908363ffffffff160217905550606082015181600001600c6101000a81548163ffffffff021916908363ffffffff1602179055506080820151816001015560a08201518160020160006101000a81548163ffffffff021916908363ffffffff16021790555060c08201518160020160046101000a81548160ff021916908360ff16021790555060e08201518160020160056101000a81548160ff0219169083151502179055506101008201518160020160066101000a81548160ff0219169083600381111561161f5760e060020a634e487b7102600052602160045260246000fd5b021790555050600d5463ffffffff8c81166000908152600960205260409020600c80547f08ddbf2387a120cff0436b65891479eb2aeee9f0da8d2a185b7d816230e1e73b9550938316936001909201929091908e169081106116945760e060020a634e487b7102600052603260045260246000fd5b906000526020600020906006020160010160006040516116b79493929190613fe2565b60405180910390a18263ffffffff16600c8a63ffffffff16815481106116f05760e060020a634e487b7102600052603260045260246000fd5b906000526020600020906006020160040160008282546117109190614104565b9091555050600d54600e805460019263ffffffff169081106117455760e060020a634e487b7102600052603260045260246000fd5b906000526020600020906003020160020160066101000a81548160ff021916908360038111156117885760e060020a634e487b7102600052602160045260246000fd5b0217905550600d5463ffffffff8b81166000908152600960205260409020600c80547f08ddbf2387a120cff0436b65891479eb2aeee9f0da8d2a185b7d816230e1e73b948416936001909301928e169081106117f75760e060020a634e487b7102600052603260045260246000fd5b9060005260206000209060060201600101600160405161181a9493929190613fe2565b60405180910390a1600d546118369063ffffffff16600161411c565b600d805463ffffffff191663ffffffff929092169190911790555060019998505050505050505050565b33600090815260076020526040812054156118c05760405160e560020a62461bcd02815260206004820152601b60248201527f63616e6e6f742062652063616c6c656420627920646f6e6f72732e0000000000604482015260640161081d565b6040805160a08101825260085463ffffffff16815233602082015290810184905260608101839052608081016000905260085463ffffffff9081166000908152600960209081526040918290208451815486840151600160a060020a03166401000000000277ffffffffffffffffffffffffffffffffffffffff00000000199290961663ffffffff19909116171693909317835590830151805161196a9260018501920190613885565b5060608201518051611986916002840191602090910190613885565b50608082015160038201805460ff191660018360028111156119bb5760e060020a634e487b7102600052602160045260246000fd5b021790555050336000818152600a602052604080822082905560085490519293507ff5340f6d3528b15a37a1ce3c13714a92b5b56c823b6cad1f087b98d4fad1d76092611a129263ffffffff909216918891613f8b565b60405180910390a2600854611a2e9063ffffffff16600161411c565b6008805463ffffffff191663ffffffff9290921691909117905550600192915050565b63ffffffff8216600090815260096020526040902060030154829060019060ff166002811115611a945760e060020a634e487b7102600052602160045260246000fd5b1415611ab55760405160e560020a62461bcd02815260040161081d90613e02565b60008263ffffffff166002811115611ae05760e060020a634e487b7102600052602160045260246000fd5b63ffffffff851660009081526009602052604090206003018054919250829160ff19166001836002811115611b285760e060020a634e487b7102600052602160045260246000fd5b021790555063ffffffff808516600090815260096020526040902033917ff5340f6d3528b15a37a1ce3c13714a92b5b56c823b6cad1f087b98d4fad1d76091879160019091019087166002811115611b935760e060020a634e487b7102600052602160045260246000fd5b604051611ba293929190613fc3565b60405180910390a250505050565b600160a060020a0381166000908152602081905260409020545b919050565b600554600160a060020a03610100909104163314611c025760405160e560020a62461bcd02815260040161081d90613e5f565b61103d60006136e3565b600554600160a060020a03610100909104163314611c3f5760405160e560020a62461bcd02815260040161081d90613e5f565b61103d61374a565b6009602052600090815260409020805460018201805463ffffffff831693640100000000909304600160a060020a0316929190611c8390614187565b80601f0160208091040260200160405190810160405280929190818152602001828054611caf90614187565b8015611cfc5780601f10611cd157610100808354040283529160200191611cfc565b820191906000526020600020905b815481529060010190602001808311611cdf57829003601f168201915b505050505090806002018054611d1190614187565b80601f0160208091040260200160405190810160405280929190818152602001828054611d3d90614187565b8015611d8a5780601f10611d5f57610100808354040283529160200191611d8a565b820191906000526020600020905b815481529060010190602001808311611d6d57829003601f168201915b5050506003909301549192505060ff1685565b336000908152600a6020526040902054811115611e255760405160e560020a62461bcd02815260206004820152602260248201527f5769746864726177616c207265717565737420657863656564732062616c616e60448201527f6365000000000000000000000000000000000000000000000000000000000000606482015260840161081d565b336000908152600a602052604081208054839290611e44908490614170565b9091555050336000818152600a6020908152604091829020548251858152918201527fca62fbd351618e763b8450544cf72f21d3e010b71571021a350a18a667266507910160405180910390a2604051600090339083908381818185875af1925050503d8060008114611ed3576040519150601f19603f3d011682016040523d82523d6000602084013e611ed8565b606091505b5050905080611efc5760405160e560020a62461bcd02815260040161081d90613e94565b5050565b336000526007602052806000600e8263ffffffff1681548110611f365760e060020a634e487b7102600052603260045260246000fd5b9060005260206000209060030201600101541015611fbf5760405160e560020a62461bcd02815260206004820152603960248201527f446973747269627574696f6e2063616e6e6f742070726f63656564202d20446960448201527f73747269627574696f6e20616d6f756e74206973203c3d203000000000000000606482015260840161081d565b600e8163ffffffff1681548110611fe95760e060020a634e487b7102600052603260045260246000fd5b906000526020600020906003020160020160059054906101000a900460ff1661207d5760405160e560020a62461bcd02815260206004820152603960248201527f446973747269627574696f6e2063616e6e6f742070726f63656564202d20446960448201527f73747269627574696f6e206c69737420697320696e766c696400000000000000606482015260840161081d565b6001600e8263ffffffff16815481106120a95760e060020a634e487b7102600052603260045260246000fd5b906000526020600020906003020160020160069054906101000a900460ff1660038111156120ea5760e060020a634e487b7102600052602160045260246000fd5b146121605760405160e560020a62461bcd02815260206004820152603960248201527f446973747269627574696f6e2063616e6e6f742070726f63656564207374617460448201527f7573206973206e6f742066756e64732072657175657374656400000000000000606482015260840161081d565b600160096000600e8463ffffffff16815481106121905760e060020a634e487b7102600052603260045260246000fd5b6000918252602080832060039283020154640100000000900463ffffffff16845283019390935260409091019020015460ff1660028111156121e55760e060020a634e487b7102600052602160045260246000fd5b14156122065760405160e560020a62461bcd02815260040161081d90613e02565b600e8163ffffffff16815481106122305760e060020a634e487b7102600052603260045260246000fd5b906000526020600020906003020160010154600c600e8363ffffffff168154811061226e5760e060020a634e487b7102600052603260045260246000fd5b906000526020600020906003020160000160089054906101000a900463ffffffff1663ffffffff16815481106122b75760e060020a634e487b7102600052603260045260246000fd5b906000526020600020906006020160040154101561231a5760405160e560020a62461bcd02815260206004820152601b60248201527f446973747269627574696f6e2063616e6e6f742070726f636565640000000000604482015260640161081d565b600e8163ffffffff16815481106123445760e060020a634e487b7102600052603260045260246000fd5b6000918252602080832060016003909302019190910154338352600790915260409091205410156123e05760405160e560020a62461bcd02815260206004820152603060248201527f446973747269627574696f6e2063616e6e6f742070726f63656564202d20696e60448201527f73756666696369656e742066756e647300000000000000000000000000000000606482015260840161081d565b600e8263ffffffff168154811061240a5760e060020a634e487b7102600052603260045260246000fd5b906000526020600020906003020160010154600c600e8463ffffffff16815481106124485760e060020a634e487b7102600052603260045260246000fd5b906000526020600020906003020160000160089054906101000a900463ffffffff1663ffffffff16815481106124915760e060020a634e487b7102600052603260045260246000fd5b906000526020600020906006020160030160008282546124b19190614104565b9091555050600e805463ffffffff84169081106124e15760e060020a634e487b7102600052603260045260246000fd5b906000526020600020906003020160010154600c600e8463ffffffff168154811061251f5760e060020a634e487b7102600052603260045260246000fd5b9060005260206000209060030201600001600c9054906101000a900463ffffffff1663ffffffff16815481106125685760e060020a634e487b7102600052603260045260246000fd5b906000526020600020906006020160040160008282546125889190614170565b925050819055506002600e8363ffffffff16815481106125bb5760e060020a634e487b7102600052603260045260246000fd5b906000526020600020906003020160020160066101000a81548160ff021916908360038111156125fe5760e060020a634e487b7102600052602160045260246000fd5b02179055507f08ddbf2387a120cff0436b65891479eb2aeee9f0da8d2a185b7d816230e1e73b8260096000600e8663ffffffff16815481106126535760e060020a634e487b7102600052603260045260246000fd5b906000526020600020906003020160000160049054906101000a900463ffffffff1663ffffffff1663ffffffff168152602001908152602001600020600101600c600e8663ffffffff16815481106126be5760e060020a634e487b7102600052603260045260246000fd5b906000526020600020906003020160000160089054906101000a900463ffffffff1663ffffffff16815481106127075760e060020a634e487b7102600052603260045260246000fd5b9060005260206000209060060201600101600260405161272a9493929190613fe2565b60405180910390a17f6d4ebf9c7976833e896382bcf9e4f20c664a8fca4dd04e317196abcf1469de49600e8363ffffffff168154811061277d5760e060020a634e487b7102600052603260045260246000fd5b906000526020600020906003020160000160089054906101000a900463ffffffff16600c600e8563ffffffff16815481106127cb5760e060020a634e487b7102600052603260045260246000fd5b906000526020600020906003020160000160089054906101000a900463ffffffff1663ffffffff16815481106128145760e060020a634e487b7102600052603260045260246000fd5b9060005260206000209060060201600101600160405161283693929190613fc3565b60405180910390a1600060096000600e8563ffffffff168154811061286e5760e060020a634e487b7102600052603260045260246000fd5b906000526020600020906003020160000160049054906101000a900463ffffffff1663ffffffff1663ffffffff16815260200190815260200160002060000160049054906101000a9004600160a060020a031690506000600e8463ffffffff16815481106128ef5760e060020a634e487b7102600052603260045260246000fd5b9060005260206000209060030201600101549050600082600160a060020a03168260405160006040518083038185875af1925050503d8060008114612950576040519150601f19603f3d011682016040523d82523d6000602084013e612955565b606091505b50509050806129cf5760405160e560020a62461bcd02815260206004820152602760248201527f4661696c656420746f2073656e642066756e647320746f20746865206469737460448201527f72696275746f7200000000000000000000000000000000000000000000000000606482015260840161081d565b5050505050565b60606004805461077490614187565b336000908152600160209081526040808320600160a060020a038616845290915281205482811015612a825760405160e560020a62461bcd02815260206004820152602560248201527f45524332303a2064656372656173656420616c6c6f77616e63652062656c6f7760448201527f207a65726f000000000000000000000000000000000000000000000000000000606482015260840161081d565b612a8f33858584036132bb565b5060019392505050565b6000610804338484613419565b63ffffffff81166000908152600660209081526040808320600101543384526007909252909120548391612ad991614170565b1015612b505760405160e560020a62461bcd02815260206004820152602f60248201527f446f6e6174696f6e20616d6f756e74206578636565647320646f6e6f7220617660448201527f61696c61626c652062616c616e63650000000000000000000000000000000000606482015260840161081d565b6000600c8263ffffffff1681548110612b7c5760e060020a634e487b7102600052603260045260246000fd5b6000918252602080832060069283020154640100000000900463ffffffff1680845291905260408220600101805491935085929091612bbc908490614104565b9250508190555082600c8363ffffffff1681548110612bee5760e060020a634e487b7102600052603260045260246000fd5b90600052602060002090600602016002016000828254612c0e9190614104565b925050819055506001600c8363ffffffff1681548110612c415760e060020a634e487b7102600052603260045260246000fd5b60009182526020909120600560069092020101805465ff0000000000191665010000000000836002811115612c895760e060020a634e487b7102600052602160045260246000fd5b02179055507f6d4ebf9c7976833e896382bcf9e4f20c664a8fca4dd04e317196abcf1469de4982600c8463ffffffff1681548110612cda5760e060020a634e487b7102600052603260045260246000fd5b90600052602060002090600602016001016001604051612cfc93929190613fc3565b60405180910390a1505050565b3360009081526007602052604081208054839290612d28908490614104565b9091555050348110612d7f5760405160e560020a62461bcd02815260206004820152601260248201527f496e73756666696369656e742066756e64730000000000000000000000000000604482015260640161081d565b604051600090339083908381818185875af1925050503d8060008114612dc1576040519150601f19603f3d011682016040523d82523d6000602084013e612dc6565b606091505b5050905080612e3f5760405160e560020a62461bcd028152602060048201526024808201527f4661696c656420746f206465706f7369742066756e647320746f20746865206460448201527f6f6e6f7200000000000000000000000000000000000000000000000000000000606482015260840161081d565b60405182815233907f77d8afee183d11db3d908fb0e5a51061864f89ac6954f40c33855d318d93190d9060200160405180910390a25050565b336000908152600a602052604081205415612efe5760405160e560020a62461bcd02815260206004820152602160248201527f63616e6e6f742062652063616c6c6564206279206469737472696275746f727360448201527f2e00000000000000000000000000000000000000000000000000000000000000606482015260840161081d565b3360009081526007602052604090205415612f845760405160e560020a62461bcd02815260206004820152602d60248201527f63616e6e6f742063726561746520616e6f7468657220646f6e6f7220666f722060448201527f74686973206163636f756e742e00000000000000000000000000000000000000606482015260840161081d565b6040805160808101825260055463ffffffff60a860020a90910481168083523360208085019182526000858701818152606087018b815294825260068352969020855181549351600160a060020a03166401000000000277ffffffffffffffffffffffffffffffffffffffff00000000199190961663ffffffff1990941693909317929092169390931781559351600185015551805192939261302d9260028501920190613885565b505033600081815260076020908152604091829020869055600554825160a860020a90910463ffffffff16815234918101919091529192507fe3a6f05109f9c5364a4a4672a1960be53433c573829417088813d16a73bf80e3910160405180910390a26005546130ab9060a860020a900463ffffffff16600161411c565b6005805463ffffffff9290921660a860020a0278ffffffff0000000000000000000000000000000000000000001990921691909117905550600192915050565b600554600160a060020a0361010090910416331461311e5760405160e560020a62461bcd02815260040161081d90613e5f565b600160a060020a03811661319d5760405160e560020a62461bcd02815260206004820152602660248201527f4f776e61626c653a206e6577206f776e657220697320746865207a65726f206160448201527f6464726573730000000000000000000000000000000000000000000000000000606482015260840161081d565b6131a6816136e3565b50565b600c81815481106131b957600080fd5b60009182526020909120600690910201805460018201805463ffffffff808416955064010000000090930490921692916131f290614187565b80601f016020809104026020016040519081016040528092919081815260200182805461321e90614187565b801561326b5780601f106132405761010080835404028352916020019161326b565b820191906000526020600020905b81548152906001019060200180831161324e57829003601f168201915b505050506002830154600384015460048501546005909501549394919390925063ffffffff81169060ff64010000000082048116916501000000000081048216916601000000000000909104168a565b600160a060020a0383166133395760405160e560020a62461bcd028152602060048201526024808201527f45524332303a20617070726f76652066726f6d20746865207a65726f2061646460448201527f7265737300000000000000000000000000000000000000000000000000000000606482015260840161081d565b600160a060020a0382166133b85760405160e560020a62461bcd02815260206004820152602260248201527f45524332303a20617070726f766520746f20746865207a65726f20616464726560448201527f7373000000000000000000000000000000000000000000000000000000000000606482015260840161081d565b600160a060020a0383811660008181526001602090815260408083209487168084529482529182902085905590518481527f8c5be1e5ebec7d5bd14f71427d1e84f3dd0314c0f7b2291e5b200ac8c7c3b925910160405180910390a3505050565b600160a060020a0383166134985760405160e560020a62461bcd02815260206004820152602560248201527f45524332303a207472616e736665722066726f6d20746865207a65726f20616460448201527f6472657373000000000000000000000000000000000000000000000000000000606482015260840161081d565b600160a060020a0382166135175760405160e560020a62461bcd02815260206004820152602360248201527f45524332303a207472616e7366657220746f20746865207a65726f206164647260448201527f6573730000000000000000000000000000000000000000000000000000000000606482015260840161081d565b6135228383836137d5565b600160a060020a038316600090815260208190526040902054818110156135b45760405160e560020a62461bcd02815260206004820152602660248201527f45524332303a207472616e7366657220616d6f756e742065786365656473206260448201527f616c616e63650000000000000000000000000000000000000000000000000000606482015260840161081d565b600160a060020a038085166000908152602081905260408082208585039055918516815290812080548492906135eb908490614104565b9250508190555082600160a060020a031684600160a060020a03167fddf252ad1be2c89b69c2b068fc378daa952ba7f163c4a11628f55a4df523b3ef8460405161363791815260200190565b60405180910390a3610b0d565b60055460ff166136995760405160e560020a62461bcd02815260206004820152601460248201527f5061757361626c653a206e6f7420706175736564000000000000000000000000604482015260640161081d565b6005805460ff191690557f5db9ee0a495bf2e6ff9c91a7834c1ba4fdd244a5e8aa4e537bd38aeae4b073aa335b604051600160a060020a03909116815260200160405180910390a1565b60058054600160a060020a0383811661010081810274ffffffffffffffffffffffffffffffffffffffff001985161790945560405193909204169182907f8be0079c531659141344cd1fd0a4f28419497f9722a3daafe3b4186f6b6457e090600090a35050565b60055460ff16156137a05760405160e560020a62461bcd02815260206004820152601060248201527f5061757361626c653a2070617573656400000000000000000000000000000000604482015260640161081d565b6005805460ff191660011790557f62e78cea01bee320cd4e420270b5ea74000d11b0c9f74754ebdbfc544b05a2586136c63390565b60055460ff161561382b5760405160e560020a62461bcd02815260206004820152601060248201527f5061757361626c653a2070617573656400000000000000000000000000000000604482015260640161081d565b505050565b604080516101408101825260008082526020820181905260609282018390529181018290526080810182905260a0810182905260c0810182905260e0810182905290610100820190815260200160005b905290565b82805461389190614187565b90600052602060002090601f0160209004810192826138b357600085556138f9565b82601f106138cc57805160ff19168380011785556138f9565b828001600101855582156138f9579182015b828111156138f95782518255916020019190600101906138de565b50613905929150613955565b5090565b6040805161012081018252600080825260208201819052918101829052606081018290526080810182905260a0810182905260c0810182905260e0810182905290610100820190613880565b5b808211156139055760008155600101613956565b8035600160a060020a0381168114611bca57600080fd5b600082601f830112613991578081fd5b813567ffffffffffffffff808211156139ac576139ac61421b565b604051601f8301601f19908116603f011681019082821181831017156139d4576139d461421b565b816040528381528660208588010111156139ec578485fd5b8360208701602083013792830160200193909352509392505050565b803563ffffffff81168114611bca57600080fd5b803560ff81168114611bca57600080fd5b600060208284031215613a3e578081fd5b613a478261396a565b9392505050565b60008060408385031215613a60578081fd5b613a698361396a565b9150613a776020840161396a565b90509250929050565b600080600060608486031215613a94578081fd5b613a9d8461396a565b9250613aab6020850161396a565b9150604084013590509250925092565b60008060408385031215613acd578182fd5b613ad68361396a565b946020939093013593505050565b60008060408385031215613af6578182fd5b823567ffffffffffffffff80821115613b0d578384fd5b613b1986838701613981565b93506020850135915080821115613b2e578283fd5b50613b3b85828601613981565b9150509250929050565b60008060408385031215613b57578182fd5b823567ffffffffffffffff811115613b6d578283fd5b613b7985828601613981565b95602094909401359450505050565b600080600080600060a08688031215613b9f578081fd5b853567ffffffffffffffff811115613bb5578182fd5b613bc188828901613981565b955050613bd060208701613a08565b9350613bde60408701613a08565b9250613bec60608701613a1c565b9150613bfa60808701613a08565b90509295509295909350565b600060208284031215613c17578081fd5b5035919050565b60008060408385031215613c30578182fd5b82359150613a7760208401613a08565b600060208284031215613c51578081fd5b613a4782613a08565b60008060408385031215613c6c578182fd5b613c7583613a08565b9150613a7760208401613a08565b600080600080600060a08688031215613c9a578081fd5b613ca386613a08565b9450613cb160208701613a08565b9350613cbf60408701613a08565b9250613ccd60608701613a1c565b915060808601358015158114613ce1578182fd5b809150509295509295909350565b60048110613cff57613cff614202565b9052565b60008151808452815b81811015613d2857602081850181015186830182015201613d0c565b81811115613d395782602083870101525b50601f01601f19169290920160200192915050565b805460009060028104600180831680613d6857607f831692505b6020808410821415613d8b5760e060020a634e487b710286526022600452602486fd5b83885260208801828015613da65760018114613db757613de2565b60ff19871682528282019750613de2565b60008981526020902060005b87811015613ddc57815484820152908601908401613dc3565b83019850505b5050505050505092915050565b600060208252613a476020830184613d03565b60208082526033908201527f446973747269627574696f6e2063616e6e6f742070726f63656564202d20446960408201527f737472696275746f7220756e7472757374656400000000000000000000000000606082015260800190565b6020808252818101527f4f776e61626c653a2063616c6c6572206973206e6f7420746865206f776e6572604082015260600190565b60208082526025908201527f4661696c656420746f2077697468647261772066756e647320746f207468652060408201527f646f6e6f72000000000000000000000000000000000000000000000000000000606082015260800190565b600063ffffffff87168252600160a060020a038616602083015260a06040830152613f1f60a0830186613d03565b8281036060840152613f318186613d03565b915050613f3d83614234565b8260808301529695505050505050565b600063ffffffff86168252600160a060020a038516602083015283604083015260806060830152613f816080830184613d03565b9695505050505050565b600063ffffffff8516825260606020830152613faa6060830185613d03565b9050613fb583614234565b826040830152949350505050565b600063ffffffff8516825260606020830152613faa6060830185613d4e565b600063ffffffff86168252608060208301526140016080830186613d4e565b82810360408401526140138186613d4e565b915050610e336060830184613cef565b600061014063ffffffff808e168452808d16602085015281604085015261404c8285018d613d03565b92508a60608501528960808501528860a085015280881660c0850152505060ff851660e083015261407c84614234565b8361010083015261408c83614234565b826101208301529b9a5050505050505050505050565b63ffffffff8a8116825289811660208301528881166040830152878116606083015260808201879052851660a082015260ff841660c082015282151560e082015261012081016140f6610100830184613cef565b9a9950505050505050505050565b60008219821115614117576141176141e9565b500190565b600063ffffffff80831681851680830382111561413b5761413b6141e9565b01949350505050565b600063ffffffff80831681851681830481118215151615614167576141676141e9565b02949350505050565b600082821015614182576141826141e9565b500390565b60028104600182168061419b57607f821691505b602082108114156141bf5760e060020a634e487b7102600052602260045260246000fd5b50919050565b600063ffffffff808316818114156141df576141df6141e9565b6001019392505050565b60e060020a634e487b7102600052601160045260246000fd5b60e060020a634e487b7102600052602160045260246000fd5b60e060020a634e487b7102600052604160045260246000fd5b600381106131a6576131a661420256fea2646970667358221220bfba7b34433cf2a9b3fa6e0c85bf1a641e462e6218c6cbd1ee5fea9f7e0aba4864736f6c63430008020033",
  "immutableReferences": {},
  "source": "// SPDX-License-Identifier: MIT\npragma solidity ^0.8.2;\n\n/// @title A contract for managing donations and distribution of donated funds\n/// @author Sean Evans Nov 2021\n/// @notice This contract is meant for the Consensys academoy final project\n\nimport \"@openzeppelin/contracts/token/ERC20/ERC20.sol\";\nimport \"@openzeppelin/contracts/access/Ownable.sol\";\nimport \"@openzeppelin/contracts/security/Pausable.sol\";\n\n//contract DonationManager is Initializable, ERC20Upgradeable, PausableUpgradeable, OwnableUpgradeable, ERC20PermitUpgradeable {\ncontract DonationManager is ERC20, Pausable, Ownable {\n\n    enum DonationState      { DonationCreated, Funded, Distributing }\n    enum DonationPurpose    { FoodTokens, Hospital, Disaster }\n    enum DistributorStatus  { New, unTrusted, Trusted }\n    enum DistributionState  { DistributionCreated, FundsRequested, FundsApproved , FundsNOTApproved }\n\n    /// @dev Donor Details\n    /// @notice  AmountDonated is the amount of balance ring fenced to all donations\n    struct Donor {\n       uint32       donorID;\n       address      donorAddress;\n       uint256      amountDonated;\n       string       donorName;\n    }\n\n    /// @dev Organisation responsible for distributing funds to recipients\n    struct  Distributor {\n       uint32       distributorID;\n       address      distributorAddress;\n       string       distributorName;\n       string       distributorCountry;\n       DistributorStatus  distributorStatus;\n    }\n\n    /// @dev Currently one donor per donation but one donor can do many donations\n    /// @notice donationAmount = Funds availalbe to be claimed (must be <= donor's balance)\n    /// @notice donationGrantedAmount = Funds approved to distributions - possibly sent to distributor\n    /// @notice requestedNotGrantedAmount = Funds requested by distributors but not granted (approved) yet - potential claims\n    /// @dev A donation can have multiple distributions\n    struct  Donation {\n       uint32       donationID;\n       uint32       donorID;\n       string       donationName;\n       uint256      donationAmount;\n       uint256      donationGrantedAmount;\n       uint256      requestedNotGrantedAmount;\n       uint32       USDperRecipientPerMonth;\n       uint8        adminFeePercent;\n       DonationState    donationState;\n       DonationPurpose  donationPurpose;\n    }\n    //uint32[]         distributionIDs;\n\n    /// @dev distributionAmount = USD per person * recipientCountr * distributionMonths\n    /// @notice Number of recipients with trusted details; New distributors max 1000 recipients or USD 50k\n    /// @notice Number of months to run the distribution; for example New distributors can only run 1 month\n    /// @dev recipientDetailsAreValid is not properly implemented yet: possibly check against IPFS link to unmodifiable list of trusted recipients\n    struct  Distribution {\n       uint32       distributionID;\n       uint32       distributorID;\n       uint32       donationID;\n       uint32       donorID;\n       uint256      distributionAmount;\n       uint32       recipientCount;\n       uint8        distributionMonths;\n       bool         recipientDetailsAreValid;\n       DistributionState  distributionState;\n    }\n\n    /// @dev Donors\n    uint32 public donorCount;\n    mapping (uint32 => Donor )   public allDonors;\n    mapping (address => uint256) public donorBalances;\n    event LogDonorAdded(address indexed donorAddress, uint32 donorID, uint256 balance);\n    event LogDonorDeposit(address indexed donorAddress, uint256 donationAmount);\n    event LogDonorWithdrawal(address indexed donorAddress, uint256 withdrawAmount, uint256 remainingBalance);\n\n    /// @dev Distributors\n    uint32 public distributorCount;\n    mapping (uint32 => Distributor ) public allDistributors;\n    mapping (address => uint256)     internal distributorBalances;\n    event LogDistributorStatus(address indexed distributorAddress, uint32 distributorID,  string distributorName, DistributorStatus distributorStatus);\n    event LogDistributorWithdrawal(address indexed donorAddress, uint256 withdrawAmount, uint256 remainingBalance);\n\n    /// @dev Donations\n    uint32 public donationCount;\n    /// @dev Using arrays rather than mappings where I need to iterate over the contents\n    Donation[] public donations;\n    event LogDonationState(uint32 donationID, string donationName, DonationState);\n\n    /// @dev Disrtibutions\n    uint32 public distributionCount;\n    Distribution[] public distributions;\n    event LogDistributionState(uint32 distributionID, string distributorName, string donationName, DistributionState);\n    event LogDistributionRequest(uint32 distributionID, string distributorName, uint256 donationAmount);\n\n    modifier isDonor() {\n        require(donorBalances[msg.sender] >= 0, \"This function is restricted to donors.\" );\n        _;\n    }\n\n    /// @dev A distributor cannot become a donor\n    /// @dev A donor can only be added once\n    modifier onlyDonor() {\n        require(distributorBalances[msg.sender] == 0 , \"cannot be called by distributors.\" );\n        require(donorBalances[msg.sender] == 0 , \"cannot create another donor for this account.\" );\n        _;\n    }\n\n    /// @dev A donor cannot become a distributor\n    modifier onlyDistributor() {\n        require(donorBalances[msg.sender] == 0 , \"cannot be called by donors.\" );\n        _;\n    }\n\n    modifier isDistributor() {\n        require(distributorBalances[msg.sender] >= 0, \"This function is restricted to distributors.\" );\n        _;\n    }\n\n    /// @dev We can proceed with distributing funds after these checks\n    /// @dev If the distributorStatus is new they cannot request funding for more than 1000 recipients\n    /// @dev The donation must have sufficient funds for the distribution\n    /// @dev The distribution list must be valid (outside the scope of this project)\n    modifier distributionCanProceed(uint32 _distributionID) {\n        require(distributions[_distributionID].distributionAmount >= 0 , \"Distribution cannot proceed - Distribution amount is <= 0\");\n        require(distributions[_distributionID].recipientDetailsAreValid , \"Distribution cannot proceed - Distribution list is invlid\");\n        require(distributions[_distributionID].distributionState == DistributionState.FundsRequested, \"Distribution cannot proceed status is not funds requested\");\n        require(allDistributors[distributions[_distributionID].distributorID].distributorStatus != DistributorStatus.unTrusted, \"Distribution cannot proceed - Distributor untrusted\");\n        require(donations[distributions[_distributionID].donationID].requestedNotGrantedAmount >= distributions[_distributionID].distributionAmount , \"Distribution cannot proceed\");\n        require(donorBalances[msg.sender] >= distributions[_distributionID].distributionAmount , \"Distribution cannot proceed - insufficient funds\");\n        _;\n    }\n\n    modifier distributorStatusCanChange(uint32 _distributorID) {\n        require(allDistributors[_distributorID].distributorStatus != DistributorStatus.unTrusted, \"Distribution cannot proceed - Distributor untrusted\");\n        _;\n    }\n\n    modifier distributionsAreUpToDate(uint32 _donorID) {\n        for (uint32 i = 0; i < distributions.length; i++) {\n            require((distributions[i].donorID == _donorID && distributions[i].distributionState  == DistributionState.FundsRequested), \"First Approve or deny open distributions.\");\n        }\n        _;\n    }\n\n    modifier donationIsFunded(uint32 _donationID) {\n        require((donations[_donationID].donationState == DonationState.Funded || donations[_donationID].donationState == DonationState.Distributing),\n        \"Distribution cannot proceed until donation is funded.\");\n        _;\n    }\n\n    constructor() ERC20(\"\", \"\") {\n        donorCount = 0;\n        distributorCount = 0;\n        donationCount = 0;\n        distributionCount = 0;\n    }\n\n    /// @dev Create a new donor - It connot come from the same address as an exiting distributor\n    /// @dev amount donated is just a running balance, not an actual account balance\n    function createDonor(string memory _donorName, uint256 currentBalance) payable public onlyDonor returns( bool ) {\n        allDonors[donorCount] = Donor( {\n            donorID         : donorCount,\n            donorAddress    :  payable(msg.sender),\n            amountDonated   : 0,\n            donorName       : _donorName\n        });\n        //donorBalances[msg.sender] = 0;\n        // Set donor balance to amount in donor's account\n        donorBalances[msg.sender] = currentBalance;\n        emit LogDonorAdded(msg.sender, donorCount, msg.value);\n        donorCount = donorCount + 1;\n        return true;\n    }\n\n    /// @dev Create a new distributor - It connot come from the same address as an exiting donor\n    function createDistributor(string memory _distributorName, string memory _distributorCountry)\n        public onlyDistributor returns ( bool ) {\n        allDistributors[distributorCount] = Distributor( {\n            distributorID       : distributorCount,\n            distributorAddress  : payable(msg.sender),\n            distributorName     : _distributorName,\n            distributorCountry  : _distributorCountry,\n            distributorStatus   : DistributorStatus.New\n        });\n        /// @notice  Set the donation balance to\n        distributorBalances[msg.sender] = 0;\n        emit LogDistributorStatus(msg.sender, distributorCount, _distributorName, DistributorStatus.New);\n        distributorCount = distributorCount + 1;\n        return true;\n    }\n\n    /// @dev Create a new Donation. It can only be created by donors\n    function createDonation(string memory _donationName, uint32  _donorID,\n        uint32  _USDperRecipientPerMonth, uint8  _adminFeePercent, uint32 _donationPurpose)\n        public isDonor returns ( bool ) {\n\n        Donation memory currentDonation;\n\n        currentDonation.donationID                  = donationCount;\n        currentDonation.donorID                     = _donorID;\n        currentDonation.donationName                = _donationName;\n        currentDonation.donationAmount              = 0;\n        currentDonation.donationGrantedAmount       = 0;\n        currentDonation.requestedNotGrantedAmount   = 0;\n        currentDonation.USDperRecipientPerMonth     = _USDperRecipientPerMonth;\n        currentDonation.adminFeePercent             = _adminFeePercent;\n        donations.push(currentDonation);\n\n/*\n        d.donationPurpose         = DonationPurpose.FoodTokens;\n        d.donationPurpose         = DonationPurpose.FoodTokens(_donationPurpose);\n*/\n        emit LogDonationState(donationCount, _donationName, DonationState.DonationCreated);\n        /// @notice Add this donation to the donor\n        donationCount = donationCount + 1;\n        return true;\n    }\n\n    function donorDeposit(uint256 _depositAmount) public isDonor payable {\n        donorBalances[msg.sender] += _depositAmount;\n        require(msg.value > _depositAmount, \"Insufficient funds\");\n        (bool sent,) = msg.sender.call{value: _depositAmount}(\"\");\n        require(sent, \"Failed to deposit funds to the donor\");\n        emit LogDonorDeposit(msg.sender, _depositAmount);\n    }\n\n    /// @dev Allow the donor to ring fence funds for a donation. No actual transfer of funds.\n    function makeDonation(uint256 _donationAmount, uint32 _donationID) public isDonor  {\n      require((donorBalances[msg.sender] - allDonors[_donationID].amountDonated) >= _donationAmount, \"Donation amount exceeds donor available balance\");\n      uint32 donorID = donations[_donationID].donorID;\n      allDonors[donorID].amountDonated += _donationAmount;\n      donations[_donationID].donationAmount += _donationAmount;\n      donations[_donationID].donationState = DonationState.Funded;\n      emit LogDonationState(_donationID, donations[_donationID].donationName, DonationState.Funded);\n    }\n\n    /// @dev Allow the donor to change the status of the distributor to either trusted or untrusted.\n    /// @dev Once set to untrusted it cannot be altered.\n    function changeDistributorStatus(uint32 _distributorID, uint32 _distributorStatus)\n            public isDonor distributorStatusCanChange(_distributorID) {\n      DistributorStatus newDistributorStatus = DistributorStatus(_distributorStatus);\n      allDistributors[_distributorID].distributorStatus = newDistributorStatus;\n      emit LogDistributorStatus(msg.sender, _distributorID,\n                                allDistributors[_distributorID].distributorName,\n                                DistributorStatus(_distributorStatus));\n    }\n\n    /// @dev Get the balances of a specific donation : Used by the distributor to check what funds are available\n    /// @return donatedAmount\n    /// @return grantedAmount Distributed Amount - funds actually sent to distributor\n    /// @return requestedNotGranted Requested amount but not approved\n    function getDonationBalance(uint32 _donationID)\n      public view returns (uint256 donatedAmount, uint256 grantedAmount, uint256 requestedNotGranted) {\n      return (donations[_donationID].donationAmount, donations[_donationID].donationGrantedAmount, donations[_donationID].requestedNotGrantedAmount);\n    }\n\n    /// @dev Get the balances of the donor ; i.e. all summarise all donations made by this donor\n    /// @return donatedAmount  Total Donated Amount\n    /// @return grantedAmount Distributed Amount - funds actually sent to distributor\n    /// @return requestedNotGranted Requested amount but not approved\n    /// @return fundsAvailableToWithdraw Funds available to withdraw\n    function getDonorBalance(uint32 _donorID)  private isDonor view\n        returns (uint256 donatedAmount, uint256 grantedAmount, uint256 requestedNotGranted, uint256 fundsAvailableToWithdraw) {\n      uint256  _donatedAmount = 0;\n      uint256  _grantedAmount = 0;\n      uint256  _requestedNotGranted = 0;\n      for (uint32 i = 0; i < donations.length; i++) {\n            if (donations[i].donorID == _donorID) {\n                _donatedAmount += _donatedAmount;\n                _grantedAmount += _grantedAmount;\n                _requestedNotGranted += _requestedNotGranted;\n            }\n      }\n      return (_donatedAmount,_grantedAmount,_requestedNotGranted,donorBalances[msg.sender] );\n    }\n\n    /// @dev Get the balances of the ddistributor across all distributions\n    function getDistributorBalance() public isDistributor view returns (uint256 availbleToWithdraw) {\n      return (distributorBalances[msg.sender]);\n    }\n\n    /// @dev Create a new distribution - It cannot come from an exiting donor\n    /// @notice Requires that The donor list is verified - verification of lists to happen outside on IPFS - not implemented\n    function createDistribution(uint32 _distributorID, uint32 _donationID, uint32 _recipientCount, uint8 _distributionMonths,\n                                bool _recipientDetailsAreValid)\n                                public isDistributor donationIsFunded(_donationID) returns( bool ) {\n\n        uint32  distributionClaim = _recipientCount * _distributionMonths * donations[_donationID].USDperRecipientPerMonth;\n        uint256  availableToClaim  = donations[_donationID].donationAmount -\n                                (donations[_donationID].donationGrantedAmount + donations[_donationID].requestedNotGrantedAmount);\n        require( availableToClaim >= distributionClaim, \"This donation has insufficient funds to distribute.\" );\n\n        Distribution memory currentDistribution;\n            currentDistribution.distributionID          = distributionCount;\n            currentDistribution.distributorID           = _distributorID;\n            currentDistribution.donationID              = _donationID;\n            currentDistribution.donorID                 = donations[_donationID].donorID;\n            currentDistribution.distributionAmount      = distributionClaim;\n            currentDistribution.recipientCount          = _recipientCount;\n            currentDistribution.distributionMonths      = _distributionMonths;\n            currentDistribution.recipientDetailsAreValid  = _recipientDetailsAreValid;\n            //currentDistribution.distributionState       = DistributionState.DistributionCreated;\n            distributions.push(currentDistribution);\n\n        emit LogDistributionState(distributionCount, allDistributors[_distributorID].distributorName,\n                                  donations[_donationID].donationName, DistributionState.DistributionCreated);\n\n        /// @notice Now make a claim against the Donation\n        donations[_donationID].requestedNotGrantedAmount += distributionClaim;\n        distributions[distributionCount].distributionState = DistributionState.FundsRequested;\n        emit LogDistributionState(distributionCount, allDistributors[_distributorID].distributorName,\n                                  donations[_donationID].donationName, DistributionState.FundsRequested);\n        distributionCount = distributionCount + 1;\n        return true;\n    }\n\n    /// @dev send funds to a Distribution if the conditions are met\n    /// @notice if successful Update the amount granted on the donation and reduce the amount requested\n    function requestDonationFunds(uint32 _distributionID) public payable isDonor distributionCanProceed(_distributionID) {\n      donations[distributions[_distributionID].donationID].donationGrantedAmount += distributions[_distributionID].distributionAmount;\n      donations[distributions[_distributionID].donorID].requestedNotGrantedAmount -= distributions[_distributionID].distributionAmount;\n      distributions[_distributionID].distributionState = DistributionState.FundsApproved;\n      emit LogDistributionState(_distributionID, allDistributors[distributions[_distributionID].distributorID].distributorName,\n                                 donations[distributions[_distributionID].donationID].donationName,\n                                 DistributionState.FundsApproved);\n      emit LogDonationState(distributions[_distributionID].donationID,\n                            donations[distributions[_distributionID].donationID].donationName,\n                            DonationState.Funded);\n      address distAddr = payable(allDistributors[distributions[_distributionID].distributorID].distributorAddress);\n      uint256 distrAmt = distributions[_distributionID].distributionAmount;\n      /// @notice Check that this is actually seding from donor to distributor\n      (bool sent,) = distAddr.call{value: distrAmt}(\"\");\n      require(sent, \"Failed to send funds to the distributor\");\n    }\n\n    // Allow the donor to withdraw funds balance provided there are no distributions that have submitted funding requests\n    function donorWithdrawal(uint256 _withdrawAmount, uint32 _donorID) public payable isDonor distributionsAreUpToDate (_donorID) {\n      require(donorBalances[msg.sender] >= _withdrawAmount, \"Withdrawal request exceeds donor balance\");\n      donorBalances[msg.sender] -= _withdrawAmount;\n      emit LogDonorWithdrawal(msg.sender, _withdrawAmount, donorBalances[msg.sender]);\n      //payable(msg.sender).transfer(_withdrawAmount);\n      (bool sent,) = msg.sender.call{value: _withdrawAmount}(\"\");\n      require(sent, \"Failed to withdraw funds to the donor\");\n    }\n\n    // Allow the distributor to withdraw funds balance\n    function distributorWithdrawal(uint _withdrawAmount) public payable isDistributor  {\n      require(distributorBalances[msg.sender] >= _withdrawAmount, \"Withdrawal request exceeds balance\");\n      distributorBalances[msg.sender] -= _withdrawAmount;\n      emit LogDistributorWithdrawal(msg.sender, _withdrawAmount, distributorBalances[msg.sender]);\n      //payable(msg.sender).transfer(withdrawAmount);\n      (bool sent,) = msg.sender.call{value: _withdrawAmount}(\"\");\n      require(sent, \"Failed to withdraw funds to the donor\");\n    }\n\n/*    function initialize() initializer public {\n        __ERC20_init(\"MyToken\", \"MTK\");\n        __Pausable_init();\n        __Ownable_init();\n        __ERC20Permit_init(\"MyToken\");\n    }\n*/\n    function pause() public onlyOwner {\n        _pause();\n    }\n\n    function unpause() public onlyOwner {\n        _unpause();\n    }\n\n    function _beforeTokenTransfer(address from, address to, uint256 amount)\n        internal\n        whenNotPaused\n        override\n    {\n        super._beforeTokenTransfer(from, to, amount);\n    }\n\n}\n",
  "sourcePath": "/Users/seanevans/Crypto/Course/finalProject/contracts/DonationManager.sol",
  "compiler": {
    "name": "solc",
    "version": "0.8.2+commit.661d1103.Emscripten.clang"
  },
  "schemaVersion": "3.4.3",
  "updatedAt": "2021-11-07T14:26:06.073Z",
  "devdoc": {
    "kind": "dev",
    "methods": {
      "allowance(address,address)": {
        "details": "See {IERC20-allowance}."
      },
      "approve(address,uint256)": {
        "details": "See {IERC20-approve}. Requirements: - `spender` cannot be the zero address."
      },
      "balanceOf(address)": {
        "details": "See {IERC20-balanceOf}."
      },
      "changeDistributorStatus(uint32,uint32)": {
        "details": "Allow the donor to change the status of the distributor to either trusted or untrusted.Once set to untrusted it cannot be altered."
      },
      "createDistribution(uint32,uint32,uint32,uint8,bool)": {
        "details": "Create a new distribution - It cannot come from an exiting donor"
      },
      "createDistributor(string,string)": {
        "details": "Create a new distributor - It connot come from the same address as an exiting donor"
      },
      "createDonation(string,uint32,uint32,uint8,uint32)": {
        "details": "Create a new Donation. It can only be created by donors"
      },
      "createDonor(string,uint256)": {
        "details": "Create a new donor - It connot come from the same address as an exiting distributoramount donated is just a running balance, not an actual account balance"
      },
      "decimals()": {
        "details": "Returns the number of decimals used to get its user representation. For example, if `decimals` equals `2`, a balance of `505` tokens should be displayed to a user as `5.05` (`505 / 10 ** 2`). Tokens usually opt for a value of 18, imitating the relationship between Ether and Wei. This is the value {ERC20} uses, unless this function is overridden; NOTE: This information is only used for _display_ purposes: it in no way affects any of the arithmetic of the contract, including {IERC20-balanceOf} and {IERC20-transfer}."
      },
      "decreaseAllowance(address,uint256)": {
        "details": "Atomically decreases the allowance granted to `spender` by the caller. This is an alternative to {approve} that can be used as a mitigation for problems described in {IERC20-approve}. Emits an {Approval} event indicating the updated allowance. Requirements: - `spender` cannot be the zero address. - `spender` must have allowance for the caller of at least `subtractedValue`."
      },
      "getDistributorBalance()": {
        "details": "Get the balances of the ddistributor across all distributions"
      },
      "getDonationBalance(uint32)": {
        "details": "Get the balances of a specific donation : Used by the distributor to check what funds are available",
        "returns": {
          "donatedAmount": "donatedAmount",
          "grantedAmount": "Distributed Amount - funds actually sent to distributor",
          "requestedNotGranted": "Requested amount but not approved"
        }
      },
      "increaseAllowance(address,uint256)": {
        "details": "Atomically increases the allowance granted to `spender` by the caller. This is an alternative to {approve} that can be used as a mitigation for problems described in {IERC20-approve}. Emits an {Approval} event indicating the updated allowance. Requirements: - `spender` cannot be the zero address."
      },
      "makeDonation(uint256,uint32)": {
        "details": "Allow the donor to ring fence funds for a donation. No actual transfer of funds."
      },
      "name()": {
        "details": "Returns the name of the token."
      },
      "owner()": {
        "details": "Returns the address of the current owner."
      },
      "paused()": {
        "details": "Returns true if the contract is paused, and false otherwise."
      },
      "renounceOwnership()": {
        "details": "Leaves the contract without owner. It will not be possible to call `onlyOwner` functions anymore. Can only be called by the current owner. NOTE: Renouncing ownership will leave the contract without an owner, thereby removing any functionality that is only available to the owner."
      },
      "requestDonationFunds(uint32)": {
        "details": "send funds to a Distribution if the conditions are met"
      },
      "symbol()": {
        "details": "Returns the symbol of the token, usually a shorter version of the name."
      },
      "totalSupply()": {
        "details": "See {IERC20-totalSupply}."
      },
      "transfer(address,uint256)": {
        "details": "See {IERC20-transfer}. Requirements: - `recipient` cannot be the zero address. - the caller must have a balance of at least `amount`."
      },
      "transferFrom(address,address,uint256)": {
        "details": "See {IERC20-transferFrom}. Emits an {Approval} event indicating the updated allowance. This is not required by the EIP. See the note at the beginning of {ERC20}. Requirements: - `sender` and `recipient` cannot be the zero address. - `sender` must have a balance of at least `amount`. - the caller must have allowance for ``sender``'s tokens of at least `amount`."
      },
      "transferOwnership(address)": {
        "details": "Transfers ownership of the contract to a new account (`newOwner`). Can only be called by the current owner."
      }
    },
    "stateVariables": {
      "distributionCount": {
        "details": "Disrtibutions"
      },
      "distributorCount": {
        "details": "Distributors"
      },
      "donationCount": {
        "details": "Donations"
      },
      "donations": {
        "details": "Using arrays rather than mappings where I need to iterate over the contents"
      },
      "donorCount": {
        "details": "Donors"
      }
    },
    "version": 1
  },
  "userdoc": {
    "kind": "user",
    "methods": {
      "createDistribution(uint32,uint32,uint32,uint8,bool)": {
        "notice": "Requires that The donor list is verified - verification of lists to happen outside on IPFS - not implemented"
      },
      "requestDonationFunds(uint32)": {
        "notice": "if successful Update the amount granted on the donation and reduce the amount requested"
      }
    },
    "version": 1
  }
}