{
  "contractName": "DonationManager",
  "abi": [
    {
      "inputs": [],
      "stateMutability": "nonpayable",
      "type": "constructor"
    },
    {
      "anonymous": false,
      "inputs": [
        {
          "indexed": true,
          "internalType": "address",
          "name": "owner",
          "type": "address"
        },
        {
          "indexed": true,
          "internalType": "address",
          "name": "spender",
          "type": "address"
        },
        {
          "indexed": false,
          "internalType": "uint256",
          "name": "value",
          "type": "uint256"
        }
      ],
      "name": "Approval",
      "type": "event"
    },
    {
      "anonymous": false,
      "inputs": [
        {
          "indexed": false,
          "internalType": "uint32",
          "name": "distributionID",
          "type": "uint32"
        },
        {
          "indexed": false,
          "internalType": "string",
          "name": "distributorName",
          "type": "string"
        },
        {
          "indexed": false,
          "internalType": "uint256",
          "name": "donationAmount",
          "type": "uint256"
        }
      ],
      "name": "LogDistributionRequest",
      "type": "event"
    },
    {
      "anonymous": false,
      "inputs": [
        {
          "indexed": false,
          "internalType": "uint32",
          "name": "distributionID",
          "type": "uint32"
        },
        {
          "indexed": false,
          "internalType": "string",
          "name": "distributorName",
          "type": "string"
        },
        {
          "indexed": false,
          "internalType": "string",
          "name": "donationName",
          "type": "string"
        },
        {
          "indexed": false,
          "internalType": "enum DonationManager.DistributionState",
          "name": "",
          "type": "uint8"
        }
      ],
      "name": "LogDistributionState",
      "type": "event"
    },
    {
      "anonymous": false,
      "inputs": [
        {
          "indexed": true,
          "internalType": "address",
          "name": "distributorAddress",
          "type": "address"
        },
        {
          "indexed": false,
          "internalType": "uint32",
          "name": "distributorID",
          "type": "uint32"
        },
        {
          "indexed": false,
          "internalType": "string",
          "name": "distributorName",
          "type": "string"
        },
        {
          "indexed": false,
          "internalType": "string",
          "name": "distributorStatus",
          "type": "string"
        }
      ],
      "name": "LogDistributorStatus",
      "type": "event"
    },
    {
      "anonymous": false,
      "inputs": [
        {
          "indexed": true,
          "internalType": "address",
          "name": "donorAddress",
          "type": "address"
        },
        {
          "indexed": false,
          "internalType": "uint256",
          "name": "withdrawAmount",
          "type": "uint256"
        },
        {
          "indexed": false,
          "internalType": "uint256",
          "name": "remainingBalance",
          "type": "uint256"
        }
      ],
      "name": "LogDistributorWithdrawal",
      "type": "event"
    },
    {
      "anonymous": false,
      "inputs": [
        {
          "indexed": false,
          "internalType": "uint32",
          "name": "donationID",
          "type": "uint32"
        },
        {
          "indexed": false,
          "internalType": "string",
          "name": "donationName",
          "type": "string"
        },
        {
          "indexed": false,
          "internalType": "enum DonationManager.DonationState",
          "name": "",
          "type": "uint8"
        }
      ],
      "name": "LogDonationState",
      "type": "event"
    },
    {
      "anonymous": false,
      "inputs": [
        {
          "indexed": true,
          "internalType": "address",
          "name": "donorAddress",
          "type": "address"
        },
        {
          "indexed": false,
          "internalType": "uint32",
          "name": "donorID",
          "type": "uint32"
        }
      ],
      "name": "LogDonorAdded",
      "type": "event"
    },
    {
      "anonymous": false,
      "inputs": [
        {
          "indexed": true,
          "internalType": "address",
          "name": "donorAddress",
          "type": "address"
        },
        {
          "indexed": false,
          "internalType": "uint256",
          "name": "donationAmount",
          "type": "uint256"
        }
      ],
      "name": "LogDonorDeposit",
      "type": "event"
    },
    {
      "anonymous": false,
      "inputs": [
        {
          "indexed": true,
          "internalType": "address",
          "name": "donorAddress",
          "type": "address"
        },
        {
          "indexed": false,
          "internalType": "uint256",
          "name": "withdrawAmount",
          "type": "uint256"
        },
        {
          "indexed": false,
          "internalType": "uint256",
          "name": "remainingBalance",
          "type": "uint256"
        }
      ],
      "name": "LogDonorWithdrawal",
      "type": "event"
    },
    {
      "anonymous": false,
      "inputs": [
        {
          "indexed": true,
          "internalType": "address",
          "name": "previousOwner",
          "type": "address"
        },
        {
          "indexed": true,
          "internalType": "address",
          "name": "newOwner",
          "type": "address"
        }
      ],
      "name": "OwnershipTransferred",
      "type": "event"
    },
    {
      "anonymous": false,
      "inputs": [
        {
          "indexed": false,
          "internalType": "address",
          "name": "account",
          "type": "address"
        }
      ],
      "name": "Paused",
      "type": "event"
    },
    {
      "anonymous": false,
      "inputs": [
        {
          "indexed": true,
          "internalType": "address",
          "name": "from",
          "type": "address"
        },
        {
          "indexed": true,
          "internalType": "address",
          "name": "to",
          "type": "address"
        },
        {
          "indexed": false,
          "internalType": "uint256",
          "name": "value",
          "type": "uint256"
        }
      ],
      "name": "Transfer",
      "type": "event"
    },
    {
      "anonymous": false,
      "inputs": [
        {
          "indexed": false,
          "internalType": "address",
          "name": "account",
          "type": "address"
        }
      ],
      "name": "Unpaused",
      "type": "event"
    },
    {
      "inputs": [
        {
          "internalType": "uint32",
          "name": "",
          "type": "uint32"
        }
      ],
      "name": "allDistributors",
      "outputs": [
        {
          "internalType": "uint32",
          "name": "distributorID",
          "type": "uint32"
        },
        {
          "internalType": "address",
          "name": "distributorAddress",
          "type": "address"
        },
        {
          "internalType": "string",
          "name": "distributorName",
          "type": "string"
        },
        {
          "internalType": "string",
          "name": "distributorCountry",
          "type": "string"
        },
        {
          "internalType": "enum DonationManager.DistributorStatus",
          "name": "distributorStatus",
          "type": "uint8"
        }
      ],
      "stateMutability": "view",
      "type": "function",
      "constant": true
    },
    {
      "inputs": [
        {
          "internalType": "uint32",
          "name": "",
          "type": "uint32"
        }
      ],
      "name": "allDonors",
      "outputs": [
        {
          "internalType": "uint32",
          "name": "donorID",
          "type": "uint32"
        },
        {
          "internalType": "address",
          "name": "donorAddress",
          "type": "address"
        },
        {
          "internalType": "uint256",
          "name": "amountDonated",
          "type": "uint256"
        },
        {
          "internalType": "string",
          "name": "donorName",
          "type": "string"
        }
      ],
      "stateMutability": "view",
      "type": "function",
      "constant": true
    },
    {
      "inputs": [
        {
          "internalType": "address",
          "name": "owner",
          "type": "address"
        },
        {
          "internalType": "address",
          "name": "spender",
          "type": "address"
        }
      ],
      "name": "allowance",
      "outputs": [
        {
          "internalType": "uint256",
          "name": "",
          "type": "uint256"
        }
      ],
      "stateMutability": "view",
      "type": "function",
      "constant": true
    },
    {
      "inputs": [
        {
          "internalType": "address",
          "name": "spender",
          "type": "address"
        },
        {
          "internalType": "uint256",
          "name": "amount",
          "type": "uint256"
        }
      ],
      "name": "approve",
      "outputs": [
        {
          "internalType": "bool",
          "name": "",
          "type": "bool"
        }
      ],
      "stateMutability": "nonpayable",
      "type": "function"
    },
    {
      "inputs": [
        {
          "internalType": "address",
          "name": "account",
          "type": "address"
        }
      ],
      "name": "balanceOf",
      "outputs": [
        {
          "internalType": "uint256",
          "name": "",
          "type": "uint256"
        }
      ],
      "stateMutability": "view",
      "type": "function",
      "constant": true
    },
    {
      "inputs": [],
      "name": "decimals",
      "outputs": [
        {
          "internalType": "uint8",
          "name": "",
          "type": "uint8"
        }
      ],
      "stateMutability": "view",
      "type": "function",
      "constant": true
    },
    {
      "inputs": [
        {
          "internalType": "address",
          "name": "spender",
          "type": "address"
        },
        {
          "internalType": "uint256",
          "name": "subtractedValue",
          "type": "uint256"
        }
      ],
      "name": "decreaseAllowance",
      "outputs": [
        {
          "internalType": "bool",
          "name": "",
          "type": "bool"
        }
      ],
      "stateMutability": "nonpayable",
      "type": "function"
    },
    {
      "inputs": [],
      "name": "distributionCount",
      "outputs": [
        {
          "internalType": "uint32",
          "name": "",
          "type": "uint32"
        }
      ],
      "stateMutability": "view",
      "type": "function",
      "constant": true
    },
    {
      "inputs": [
        {
          "internalType": "uint256",
          "name": "",
          "type": "uint256"
        }
      ],
      "name": "distributions",
      "outputs": [
        {
          "internalType": "uint32",
          "name": "distributionID",
          "type": "uint32"
        },
        {
          "internalType": "uint32",
          "name": "distributorID",
          "type": "uint32"
        },
        {
          "internalType": "uint32",
          "name": "donationID",
          "type": "uint32"
        },
        {
          "internalType": "uint32",
          "name": "donorID",
          "type": "uint32"
        },
        {
          "internalType": "uint256",
          "name": "distributionAmount",
          "type": "uint256"
        },
        {
          "internalType": "uint32",
          "name": "recipientCount",
          "type": "uint32"
        },
        {
          "internalType": "uint8",
          "name": "distributionMonths",
          "type": "uint8"
        },
        {
          "internalType": "bool",
          "name": "recipientDetailsAreValid",
          "type": "bool"
        },
        {
          "internalType": "enum DonationManager.DistributionState",
          "name": "distributionState",
          "type": "uint8"
        }
      ],
      "stateMutability": "view",
      "type": "function",
      "constant": true
    },
    {
      "inputs": [],
      "name": "distributorCount",
      "outputs": [
        {
          "internalType": "uint32",
          "name": "",
          "type": "uint32"
        }
      ],
      "stateMutability": "view",
      "type": "function",
      "constant": true
    },
    {
      "inputs": [],
      "name": "donationCount",
      "outputs": [
        {
          "internalType": "uint32",
          "name": "",
          "type": "uint32"
        }
      ],
      "stateMutability": "view",
      "type": "function",
      "constant": true
    },
    {
      "inputs": [
        {
          "internalType": "uint256",
          "name": "",
          "type": "uint256"
        }
      ],
      "name": "donations",
      "outputs": [
        {
          "internalType": "uint32",
          "name": "donationID",
          "type": "uint32"
        },
        {
          "internalType": "uint32",
          "name": "donorID",
          "type": "uint32"
        },
        {
          "internalType": "string",
          "name": "donationName",
          "type": "string"
        },
        {
          "internalType": "uint256",
          "name": "donationAmount",
          "type": "uint256"
        },
        {
          "internalType": "uint256",
          "name": "donationGrantedAmount",
          "type": "uint256"
        },
        {
          "internalType": "uint256",
          "name": "requestedNotGrantedAmount",
          "type": "uint256"
        },
        {
          "internalType": "uint32",
          "name": "USDperRecipientPerMonth",
          "type": "uint32"
        },
        {
          "internalType": "uint8",
          "name": "adminFeePercent",
          "type": "uint8"
        },
        {
          "internalType": "enum DonationManager.DonationState",
          "name": "donationState",
          "type": "uint8"
        },
        {
          "internalType": "enum DonationManager.DonationPurpose",
          "name": "donationPurpose",
          "type": "uint8"
        }
      ],
      "stateMutability": "view",
      "type": "function",
      "constant": true
    },
    {
      "inputs": [],
      "name": "donorCount",
      "outputs": [
        {
          "internalType": "uint32",
          "name": "",
          "type": "uint32"
        }
      ],
      "stateMutability": "view",
      "type": "function",
      "constant": true
    },
    {
      "inputs": [
        {
          "internalType": "address",
          "name": "spender",
          "type": "address"
        },
        {
          "internalType": "uint256",
          "name": "addedValue",
          "type": "uint256"
        }
      ],
      "name": "increaseAllowance",
      "outputs": [
        {
          "internalType": "bool",
          "name": "",
          "type": "bool"
        }
      ],
      "stateMutability": "nonpayable",
      "type": "function"
    },
    {
      "inputs": [],
      "name": "name",
      "outputs": [
        {
          "internalType": "string",
          "name": "",
          "type": "string"
        }
      ],
      "stateMutability": "view",
      "type": "function",
      "constant": true
    },
    {
      "inputs": [],
      "name": "owner",
      "outputs": [
        {
          "internalType": "address",
          "name": "",
          "type": "address"
        }
      ],
      "stateMutability": "view",
      "type": "function",
      "constant": true
    },
    {
      "inputs": [],
      "name": "paused",
      "outputs": [
        {
          "internalType": "bool",
          "name": "",
          "type": "bool"
        }
      ],
      "stateMutability": "view",
      "type": "function",
      "constant": true
    },
    {
      "inputs": [],
      "name": "renounceOwnership",
      "outputs": [],
      "stateMutability": "nonpayable",
      "type": "function"
    },
    {
      "inputs": [],
      "name": "symbol",
      "outputs": [
        {
          "internalType": "string",
          "name": "",
          "type": "string"
        }
      ],
      "stateMutability": "view",
      "type": "function",
      "constant": true
    },
    {
      "inputs": [],
      "name": "totalSupply",
      "outputs": [
        {
          "internalType": "uint256",
          "name": "",
          "type": "uint256"
        }
      ],
      "stateMutability": "view",
      "type": "function",
      "constant": true
    },
    {
      "inputs": [
        {
          "internalType": "address",
          "name": "recipient",
          "type": "address"
        },
        {
          "internalType": "uint256",
          "name": "amount",
          "type": "uint256"
        }
      ],
      "name": "transfer",
      "outputs": [
        {
          "internalType": "bool",
          "name": "",
          "type": "bool"
        }
      ],
      "stateMutability": "nonpayable",
      "type": "function"
    },
    {
      "inputs": [
        {
          "internalType": "address",
          "name": "sender",
          "type": "address"
        },
        {
          "internalType": "address",
          "name": "recipient",
          "type": "address"
        },
        {
          "internalType": "uint256",
          "name": "amount",
          "type": "uint256"
        }
      ],
      "name": "transferFrom",
      "outputs": [
        {
          "internalType": "bool",
          "name": "",
          "type": "bool"
        }
      ],
      "stateMutability": "nonpayable",
      "type": "function"
    },
    {
      "inputs": [
        {
          "internalType": "address",
          "name": "newOwner",
          "type": "address"
        }
      ],
      "name": "transferOwnership",
      "outputs": [],
      "stateMutability": "nonpayable",
      "type": "function"
    },
    {
      "inputs": [
        {
          "internalType": "string",
          "name": "_donorName",
          "type": "string"
        }
      ],
      "name": "createDonor",
      "outputs": [
        {
          "internalType": "bool",
          "name": "",
          "type": "bool"
        }
      ],
      "stateMutability": "nonpayable",
      "type": "function"
    },
    {
      "inputs": [
        {
          "internalType": "string",
          "name": "_distributorName",
          "type": "string"
        },
        {
          "internalType": "string",
          "name": "_distributorCountry",
          "type": "string"
        }
      ],
      "name": "createDistributor",
      "outputs": [
        {
          "internalType": "bool",
          "name": "",
          "type": "bool"
        }
      ],
      "stateMutability": "nonpayable",
      "type": "function"
    },
    {
      "inputs": [
        {
          "internalType": "string",
          "name": "_donationName",
          "type": "string"
        },
        {
          "internalType": "uint32",
          "name": "_donorID",
          "type": "uint32"
        },
        {
          "internalType": "uint32",
          "name": "_USDperRecipientPerMonth",
          "type": "uint32"
        },
        {
          "internalType": "uint8",
          "name": "_adminFeePercent",
          "type": "uint8"
        },
        {
          "internalType": "uint32",
          "name": "_donationPurpose",
          "type": "uint32"
        }
      ],
      "name": "createDonation",
      "outputs": [
        {
          "internalType": "bool",
          "name": "",
          "type": "bool"
        }
      ],
      "stateMutability": "nonpayable",
      "type": "function"
    },
    {
      "inputs": [
        {
          "internalType": "uint256",
          "name": "_depositAmount",
          "type": "uint256"
        }
      ],
      "name": "donorDeposit",
      "outputs": [],
      "stateMutability": "payable",
      "type": "function",
      "payable": true
    },
    {
      "inputs": [
        {
          "internalType": "uint256",
          "name": "_donationAmount",
          "type": "uint256"
        },
        {
          "internalType": "uint32",
          "name": "_donationID",
          "type": "uint32"
        }
      ],
      "name": "makeDonation",
      "outputs": [],
      "stateMutability": "nonpayable",
      "type": "function"
    },
    {
      "inputs": [
        {
          "internalType": "uint32",
          "name": "_donationID",
          "type": "uint32"
        }
      ],
      "name": "getDonationBalance",
      "outputs": [
        {
          "internalType": "uint256",
          "name": "donatedAmount",
          "type": "uint256"
        },
        {
          "internalType": "uint256",
          "name": "grantedAmount",
          "type": "uint256"
        },
        {
          "internalType": "uint256",
          "name": "requestedNotGranted",
          "type": "uint256"
        }
      ],
      "stateMutability": "view",
      "type": "function",
      "constant": true
    },
    {
      "inputs": [],
      "name": "getDistributorBalance",
      "outputs": [
        {
          "internalType": "uint256",
          "name": "availbleToWithdraw",
          "type": "uint256"
        }
      ],
      "stateMutability": "view",
      "type": "function",
      "constant": true
    },
    {
      "inputs": [
        {
          "internalType": "uint32",
          "name": "_distributorID",
          "type": "uint32"
        },
        {
          "internalType": "uint32",
          "name": "_donationID",
          "type": "uint32"
        },
        {
          "internalType": "uint32",
          "name": "_recipientCount",
          "type": "uint32"
        },
        {
          "internalType": "uint8",
          "name": "_distributionMonths",
          "type": "uint8"
        },
        {
          "internalType": "bool",
          "name": "_recipientDetailsAreValid",
          "type": "bool"
        }
      ],
      "name": "createDistribution",
      "outputs": [
        {
          "internalType": "bool",
          "name": "",
          "type": "bool"
        }
      ],
      "stateMutability": "nonpayable",
      "type": "function"
    },
    {
      "inputs": [
        {
          "internalType": "uint32",
          "name": "_distributionID",
          "type": "uint32"
        }
      ],
      "name": "requestDonationFunds",
      "outputs": [],
      "stateMutability": "payable",
      "type": "function",
      "payable": true
    },
    {
      "inputs": [
        {
          "internalType": "uint256",
          "name": "_withdrawAmount",
          "type": "uint256"
        },
        {
          "internalType": "uint32",
          "name": "_donorID",
          "type": "uint32"
        }
      ],
      "name": "donorWithdrawal",
      "outputs": [],
      "stateMutability": "payable",
      "type": "function",
      "payable": true
    },
    {
      "inputs": [
        {
          "internalType": "uint256",
          "name": "_withdrawAmount",
          "type": "uint256"
        }
      ],
      "name": "distributorWithdrawal",
      "outputs": [],
      "stateMutability": "payable",
      "type": "function",
      "payable": true
    },
    {
      "inputs": [],
      "name": "pause",
      "outputs": [],
      "stateMutability": "nonpayable",
      "type": "function"
    },
    {
      "inputs": [],
      "name": "unpause",
      "outputs": [],
      "stateMutability": "nonpayable",
      "type": "function"
    }
  ],
  "bytecode": "0x60806040523480156200001157600080fd5b5060408051602080820180845260008084528451928301909452928152815191929091620000429160039162000123565b5080516200005890600490602084019062000123565b50506005805460ff19169055506200008b6200007c640100000000620000c5810204565b640100000000620000c9810204565b6005805460a860020a63ffffffff02191690556008805463ffffffff19908116909155600b805482169055600d805490911690556200021f565b3390565b60058054600160a060020a0383811661010081810261010060a860020a031985161790945560405193909204169182907f8be0079c531659141344cd1fd0a4f28419497f9722a3daafe3b4186f6b6457e090600090a35050565b8280546200013190620001c9565b90600052602060002090601f016020900481019282620001555760008555620001a0565b82601f106200017057805160ff1916838001178555620001a0565b82800160010185558215620001a0579182015b82811115620001a057825182559160200191906001019062000183565b50620001ae929150620001b2565b5090565b5b80821115620001ae5760008155600101620001b3565b600281046001821680620001de57607f821691505b6020821081141562000219577f4e487b7100000000000000000000000000000000000000000000000000000000600052602260045260246000fd5b50919050565b613d3a806200022f6000396000f3fe60806040526004361061022c576000357c0100000000000000000000000000000000000000000000000000000000900480635c975abb11610135578063a457c2d7116100bd578063ca7893971161008c578063ca78939714610663578063d9b4699d14610683578063dd62ed3e14610696578063f2fde38b146106dc578063f8626af8146106fc5761022c565b8063a457c2d7146105e2578063a9059cbb14610602578063c407670f14610622578063c65c3d95146106465761022c565b8063871d8f0911610104578063871d8f091461053a5780638a0b67401461056b5780638da5cb5b1461057e5780638f7a336b146105ba57806395d89b41146105cd5761022c565b80635c975abb146104c257806370a08231146104da578063715018a6146105105780638456cb59146105255761022c565b80632abfab4d116101b85780633ac140e8116101875780633ac140e81461041b5780633f4ba83a146104385780634487d3df1461044d5780635531735f146104825780635669a047146104a25761022c565b80632abfab4d1461037d578063313ce567146103af57806335f3d58f146103cb57806339509351146103fb5761022c565b806319d084ec116101ff57806319d084ec146102cb5780632266633e146102ed57806323b872dd14610302578063244f11f2146103225780632a0521f8146103425761022c565b806306fdde0314610231578063095ea7b31461025c5780630df11b1c1461028c57806318160ddd146102ac575b600080fd5b34801561023d57600080fd5b50610246610732565b60405161025391906138af565b60405180910390f35b34801561026857600080fd5b5061027c6102773660046135ac565b6107c4565b6040519015158152602001610253565b34801561029857600080fd5b5061027c6102a73660046135d5565b6107da565b3480156102b857600080fd5b506002545b604051908152602001610253565b3480156102d757600080fd5b50336000908152600a60205260409020546102bd565b6103006102fb366004613707565b6109c4565b005b34801561030e57600080fd5b5061027c61031d366004613571565b610c9d565b34801561032e57600080fd5b5061027c61033d366004613671565b610d5f565b34801561034e57600080fd5b5061036261035d366004613729565b610f28565b60408051938452602084019290925290820152606001610253565b34801561038957600080fd5b50600b5461039a9063ffffffff1681565b60405163ffffffff9091168152602001610253565b3480156103bb57600080fd5b5060405160128152602001610253565b3480156103d757600080fd5b506103eb6103e6366004613729565b610fee565b60405161025394939291906139b0565b34801561040757600080fd5b5061027c6104163660046135ac565b6110b2565b34801561042757600080fd5b5060085461039a9063ffffffff1681565b34801561044457600080fd5b506103006110ee565b34801561045957600080fd5b5061046d6104683660046136ef565b61112b565b60405161025399989796959493929190613b62565b34801561048e57600080fd5b5061027c61049d366004613743565b6111b8565b3480156104ae57600080fd5b5061027c6104bd366004613610565b611854565b3480156104ce57600080fd5b5060055460ff1661027c565b3480156104e657600080fd5b506102bd6104f536600461351e565b600160a060020a031660009081526020819052604090205490565b34801561051c57600080fd5b50610300611a44565b34801561053157600080fd5b50610300611a81565b34801561054657600080fd5b5061055a610555366004613729565b611abc565b604051610253959493929190613954565b6103006105793660046136ef565b611c12565b34801561058a57600080fd5b506105a26005546101009004600160a060020a031690565b604051600160a060020a039091168152602001610253565b6103006105c8366004613729565b611d75565b3480156105d957600080fd5b506102466128a1565b3480156105ee57600080fd5b5061027c6105fd3660046135ac565b6128b0565b34801561060e57600080fd5b5061027c61061d3660046135ac565b612964565b34801561062e57600080fd5b5060055461039a9060a860020a900463ffffffff1681565b34801561065257600080fd5b50600d5461039a9063ffffffff1681565b34801561066f57600080fd5b5061030061067e366004613707565b612971565b6103006106913660046136ef565b612b60565b3480156106a257600080fd5b506102bd6106b136600461353f565b600160a060020a03918216600090815260016020908152604080832093909416825291909152205490565b3480156106e857600080fd5b506103006106f736600461351e565b612c7d565b34801561070857600080fd5b5061071c6107173660046136ef565b612d3b565b6040516102539a99989796959493929190613ae3565b60606003805461074190613c47565b80601f016020809104026020016040519081016040528092919081815260200182805461076d90613c47565b80156107ba5780601f1061078f576101008083540402835291602001916107ba565b820191906000526020600020905b81548152906001019060200180831161079d57829003601f168201915b5050505050905090565b60006107d1338484612e4d565b50600192915050565b336000908152600a6020526040812054156108655760405160e560020a62461bcd02815260206004820152602160248201527f63616e6e6f742062652063616c6c6564206279206469737472696275746f727360448201527f2e0000000000000000000000000000000000000000000000000000000000000060648201526084015b60405180910390fd5b6040805160808101825260055463ffffffff60a860020a90910481168083523360208085019182526000858701818152606087018a815294825260068352969020855181549351600160a060020a03166401000000000277ffffffffffffffffffffffffffffffffffffffff00000000199190961663ffffffff1990941693909317929092169390931781559351600185015551805192939261090e92600285019201906133c2565b505033600081815260076020908152604080832092909255600554915160a860020a90920463ffffffff1682529192507ff6d9c8bfcdca3d941752530b67d8a5449535406519e0995c2d3d91d583bb9eb6910160405180910390a26005546109849060a860020a900463ffffffff166001613bdc565b6005805463ffffffff9290921660a860020a0278ffffffff000000000000000000000000000000000000000000199092169190911790555060015b919050565b3360005260076020528060005b600e5463ffffffff82161015610b37578163ffffffff16600e8263ffffffff1681548110610a125760e060020a634e487b7102600052603260045260246000fd5b60009182526020909120600390910201546c01000000000000000000000000900463ffffffff16148015610ab057506001600e8263ffffffff1681548110610a6d5760e060020a634e487b7102600052603260045260246000fd5b906000526020600020906003020160020160069054906101000a900460ff166003811115610aae5760e060020a634e487b7102600052602160045260246000fd5b145b610b255760405160e560020a62461bcd02815260206004820152602960248201527f466972737420417070726f7665206f722064656e79206f70656e20646973747260448201527f69627574696f6e732e0000000000000000000000000000000000000000000000606482015260840161085c565b80610b2f81613c85565b9150506109d1565b5033600090815260076020526040902054831115610bc05760405160e560020a62461bcd02815260206004820152602860248201527f5769746864726177616c2072657175657374206578636565647320646f6e6f7260448201527f2062616c616e6365000000000000000000000000000000000000000000000000606482015260840161085c565b3360009081526007602052604081208054859290610bdf908490613c30565b909155505033600081815260076020908152604091829020548251878152918201527fd511aaa7476b4b0f6ed1c5eafd6aea6007d77cc74b3c3bac462ae50edc989abb910160405180910390a2604051600090339085908381818185875af1925050503d8060008114610c6e576040519150601f19603f3d011682016040523d82523d6000602084013e610c73565b606091505b5050905080610c975760405160e560020a62461bcd02815260040161085c906138f7565b50505050565b6000610caa848484612fab565b600160a060020a038416600090815260016020908152604080832033845290915290205482811015610d475760405160e560020a62461bcd02815260206004820152602860248201527f45524332303a207472616e7366657220616d6f756e742065786365656473206160448201527f6c6c6f77616e6365000000000000000000000000000000000000000000000000606482015260840161085c565b610d548533858403612e4d565b506001949350505050565b3360009081526007602052600b54600c805460009263ffffffff16908110610d9a5760e060020a634e487b7102600052603260045260246000fd5b600091825260209182902060079190910201805467ffffffff00000000191664010000000063ffffffff8a16021781558851909250610de1916001840191908a01906133c2565b50600060028201819055600382018190556004820181905560058201805463ffffffff191663ffffffff88161764ff00000000191664010000000060ff8816021780825565ff00000000001916650100000000008302179055508263ffffffff166002811115610e645760e060020a634e487b7102600052602160045260246000fd5b60058201805466ff00000000000019166601000000000000836002811115610e9f5760e060020a634e487b7102600052602160045260246000fd5b0217905550600b546040517f6d4ebf9c7976833e896382bcf9e4f20c664a8fca4dd04e317196abcf1469de4991610ee39163ffffffff909116908a906000906139ee565b60405180910390a1600b54610eff9063ffffffff166001613bdc565b600b805463ffffffff191663ffffffff9290921691909117905550600190505b95945050505050565b6000806000600c8463ffffffff1681548110610f575760e060020a634e487b7102600052603260045260246000fd5b906000526020600020906007020160020154600c8563ffffffff1681548110610f935760e060020a634e487b7102600052603260045260246000fd5b906000526020600020906007020160030154600c8663ffffffff1681548110610fcf5760e060020a634e487b7102600052603260045260246000fd5b9060005260206000209060070201600401549250925092509193909250565b60066020526000908152604090208054600182015460028301805463ffffffff841694640100000000909404600160a060020a031693919061102f90613c47565b80601f016020809104026020016040519081016040528092919081815260200182805461105b90613c47565b80156110a85780601f1061107d576101008083540402835291602001916110a8565b820191906000526020600020905b81548152906001019060200180831161108b57829003601f168201915b5050505050905084565b336000818152600160209081526040808320600160a060020a038716845290915281205490916107d19185906110e9908690613bc4565b612e4d565b600554600160a060020a036101009091041633146111215760405160e560020a62461bcd02815260040161085c906138c2565b6111296131d6565b565b600e818154811061113b57600080fd5b600091825260209091206003909102018054600182015460029092015463ffffffff80831694506401000000008084048216946801000000000000000085048316946c010000000000000000000000009004831693909281169160ff90820481169165010000000000810482169166010000000000009091041689565b336000908152600a602052846001600c8263ffffffff16815481106111f05760e060020a634e487b7102600052603260045260246000fd5b906000526020600020906007020160050160059054906101000a900460ff1660028111156112315760e060020a634e487b7102600052602160045260246000fd5b14806112a757506002600c8263ffffffff16815481106112645760e060020a634e487b7102600052603260045260246000fd5b906000526020600020906007020160050160059054906101000a900460ff1660028111156112a55760e060020a634e487b7102600052602160045260246000fd5b145b61131c5760405160e560020a62461bcd02815260206004820152603560248201527f446973747269627574696f6e2063616e6e6f742070726f6365656420756e746960448201527f6c20646f6e6174696f6e2069732066756e6465642e0000000000000000000000606482015260840161085c565b6000600c8763ffffffff16815481106113485760e060020a634e487b7102600052603260045260246000fd5b600091825260209091206005600790920201015463ffffffff1661136f60ff871688613c04565b6113799190613c04565b90506000600c8863ffffffff16815481106113a75760e060020a634e487b7102600052603260045260246000fd5b906000526020600020906007020160040154600c8963ffffffff16815481106113e35760e060020a634e487b7102600052603260045260246000fd5b9060005260206000209060070201600301546113ff9190613bc4565b600c8963ffffffff16815481106114295760e060020a634e487b7102600052603260045260246000fd5b9060005260206000209060070201600201546114459190613c30565b90508163ffffffff168110156114c65760405160e560020a62461bcd02815260206004820152603360248201527f5468697320646f6e6174696f6e2068617320696e73756666696369656e74206660448201527f756e647320746f20646973747269627574652e00000000000000000000000000606482015260840161085c565b600d54600e805460009263ffffffff169081106114f65760e060020a634e487b7102600052603260045260246000fd5b60009182526020909120600390910201805467ffffffff00000000191664010000000063ffffffff8d811691909102919091176bffffffff0000000000000000191668010000000000000000918c16918202178255600c80549293509181106115725760e060020a634e487b7102600052603260045260246000fd5b600091825260208220600791909102015482546fffffffff00000000000000000000000019166401000000009182900463ffffffff9081166c0100000000000000000000000002919091178455858116600185015560028401805463ffffffff1916918c169190911764ff00000000191660ff8b169092029190911765ff0000000000191665010000000000891515021780825566ff00000000000019166601000000000000830217905550600d5463ffffffff8b81166000908152600960205260409020600c80547f08ddbf2387a120cff0436b65891479eb2aeee9f0da8d2a185b7d816230e1e73b948416936001909301928e169081106116885760e060020a634e487b7102600052603260045260246000fd5b906000526020600020906007020160010160006040516116ab9493929190613aa2565b60405180910390a18263ffffffff16600c8a63ffffffff16815481106116e45760e060020a634e487b7102600052603260045260246000fd5b906000526020600020906007020160040160008282546117049190613bc4565b9091555050600d54600e805460019263ffffffff169081106117395760e060020a634e487b7102600052603260045260246000fd5b906000526020600020906003020160020160066101000a81548160ff0219169083600381111561177c5760e060020a634e487b7102600052602160045260246000fd5b0217905550600d5463ffffffff8b81166000908152600960205260409020600c80547f08ddbf2387a120cff0436b65891479eb2aeee9f0da8d2a185b7d816230e1e73b948416936001909301928e169081106117eb5760e060020a634e487b7102600052603260045260246000fd5b9060005260206000209060070201600101600160405161180e9493929190613aa2565b60405180910390a1600d5461182a9063ffffffff166001613bdc565b600d805463ffffffff191663ffffffff929092169190911790555060019998505050505050505050565b33600090815260076020526040812054156118b45760405160e560020a62461bcd02815260206004820152601b60248201527f63616e6e6f742062652063616c6c656420627920646f6e6f72732e0000000000604482015260640161085c565b6040805160a08101825260085463ffffffff16815233602082015290810184905260608101839052608081016000905260085463ffffffff9081166000908152600960209081526040918290208451815486840151600160a060020a03166401000000000277ffffffffffffffffffffffffffffffffffffffff00000000199290961663ffffffff19909116171693909317835590830151805161195e92600185019201906133c2565b506060820151805161197a9160028401916020909101906133c2565b50608082015160038201805460ff191660018360028111156119af5760e060020a634e487b7102600052602160045260246000fd5b021790555050336000818152600a60205260408082209190915560085490519192507f6e89f035d4709b41769614ad48ebf15796a63117bc7c4443522ccae196a5e37091611a059163ffffffff16908790613a26565b60405180910390a2600854611a219063ffffffff166001613bdc565b6008805463ffffffff191663ffffffff9290921691909117905550600192915050565b600554600160a060020a03610100909104163314611a775760405160e560020a62461bcd02815260040161085c906138c2565b6111296000613275565b600554600160a060020a03610100909104163314611ab45760405160e560020a62461bcd02815260040161085c906138c2565b6111296132dc565b6009602052600090815260409020805460018201805463ffffffff831693640100000000909304600160a060020a0316929190611af890613c47565b80601f0160208091040260200160405190810160405280929190818152602001828054611b2490613c47565b8015611b715780601f10611b4657610100808354040283529160200191611b71565b820191906000526020600020905b815481529060010190602001808311611b5457829003601f168201915b505050505090806002018054611b8690613c47565b80601f0160208091040260200160405190810160405280929190818152602001828054611bb290613c47565b8015611bff5780601f10611bd457610100808354040283529160200191611bff565b820191906000526020600020905b815481529060010190602001808311611be257829003601f168201915b5050506003909301549192505060ff1685565b336000908152600a6020526040902054811115611c9a5760405160e560020a62461bcd02815260206004820152602260248201527f5769746864726177616c207265717565737420657863656564732062616c616e60448201527f6365000000000000000000000000000000000000000000000000000000000000606482015260840161085c565b336000908152600a602052604081208054839290611cb9908490613c30565b9091555050336000818152600a6020908152604091829020548251858152918201527fca62fbd351618e763b8450544cf72f21d3e010b71571021a350a18a667266507910160405180910390a2604051600090339083908381818185875af1925050503d8060008114611d48576040519150601f19603f3d011682016040523d82523d6000602084013e611d4d565b606091505b5050905080611d715760405160e560020a62461bcd02815260040161085c906138f7565b5050565b336000526007602052806000600e8263ffffffff1681548110611dab5760e060020a634e487b7102600052603260045260246000fd5b9060005260206000209060030201600101541015611e345760405160e560020a62461bcd02815260206004820152603960248201527f446973747269627574696f6e2063616e6e6f742070726f63656564202d20446960448201527f73747269627574696f6e20616d6f756e74206973203c3d203000000000000000606482015260840161085c565b600e8163ffffffff1681548110611e5e5760e060020a634e487b7102600052603260045260246000fd5b906000526020600020906003020160020160059054906101000a900460ff16611ef25760405160e560020a62461bcd02815260206004820152603960248201527f446973747269627574696f6e2063616e6e6f742070726f63656564202d20446960448201527f73747269627574696f6e206c69737420697320696e766c696400000000000000606482015260840161085c565b6001600e8263ffffffff1681548110611f1e5760e060020a634e487b7102600052603260045260246000fd5b906000526020600020906003020160020160069054906101000a900460ff166003811115611f5f5760e060020a634e487b7102600052602160045260246000fd5b14611fd55760405160e560020a62461bcd02815260206004820152603960248201527f446973747269627574696f6e2063616e6e6f742070726f63656564207374617460448201527f7573206973206e6f742066756e64732072657175657374656400000000000000606482015260840161085c565b600160096000600e8463ffffffff16815481106120055760e060020a634e487b7102600052603260045260246000fd5b6000918252602080832060039283020154640100000000900463ffffffff16845283019390935260409091019020015460ff16600281111561205a5760e060020a634e487b7102600052602160045260246000fd5b14156120d15760405160e560020a62461bcd02815260206004820152603360248201527f446973747269627574696f6e2063616e6e6f742070726f63656564202d20446960448201527f737472696275746f7220756e7472757374656400000000000000000000000000606482015260840161085c565b600e8163ffffffff16815481106120fb5760e060020a634e487b7102600052603260045260246000fd5b906000526020600020906003020160010154600c600e8363ffffffff16815481106121395760e060020a634e487b7102600052603260045260246000fd5b906000526020600020906003020160000160089054906101000a900463ffffffff1663ffffffff16815481106121825760e060020a634e487b7102600052603260045260246000fd5b90600052602060002090600702016004015410156121e55760405160e560020a62461bcd02815260206004820152601b60248201527f446973747269627574696f6e2063616e6e6f742070726f636565640000000000604482015260640161085c565b600e8163ffffffff168154811061220f5760e060020a634e487b7102600052603260045260246000fd5b6000918252602080832060016003909302019190910154338352600790915260409091205410156122ab5760405160e560020a62461bcd02815260206004820152603060248201527f446973747269627574696f6e2063616e6e6f742070726f63656564202d20696e60448201527f73756666696369656e742066756e647300000000000000000000000000000000606482015260840161085c565b600e8263ffffffff16815481106122d55760e060020a634e487b7102600052603260045260246000fd5b906000526020600020906003020160010154600c600e8463ffffffff16815481106123135760e060020a634e487b7102600052603260045260246000fd5b906000526020600020906003020160000160089054906101000a900463ffffffff1663ffffffff168154811061235c5760e060020a634e487b7102600052603260045260246000fd5b9060005260206000209060070201600301600082825461237c9190613bc4565b9091555050600e805463ffffffff84169081106123ac5760e060020a634e487b7102600052603260045260246000fd5b906000526020600020906003020160010154600c600e8463ffffffff16815481106123ea5760e060020a634e487b7102600052603260045260246000fd5b9060005260206000209060030201600001600c9054906101000a900463ffffffff1663ffffffff16815481106124335760e060020a634e487b7102600052603260045260246000fd5b906000526020600020906007020160040160008282546124539190613c30565b925050819055506002600e8363ffffffff16815481106124865760e060020a634e487b7102600052603260045260246000fd5b906000526020600020906003020160020160066101000a81548160ff021916908360038111156124c95760e060020a634e487b7102600052602160045260246000fd5b02179055507f08ddbf2387a120cff0436b65891479eb2aeee9f0da8d2a185b7d816230e1e73b8260096000600e8663ffffffff168154811061251e5760e060020a634e487b7102600052603260045260246000fd5b906000526020600020906003020160000160049054906101000a900463ffffffff1663ffffffff1663ffffffff168152602001908152602001600020600101600c600e8663ffffffff16815481106125895760e060020a634e487b7102600052603260045260246000fd5b906000526020600020906003020160000160089054906101000a900463ffffffff1663ffffffff16815481106125d25760e060020a634e487b7102600052603260045260246000fd5b906000526020600020906007020160010160026040516125f59493929190613aa2565b60405180910390a17f6d4ebf9c7976833e896382bcf9e4f20c664a8fca4dd04e317196abcf1469de49600e8363ffffffff16815481106126485760e060020a634e487b7102600052603260045260246000fd5b906000526020600020906003020160000160089054906101000a900463ffffffff16600c600e8563ffffffff16815481106126965760e060020a634e487b7102600052603260045260246000fd5b906000526020600020906003020160000160089054906101000a900463ffffffff1663ffffffff16815481106126df5760e060020a634e487b7102600052603260045260246000fd5b9060005260206000209060070201600101600160405161270193929190613a83565b60405180910390a1600060096000600e8563ffffffff16815481106127395760e060020a634e487b7102600052603260045260246000fd5b906000526020600020906003020160000160049054906101000a900463ffffffff1663ffffffff1663ffffffff16815260200190815260200160002060000160049054906101000a9004600160a060020a031690506000600e8463ffffffff16815481106127ba5760e060020a634e487b7102600052603260045260246000fd5b9060005260206000209060030201600101549050600082600160a060020a03168260405160006040518083038185875af1925050503d806000811461281b576040519150601f19603f3d011682016040523d82523d6000602084013e612820565b606091505b505090508061289a5760405160e560020a62461bcd02815260206004820152602760248201527f4661696c656420746f2073656e642066756e647320746f20746865206469737460448201527f72696275746f7200000000000000000000000000000000000000000000000000606482015260840161085c565b5050505050565b60606004805461074190613c47565b336000908152600160209081526040808320600160a060020a03861684529091528120548281101561294d5760405160e560020a62461bcd02815260206004820152602560248201527f45524332303a2064656372656173656420616c6c6f77616e63652062656c6f7760448201527f207a65726f000000000000000000000000000000000000000000000000000000606482015260840161085c565b61295a3385858403612e4d565b5060019392505050565b60006107d1338484612fab565b63ffffffff811660009081526006602090815260408083206001015433845260079092529091205483916129a491613c30565b1015612a1b5760405160e560020a62461bcd02815260206004820152602f60248201527f446f6e6174696f6e20616d6f756e74206578636565647320646f6e6f7220617660448201527f61696c61626c652062616c616e63650000000000000000000000000000000000606482015260840161085c565b6000600c8263ffffffff1681548110612a475760e060020a634e487b7102600052603260045260246000fd5b6000918252602080832060079092029091015463ffffffff64010000000090910416808352600690915260408220600101805491935085929091612a8c908490613bc4565b9250508190555082600c8363ffffffff1681548110612abe5760e060020a634e487b7102600052603260045260246000fd5b90600052602060002090600702016002016000828254612ade9190613bc4565b925050819055507f6d4ebf9c7976833e896382bcf9e4f20c664a8fca4dd04e317196abcf1469de4982600c8463ffffffff1681548110612b315760e060020a634e487b7102600052603260045260246000fd5b90600052602060002090600702016001016001604051612b5393929190613a83565b60405180910390a1505050565b3360009081526007602052604081208054839290612b7f908490613bc4565b9091555050604051600090339083908381818185875af1925050503d8060008114612bc6576040519150601f19603f3d011682016040523d82523d6000602084013e612bcb565b606091505b5050905080612c445760405160e560020a62461bcd028152602060048201526024808201527f4661696c656420746f206465706f7369742066756e647320746f20746865206460448201527f6f6e6f7200000000000000000000000000000000000000000000000000000000606482015260840161085c565b60405182815233907f77d8afee183d11db3d908fb0e5a51061864f89ac6954f40c33855d318d93190d9060200160405180910390a25050565b600554600160a060020a03610100909104163314612cb05760405160e560020a62461bcd02815260040161085c906138c2565b600160a060020a038116612d2f5760405160e560020a62461bcd02815260206004820152602660248201527f4f776e61626c653a206e6577206f776e657220697320746865207a65726f206160448201527f6464726573730000000000000000000000000000000000000000000000000000606482015260840161085c565b612d3881613275565b50565b600c8181548110612d4b57600080fd5b60009182526020909120600790910201805460018201805463ffffffff80841695506401000000009093049092169291612d8490613c47565b80601f0160208091040260200160405190810160405280929190818152602001828054612db090613c47565b8015612dfd5780601f10612dd257610100808354040283529160200191612dfd565b820191906000526020600020905b815481529060010190602001808311612de057829003601f168201915b505050506002830154600384015460048501546005909501549394919390925063ffffffff81169060ff64010000000082048116916501000000000081048216916601000000000000909104168a565b600160a060020a038316612ecb5760405160e560020a62461bcd028152602060048201526024808201527f45524332303a20617070726f76652066726f6d20746865207a65726f2061646460448201527f7265737300000000000000000000000000000000000000000000000000000000606482015260840161085c565b600160a060020a038216612f4a5760405160e560020a62461bcd02815260206004820152602260248201527f45524332303a20617070726f766520746f20746865207a65726f20616464726560448201527f7373000000000000000000000000000000000000000000000000000000000000606482015260840161085c565b600160a060020a0383811660008181526001602090815260408083209487168084529482529182902085905590518481527f8c5be1e5ebec7d5bd14f71427d1e84f3dd0314c0f7b2291e5b200ac8c7c3b925910160405180910390a3505050565b600160a060020a03831661302a5760405160e560020a62461bcd02815260206004820152602560248201527f45524332303a207472616e736665722066726f6d20746865207a65726f20616460448201527f6472657373000000000000000000000000000000000000000000000000000000606482015260840161085c565b600160a060020a0382166130a95760405160e560020a62461bcd02815260206004820152602360248201527f45524332303a207472616e7366657220746f20746865207a65726f206164647260448201527f6573730000000000000000000000000000000000000000000000000000000000606482015260840161085c565b6130b4838383613367565b600160a060020a038316600090815260208190526040902054818110156131465760405160e560020a62461bcd02815260206004820152602660248201527f45524332303a207472616e7366657220616d6f756e742065786365656473206260448201527f616c616e63650000000000000000000000000000000000000000000000000000606482015260840161085c565b600160a060020a0380851660009081526020819052604080822085850390559185168152908120805484929061317d908490613bc4565b9250508190555082600160a060020a031684600160a060020a03167fddf252ad1be2c89b69c2b068fc378daa952ba7f163c4a11628f55a4df523b3ef846040516131c991815260200190565b60405180910390a3610c97565b60055460ff1661322b5760405160e560020a62461bcd02815260206004820152601460248201527f5061757361626c653a206e6f7420706175736564000000000000000000000000604482015260640161085c565b6005805460ff191690557f5db9ee0a495bf2e6ff9c91a7834c1ba4fdd244a5e8aa4e537bd38aeae4b073aa335b604051600160a060020a03909116815260200160405180910390a1565b60058054600160a060020a0383811661010081810274ffffffffffffffffffffffffffffffffffffffff001985161790945560405193909204169182907f8be0079c531659141344cd1fd0a4f28419497f9722a3daafe3b4186f6b6457e090600090a35050565b60055460ff16156133325760405160e560020a62461bcd02815260206004820152601060248201527f5061757361626c653a2070617573656400000000000000000000000000000000604482015260640161085c565b6005805460ff191660011790557f62e78cea01bee320cd4e420270b5ea74000d11b0c9f74754ebdbfc544b05a2586132583390565b60055460ff16156133bd5760405160e560020a62461bcd02815260206004820152601060248201527f5061757361626c653a2070617573656400000000000000000000000000000000604482015260640161085c565b505050565b8280546133ce90613c47565b90600052602060002090601f0160209004810192826133f05760008555613436565b82601f1061340957805160ff1916838001178555613436565b82800160010185558215613436579182015b8281111561343657825182559160200191906001019061341b565b50613442929150613446565b5090565b5b808211156134425760008155600101613447565b8035600160a060020a03811681146109bf57600080fd5b600082601f830112613482578081fd5b813567ffffffffffffffff8082111561349d5761349d613cdb565b604051601f8301601f19908116603f011681019082821181831017156134c5576134c5613cdb565b816040528381528660208588010111156134dd578485fd5b8360208701602083013792830160200193909352509392505050565b803563ffffffff811681146109bf57600080fd5b803560ff811681146109bf57600080fd5b60006020828403121561352f578081fd5b6135388261345b565b9392505050565b60008060408385031215613551578081fd5b61355a8361345b565b91506135686020840161345b565b90509250929050565b600080600060608486031215613585578081fd5b61358e8461345b565b925061359c6020850161345b565b9150604084013590509250925092565b600080604083850312156135be578182fd5b6135c78361345b565b946020939093013593505050565b6000602082840312156135e6578081fd5b813567ffffffffffffffff8111156135fc578182fd5b61360884828501613472565b949350505050565b60008060408385031215613622578182fd5b823567ffffffffffffffff80821115613639578384fd5b61364586838701613472565b9350602085013591508082111561365a578283fd5b5061366785828601613472565b9150509250929050565b600080600080600060a08688031215613688578081fd5b853567ffffffffffffffff81111561369e578182fd5b6136aa88828901613472565b9550506136b9602087016134f9565b93506136c7604087016134f9565b92506136d56060870161350d565b91506136e3608087016134f9565b90509295509295909350565b600060208284031215613700578081fd5b5035919050565b60008060408385031215613719578182fd5b82359150613568602084016134f9565b60006020828403121561373a578081fd5b613538826134f9565b600080600080600060a0868803121561375a578081fd5b613763866134f9565b9450613771602087016134f9565b935061377f604087016134f9565b925061378d6060870161350d565b9150608086013580151581146137a1578182fd5b809150509295509295909350565b600481106137bf576137bf613cc2565b9052565b60008151808452815b818110156137e8576020818501810151868301820152016137cc565b818111156137f95782602083870101525b50601f01601f19169290920160200192915050565b80546000906002810460018083168061382857607f831692505b602080841082141561384b5760e060020a634e487b710286526022600452602486fd5b838852602088018280156138665760018114613877576138a2565b60ff198716825282820197506138a2565b60008981526020902060005b8781101561389c57815484820152908601908401613883565b83019850505b5050505050505092915050565b60006020825261353860208301846137c3565b6020808252818101527f4f776e61626c653a2063616c6c6572206973206e6f7420746865206f776e6572604082015260600190565b60208082526025908201527f4661696c656420746f2077697468647261772066756e647320746f207468652060408201527f646f6e6f72000000000000000000000000000000000000000000000000000000606082015260800190565b600063ffffffff87168252600160a060020a038616602083015260a0604083015261398260a08301866137c3565b828103606084015261399481866137c3565b9150506139a083613cf4565b8260808301529695505050505050565b600063ffffffff86168252600160a060020a0385166020830152836040830152608060608301526139e460808301846137c3565b9695505050505050565b600063ffffffff8516825260606020830152613a0d60608301856137c3565b9050613a1883613cf4565b826040830152949350505050565b600063ffffffff8416825260606020830152613a4560608301846137c3565b828103604093840152600381527f4e657700000000000000000000000000000000000000000000000000000000006020820152919091019392505050565b600063ffffffff8516825260606020830152613a0d606083018561380e565b600063ffffffff8616825260806020830152613ac1608083018661380e565b8281036040840152613ad3818661380e565b915050610f1f60608301846137af565b600061014063ffffffff808e168452808d166020850152816040850152613b0c8285018d6137c3565b92508a60608501528960808501528860a085015280881660c0850152505060ff851660e0830152613b3c84613cf4565b83610100830152613b4c83613cf4565b826101208301529b9a5050505050505050505050565b63ffffffff8a8116825289811660208301528881166040830152878116606083015260808201879052851660a082015260ff841660c082015282151560e08201526101208101613bb66101008301846137af565b9a9950505050505050505050565b60008219821115613bd757613bd7613ca9565b500190565b600063ffffffff808316818516808303821115613bfb57613bfb613ca9565b01949350505050565b600063ffffffff80831681851681830481118215151615613c2757613c27613ca9565b02949350505050565b600082821015613c4257613c42613ca9565b500390565b600281046001821680613c5b57607f821691505b60208210811415613c7f5760e060020a634e487b7102600052602260045260246000fd5b50919050565b600063ffffffff80831681811415613c9f57613c9f613ca9565b6001019392505050565b60e060020a634e487b7102600052601160045260246000fd5b60e060020a634e487b7102600052602160045260246000fd5b60e060020a634e487b7102600052604160045260246000fd5b60038110612d3857612d38613cc256fea2646970667358221220c0c104dacc90ad1f7df39f6f3553188d23bd15f84574d6b51989b4185463269d64736f6c63430008020033",
  "immutableReferences": {},
  "source": "// SPDX-License-Identifier: MIT\npragma solidity ^0.8.2;\n\n/// @title A contract for managing donations and distribution of donated funds\n/// @author Sean Evans Nov 2021\n/// @notice This contract is meant for the Consensys academoy final project\n\nimport \"@openzeppelin/contracts/token/ERC20/ERC20.sol\";\nimport \"@openzeppelin/contracts/access/Ownable.sol\";\nimport \"@openzeppelin/contracts/security/Pausable.sol\";\n\n//contract DonationManager is Initializable, ERC20Upgradeable, PausableUpgradeable, OwnableUpgradeable, ERC20PermitUpgradeable {\ncontract DonationManager is ERC20, Pausable, Ownable {\n\n    enum DonationState      { DonationCreated, Funded, Distributing }\n    enum DonationPurpose    { FoodTokens, Hospital, Disaster }\n    enum DistributorStatus  { New, unTrusted, Trusted }\n    enum DistributionState  { DistributionCreated, FundsRequested, FundsApproved , FundsNOTApproved }\n\n    /// @dev Donor Details\n    /// @notice  AmountDonated is the amount of balance ring fenced to all donations\n    struct Donor {\n       uint32       donorID;\n       address      donorAddress;\n       uint256      amountDonated;\n       string       donorName;\n    }\n\n    /// @dev Organisation responsible for distributing funds to recipients\n    struct  Distributor {\n       uint32       distributorID;\n       address      distributorAddress;\n       string       distributorName;\n       string       distributorCountry;\n       DistributorStatus  distributorStatus;\n    }\n\n    /// @dev Currently one donor per donation but one donor can do many donations\n    /// @notice donationAmount = Funds availalbe to be claimed (must be <= donor's balance)\n    /// @notice donationGrantedAmount = Funds approved to distributions - possibly sent to distributor\n    /// @notice requestedNotGrantedAmount = Funds requested by distributors but not granted (approved) yet - potential claims\n    /// @dev A donation can have multiple distributions\n    struct  Donation {\n       uint32       donationID;\n       uint32       donorID;\n       string       donationName;\n       uint256      donationAmount;\n       uint256      donationGrantedAmount;\n       uint256      requestedNotGrantedAmount;\n       uint32       USDperRecipientPerMonth;\n       uint8        adminFeePercent;\n       DonationState    donationState;\n       DonationPurpose  donationPurpose;\n       uint32[]         distributionIDs;\n    }\n\n    /// @dev distributionAmount = USD per person * recipientCountr * distributionMonths\n    /// @notice Number of recipients with trusted details; New distributors max 1000 recipients or USD 50k\n    /// @notice Number of months to run the distribution; for example New distributors can only run 1 month\n    /// @dev recipientDetailsAreValid is not properly implemented yet: possibly check against IPFS link to unmodifiable list of trusted recipients\n    struct  Distribution {\n       uint32       distributionID;\n       uint32       distributorID;\n       uint32       donationID;\n       uint32       donorID;\n       uint256      distributionAmount;\n       uint32       recipientCount;\n       uint8        distributionMonths;\n       bool         recipientDetailsAreValid;\n       DistributionState  distributionState;\n    }\n\n    /// @dev Donors\n    uint32 public donorCount;\n    mapping (uint32 => Donor )   public allDonors;\n    mapping (address => uint256) internal donorBalances;\n    event LogDonorAdded(address indexed donorAddress, uint32 donorID);\n    event LogDonorDeposit(address indexed donorAddress, uint256 donationAmount);\n    event LogDonorWithdrawal(address indexed donorAddress, uint256 withdrawAmount, uint256 remainingBalance);\n\n    /// @dev Distributors\n    uint32 public distributorCount;\n    mapping (uint32 => Distributor ) public allDistributors;\n    mapping (address => uint256)     internal distributorBalances;\n    event LogDistributorStatus(address indexed distributorAddress, uint32 distributorID,  string distributorName, string distributorStatus);\n    event LogDistributorWithdrawal(address indexed donorAddress, uint256 withdrawAmount, uint256 remainingBalance);\n\n    /// @dev Donations\n    uint32 public donationCount;\n    /// @dev Using arrays rather than mappings where I need to iterate over the contents\n    Donation[] public donations;\n    event LogDonationState(uint32 donationID, string donationName, DonationState);\n\n    /// @dev Disrtibutions\n    uint32 public distributionCount;\n    Distribution[] public distributions;\n    event LogDistributionState(uint32 distributionID, string distributorName, string donationName, DistributionState);\n    event LogDistributionRequest(uint32 distributionID, string distributorName, uint256 donationAmount);\n\n    modifier isDonor() {\n        require(donorBalances[msg.sender] >= 0, \"This function is restricted to donors.\" );\n        _;\n    }\n\n    /// @dev A distributor cannot become a donor\n    modifier onlyDonor() {\n        require(distributorBalances[msg.sender] == 0 , \"cannot be called by distributors.\" );\n        _;\n    }\n\n    /// @dev A donor cannot become a distributor\n    modifier onlyDistributor() {\n        require(donorBalances[msg.sender] == 0 , \"cannot be called by donors.\" );\n        _;\n    }\n\n    modifier isDistributor() {\n        require(distributorBalances[msg.sender] >= 0, \"This function is restricted to distributors.\" );\n        _;\n    }\n\n    /// @dev We can proceed with distributing funds after these checks\n    /// @dev If the distributorStatus is new they cannot request funding for more than 1000 recipients\n    /// @dev The donation must have sufficient funds for the distribution\n    /// @dev The distribution list must be valid (outside the scope of this project)\n    modifier distributionCanProceed(uint32 _distributionID) {\n        require(distributions[_distributionID].distributionAmount >= 0 , \"Distribution cannot proceed - Distribution amount is <= 0\");\n        require(distributions[_distributionID].recipientDetailsAreValid , \"Distribution cannot proceed - Distribution list is invlid\");\n        require(distributions[_distributionID].distributionState == DistributionState.FundsRequested, \"Distribution cannot proceed status is not funds requested\");\n        require(allDistributors[distributions[_distributionID].distributorID].distributorStatus != DistributorStatus.unTrusted, \"Distribution cannot proceed - Distributor untrusted\");\n        require(donations[distributions[_distributionID].donationID].requestedNotGrantedAmount >= distributions[_distributionID].distributionAmount , \"Distribution cannot proceed\");\n        require(donorBalances[msg.sender] >= distributions[_distributionID].distributionAmount , \"Distribution cannot proceed - insufficient funds\");\n        _;\n    }\n\n    modifier distributionsAreUpToDate(uint32 _donorID) {\n        for (uint32 i = 0; i < distributions.length; i++) {\n            require((distributions[i].donorID == _donorID && distributions[i].distributionState  == DistributionState.FundsRequested), \"First Approve or deny open distributions.\");\n        }\n        _;\n    }\n\n    modifier donationIsFunded(uint32 _donationID) {\n        require((donations[_donationID].donationState == DonationState.Funded || donations[_donationID].donationState == DonationState.Distributing),\n        \"Distribution cannot proceed until donation is funded.\");\n        _;\n    }\n\n    constructor() ERC20(\"\", \"\") {\n        donorCount = 0;\n        distributorCount = 0;\n        donationCount = 0;\n        distributionCount = 0;\n    }\n\n    /// @dev Create a new distributor - It connot come from the same address as an exiting distributor\n    function createDonor(string memory _donorName)  public onlyDonor returns( bool ) {\n        allDonors[donorCount] = Donor( {\n            donorID     : donorCount,\n            donorAddress:  payable(msg.sender),\n            amountDonated : 0,\n            donorName   : _donorName\n        });\n        donorBalances[msg.sender] = 0;\n        emit LogDonorAdded(msg.sender, donorCount);\n        donorCount = donorCount + 1;\n        return true;\n    }\n\n    /// @dev Create a new distributor - It connot come from the same address as an exiting donor\n    function createDistributor(string memory _distributorName, string memory _distributorCountry)\n        public onlyDistributor returns ( bool ) {\n        allDistributors[distributorCount] = Distributor( {\n            distributorID   : distributorCount,\n            distributorAddress  : payable(msg.sender),\n            distributorName: _distributorName,\n            distributorCountry: _distributorCountry,\n            distributorStatus: DistributorStatus.New\n        });\n        /// @notice  Set the donation balance to\n        distributorBalances[msg.sender] = 0;\n        emit LogDistributorStatus(msg.sender, distributorCount, _distributorName, \"New\");\n        distributorCount = distributorCount + 1;\n        return true;\n    }\n\n    /// @dev Create a new Donation. It can only be created by donors\n    function createDonation(string memory _donationName, uint32  _donorID,\n        uint32  _USDperRecipientPerMonth, uint8  _adminFeePercent, uint32 _donationPurpose)\n        public isDonor returns ( bool ) {\n        Donation storage d = donations[donationCount];\n        d.donorID                 = _donorID;\n        d.donationName            = _donationName;\n        d.donationAmount          = 0;\n        d.donationGrantedAmount   = 0;\n        d.requestedNotGrantedAmount = 0;\n        d.USDperRecipientPerMonth = _USDperRecipientPerMonth;\n        d.adminFeePercent         = _adminFeePercent;\n        d.donationState           = DonationState.DonationCreated;\n        d.donationPurpose         = DonationPurpose(_donationPurpose);\n\n        /// @notice Add this donation to the donor\n        emit LogDonationState(donationCount, _donationName, DonationState.DonationCreated);\n        donationCount = donationCount + 1;\n        return true;\n    }\n\n    function donorDeposit(uint256 _depositAmount) public isDonor payable {\n        donorBalances[msg.sender] += _depositAmount;\n        (bool sent,) = msg.sender.call{value: _depositAmount}(\"\");\n        require(sent, \"Failed to deposit funds to the donor\");\n        emit LogDonorDeposit(msg.sender, _depositAmount);\n    }\n\n    /// @dev Allow the donor to ring fence funds for a donation. No actual transfer of funds.\n    function makeDonation(uint256 _donationAmount, uint32 _donationID) public isDonor  {\n      require((donorBalances[msg.sender] - allDonors[_donationID].amountDonated) >= _donationAmount, \"Donation amount exceeds donor available balance\");\n      uint32 donorID = donations[_donationID].donorID;\n      allDonors[donorID].amountDonated += _donationAmount;\n      donations[_donationID].donationAmount += _donationAmount;\n      emit LogDonationState(_donationID, donations[_donationID].donationName, DonationState.Funded);\n    }\n\n    /// @dev Get the balances of a specific donation : Used by the distributor to check what funds are available\n    /// @return donatedAmount\n    /// @return grantedAmount Distributed Amount - funds actually sent to distributor\n    /// @return requestedNotGranted Requested amount but not approved\n    function getDonationBalance(uint32 _donationID)\n      public view returns (uint256 donatedAmount, uint256 grantedAmount, uint256 requestedNotGranted) {\n      return (donations[_donationID].donationAmount, donations[_donationID].donationGrantedAmount, donations[_donationID].requestedNotGrantedAmount);\n    }\n\n    /// @dev Get the balances of the donor ; i.e. all summarise all donations made by this donor\n    /// @return donatedAmount  Total Donated Amount\n    /// @return grantedAmount Distributed Amount - funds actually sent to distributor\n    /// @return requestedNotGranted Requested amount but not approved\n    /// @return fundsAvailableToWithdraw Funds available to withdraw\n    function getDonorBalance(uint32 _donorID)  private isDonor view\n        returns (uint256 donatedAmount, uint256 grantedAmount, uint256 requestedNotGranted, uint256 fundsAvailableToWithdraw) {\n      uint256  _donatedAmount = 0;\n      uint256  _grantedAmount = 0;\n      uint256  _requestedNotGranted = 0;\n      for (uint32 i = 0; i < donations.length; i++) {\n            if (donations[i].donorID == _donorID) {\n                _donatedAmount += _donatedAmount;\n                _grantedAmount += _grantedAmount;\n                _requestedNotGranted += _requestedNotGranted;\n            }\n      }\n      return (_donatedAmount,_grantedAmount,_requestedNotGranted,donorBalances[msg.sender] );\n    }\n\n    /// @dev Get the balances of the ddistributor across all distributions\n    function getDistributorBalance() public isDistributor view returns (uint256 availbleToWithdraw) {\n      return (distributorBalances[msg.sender]);\n    }\n\n    /// @dev Create a new distribution - It connot come from an exiting donor\n    /// @notice Requires that The donor list is verified - verification of lists to happen outside on IPFS - not implemented\n    function createDistribution(uint32 _distributorID, uint32 _donationID, uint32 _recipientCount, uint8 _distributionMonths,\n                                bool _recipientDetailsAreValid)\n                                public isDistributor donationIsFunded(_donationID) returns( bool ) {\n\n        uint32  distributionClaim = _recipientCount * _distributionMonths * donations[_donationID].USDperRecipientPerMonth;\n        uint256  availableToClaim  = donations[_donationID].donationAmount -\n                                (donations[_donationID].donationGrantedAmount + donations[_donationID].requestedNotGrantedAmount);\n        require( availableToClaim >= distributionClaim, \"This donation has insufficient funds to distribute.\" );\n        Distribution storage dist = distributions[distributionCount];\n\n            dist.distributorID           = _distributorID;\n            dist.donationID              = _donationID;\n            dist.donorID                 = donations[_donationID].donorID;\n            dist.distributionAmount      = distributionClaim;\n            dist.recipientCount          = _recipientCount;\n            dist.distributionMonths      = _distributionMonths;\n            dist.recipientDetailsAreValid  = _recipientDetailsAreValid;\n            dist.distributionState       = DistributionState.DistributionCreated;\n\n        emit LogDistributionState(distributionCount, allDistributors[_distributorID].distributorName,\n                                  donations[_donationID].donationName, DistributionState.DistributionCreated);\n\n        /// @notice Now make a claim against the Donation\n        donations[_donationID].requestedNotGrantedAmount += distributionClaim;\n        distributions[distributionCount].distributionState = DistributionState.FundsRequested;\n        emit LogDistributionState(distributionCount, allDistributors[_distributorID].distributorName,\n                                  donations[_donationID].donationName, DistributionState.FundsRequested);\n        distributionCount = distributionCount + 1;\n        return true;\n    }\n\n    /// @dev send funds to a Distribution if the conditions are met\n    /// @notice if successful Update the amount granted on the donation and reduce the amount requested\n    function requestDonationFunds(uint32 _distributionID) public payable isDonor distributionCanProceed(_distributionID) {\n      donations[distributions[_distributionID].donationID].donationGrantedAmount += distributions[_distributionID].distributionAmount;\n      donations[distributions[_distributionID].donorID].requestedNotGrantedAmount -= distributions[_distributionID].distributionAmount;\n      distributions[_distributionID].distributionState = DistributionState.FundsApproved;\n      emit LogDistributionState(_distributionID, allDistributors[distributions[_distributionID].distributorID].distributorName,\n                                 donations[distributions[_distributionID].donationID].donationName,\n                                 DistributionState.FundsApproved);\n      emit LogDonationState(distributions[_distributionID].donationID,\n                            donations[distributions[_distributionID].donationID].donationName,\n                            DonationState.Funded);\n      address distAddr = payable(allDistributors[distributions[_distributionID].distributorID].distributorAddress);\n      uint256 distrAmt = distributions[_distributionID].distributionAmount;\n      /// @notice Check that this is actually seding from donor to distributor\n      (bool sent,) = distAddr.call{value: distrAmt}(\"\");\n      require(sent, \"Failed to send funds to the distributor\");\n    }\n\n    // Allow the donor to withdraw funds balance provided there are no distributions that have submitted funding requests\n    function donorWithdrawal(uint256 _withdrawAmount, uint32 _donorID) public payable isDonor distributionsAreUpToDate (_donorID) {\n      require(donorBalances[msg.sender] >= _withdrawAmount, \"Withdrawal request exceeds donor balance\");\n      donorBalances[msg.sender] -= _withdrawAmount;\n      emit LogDonorWithdrawal(msg.sender, _withdrawAmount, donorBalances[msg.sender]);\n      //payable(msg.sender).transfer(_withdrawAmount);\n      (bool sent,) = msg.sender.call{value: _withdrawAmount}(\"\");\n      require(sent, \"Failed to withdraw funds to the donor\");\n    }\n\n    // Allow the distributor to withdraw funds balance\n    function distributorWithdrawal(uint _withdrawAmount) public payable isDistributor  {\n      require(distributorBalances[msg.sender] >= _withdrawAmount, \"Withdrawal request exceeds balance\");\n      distributorBalances[msg.sender] -= _withdrawAmount;\n      emit LogDistributorWithdrawal(msg.sender, _withdrawAmount, distributorBalances[msg.sender]);\n      //payable(msg.sender).transfer(withdrawAmount);\n      (bool sent,) = msg.sender.call{value: _withdrawAmount}(\"\");\n      require(sent, \"Failed to withdraw funds to the donor\");\n    }\n\n/*    function initialize() initializer public {\n        __ERC20_init(\"MyToken\", \"MTK\");\n        __Pausable_init();\n        __Ownable_init();\n        __ERC20Permit_init(\"MyToken\");\n    }\n*/\n    function pause() public onlyOwner {\n        _pause();\n    }\n\n    function unpause() public onlyOwner {\n        _unpause();\n    }\n\n    function _beforeTokenTransfer(address from, address to, uint256 amount)\n        internal\n        whenNotPaused\n        override\n    {\n        super._beforeTokenTransfer(from, to, amount);\n    }\n\n}\n",
  "sourcePath": "/Users/seanevans/Crypto/Course/finalProject/contracts/DonationManager.sol",
  "compiler": {
    "name": "solc",
    "version": "0.8.2+commit.661d1103.Emscripten.clang"
  },
  "schemaVersion": "3.4.3",
  "updatedAt": "2021-10-31T14:28:54.154Z",
  "networkType": "ethereum",
  "devdoc": {
    "kind": "dev",
    "methods": {
      "allowance(address,address)": {
        "details": "See {IERC20-allowance}."
      },
      "approve(address,uint256)": {
        "details": "See {IERC20-approve}. Requirements: - `spender` cannot be the zero address."
      },
      "balanceOf(address)": {
        "details": "See {IERC20-balanceOf}."
      },
      "createDistribution(uint32,uint32,uint32,uint8,bool)": {
        "details": "Create a new distribution - It connot come from an exiting donor"
      },
      "createDistributor(string,string)": {
        "details": "Create a new distributor - It connot come from the same address as an exiting donor"
      },
      "createDonation(string,uint32,uint32,uint8,uint32)": {
        "details": "Create a new Donation. It can only be created by donors"
      },
      "createDonor(string)": {
        "details": "Create a new distributor - It connot come from the same address as an exiting distributor"
      },
      "decimals()": {
        "details": "Returns the number of decimals used to get its user representation. For example, if `decimals` equals `2`, a balance of `505` tokens should be displayed to a user as `5.05` (`505 / 10 ** 2`). Tokens usually opt for a value of 18, imitating the relationship between Ether and Wei. This is the value {ERC20} uses, unless this function is overridden; NOTE: This information is only used for _display_ purposes: it in no way affects any of the arithmetic of the contract, including {IERC20-balanceOf} and {IERC20-transfer}."
      },
      "decreaseAllowance(address,uint256)": {
        "details": "Atomically decreases the allowance granted to `spender` by the caller. This is an alternative to {approve} that can be used as a mitigation for problems described in {IERC20-approve}. Emits an {Approval} event indicating the updated allowance. Requirements: - `spender` cannot be the zero address. - `spender` must have allowance for the caller of at least `subtractedValue`."
      },
      "getDistributorBalance()": {
        "details": "Get the balances of the ddistributor across all distributions"
      },
      "getDonationBalance(uint32)": {
        "details": "Get the balances of a specific donation : Used by the distributor to check what funds are available",
        "returns": {
          "donatedAmount": "donatedAmount",
          "grantedAmount": "Distributed Amount - funds actually sent to distributor",
          "requestedNotGranted": "Requested amount but not approved"
        }
      },
      "increaseAllowance(address,uint256)": {
        "details": "Atomically increases the allowance granted to `spender` by the caller. This is an alternative to {approve} that can be used as a mitigation for problems described in {IERC20-approve}. Emits an {Approval} event indicating the updated allowance. Requirements: - `spender` cannot be the zero address."
      },
      "makeDonation(uint256,uint32)": {
        "details": "Allow the donor to ring fence funds for a donation. No actual transfer of funds."
      },
      "name()": {
        "details": "Returns the name of the token."
      },
      "owner()": {
        "details": "Returns the address of the current owner."
      },
      "paused()": {
        "details": "Returns true if the contract is paused, and false otherwise."
      },
      "renounceOwnership()": {
        "details": "Leaves the contract without owner. It will not be possible to call `onlyOwner` functions anymore. Can only be called by the current owner. NOTE: Renouncing ownership will leave the contract without an owner, thereby removing any functionality that is only available to the owner."
      },
      "requestDonationFunds(uint32)": {
        "details": "send funds to a Distribution if the conditions are met"
      },
      "symbol()": {
        "details": "Returns the symbol of the token, usually a shorter version of the name."
      },
      "totalSupply()": {
        "details": "See {IERC20-totalSupply}."
      },
      "transfer(address,uint256)": {
        "details": "See {IERC20-transfer}. Requirements: - `recipient` cannot be the zero address. - the caller must have a balance of at least `amount`."
      },
      "transferFrom(address,address,uint256)": {
        "details": "See {IERC20-transferFrom}. Emits an {Approval} event indicating the updated allowance. This is not required by the EIP. See the note at the beginning of {ERC20}. Requirements: - `sender` and `recipient` cannot be the zero address. - `sender` must have a balance of at least `amount`. - the caller must have allowance for ``sender``'s tokens of at least `amount`."
      },
      "transferOwnership(address)": {
        "details": "Transfers ownership of the contract to a new account (`newOwner`). Can only be called by the current owner."
      }
    },
    "stateVariables": {
      "distributionCount": {
        "details": "Disrtibutions"
      },
      "distributorCount": {
        "details": "Distributors"
      },
      "donationCount": {
        "details": "Donations"
      },
      "donations": {
        "details": "Using arrays rather than mappings where I need to iterate over the contents"
      },
      "donorCount": {
        "details": "Donors"
      }
    },
    "version": 1
  },
  "userdoc": {
    "kind": "user",
    "methods": {
      "createDistribution(uint32,uint32,uint32,uint8,bool)": {
        "notice": "Requires that The donor list is verified - verification of lists to happen outside on IPFS - not implemented"
      },
      "requestDonationFunds(uint32)": {
        "notice": "if successful Update the amount granted on the donation and reduce the amount requested"
      }
    },
    "version": 1
  }
}